0111010330999992008010100004+70250+019500FM-12+002499999V0201601N006019999999N9999999N1+00031-00441103451ADDMA1999999103141MD1110111+9999REMSYN070AAXX  01001 01033 46/// /1606 10003 21044 30314 40345 51011 333 91111;
0101010330999992008010101004+70250+019500FM-12+002499999V0201601N007019999999N9999999N1+00091-00581103481ADDMA1999999103171MD1310091+9999REMSYN060AAXX  01011 01033 46/// /1607 10009 21058 30317 40348 53009;
0101010330999992008010102004+70250+019500FM-12+002499999V0201601N007019999999N9999999N1+00061-00541103501ADDMA1999999103191MD1110091+9999REMSYN060AAXX  01021 01033 46/// /1607 10006 21054 30319 40350 51009;
0101010330999992008010103004+70250+019500FM-12+002499999V0201601N006019999999N9999999N1+00111-00671103521ADDMA1999999103211MD1110071+9999REMSYN060AAXX  01031 01033 46/// /1606 10011 21067 30321 40352 51007;
0101010330999992008010104004+70250+019500FM-12+002499999V0201501N007019999999N9999999N1+00111-00601103551ADDMA1999999103241MD1310071+9999REMSYN060AAXX  01041 01033 46/// /1507 10011 21060 30324 40355 53007;
0101010330999992008010105004+70250+019500FM-12+002499999V0201501N009019999999N9999999N1+00201-00671103561ADDMA1999999103251MD1110061+9999REMSYN060AAXX  01051 01033 46/// /1509 10020 21067 30325 40356 51006;
0130010330999992008010106004+70250+019500FM-12+002499999V0201501N007019999999N9999999N1+00221-00681103581ADDKA1120N+00031MA1999999103271MD1110061+9999REMSYN076AAXX  01061 01033 46/// /1507 10022 21068 30327 40358 51006 333 20003 91113;
0101010330999992008010107004+70250+019500FM-12+002499999V0201501N007019999999N9999999N1+00141-00551103621ADDMA1999999103311MD1310071+9999REMSYN060AAXX  01071 01033 46/// /1507 10014 21055 30331 40362 53007;
0101010330999992008010108004+70250+019500FM-12+002499999V0201601N008019999999N9999999N1+00141-00541103651ADDMA1999999103341MD1310091+9999REMSYN060AAXX  01081 01033 46/// /1608 10014 21054 30334 40365 53009;
0101010330999992008010109004+70250+019500FM-12+002499999V0201601N008019999999N9999999N1+00191-00571103691ADDMA1999999103381MD1210111+9999REMSYN060AAXX  01091 01033 46/// /1608 10019 21057 30338 40369 52011;
0101010330999992008010110004+70250+019500FM-12+002499999V0201601N007019999999N9999999N1+00251-00951103721ADDMA1999999103411MD1210101+9999REMSYN060AAXX  01101 01033 46/// /1607 10025 21095 30341 40372 52010;
0101010330999992008010111004+70250+019500FM-12+002499999V0201701N005019999999N9999999N1+00231-00881103761ADDMA1999999103451MD1210111+9999REMSYN060AAXX  01111 01033 46/// /1705 10023 21088 30345 40376 52011;
0111010330999992008010112004+70250+019500FM-12+002499999V0201701N007019999999N9999999N1+00181-00581103761ADDMA1999999103451MD1110071+9999REMSYN070AAXX  01121 01033 46/// /1707 10018 21058 30345 40376 51007 333 91112;
0101010330999992008010114004+70250+019500FM-12+002499999V0201501N009019999999N9999999N1+00081-00491103851ADDMA1999999103541MD1310091+9999REMSYN060AAXX  01141 01033 46/// /1509 10008 21049 30354 40385 53009;
0101010330999992008010115004+70250+019500FM-12+002499999V0201501N008019999999N9999999N1+00051-00521103861ADDMA1999999103551MD1110101+9999REMSYN060AAXX  01151 01033 46/// /1508 10005 21052 30355 40386 51010;
0101010330999992008010116004+70250+019500FM-12+002499999V0201701N007019999999N9999999N1+00071-00631103841ADDMA1999999103531MD1010031+9999REMSYN060AAXX  01161 01033 46/// /1707 10007 21063 30353 40384 50003;
0101010330999992008010117004+70250+019500FM-12+002499999V0201401N007019999999N9999999N1+00171-00861103841ADDMA1999999103531MD1810011+9999REMSYN060AAXX  01171 01033 46/// /1407 10017 21086 30353 40384 58001;
0130010330999992008010118004+70250+019500FM-12+002499999V0201601N009019999999N9999999N1+00061-00521103841ADDKA1120M+00261MA1999999103531MD1610021+9999REMSYN076AAXX  01181 01033 46/// /1609 10006 21052 30353 40384 56002 333 10026 91113;
0101010330999992008010119004+70250+019500FM-12+002499999V0201701N006019999999N9999999N1+00091-00691103801ADDMA1999999103481MD1810051+9999REMSYN060AAXX  01191 01033 46/// /1706 10009 21069 30348 40380 58005;
0101010330999992008010120004+70250+019500FM-12+002499999V0201801N006019999999N9999999N1+00111-00871103781ADDMA1999999103471MD1810061+9999REMSYN060AAXX  01201 01033 46/// /1806 10011 21087 30347 40378 58006;
0101010330999992008010121004+70250+019500FM-12+002499999V0201801N003019999999N9999999N1+00121-00811103821ADDMA1999999103511MD1510021+9999REMSYN060AAXX  01211 01033 46/// /1803 10012 21081 30351 40382 55002;
0101010330999992008010122004+70250+019500FM-12+002499999V0201701N005019999999N9999999N1+00111-00651103821ADDMA1999999103511MD1310031+9999REMSYN060AAXX  01221 01033 46/// /1705 10011 21065 30351 40382 53003;
0101010330999992008010123004+70250+019500FM-12+002499999V0201801N003019999999N9999999N1+00091-01031103801ADDMA1999999103491MD1010021+9999REMSYN060AAXX  01231 01033 46/// /1803 10009 21103 30349 40380 50002;
0111010330999992008010200004+70250+019500FM-12+002499999V0201801N006019999999N9999999N1+00121-00591103781ADDMA1999999103471MD1810041+9999REMSYN070AAXX  02001 01033 46/// /1806 10012 21059 30347 40378 58004 333 91112;
0101010330999992008010201004+70250+019500FM-12+002499999V0201601N008019999999N9999999N1+00141-00951103781ADDMA1999999103471MD1610041+9999REMSYN060AAXX  02011 01033 46/// /1608 10014 21095 30347 40378 56004;
0101010330999992008010202004+70250+019500FM-12+002499999V0201601N008019999999N9999999N1+00121-00641103831ADDMA1999999103521MD1310031+9999REMSYN060AAXX  02021 01033 46/// /1608 10012 21064 30352 40383 53003;
0101010330999992008010203004+70250+019500FM-12+002499999V0201401N007019999999N9999999N1+00071-00661103831ADDMA1999999103521MD1210051+9999REMSYN060AAXX  02031 01033 46/// /1407 10007 21066 30352 40383 52005;
0101010330999992008010204004+70250+019500FM-12+002499999V0201601N007019999999N9999999N1+00221-01101103801ADDMA1999999103491MD1010021+9999REMSYN060AAXX  02041 01033 46/// /1607 10022 21110 30349 40380 50002;
0101010330999992008010205004+70250+019500FM-12+002499999V0201501N007019999999N9999999N1+00181-00891103791ADDMA1999999103481MD1810041+9999REMSYN060AAXX  02051 01033 46/// /1507 10018 21089 30348 40379 58004;
0130010330999992008010206004+70250+019500FM-12+002499999V0201501N008019999999N9999999N1+00251-00891103781ADDKA1120N+00061MA1999999103481MD1610041+9999REMSYN076AAXX  02061 01033 46/// /1508 10025 21089 30348 40378 56004 333 20006 91112;
0101010330999992008010207004+70250+019500FM-12+002499999V0201301N008019999999N9999999N1+00301-00931103741ADDMA1999999103431MD1810061+9999REMSYN060AAXX  02071 01033 46/// /1308 10030 21093 30343 40374 58006;
0101010330999992008010208004+70250+019500FM-12+002499999V0201401N010019999999N9999999N1+00331-00921103741ADDMA1999999103441MD1510041+9999REMSYN060AAXX  02081 01033 46/// /1410 10033 21092 30344 40374 55004;
0101010330999992008010209004+70250+019500FM-12+002499999V0201501N007019999999N9999999N1+00331-00721103771ADDMA1999999103461MD1510021+9999REMSYN060AAXX  02091 01033 46/// /1507 10033 21072 30346 40377 55002;
0101010330999992008010210004+70250+019500FM-12+002499999V0201601N008019999999N9999999N1+00301-00721103771ADDMA1999999103461MD1110031+9999REMSYN060AAXX  02101 01033 46/// /1608 10030 21072 30346 40377 51003;
0101010330999992008010211004+70250+019500FM-12+002499999V0201501N007019999999N9999999N1+00241-00501103731ADDMA1999999103421MD1810021+9999REMSYN060AAXX  02111 01033 46/// /1507 10024 21050 30342 40373 58002;
0111010330999992008010212004+70250+019500FM-12+002499999V0201601N009019999999N9999999N1+00261-00521103691ADDMA1999999103391MD1810071+9999REMSYN070AAXX  02121 01033 46/// /1609 10026 21052 30339 40369 58007 333 91115;
0101010330999992008010215004+70250+019500FM-12+002499999V0201501N008019999999N9999999N1+00281-00441103681ADDMA1999999103371MD1510021+9999REMSYN060AAXX  02151 01033 46/// /1508 10028 21044 30337 40368 55002;
0101010330999992008010216004+70250+019500FM-12+002499999V0201801N006019999999N9999999N1+00351-00511103731ADDMA1999999103421MD1310051+9999REMSYN060AAXX  02161 01033 46/// /1806 10035 21051 30342 40373 53005;
0101010330999992008010217004+70250+019500FM-12+002499999V0202001N006019999999N9999999N1+00371-00671103751ADDMA1999999103441MD1210091+9999REMSYN060AAXX  02171 01033 46/// /2006 10037 21067 30344 40375 52009;
0130010330999992008010218004+70250+019500FM-12+002499999V0202101N006019999999N9999999N1+00361-00641103781ADDKA1120M+00381MA1999999103471MD1110101+9999REMSYN076AAXX  02181 01033 46/// /2106 10036 21064 30347 40378 51010 333 10038 91113;
0101010330999992008010219004+70250+019500FM-12+002499999V0201701N006019999999N9999999N1+00301-00571103781ADDMA1999999103481MD1110061+9999REMSYN060AAXX  02191 01033 46/// /1706 10030 21057 30348 40378 51006;
0101010330999992008010220004+70250+019500FM-12+002499999V0201701N006019999999N9999999N1+00301-00621103801ADDMA1999999103491MD1110051+9999REMSYN060AAXX  02201 01033 46/// /1706 10030 21062 30349 40380 51005;
0101010330999992008010221004+70250+019500FM-12+002499999V0201701N009019999999N9999999N1+00281-00601103781ADDMA1999999103471MD1010001+9999REMSYN060AAXX  02211 01033 46/// /1709 10028 21060 30347 40378 50000;
0101010330999992008010222004+70250+019500FM-12+002499999V0201701N009019999999N9999999N1+00291-00571103781ADDMA1999999103471MD1810011+9999REMSYN060AAXX  02221 01033 46/// /1709 10029 21057 30347 40378 58001;
0101010330999992008010223004+70250+019500FM-12+002499999V0201701N009019999999N9999999N1+00291-00551103771ADDMA1999999103471MD1610021+9999REMSYN060AAXX  02231 01033 46/// /1709 10029 21055 30347 40377 56002;
0111010330999992008010300004+70250+019500FM-12+002499999V0201801N008019999999N9999999N1+00301-00501103831ADDMA1999999103521MD1310051+9999REMSYN070AAXX  03001 01033 46/// /1808 10030 21050 30352 40383 53005 333 91114;
0101010330999992008010301004+70250+019500FM-12+002499999V0201801N008019999999N9999999N1+00321-00471103831ADDMA1999999103531MD1310061+9999REMSYN060AAXX  03011 01033 46/// /1808 10032 21047 30353 40383 53006;
0101010330999992008010302004+70250+019500FM-12+002499999V0201901N009019999999N9999999N1+00311-00531103851ADDMA1999999103541MD1110071+9999REMSYN060AAXX  03021 01033 46/// /1909 10031 21053 30354 40385 51007;
0101010330999992008010303004+70250+019500FM-12+002499999V0201801N009019999999N9999999N1+00321-00461103891ADDMA1999999103581MD1310061+9999REMSYN060AAXX  03031 01033 46/// /1809 10032 21046 30358 40389 53006;
0101010330999992008010304004+70250+019500FM-12+002499999V0201801N007019999999N9999999N1+00321-00441103931ADDMA1999999103621MD1310091+9999REMSYN060AAXX  03041 01033 46/// /1807 10032 21044 30362 40393 53009;
0101010330999992008010305004+70250+019500FM-12+002499999V0201801N006019999999N9999999N1+00301-00391103941ADDMA1999999103641MD1110101+9999REMSYN060AAXX  03051 01033 46/// /1806 10030 21039 30364 40394 51010;
0130010330999992008010306004+70250+019500FM-12+002499999V0201801N007019999999N9999999N1+00281-00461103961ADDKA1120N+00251MA1999999103651MD1110071+9999REMSYN076AAXX  03061 01033 46/// /1807 10028 21046 30365 40396 51007 333 20025 91115;
0101010330999992008010307004+70250+019500FM-12+002499999V0201801N008019999999N9999999N1+00301-00361103941ADDMA1999999103631MD1010011+9999REMSYN060AAXX  03071 01033 46/// /1808 10030 21036 30363 40394 50001;
0101010330999992008010308004+70250+019500FM-12+002499999V0201701N007019999999N9999999N1+00251-00461103981ADDMA1999999103671MD1310031+9999REMSYN060AAXX  03081 01033 46/// /1707 10025 21046 30367 40398 53003;
0101010330999992008010309004+70250+019500FM-12+002499999V0201701N006019999999N9999999N1+00271-00331104021ADDMA1999999103721MD1310071+9999REMSYN060AAXX  03091 01033 46/// /1706 10027 21033 30372 40402 53007;
0101010330999992008010310004+70250+019500FM-12+002499999V0201901N007019999999N9999999N1+00291-00381104041ADDMA1999999103731MD1110101+9999REMSYN060AAXX  03101 01033 46/// /1907 10029 21038 30373 40404 51010;
0101010330999992008010311004+70250+019500FM-12+002499999V0202001N008019999999N9999999N1+00281-00361104031ADDMA1999999103721MD1010051+9999REMSYN060AAXX  03111 01033 46/// /2008 10028 21036 30372 40403 50005;
0111010330999992008010312004+70250+019500FM-12+002499999V0202001N008019999999N9999999N1+00271-00391104021ADDMA1999999103711MD1810011+9999REMSYN070AAXX  03121 01033 46/// /2008 10027 21039 30371 40402 58001 333 91113;
0101010330999992008010313004+70250+019500FM-12+002499999V0202001N006019999999N9999999N1+00241-00381104031ADDMA1999999103721MD1510011+9999REMSYN060AAXX  03131 01033 46/// /2006 10024 21038 30372 40403 55001;
0101010330999992008010314004+70250+019500FM-12+002499999V0201701N005019999999N9999999N1+00231-00361104011ADDMA1999999103701MD1810021+9999REMSYN060AAXX  03141 01033 46/// /1705 10023 21036 30370 40401 58002;
0101010330999992008010315004+70250+019500FM-12+002499999V0201501N006019999999N9999999N1+00211-00391103981ADDMA1999999103681MD1810031+9999REMSYN060AAXX  03151 01033 46/// /1506 10021 21039 30368 40398 58003;
0101010330999992008010316004+70250+019500FM-12+002499999V0201601N007019999999N9999999N1+00181-00371104011ADDMA1999999103701MD1510021+9999REMSYN060AAXX  03161 01033 46/// /1607 10018 21037 30370 40401 55002;
0101010330999992008010317004+70250+019500FM-12+002499999V0201801N004019999999N9999999N1+00161-00371104011ADDMA1999999103701MD1510001+9999REMSYN060AAXX  03171 01033 46/// /1804 10016 21037 30370 40401 55000;
0130010330999992008010318004+70250+019500FM-12+002499999V0201801N006019999999N9999999N1+00111-00401103961ADDKA1120M+00311MA1999999103651MD1810031+9999REMSYN076AAXX  03181 01033 46/// /1806 10011 21040 30365 40396 58003 333 10031 91111;
0101010330999992008010319004+70250+019500FM-12+002499999V0201601N007019999999N9999999N1+00081-00341103941ADDMA1999999103631MD1810071+9999REMSYN060AAXX  03191 01033 46/// /1607 10008 21034 30363 40394 58007;
0101010330999992008010320004+70250+019500FM-12+002499999V0201401N007019999999N9999999N1+00041-00401103951ADDMA1999999103631MD1610071+9999REMSYN060AAXX  03201 01033 46/// /1407 10004 21040 30363 40395 56007;
0101010330999992008010321004+70250+019500FM-12+002499999V0201701N008019999999N9999999N1+00031-00381103951ADDMA1999999103641MD1510011+9999REMSYN060AAXX  03211 01033 46/// /1708 10003 21038 30364 40395 55001;
0101010330999992008010322004+70250+019500FM-12+002499999V0201801N006019999999N9999999N1+00041-00371103931ADDMA1999999103621MD1810011+9999REMSYN060AAXX  03221 01033 46/// /1806 10004 21037 30362 40393 58001;
0101010330999992008010323004+70250+019500FM-12+002499999V0201801N005019999999N9999999N1+00061-00401103951ADDMA1999999103641MD1310011+9999REMSYN060AAXX  03231 01033 46/// /1805 10006 21040 30364 40395 53001;
0111010330999992008010400004+70250+019500FM-12+002499999V0201901N005019999999N9999999N1+00061-00421103971ADDMA1999999103661MD1310021+9999REMSYN070AAXX  04001 01033 46/// /1905 10006 21042 30366 40397 53002 333 91111;
0101010330999992008010401004+70250+019500FM-12+002499999V0201801N004019999999N9999999N1+00051-00521103921ADDMA1999999103611MD1810011+9999REMSYN060AAXX  04011 01033 46/// /1804 10005 21052 30361 40392 58001;
0101010330999992008010402004+70250+019500FM-12+002499999V0201901N003019999999N9999999N1+00051-00621103871ADDMA1999999103561MD1810081+9999REMSYN060AAXX  04021 01033 46/// /1903 10005 21062 30356 40387 58008;
0101010330999992008010403004+70250+019500FM-12+002499999V0201401N001019999999N9999999N1-00021-00861103831ADDMA1999999103511MD1710151+9999REMSYN060AAXX  04031 01033 46/// /1401 11002 21086 30351 40383 57015;
0101010330999992008010404004+70250+019500FM-12+002499999V0201701N005019999999N9999999N1-00021-00621103791ADDMA1999999103481MD1610131+9999REMSYN060AAXX  04041 01033 46/// /1705 11002 21062 30348 40379 56013;
0101010330999992008010405004+70250+019500FM-12+002499999V0201701N004019999999N9999999N1-00041-00541103711ADDMA1999999103391MD1810171+9999REMSYN060AAXX  04051 01033 46/// /1704 11004 21054 30339 40371 58017;
0130010330999992008010406004+70250+019500FM-12+002499999V0201801N006019999999N9999999N1-00061-00431103641ADDKA1120N-00071MA1999999103331MD1810181+9999REMSYN076AAXX  04061 01033 46/// /1806 11006 21043 30333 40364 58018 333 21007 91109;
0101010330999992008010407004+70250+019500FM-12+002499999V0201701N006019999999N9999999N1-00081-00501103601ADDMA1999999103291MD1610191+9999REMSYN060AAXX  04071 01033 46/// /1706 11008 21050 30329 40360 56019;
0101010330999992008010408004+70250+019500FM-12+002499999V0201801N006019999999N9999999N1-00081-00551103581ADDMA1999999103271MD1610121+9999REMSYN060AAXX  04081 01033 46/// /1806 11008 21055 30327 40358 56012;
0101010330999992008010409004+70250+019500FM-12+002499999V0201801N006019999999N9999999N1-00071-00661103601ADDMA1999999103291MD1510041+9999REMSYN060AAXX  04091 01033 46/// /1806 11007 21066 30329 40360 55004;
0101010330999992008010410004+70250+019500FM-12+002499999V0201901N004019999999N9999999N1+00021-00881103571ADDMA1999999103261MD1810031+9999REMSYN060AAXX  04101 01033 46/// /1904 10002 21088 30326 40357 58003;
0101010330999992008010411004+70250+019500FM-12+002499999V0201601N008019999999N9999999N1-00041-00541103531ADDMA1999999103221MD1810051+9999REMSYN060AAXX  04111 01033 46/// /1608 11004 21054 30322 40353 58005;
0111010330999992008010412004+70250+019500FM-12+002499999V0201701N007019999999N9999999N1-00021-00571103441ADDMA1999999103131MD1810161+9999REMSYN070AAXX  04121 01033 46/// /1707 11002 21057 30313 40344 58016 333 91111;
0101010330999992008010413004+70250+019500FM-12+002499999V0201701N003019999999N9999999N1-00031-00571103401ADDMA1999999103091MD1710171+9999REMSYN060AAXX  04131 01033 46/// /1703 11003 21057 30309 40340 57017;
0101010330999992008010414004+70250+019500FM-12+002499999V0201601N005019999999N9999999N1+00001-00671103341ADDMA1999999103031MD1610191+9999REMSYN060AAXX  04141 01033 46/// /1605 10000 21067 30303 40334 56019;
0101010330999992008010415004+70250+019500FM-12+002499999V0201701N005019999999N9999999N1+00021-00571103271ADDMA1999999102961MD1810171+9999REMSYN060AAXX  04151 01033 46/// /1705 10002 21057 30296 40327 58017;
0101010330999992008010416004+70250+019500FM-12+002499999V0201901N002019999999N9999999N1+00031-00721103241ADDMA1999999102931MD1610161+9999REMSYN060AAXX  04161 01033 46/// /1902 10003 21072 30293 40324 56016;
0101010330999992008010417004+70250+019500FM-12+002499999V0201701N006019999999N9999999N1+00101-00891103141ADDMA1999999102831MD1810201+9999REMSYN060AAXX  04171 01033 46/// /1706 10010 21089 30283 40314 58020;
0130010330999992008010418004+70250+019500FM-12+002499999V0201601N008019999999N9999999N1+00151-00821103071ADDKA1120M+00151MA1999999102761MD1810201+9999REMSYN076AAXX  04181 01033 46/// /1608 10015 21082 30276 40307 58020 333 10015 91111;
0101010330999992008010419004+70250+019500FM-12+002499999V0201601N008019999999N9999999N1+00151-00911102951ADDMA1999999102651MD1810281+9999REMSYN060AAXX  04191 01033 46/// /1608 10015 21091 30265 40295 58028;
0101010330999992008010420004+70250+019500FM-12+002499999V0201601N009019999999N9999999N1+00111-00851102871ADDMA1999999102571MD1810261+9999REMSYN060AAXX  04201 01033 46/// /1609 10011 21085 30257 40287 58026;
0101010330999992008010421004+70250+019500FM-12+002499999V0201501N009019999999N9999999N1+00141-01001102801ADDMA1999999102491MD1610271+9999REMSYN060AAXX  04211 01033 46/// /1509 10014 21100 30249 40280 56027;
0101010330999992008010422004+70250+019500FM-12+002499999V0201601N006019999999N9999999N1+00081-00871102791ADDMA1999999102481MD1610171+9999REMSYN060AAXX  04221 01033 46/// /1606 10008 21087 30248 40279 56017;
0101010330999992008010423004+70250+019500FM-12+002499999V0201501N006019999999N9999999N1+00081-00751102751ADDMA1999999102441MD1610131+9999REMSYN060AAXX  04231 01033 46/// /1506 10008 21075 30244 40275 56013;
0111010330999992008010500004+70250+019500FM-12+002499999V0201601N006019999999N9999999N1+00111-00751102721ADDMA1999999102411MD1810081+9999REMSYN070AAXX  05001 01033 46/// /1606 10011 21075 30241 40272 58008 333 91113;
0101010330999992008010501004+70250+019500FM-12+002499999V0201801N006019999999N9999999N1+00171-01371102641ADDMA1999999102341MD1810141+9999REMSYN060AAXX  05011 01033 46/// /1806 10017 21137 30234 40264 58014;
0101010330999992008010502004+70250+019500FM-12+002499999V0201301N005019999999N9999999N1+00241-01161102581ADDMA1999999102281MD1810161+9999REMSYN060AAXX  05021 01033 46/// /1305 10024 21116 30228 40258 58016;
0101010330999992008010503004+70250+019500FM-12+002499999V0201301N007019999999N9999999N1+00301-01261102521ADDMA1999999102221MD1610191+9999REMSYN060AAXX  05031 01033 46/// /1307 10030 21126 30222 40252 56019;
0101010330999992008010504004+70250+019500FM-12+002499999V0201501N008019999999N9999999N1+00241-00891102451ADDMA1999999102141MD1810201+9999REMSYN060AAXX  05041 01033 46/// /1508 10024 21089 30214 40245 58020;
0101010330999992008010505004+70250+019500FM-12+002499999V0201601N009019999999N9999999N1+00251-01111102311ADDMA1999999102011MD1810271+9999REMSYN060AAXX  05051 01033 46/// /1609 10025 21111 30201 40231 58027;
0130010330999992008010506004+70250+019500FM-12+002499999V0201501N008019999999N9999999N1+00221-00841102231ADDKA1120N+00061MA1999999101921MD1810301+9999REMSYN076AAXX  05061 01033 46/// /1508 10022 21084 30192 40223 58030 333 20006 91113;
0101010330999992008010507004+70250+019500FM-12+002499999V0201501N013019999999N9999999N1+00201-00821102071ADDMA1999999101771MD1810371+9999REMSYN060AAXX  05071 01033 46/// /1513 10020 21082 30177 40207 58037;
0101010330999992008010508004+70250+019500FM-12+002499999V0201601N013019999999N9999999N1+00221-01021102011ADDMA1999999101711MD1610301+9999REMSYN060AAXX  05081 01033 46/// /1613 10022 21102 30171 40201 56030;
0101010330999992008010509004+70250+019500FM-12+002499999V0201501N014019999999N9999999N1+00181-01021102011ADDMA1999999101711MD1610211+9999REMSYN060AAXX  05091 01033 46/// /1514 10018 21102 30171 40201 56021;
0101010330999992008010510004+70250+019500FM-12+002499999V0201501N015019999999N9999999N1+00121-01011101881ADDMA1999999101571MD1810201+9999REMSYN060AAXX  05101 01033 46/// /1515 10012 21101 30157 40188 58020;
0101010330999992008010511004+70250+019500FM-12+002499999V0201901N008019999999N9999999N1+00121-01091101871ADDMA1999999101561MD1810151+9999REMSYN060AAXX  05111 01033 46/// /1908 10012 21109 30156 40187 58015;
0111010330999992008010512004+70250+019500FM-12+002499999V0201901N005019999999N9999999N1+00031-01081101861ADDMA1999999101551MD1610161+9999REMSYN070AAXX  05121 01033 46/// /1905 10003 21108 30155 40186 56016 333 91119;
0101010330999992008010513004+70250+019500FM-12+002499999V0201501N007019999999N9999999N1-00051-00881101831ADDMA1999999101531MD1810041+9999REMSYN060AAXX  05131 01033 46/// /1507 11005 21088 30153 40183 58004;
0101010330999992008010514004+70250+019500FM-12+002499999V0202001N005019999999N9999999N1-00071-01061101861ADDMA1999999101551MD1510011+9999REMSYN060AAXX  05141 01033 46/// /2005 11007 21106 30155 40186 55001;
0101010330999992008010515004+70250+019500FM-12+002499999V0201501N008019999999N9999999N1-00151-00861101821ADDMA1999999101511MD1810041+9999REMSYN060AAXX  05151 01033 46/// /1508 11015 21086 30151 40182 58004;
0101010330999992008010516004+70250+019500FM-12+002499999V0201501N006019999999N9999999N1-00151-00821101761ADDMA1999999101461MD1810071+9999REMSYN060AAXX  05161 01033 46/// /1506 11015 21082 30146 40176 58007;
0101010330999992008010517004+70250+019500FM-12+002499999V0201501N007019999999N9999999N1-00141-00801101711ADDMA1999999101401MD1810151+9999REMSYN060AAXX  05171 01033 46/// /1507 11014 21080 30140 40171 58015;
0130010330999992008010518004+70250+019500FM-12+002499999V0201501N006019999999N9999999N1-00171-00791101621ADDKA1120M+00251MA1999999101311MD1810201+9999REMSYN076AAXX  05181 01033 46/// /1506 11017 21079 30131 40162 58020 333 10025 91110;
0101010330999992008010519004+70250+019500FM-12+002499999V0201501N008019999999N9999999N1-00141-00921101531ADDMA1999999101221MD1810241+9999REMSYN060AAXX  05191 01033 46/// /1508 11014 21092 30122 40153 58024;
0101010330999992008010520004+70250+019500FM-12+002499999V0201501N008019999999N9999999N1-00101-00851101451ADDMA1999999101151MD1610251+9999REMSYN060AAXX  05201 01033 46/// /1508 11010 21085 30115 40145 56025;
0101010330999992008010521004+70250+019500FM-12+002499999V0200801N003019999999N9999999N1-00111-01061101411ADDMA1999999101101MD1610211+9999REMSYN060AAXX  05211 01033 46/// /0803 11011 21106 30110 40141 56021;
0101010330999992008010522004+70250+019500FM-12+002499999V0200401N005019999999N9999999N1-00101-01081101281ADDMA1999999100971MD1810251+9999REMSYN060AAXX  05221 01033 46/// /0405 11010 21108 30097 40128 58025;
0101010330999992008010523004+70250+019500FM-12+002499999V0201601N004019999999N9999999N1-00071-00881101241ADDMA1999999100931MD1610221+9999REMSYN060AAXX  05231 01033 46/// /1604 11007 21088 30093 40124 56022;
0111010330999992008010600004+70250+019500FM-12+002499999V0201501N007019999999N9999999N1-00031-00931101161ADDMA1999999100851MD1610251+9999REMSYN070AAXX  06001 01033 46/// /1507 11003 21093 30085 40116 56025 333 91113;
0101010330999992008010601004+70250+019500FM-12+002499999V0201701N005019999999N9999999N1+00011-00931101131ADDMA1999999100821MD1610151+9999REMSYN060AAXX  06011 01033 46/// /1705 10001 21093 30082 40113 56015;
0101010330999992008010602004+70250+019500FM-12+002499999V0201601N007019999999N9999999N1+00001-00611101061ADDMA1999999100761MD1610171+9999REMSYN060AAXX  06021 01033 46/// /1607 10000 21061 30076 40106 56017;
0101010330999992008010603004+70250+019500FM-12+002499999V0201501N005019999999N9999999N1-00051-00621101051ADDMA1999999100751MD1610101+9999REMSYN060AAXX  06031 01033 46/// /1505 11005 21062 30075 40105 56010;
0101010330999992008010604004+70250+019500FM-12+002499999V0201601N007019999999N9999999N1-00011-00621100971ADDMA1999999100671MD1810151+9999REMSYN060AAXX  06041 01033 46/// /1607 11001 21062 30067 40097 58015;
0101010330999992008010605004+70250+019500FM-12+002499999V0201601N007019999999N9999999N1+00041-00711100941ADDMA1999999100641MD1810121+9999REMSYN060AAXX  06051 01033 46/// /1607 10004 21071 30064 40094 58012;
0130010330999992008010606004+70250+019500FM-12+002499999V0201601N005019999999N9999999N1+00021-00611100941ADDKA1120N-00171MA1999999100631MD1610121+9999REMSYN076AAXX  06061 01033 46/// /1605 10002 21061 30063 40094 56012 333 21017 91112;
0101010330999992008010607004+70250+019500FM-12+002499999V0201601N006019999999N9999999N1+00041-00571100591ADDMA1999999100591MD1810081+9999REMSYN060AAXX  06071 01033 46/// /1606 10004 21057 30059 40059 58008;
0101010330999992008010608004+70250+019500FM-12+002499999V0201201N001019999999N9999999N1+00041-00731100891ADDMA1999999100591MD1610051+9999REMSYN060AAXX  06081 01033 46/// /1201 10004 21073 30059 40089 56005;
0101010330999992008010609004+70250+019500FM-12+002499999V0201601N005019999999N9999999N1+00061-00481100891ADDMA1999999100591MD1610041+9999REMSYN060AAXX  06091 01033 46/// /1605 10006 21048 30059 40089 56004;
0101010330999992008010610004+70250+019500FM-12+002499999V0201901N002019999999N9999999N1+00081-00571100881ADDMA1999999100571MD1810021+9999REMSYN060AAXX  06101 01033 46/// /1902 10008 21057 30057 40088 58002;
0101010330999992008010611004+70250+019500FM-12+002499999V0202401N002019999999N9999999N1+00081-00621100821ADDMA1999999100521MD1810071+9999REMSYN060AAXX  06111 01033 46/// /2402 10008 21062 30052 40082 58007;
0111010330999992008010612004+70250+019500FM-12+002499999V0201701N005019999999N9999999N1+00121-00491100771ADDMA1999999100471MD1810121+9999REMSYN070AAXX  06121 01033 46/// /1705 10012 21049 30047 40077 58012 333 91110;
0101010330999992008010613004+70250+019500FM-12+002499999V0201701N005019999999N9999999N1+00131-00511100771ADDMA1999999100471MD1610101+9999REMSYN060AAXX  06131 01033 46/// /1705 10013 21051 30047 40077 56010;
0101010330999992008010614004+70250+019500FM-12+002499999V0201701N007019999999N9999999N1+00161-00441100741ADDMA1999999100441MD1610081+9999REMSYN060AAXX  06141 01033 46/// /1707 10016 21044 30044 40074 56008;
0101010330999992008010615004+70250+019500FM-12+002499999V0201601N008019999999N9999999N1+00161-00521100721ADDMA1999999100421MD1810051+9999REMSYN060AAXX  06151 01033 46/// /1608 10016 21052 30042 40072 58005;
0101010330999992008010616004+70250+019500FM-12+002499999V0201601N011019999999N9999999N1+00171-00561100681ADDMA1999999100381MD1810091+9999REMSYN060AAXX  06161 01033 46/// /1611 10017 21056 30038 40068 58009;
0101010330999992008010617004+70250+019500FM-12+002499999V0201701N009019999999N9999999N1+00181-00501100641ADDMA1999999100341MD1810101+9999REMSYN060AAXX  06171 01033 46/// /1709 10018 21050 30034 40064 58010;
0130010330999992008010618004+70250+019500FM-12+002499999V0201601N009019999999N9999999N1+00181-00511100631ADDKA1120M+00201MA1999999100331MD1610091+9999REMSYN076AAXX  06181 01033 46/// /1609 10018 21051 30033 40063 56009 333 10020 91113;
0101010330999992008010619004+70250+019500FM-12+002499999V0201701N009019999999N9999999N1+00151-00401100601ADDMA1999999100301MD1610081+9999REMSYN060AAXX  06191 01033 46/// /1709 10015 21040 30030 40060 56008;
0101010330999992008010620004+70250+019500FM-12+002499999V0201601N009019999999N9999999N1+00171-00501100601ADDMA1999999100301MD1610041+9999REMSYN060AAXX  06201 01033 46/// /1609 10017 21050 30030 40060 56004;
0101010330999992008010621004+70250+019500FM-12+002499999V0201501N009019999999N9999999N1+00191-00531100571ADDMA1999999100271MD1710061+9999REMSYN060AAXX  06211 01033 46/// /1509 10019 21053 30027 40057 57006;
0101010330999992008010622004+70250+019500FM-12+002499999V0201601N007019999999N9999999N1+00211-00501100551ADDMA1999999100251MD1810051+9999REMSYN060AAXX  06221 01033 46/// /1607 10021 21050 30025 40055 58005;
0101010330999992008010623004+70250+019500FM-12+002499999V0201701N005019999999N9999999N1+00241-00481100511ADDMA1999999100211MD1810091+9999REMSYN060AAXX  06231 01033 46/// /1705 10024 21048 30021 40051 58009;
0111010330999992008010700004+70250+019500FM-12+002499999V0201501N004019999999N9999999N1+00271-00641100471ADDMA1999999100181MD1810091+9999REMSYN070AAXX  07001 01033 46/// /1504 10027 21064 30018 40047 58009 333 91113;
0101010330999992008010701004+70250+019500FM-12+002499999V0201601N004019999999N9999999N1+00281-00531100431ADDMA1999999100131MD1810121+9999REMSYN060AAXX  07011 01033 46/// /1604 10028 21053 30013 40043 58012;
0101010330999992008010702004+70250+019500FM-12+002499999V0201701N004019999999N9999999N1+00241-00651100351ADDMA1999999100051MD1810161+9999REMSYN060AAXX  07021 01033 46/// /1704 10024 21065 30005 40035 58016;
0101010330999992008010703004+70250+019500FM-12+002499999V0201501N004019999999N9999999N1+00291-00931100311ADDMA1999999100011MD1610171+9999REMSYN060AAXX  07031 01033 46/// /1504 10029 21093 30001 40031 56017;
0101010330999992008010704004+70250+019500FM-12+002499999V0201701N003019999999N9999999N1+00251-00681100291ADDMA1999999099991MD1610141+9999REMSYN060AAXX  07041 01033 46/// /1703 10025 21068 39999 40029 56014;
0101010330999992008010705004+70250+019500FM-12+002499999V0201601N006019999999N9999999N1+00251-00641100271ADDMA1999999099971MD1610081+9999REMSYN060AAXX  07051 01033 46/// /1606 10025 21064 39997 40027 56008;
0130010330999992008010706004+70250+019500FM-12+002499999V0202101N006019999999N9999999N1+00211-00511100331ADDKA1120N+00141MA1999999100031MD1310021+9999REMSYN076AAXX  07061 01033 46/// /2106 10021 21051 30003 40033 53002 333 20014 91109;
0101010330999992008010707004+70250+019500FM-12+002499999V0201701N005019999999N9999999N1+00131-00501100341ADDMA1999999100041MD1310051+9999REMSYN060AAXX  07071 01033 46/// /1705 10013 21050 30004 40034 53005;
0101010330999992008010708004+70250+019500FM-12+002499999V0201501N005019999999N9999999N1+00121-00641100381ADDMA1999999100081MD1110111+9999REMSYN060AAXX  07081 01033 46/// /1505 10012 21064 30008 40038 51011;
0101010330999992008010709004+70250+019500FM-12+002499999V0201501N007019999999N9999999N1+00111-00581100391ADDMA1999999100091MD1210061+9999REMSYN060AAXX  07091 01033 46/// /1507 10011 21058 30009 40039 52006;
0101010330999992008010710004+70250+019500FM-12+002499999V0201701N005019999999N9999999N1+00131-00611100391ADDMA1999999100091MD1110051+9999REMSYN060AAXX  07101 01033 46/// /1705 10013 21061 30009 40039 51005;
0101010330999992008010711004+70250+019500FM-12+002499999V0202001N002019999999N9999999N1+00141-00571100361ADDMA1999999100061MD1810021+9999REMSYN060AAXX  07111 01033 46/// /2002 10014 21057 30006 40036 58002;
0111010330999992008010712004+70250+019500FM-12+002499999V0201501N006019999999N9999999N1+00111-00471100371ADDMA1999999100071MD1510021+9999REMSYN070AAXX  07121 01033 46/// /1506 10011 21047 30007 40037 55002 333 91110;
0101010330999992008010713004+70250+019500FM-12+002499999V0201601N005019999999N9999999N1+00071-00511100351ADDMA1999999100051MD1610041+9999REMSYN060AAXX  07131 01033 46/// /1605 10007 21051 30005 40035 56004;
0101010330999992008010714004+70250+019500FM-12+002499999V0201601N005019999999N9999999N1+00111-00511100361ADDMA1999999100061MD1410001+9999REMSYN060AAXX  07141 01033 46/// /1605 10011 21051 30006 40036 54000;
0101010330999992008010715004+70250+019500FM-12+002499999V0202001N004019999999N9999999N1+00111-00571100371ADDMA1999999100071MD1510001+9999REMSYN060AAXX  07151 01033 46/// /2004 10011 21057 30007 40037 55000;
0101010330999992008010716004+70250+019500FM-12+002499999V0202101N005019999999N9999999N1+00091-00451100391ADDMA1999999100091MD1310041+9999REMSYN060AAXX  07161 01033 46/// /2105 10009 21045 30009 40039 53004;
0101010330999992008010717004+70250+019500FM-12+002499999V0202001N003019999999N9999999N1+00051-00431100401ADDMA1999999100091MD1110031+9999REMSYN060AAXX  07171 01033 46/// /2003 10005 21043 30009 40040 51003;
0130010330999992008010718004+70250+019500FM-12+002499999V0202201N004019999999N9999999N1+00051-00451100421ADDKA1120M+00201MA1999999100121MD1310051+9999REMSYN076AAXX  07181 01033 46/// /2204 10005 21045 30012 40042 53005 333 10020 91109;
0101010330999992008010719004+70250+019500FM-12+002499999V0201801N004019999999N9999999N1+00051-00391100441ADDMA1999999100141MD1310051+9999REMSYN060AAXX  07191 01033 46/// /1804 10005 21039 30014 40044 53005;
0101010330999992008010720004+70250+019500FM-12+002499999V0201501N005019999999N9999999N1+00001-00331100431ADDMA1999999100131MD1010041+9999REMSYN060AAXX  07201 01033 46/// /1505 10000 21033 30013 40043 50004;
0101010330999992008010721004+70250+019500FM-12+002499999V0201401N006019999999N9999999N1-00031-00431100401ADDMA1999999100101MD1810021+9999REMSYN060AAXX  07211 01033 46/// /1406 11003 21043 30010 40040 58002;
0101010330999992008010722004+70250+019500FM-12+002499999V0201501N006019999999N9999999N1-00051-00441100411ADDMA1999999100111MD1510031+9999REMSYN060AAXX  07221 01033 46/// /1506 11005 21044 30011 40041 55003;
0101010330999992008010723004+70250+019500FM-12+002499999V0201501N008019999999N9999999N1-00061-00371100411ADDMA1999999100111MD1610021+9999REMSYN060AAXX  07231 01033 46/// /1508 11006 21037 30011 40041 56002;
0111010330999992008010800004+70250+019500FM-12+002499999V0201701N005019999999N9999999N1-00031-00321100411ADDMA1999999100111MD1110011+9999REMSYN070AAXX  08001 01033 46/// /1705 11003 21032 30011 40041 51001 333 91110;
0101010330999992008010801004+70250+019500FM-12+002499999V0201701N004019999999N9999999N1-00011-00361100431ADDMA1999999100131MD1310021+9999REMSYN060AAXX  08011 01033 46/// /1704 11001 21036 30013 40043 53002;
0101010330999992008010802004+70250+019500FM-12+002499999V0201401N005019999999N9999999N1+00001-00351100411ADDMA1999999100111MD1010001+9999REMSYN060AAXX  08021 01033 46/// /1405 10000 21035 30011 40041 50000;
0101010330999992008010803004+70250+019500FM-12+002499999V0201601N006019999999N9999999N1+00011-00321100401ADDMA1999999100101MD1810011+9999REMSYN060AAXX  08031 01033 46/// /1606 10001 21032 30010 40040 58001;
0101010330999992008010804004+70250+019500FM-12+002499999V0201701N005019999999N9999999N1+00051-00321100381ADDMA1999999100081MD1710051+9999REMSYN060AAXX  08041 01033 46/// /1705 10005 21032 30008 40038 57005;
0101010330999992008010805004+70250+019500FM-12+002499999V0201701N005019999999N9999999N1+00061-00271100371ADDMA1999999100071MD1710041+9999REMSYN060AAXX  08051 01033 46/// /1705 10006 21027 30007 40037 57004;
0130010330999992008010806004+70250+019500FM-12+002499999V0201701N007019999999N9999999N1+00091-00231100361ADDKA1120N-00071MA1999999100061MD1610041+9999REMSYN076AAXX  08061 01033 46/// /1707 10009 21023 30006 40036 56004 333 21007 91109;
0101010330999992008010807004+70250+019500FM-12+002499999V0201601N007019999999N9999999N1+00091-00151100351ADDMA1999999100051MD1710031+9999REMSYN060AAXX  08071 01033 46/// /1607 10009 21015 30005 40035 57003;
0101010330999992008010808004+70250+019500FM-12+002499999V0201701N006019999999N9999999N1+00101-00121100381ADDMA1999999100081MD1310011+9999REMSYN060AAXX  08081 01033 46/// /1706 10010 21012 30008 40038 53001;
0101010330999992008010809004+70250+019500FM-12+002499999V0201401N006019999999N9999999N1+00111-00081100411ADDMA1999999100111MD1310051+9999REMSYN060AAXX  08091 01033 46/// /1406 10011 21008 30011 40041 53005;
0101010330999992008010810004+70250+019500FM-12+002499999V0201601N006019999999N9999999N1+00111-00071100431ADDMA1999999100131MD1110081+9999REMSYN060AAXX  08101 01033 46/// /1606 10011 21007 30013 40043 51008;
0101010330999992008010811004+70250+019500FM-12+002499999V0201601N007019999999N9999999N1+00121-00071100421ADDMA1999999100121MD1010041+9999REMSYN060AAXX  08111 01033 46/// /1607 10012 21007 30012 40042 50004;
0111010330999992008010812004+70250+019500FM-12+002499999V0201801N005019999999N9999999N1+00171-00021100431ADDMA1999999100131MD1110021+9999REMSYN070AAXX  08121 01033 46/// /1805 10017 21002 30013 40043 51002 333 91110;
0101010330999992008010813004+70250+019500FM-12+002499999V0201701N005019999999N9999999N1+00181+00021100451ADDMA1999999100151MD1310021+9999REMSYN060AAXX  08131 01033 46/// /1705 10018 20002 30015 40045 53002;
0101010330999992008010814004+70250+019500FM-12+002499999V0201601N005019999999N9999999N1+00201+00041100451ADDMA1999999100151MD1110031+9999REMSYN060AAXX  08141 01033 46/// /1605 10020 20004 30015 40045 51003;
0101010330999992008010815004+70250+019500FM-12+002499999V0201801N004019999999N9999999N1+00181+00031100471ADDMA1999999100171MD1210041+9999REMSYN060AAXX  08151 01033 46/// /1804 10018 20003 30017 40047 52004;
0101010330999992008010816004+70250+019500FM-12+002499999V0201701N004019999999N9999999N1+00201+00051100501ADDMA1999999100201MD1310051+9999REMSYN060AAXX  08161 01033 46/// /1704 10020 20005 30020 40050 53005;
0101010330999992008010817004+70250+019500FM-12+002499999V0201601N002019999999N9999999N1+00191+00051100511ADDMA1999999100211MD1110061+9999REMSYN060AAXX  08171 01033 46/// /1602 10019 20005 30021 40051 51006;
0130010330999992008010818004+70250+019500FM-12+002499999V0201801N003019999999N9999999N1+00221+00061100521ADDKA1120M+00231MA1999999100221MD1110051+9999REMSYN076AAXX  08181 01033 46/// /1803 10022 20006 30022 40052 51005 333 10023 91109;
0101010330999992008010819004+70250+019500FM-12+002499999V0201701N003019999999N9999999N1+00231+00081100551ADDMA1999999100251MD1310051+9999REMSYN060AAXX  08191 01033 46/// /1703 10023 20008 30025 40055 53005;
0101010330999992008010820004+70250+019500FM-12+002499999V0201701N002019999999N9999999N1+00211+00071100581ADDMA1999999100281MD1310071+9999REMSYN060AAXX  08201 01033 46/// /1702 10021 20007 30028 40058 53007;
0101010330999992008010821004+70250+019500FM-12+002499999V0201301N002019999999N9999999N1+00221+00081100611ADDMA1999999100311MD1210091+9999REMSYN060AAXX  08211 01033 46/// /1302 10022 20008 30031 40061 52009;
0101010330999992008010822004+70250+019500FM-12+002499999V0201501N004019999999N9999999N1+00231+00091100601ADDMA1999999100301MD1010051+9999REMSYN060AAXX  08221 01033 46/// /1504 10023 20009 30030 40060 50005;
0101010330999992008010823004+70250+019500FM-12+002499999V0201501N005019999999N9999999N1+00231+00101100611ADDMA1999999100311MD1110031+9999REMSYN060AAXX  08231 01033 46/// /1505 10023 20010 30031 40061 51003;
0111010330999992008010900004+70250+019500FM-12+002499999V0201701N002019999999N9999999N1+00261+00101100621ADDMA1999999100321MD1310011+9999REMSYN070AAXX  09001 01033 46/// /1702 10026 20010 30032 40062 53001 333 91106;
0101010330999992008010901004+70250+019500FM-12+002499999V0202101N002019999999N9999999N1+00221+00081100631ADDMA1999999100331MD1210031+9999REMSYN060AAXX  09011 01033 46/// /2102 10022 20008 30033 40063 52003;
0101010330999992008010902004+70250+019500FM-12+002499999V0201801N003019999999N9999999N1+00201+00071100611ADDMA1999999100311MD1010001+9999REMSYN060AAXX  09021 01033 46/// /1803 10020 20007 30031 40061 50000;
0101010330999992008010903004+70250+019500FM-12+002499999V0201701N003019999999N9999999N1+00191+00071100621ADDMA1999999100321MD1410001+9999REMSYN060AAXX  09031 01033 46/// /1703 10019 20007 30032 40062 54000;
0101010330999992008010904004+70250+019500FM-12+002499999V0201601N002019999999N9999999N1+00201+00071100601ADDMA1999999100301MD1710031+9999REMSYN060AAXX  09041 01033 46/// /1602 10020 20007 30030 40060 57003;
0101010330999992008010905004+70250+019500FM-12+002499999V0209999C000019999999N9999999N1+00201+00051100601ADDMA1999999100301MD1810011+9999REMSYN060AAXX  09051 01033 46/// /0000 10020 20005 30030 40060 58001;
0130010330999992008010906004+70250+019500FM-12+002499999V0201701N001019999999N9999999N1+00201+00051100581ADDKA1120N+00181MA1999999100281MD1710041+9999REMSYN076AAXX  09061 01033 46/// /1701 10020 20005 30028 40058 57004 333 20018 91105;
0101010330999992008010907004+70250+019500FM-12+002499999V0209999C000019999999N9999999N1+00191+00041100581ADDMA1999999100281MD1710021+9999REMSYN060AAXX  09071 01033 46/// /0000 10019 20004 30028 40058 57002;
0101010330999992008010908004+70250+019500FM-12+002499999V0200401N002019999999N9999999N1+00181+00021100581ADDMA1999999100281MD1610021+9999REMSYN060AAXX  09081 01033 46/// /0402 10018 20002 30028 40058 56002;
0101010330999992008010909004+70250+019500FM-12+002499999V0200401N006019999999N9999999N1+00181+00031100591ADDMA1999999100291MD1310011+9999REMSYN060AAXX  09091 01033 46/// /0406 10018 20003 30029 40059 53001;
0101010330999992008010910004+70250+019500FM-12+002499999V0200801N006019999999N9999999N1+00191-00111100571ADDMA1999999100271MD1810011+9999REMSYN060AAXX  09101 01033 46/// /0806 10019 21011 30027 40057 58001;
0101010330999992008010911004+70250+019500FM-12+002499999V0201101N005019999999N9999999N1+00241-00271100531ADDMA1999999100231MD1810051+9999REMSYN060AAXX  09111 01033 46/// /1105 10024 21027 30023 40053 58005;
0111010330999992008010912004+70250+019500FM-12+002499999V0202101N002019999999N9999999N1+00221-00071100521ADDMA1999999100221MD1610071+9999REMSYN070AAXX  09121 01033 46/// /2102 10022 21007 30022 40052 56007 333 91110;
0101010330999992008010913004+70250+019500FM-12+002499999V0202601N003019999999N9999999N1+00261-00171100491ADDMA1999999100191MD1610081+9999REMSYN060AAXX  09131 01033 46/// /2603 10026 21017 30019 40049 56008;
0101010330999992008010914004+70250+019500FM-12+002499999V0201601N001019999999N9999999N1+00211-00161100451ADDMA1999999100151MD1810081+9999REMSYN060AAXX  09141 01033 46/// /1601 10021 21016 30015 40045 58008;
0101010330999992008010915004+70250+019500FM-12+002499999V0209999C000019999999N9999999N1+00161-00181100421ADDMA1999999100121MD1710101+9999REMSYN060AAXX  09151 01033 46/// /0000 10016 21018 30012 40042 57010;
0101010330999992008010916004+70250+019500FM-12+002499999V0209999C000019999999N9999999N1+00151-00171100371ADDMA1999999100071MD1810121+9999REMSYN060AAXX  09161 01033 46/// /0000 10015 21017 30007 40037 58012;
0101010330999992008010917004+70250+019500FM-12+002499999V0200401N002019999999N9999999N1+00151-00131100331ADDMA1999999100031MD1810121+9999REMSYN060AAXX  09171 01033 46/// /0402 10015 21013 30003 40033 58012;
0130010330999992008010918004+70250+019500FM-12+002499999V0201301N001019999999N9999999N1+00151-00131100301ADDKA1120M+00271MA1999999100001MD1610121+9999REMSYN076AAXX  09181 01033 46/// /1301 10015 21013 30000 40030 56012 333 10027 91104;
0101010330999992008010919004+70250+019500FM-12+002499999V0201101N005019999999N9999999N1+00201-00151100261ADDMA1999999099961MD1710111+9999REMSYN060AAXX  09191 01033 46/// /1105 10020 21015 39996 40026 57011;
0101010330999992008010920004+70250+019500FM-12+002499999V0201001N008019999999N9999999N1+00181-00151100221ADDMA1999999099921MD1810111+9999REMSYN060AAXX  09201 01033 46/// /1008 10018 21015 39992 40022 58011;
0101010330999992008010921004+70250+019500FM-12+002499999V0200801N008019999999N9999999N1+00161-00251100201ADDMA1999999099901MD1610101+9999REMSYN060AAXX  09211 01033 46/// /0808 10016 21025 39990 40020 56010;
0101010330999992008010922004+70250+019500FM-12+002499999V0201001N008019999999N9999999N1+00181-00361100201ADDMA1999999099911MD1510051+9999REMSYN060AAXX  09221 01033 46/// /1008 10018 21036 39991 40020 55005;
0101010330999992008010923004+70250+019500FM-12+002499999V0201001N008019999999N9999999N1+00151-00251100181ADDMA1999999099881MD1810041+9999REMSYN060AAXX  09231 01033 46/// /1008 10015 21025 39988 40018 58004;
0111010330999992008011000004+70250+019500FM-12+002499999V0200901N007019999999N9999999N1+00131-00381100151ADDMA1999999099851MD1810051+9999REMSYN070AAXX  10001 01033 46/// /0907 10013 21038 39985 40015 58005 333 91114;
0101010330999992008011001004+70250+019500FM-12+002499999V0201001N008019999999N9999999N1+00101-00371100111ADDMA1999999099811MD1810101+9999REMSYN060AAXX  10011 01033 46/// /1008 10010 21037 39981 40011 58010;
0101010330999992008011002004+70250+019500FM-12+002499999V0200901N008019999999N9999999N1+00071-00261100071ADDMA1999999099771MD1810111+9999REMSYN060AAXX  10021 01033 46/// /0908 10007 21026 39977 40007 58011;
0101010330999992008011003004+70250+019500FM-12+002499999V0200701N003019999999N9999999N1+00081-00271100081ADDMA1999999099781MD1510071+9999REMSYN060AAXX  10031 01033 46/// /0703 10008 21027 39978 40008 55007;
0101010330999992008011004004+70250+019500FM-12+002499999V0201101N004019999999N9999999N1+00111-00341100011ADDMA1999999099721MD1810091+9999REMSYN060AAXX  10041 01033 46/// /1104 10011 21034 39972 40001 58009;
0101010330999992008011005004+70250+019500FM-12+002499999V0202301N004019999999N9999999N1+00101-00411099951ADDMA1999999099651MD1810121+9999REMSYN060AAXX  10051 01033 46/// /2304 10010 21041 39965 49995 58012;
0130010330999992008011006004+70250+019500FM-12+002499999V0200301N003019999999N9999999N1+00091-00331099941ADDKA1120N+00071MA1999999099651MD1610131+9999REMSYN076AAXX  10061 01033 46/// /0303 10009 21033 39965 49994 56013 333 20007 91112;
0101010330999992008011007004+70250+019500FM-12+002499999V0200801N002019999999N9999999N1+00061-00381099921ADDMA1999999099621MD1610101+9999REMSYN060AAXX  10071 01033 46/// /0802 10006 21038 39962 49992 56010;
0101010330999992008011008004+70250+019500FM-12+002499999V0201901N004019999999N9999999N1+00071-00401099891ADDMA1999999099591MD1810061+9999REMSYN060AAXX  10081 01033 46/// /1904 10007 21040 39959 49989 58006;
0101010330999992008011009004+70250+019500FM-12+002499999V0202801N005019999999N9999999N1+00081-00461099881ADDMA1999999099581MD1610071+9999REMSYN060AAXX  10091 01033 46/// /2805 10008 21046 39958 49988 56007;
0101010330999992008011010004+70250+019500FM-12+002499999V0203101N005019999999N9999999N1+00081-00461099871ADDMA1999999099571MD1610051+9999REMSYN060AAXX  10101 01033 46/// /3105 10008 21046 39957 49987 56005;
0101010330999992008011011004+70250+019500FM-12+002499999V0202001N004019999999N9999999N1+00051-00521099831ADDMA1999999099531MD1810061+9999REMSYN060AAXX  10111 01033 46/// /2004 10005 21052 39953 49983 58006;
0111010330999992008011012004+70250+019500FM-12+002499999V0200701N008019999999N9999999N1+00031-00571099801ADDMA1999999099501MD1810081+9999REMSYN070AAXX  10121 01033 46/// /0708 10003 21057 39950 49980 58008 333 91120;
0101010330999992008011013004+70250+019500FM-12+002499999V0200701N010019999999N9999999N1+00041-00611099771ADDMA1999999099471MD1610101+9999REMSYN060AAXX  10131 01033 46/// /0710 10004 21061 39947 49977 56010;
0101010330999992008011014004+70250+019500FM-12+002499999V0200601N008019999999N9999999N1+00041-00601099711ADDMA1999999099411MD1810121+9999REMSYN060AAXX  10141 01033 46/// /0608 10004 21060 39941 49971 58012;
0101010330999992008011015004+70250+019500FM-12+002499999V0200301N005019999999N9999999N1+00031-00581099761ADDMA1999999099461MD1510041+9999REMSYN060AAXX  10151 01033 46/// /0305 10003 21058 39946 49976 55004;
0101010330999992008011016004+70250+019500FM-12+002499999V0200801N003019999999N9999999N1+00011-00591099731ADDMA1999999099431MD1610041+9999REMSYN060AAXX  10161 01033 46/// /0803 10001 21059 39943 49973 56004;
0101010330999992008011017004+70250+019500FM-12+002499999V0200801N005019999999N9999999N1-00021-00561099681ADDMA1999999099381MD1810031+9999REMSYN060AAXX  10171 01033 46/// /0805 11002 21056 39938 49968 58003;
0130010330999992008011018004+70250+019500FM-12+002499999V0202501N004019999999N9999999N1-00031-00591099661ADDKA1120M+00091MA1999999099361MD1610101+9999REMSYN076AAXX  10181 01033 46/// /2504 11003 21059 39936 49966 56010 333 10009 91120;
0101010330999992008011019004+70250+019500FM-12+002499999V0203001N001019999999N9999999N1-00041-00581099671ADDMA1999999099371MD1510061+9999REMSYN060AAXX  10191 01033 46/// /3001 11004 21058 39937 49967 55006;
0101010330999992008011020004+70250+019500FM-12+002499999V0200801N008019999999N9999999N1-00041-00521099681ADDMA1999999099381MD1510001+9999REMSYN060AAXX  10201 01033 46/// /0808 11004 21052 39938 49968 55000;
0101010330999992008011021004+70250+019500FM-12+002499999V0200501N004019999999N9999999N1-00051-00511099691ADDMA1999999099391MD1210031+9999REMSYN060AAXX  10211 01033 46/// /0504 11005 21051 39939 49969 52003;
0101010330999992008011022004+70250+019500FM-12+002499999V0200201N004019999999N9999999N1-00051-00531099671ADDMA1999999099371MD1010001+9999REMSYN060AAXX  10221 01033 46/// /0204 11005 21053 39937 49967 50000;
0101010330999992008011023004+70250+019500FM-12+002499999V0203101N007019999999N9999999N1-00061-00521099631ADDMA1999999099331MD1810051+9999REMSYN060AAXX  10231 01033 46/// /3107 11006 21052 39933 49963 58005;
0111010330999992008011100004+70250+019500FM-12+002499999V0202901N007019999999N9999999N1-00061-00501099581ADDMA1999999099281MD1810111+9999REMSYN070AAXX  11001 01033 46/// /2907 11006 21050 39928 49958 58011 333 91113;
0101010330999992008011101004+70250+019500FM-12+002499999V0200201N008019999999N9999999N1-00111-00531099541ADDMA1999999099241MD1710131+9999REMSYN060AAXX  11011 01033 46/// /0208 11011 21053 39924 49954 57013;
0101010330999992008011102004+70250+019500FM-12+002499999V0200201N005019999999N9999999N1-00141-00591099561ADDMA1999999099261MD1510071+9999REMSYN060AAXX  11021 01033 46/// /0205 11014 21059 39926 49956 55007;
0101010330999992008011103004+70250+019500FM-12+002499999V0200101N004019999999N9999999N1-00151-00601099521ADDMA1999999099221MD1710061+9999REMSYN060AAXX  11031 01033 46/// /0104 11015 21060 39922 49952 57006;
0101010330999992008011104004+70250+019500FM-12+002499999V0201001N012019999999N9999999N1-00141-00601099441ADDMA1999999099141MD1810101+9999REMSYN060AAXX  11041 01033 46/// /1012 11014 21060 39914 49944 58010;
0101010330999992008011105004+70250+019500FM-12+002499999V0200701N008019999999N9999999N1-00131-00611099461ADDMA1999999099161MD1510101+9999REMSYN060AAXX  11051 01033 46/// /0708 11013 21061 39916 49946 55010;
0130010330999992008011106004+70250+019500FM-12+002499999V0200801N010019999999N9999999N1-00101-00591099381ADDKA1120N-00161MA1999999099081MD1710141+9999REMSYN076AAXX  11061 01033 46/// /0810 11010 21059 39908 49938 57014 333 21016 91118;
0101010330999992008011107004+70250+019500FM-12+002499999V0201001N004019999999N9999999N1+00071-00701099421ADDMA1999999099121MD1510021+9999REMSYN060AAXX  11071 01033 46/// /1004 10007 21070 39912 49942 55002;
0101010330999992008011108004+70250+019500FM-12+002499999V0200901N015019999999N9999999N1+00031-00641099291ADDMA1999999098991MD1810171+9999REMSYN060AAXX  11081 01033 46/// /0915 10003 21064 39899 49929 58017;
0101010330999992008011109004+70250+019500FM-12+002499999V0200701N008019999999N9999999N1+00001-00521099431ADDMA1999999099131MD1310051+9999REMSYN060AAXX  11091 01033 46/// /0708 10000 21052 39913 49943 53005;
0101010330999992008011110004+70250+019500FM-12+002499999V0201001N012019999999N9999999N1+00031-00561099361ADDMA1999999099061MD1610061+9999REMSYN060AAXX  11101 01033 46/// /1012 10003 21056 39906 49936 56006;
0101010330999992008011111004+70250+019500FM-12+002499999V0200901N013019999999N9999999N1+00021-00551099341ADDMA1999999099041MD1010051+9999REMSYN060AAXX  11111 01033 46/// /0913 10002 21055 39904 49934 50005;
0111010330999992008011112004+70250+019500FM-12+002499999V0200901N013019999999N9999999N1+00031-00521099301ADDMA1999999099001MD1610131+9999REMSYN070AAXX  11121 01033 46/// /0913 10003 21052 39900 49930 56013 333 91120;
0101010330999992008011113004+70250+019500FM-12+002499999V0201001N017019999999N9999999N1+00061-00481099191ADDMA1999999098891MD1810171+9999REMSYN060AAXX  11131 01033 46/// /1017 10006 21048 39889 49919 58017;
0101010330999992008011114004+70250+019500FM-12+002499999V0201001N015019999999N9999999N1+00081-00491099231ADDMA1999999098931MD1510111+9999REMSYN060AAXX  11141 01033 46/// /1015 10008 21049 39893 49923 55011;
0101010330999992008011115004+70250+019500FM-12+002499999V0200901N013019999999N9999999N1+00121-00501099211ADDMA1999999098921MD1610081+9999REMSYN060AAXX  11151 01033 46/// /0913 10012 21050 39892 49921 56008;
0101010330999992008011116004+70250+019500FM-12+002499999V0201001N013019999999N9999999N1+00131-00461099251ADDMA1999999098951MD1110061+9999REMSYN060AAXX  11161 01033 46/// /1013 10013 21046 39895 49925 51006;
0101010330999992008011117004+70250+019500FM-12+002499999V0201001N010019999999N9999999N1+00151-00511099271ADDMA1999999098971MD1310041+9999REMSYN060AAXX  11171 01033 46/// /1010 10015 21051 39897 49927 53004;
0130010330999992008011118004+70250+019500FM-12+002499999V0201001N013019999999N9999999N1+00151-00471099271ADDKA1120M+00201MA1999999098971MD1110051+9999REMSYN076AAXX  11181 01033 46/// /1013 10015 21047 39897 49927 51005 333 10020 91121;
0101010330999992008011119004+70250+019500FM-12+002499999V0201001N013019999999N9999999N1+00161-00481099251ADDMA1999999098961MD1010011+9999REMSYN060AAXX  11191 01033 46/// /1013 10016 21048 39896 49925 50001;
0101010330999992008011120004+70250+019500FM-12+002499999V0201001N013019999999N9999999N1+00171-00441099301ADDMA1999999099011MD1310041+9999REMSYN060AAXX  11201 01033 46/// /1013 10017 21044 39901 49930 53004;
0101010330999992008011121004+70250+019500FM-12+002499999V0201001N012019999999N9999999N1+00161-00451099321ADDMA1999999099031MD1310061+9999REMSYN060AAXX  11211 01033 46/// /1012 10016 21045 39903 49932 53006;
0101010330999992008011122004+70250+019500FM-12+002499999V0201701N005019999999N9999999N1+00231-00531099401ADDMA1999999099101MD1310141+9999REMSYN060AAXX  11221 01033 46/// /1705 10023 21053 39910 49940 53014;
0101010330999992008011123004+70250+019500FM-12+002499999V0200801N002019999999N9999999N1+00211-00491099431ADDMA1999999099131MD1310121+9999REMSYN060AAXX  11231 01033 46/// /0802 10021 21049 39913 49943 53012;
0111010330999992008011200004+70250+019500FM-12+002499999V0201001N006019999999N9999999N1+00261-00541099441ADDMA1999999099151MD1110121+9999REMSYN070AAXX  12001 01033 46/// /1006 10026 21054 39915 49944 51012 333 91116;
0101010330999992008011201004+70250+019500FM-12+002499999V0200901N009019999999N9999999N1+00241-00481099441ADDMA1999999099141MD1010041+9999REMSYN060AAXX  12011 01033 46/// /0909 10024 21048 39914 49944 50004;
0101010330999992008011202004+70250+019500FM-12+002499999V0201001N007019999999N9999999N1+00241-00471099461ADDMA1999999099171MD1310041+9999REMSYN060AAXX  12021 01033 46/// /1007 10024 21047 39917 49946 53004;
0101010330999992008011203004+70250+019500FM-12+002499999V0202701N002019999999N9999999N1+00251-00431099501ADDMA1999999099211MD1310061+9999REMSYN060AAXX  12031 01033 46/// /2702 10025 21043 39921 49950 53006;
0101010330999992008011204004+70250+019500FM-12+002499999V0201001N005019999999N9999999N1+00241-00511099531ADDMA1999999099231MD1110091+9999REMSYN060AAXX  12041 01033 46/// /1005 10024 21051 39923 49953 51009;
0101010330999992008011205004+70250+019500FM-12+002499999V0201101N007019999999N9999999N1+00231-00511099521ADDMA1999999099221MD1010051+9999REMSYN060AAXX  12051 01033 46/// /1107 10023 21051 39922 49952 50005;
0130010330999992008011206004+70250+019500FM-12+002499999V0201001N005019999999N9999999N1+00191-00431099571ADDKA1120N+00141MA1999999099271MD1310061+9999REMSYN076AAXX  12061 01033 46/// /1005 10019 21043 39927 49957 53006 333 20014 91111;
0101010330999992008011207004+70250+019500FM-12+002499999V0201601N002019999999N9999999N1+00181-00541099601ADDMA1999999099311MD1310081+9999REMSYN060AAXX  12071 01033 46/// /1602 10018 21054 39931 49960 53008;
0101010330999992008011208004+70250+019500FM-12+002499999V0202501N002019999999N9999999N1+00181-00601099661ADDMA1999999099361MD1210141+9999REMSYN060AAXX  12081 01033 46/// /2502 10018 21060 39936 49966 52014;
0101010330999992008011209004+70250+019500FM-12+002499999V0201601N003019999999N9999999N1+00151-00641099721ADDMA1999999099431MD1310161+9999REMSYN060AAXX  12091 01033 46/// /1603 10015 21064 39943 49972 53016;
0101010330999992008011210004+70250+019500FM-12+002499999V0200601N002019999999N9999999N1+00111-00591099761ADDMA1999999099461MD1110151+9999REMSYN060AAXX  12101 01033 46/// /0602 10011 21059 39946 49976 51015;
0101010330999992008011211004+70250+019500FM-12+002499999V0201101N012019999999N9999999N1+00161-00521099711ADDMA1999999099411MD1010051+9999REMSYN060AAXX  12111 01033 46/// /1112 10016 21052 39941 49971 50005;
0111010330999992008011212004+70250+019500FM-12+002499999V0201201N009019999999N9999999N1+00181-00561099781ADDMA1999999099481MD1310051+9999REMSYN070AAXX  12121 01033 46/// /1209 10018 21056 39948 49978 53005 333 91115;
0101010330999992008011213004+70250+019500FM-12+002499999V0201201N008019999999N9999999N1+00181-00561099791ADDMA1999999099491MD1310031+9999REMSYN060AAXX  12131 01033 46/// /1208 10018 21056 39949 49979 53003;
0101010330999992008011214004+70250+019500FM-12+002499999V0201201N004019999999N9999999N1+00211-00601099821ADDMA1999999099531MD1110121+9999REMSYN060AAXX  12141 01033 46/// /1204 10021 21060 39953 49982 51012;
0101010330999992008011215004+70250+019500FM-12+002499999V0201101N007019999999N9999999N1+00181-00491099811ADDMA1999999099521MD1010041+9999REMSYN060AAXX  12151 01033 46/// /1107 10018 21049 39952 49981 50004;
0101010330999992008011216004+70250+019500FM-12+002499999V0201101N010019999999N9999999N1+00131-00431099821ADDMA1999999099521MD1110031+9999REMSYN060AAXX  12161 01033 46/// /1110 10013 21043 39952 49982 51003;
0101010330999992008011217004+70250+019500FM-12+002499999V0201201N008019999999N9999999N1+00111-00531099821ADDMA1999999099531MD1510001+9999REMSYN060AAXX  12171 01033 46/// /1208 10011 21053 39953 49982 55000;
0130010330999992008011218004+70250+019500FM-12+002499999V0201101N009019999999N9999999N1+00141-00531099811ADDKA1120M+00231MA1999999099521MD1010001+9999REMSYN076AAXX  12181 01033 46/// /1109 10014 21053 39952 49981 50000 333 10023 91114;
0101010330999992008011219004+70250+019500FM-12+002499999V0201101N009019999999N9999999N1+00121-00531099831ADDMA1999999099531MD1210011+9999REMSYN060AAXX  12191 01033 46/// /1109 10012 21053 39953 49983 52001;
0101010330999992008011220004+70250+019500FM-12+002499999V0201201N010019999999N9999999N1+00171-00611099831ADDMA1999999099531MD1510001+9999REMSYN060AAXX  12201 01033 46/// /1210 10017 21061 39953 49983 55000;
0101010330999992008011221004+70250+019500FM-12+002499999V0201301N009019999999N9999999N1+00151-00471099871ADDMA1999999099571MD1310051+9999REMSYN060AAXX  12211 01033 46/// /1309 10015 21047 39957 49987 53005;
0101010330999992008011222004+70250+019500FM-12+002499999V0201101N005019999999N9999999N1+00121-00621099901ADDMA1999999099601MD1310071+9999REMSYN060AAXX  12221 01033 46/// /1105 10012 21062 39960 49990 53007;
0101010330999992008011223004+70250+019500FM-12+002499999V0201201N007019999999N9999999N1+00061-00581099861ADDMA1999999099561MD1010031+9999REMSYN060AAXX  12231 01033 46/// /1207 10006 21058 39956 49986 50003;
0111010330999992008011300004+70250+019500FM-12+002499999V0201301N007019999999N9999999N1+00061-00611099811ADDMA1999999099511MD1810061+9999REMSYN070AAXX  13001 01033 46/// /1307 10006 21061 39951 49981 58006 333 91114;
0101010330999992008011301004+70250+019500FM-12+002499999V0201201N007019999999N9999999N1+00051-00631099801ADDMA1999999099501MD1610101+9999REMSYN060AAXX  13011 01033 46/// /1207 10005 21063 39950 49980 56010;
0101010330999992008011302004+70250+019500FM-12+002499999V0201201N006019999999N9999999N1+00051-00691099771ADDMA1999999099471MD1610091+9999REMSYN060AAXX  13021 01033 46/// /1206 10005 21069 39947 49977 56009;
0101010330999992008011303004+70250+019500FM-12+002499999V0201101N006019999999N9999999N1+00031-00641099751ADDMA1999999099451MD1810061+9999REMSYN060AAXX  13031 01033 46/// /1106 10003 21064 39945 49975 58006;
0101010330999992008011304004+70250+019500FM-12+002499999V0200901N005019999999N9999999N1+00011-00661099731ADDMA1999999099431MD1610071+9999REMSYN060AAXX  13041 01033 46/// /0905 10001 21066 39943 49973 56007;
0101010330999992008011305004+70250+019500FM-12+002499999V0201201N005019999999N9999999N1+00061-00721099731ADDMA1999999099431MD1610041+9999REMSYN060AAXX  13051 01033 46/// /1205 10006 21072 39943 49973 56004;
0130010330999992008011306004+70250+019500FM-12+002499999V0201401N006019999999N9999999N1+00041-00721099711ADDKA1120N-00021MA1999999099411MD1710041+9999REMSYN076AAXX  13061 01033 46/// /1406 10004 21072 39941 49971 57004 333 21002 91113;
0101010330999992008011307004+70250+019500FM-12+002499999V0201501N006019999999N9999999N1+00031-00761099701ADDMA1999999099401MD1810031+9999REMSYN060AAXX  13071 01033 46/// /1506 10003 21076 39940 49970 58003;
0101010330999992008011308004+70250+019500FM-12+002499999V0201201N007019999999N9999999N1-00021-00581099671ADDMA1999999099371MD1810061+9999REMSYN060AAXX  13081 01033 46/// /1207 11002 21058 39937 49967 58006;
0101010330999992008011309004+70250+019500FM-12+002499999V0201101N008019999999N9999999N1-00041-00541099631ADDMA1999999099341MD1810071+9999REMSYN060AAXX  13091 01033 46/// /1108 11004 21054 39934 49963 58007;
0101010330999992008011310004+70250+019500FM-12+002499999V0201201N007019999999N9999999N1-00051-00521099651ADDMA1999999099351MD1510051+9999REMSYN060AAXX  13101 01033 46/// /1207 11005 21052 39935 49965 55005;
0101010330999992008011311004+70250+019500FM-12+002499999V0201301N007019999999N9999999N1-00041-00511099631ADDMA1999999099331MD1610041+9999REMSYN060AAXX  13111 01033 46/// /1307 11004 21051 39933 49963 56004;
0111010330999992008011312004+70250+019500FM-12+002499999V0201201N007019999999N9999999N1-00051-00531099621ADDMA1999999099321MD1810021+9999REMSYN070AAXX  13121 01033 46/// /1207 11005 21053 39932 49962 58002 333 91111;
0101010330999992008011313004+70250+019500FM-12+002499999V0201201N004019999999N9999999N1-00061-00591099651ADDMA1999999099351MD1510001+9999REMSYN060AAXX  13131 01033 46/// /1204 11006 21059 39935 49965 55000;
0101010330999992008011314004+70250+019500FM-12+002499999V0201401N004019999999N9999999N1-00071-00561099651ADDMA1999999099351MD1310021+9999REMSYN060AAXX  13141 01033 46/// /1404 11007 21056 39935 49965 53002;
0101010330999992008011315004+70250+019500FM-12+002499999V0201401N003019999999N9999999N1-00061-00561099661ADDMA1999999099361MD1110041+9999REMSYN060AAXX  13151 01033 46/// /1403 11006 21056 39936 49966 51004;
0101010330999992008011316004+70250+019500FM-12+002499999V0201401N004019999999N9999999N1-00051-00631099681ADDMA1999999099391MD1310041+9999REMSYN060AAXX  13161 01033 46/// /1404 11005 21063 39939 49968 53004;
0101010330999992008011317004+70250+019500FM-12+002499999V0201401N004019999999N9999999N1-00061-00561099731ADDMA1999999099431MD1310081+9999REMSYN060AAXX  13171 01033 46/// /1404 11006 21056 39943 49973 53008;
0130010330999992008011318004+70250+019500FM-12+002499999V0201501N004019999999N9999999N1-00091-00511099741ADDKA1120M+00031MA1999999099441MD1110081+9999REMSYN076AAXX  13181 01033 46/// /1504 11009 21051 39944 49974 51008 333 10003 91108;
0101010330999992008011319004+70250+019500FM-12+002499999V0201501N005019999999N9999999N1-00101-00471099751ADDMA1999999099451MD1110061+9999REMSYN060AAXX  13191 01033 46/// /1505 11010 21047 39945 49975 51006;
0101010330999992008011320004+70250+019500FM-12+002499999V0201401N004019999999N9999999N1-00101-00471099761ADDMA1999999099461MD1210031+9999REMSYN060AAXX  13201 01033 46/// /1404 11010 21047 39946 49976 52003;
0101010330999992008011321004+70250+019500FM-12+002499999V0201501N004019999999N9999999N1-00091-00491099791ADDMA1999999099491MD1310051+9999REMSYN060AAXX  13211 01033 46/// /1504 11009 21049 39949 49979 53005;
0101010330999992008011322004+70250+019500FM-12+002499999V0201501N005019999999N9999999N1-00091-00471099801ADDMA1999999099501MD1210051+9999REMSYN060AAXX  13221 01033 46/// /1505 11009 21047 39950 49980 52005;
0101010330999992008011323004+70250+019500FM-12+002499999V0201501N001019999999N9999999N1-00131-00571099821ADDMA1999999099521MD1110061+9999REMSYN060AAXX  13231 01033 46/// /1501 11013 21057 39952 49982 51006;
0111010330999992008011400004+70250+019500FM-12+002499999V0201501N002019999999N9999999N1-00131-00591099811ADDMA1999999099511MD1010021+9999REMSYN070AAXX  14001 01033 46/// /1502 11013 21059 39951 49981 50002 333 91107;
0101010330999992008011401004+70250+019500FM-12+002499999V0201601N002019999999N9999999N1-00081-00551099811ADDMA1999999099511MD1110011+9999REMSYN060AAXX  14011 01033 46/// /1602 11008 21055 39951 49981 51001;
0101010330999992008011402004+70250+019500FM-12+002499999V0201601N005019999999N9999999N1-00051-00491099821ADDMA1999999099521MD1510001+9999REMSYN060AAXX  14021 01033 46/// /1605 11005 21049 39952 49982 55000;
0101010330999992008011403004+70250+019500FM-12+002499999V0201501N005019999999N9999999N1-00031-00471099831ADDMA1999999099531MD1310021+9999REMSYN060AAXX  14031 01033 46/// /1505 11003 21047 39953 49983 53002;
0101010330999992008011404004+70250+019500FM-12+002499999V0201701N007019999999N9999999N1+00001-00381099791ADDMA1999999099491MD1810021+9999REMSYN060AAXX  14041 01033 46/// /1707 10000 21038 39949 49979 58002;
0101010330999992008011405004+70250+019500FM-12+002499999V0201501N007019999999N9999999N1+00011-00421099801ADDMA1999999099501MD1710021+9999REMSYN060AAXX  14051 01033 46/// /1507 10001 21042 39950 49980 57002;
0130010330999992008011406004+70250+019500FM-12+002499999V0201701N008019999999N9999999N1+00001-00351099771ADDKA1120N-00141MA1999999099471MD1610061+9999REMSYN076AAXX  14061 01033 46/// /1708 10000 21035 39947 49977 56006 333 21014 91111;
0101010330999992008011407004+70250+019500FM-12+002499999V0201601N008019999999N9999999N1+00031-00411099801ADDMA1999999099501MD1310011+9999REMSYN060AAXX  14071 01033 46/// /1608 10003 21041 39950 49980 53001;
0101010330999992008011408004+70250+019500FM-12+002499999V0201701N006019999999N9999999N1+00041-00411099831ADDMA1999999099531MD1310031+9999REMSYN060AAXX  14081 01033 46/// /1706 10004 21041 39953 49983 53003;
0101010330999992008011409004+70250+019500FM-12+002499999V0201701N007019999999N9999999N1+00061-00401099821ADDMA1999999099521MD1010051+9999REMSYN060AAXX  14091 01033 46/// /1707 10006 21040 39952 49982 50005;
0101010330999992008011410004+70250+019500FM-12+002499999V0201801N006019999999N9999999N1+00101-00371099821ADDMA1999999099531MD1110031+9999REMSYN060AAXX  14101 01033 46/// /1806 10010 21037 39953 49982 51003;
0101010330999992008011411004+70250+019500FM-12+002499999V0201601N008019999999N9999999N1+00101-00341099801ADDMA1999999099501MD1810031+9999REMSYN060AAXX  14111 01033 46/// /1608 10010 21034 39950 49980 58003;
0111010330999992008011412004+70250+019500FM-12+002499999V0201501N007019999999N9999999N1+00081-00321099831ADDMA1999999099531MD1310011+9999REMSYN070AAXX  14121 01033 46/// /1507 10008 21032 39953 49983 53001 333 91110;
0101010330999992008011413004+70250+019500FM-12+002499999V0201501N005019999999N9999999N1+00071-00311099821ADDMA1999999099521MD1610011+9999REMSYN060AAXX  14131 01033 46/// /1505 10007 21031 39952 49982 56001;
0101010330999992008011414004+70250+019500FM-12+002499999V0201501N005019999999N9999999N1+00071-00301099791ADDMA1999999099491MD1810011+9999REMSYN060AAXX  14141 01033 46/// /1505 10007 21030 39949 49979 58001;
0101010330999992008011415004+70250+019500FM-12+002499999V0201501N005019999999N9999999N1+00051-00301099791ADDMA1999999099491MD1610041+9999REMSYN060AAXX  14151 01033 46/// /1505 10005 21030 39949 49979 56004;
0101010330999992008011416004+70250+019500FM-12+002499999V0201601N005019999999N9999999N1+00081-00341099751ADDMA1999999099451MD1810071+9999REMSYN060AAXX  14161 01033 46/// /1605 10008 21034 39945 49975 58007;
0101010330999992008011417004+70250+019500FM-12+002499999V0201701N005019999999N9999999N1+00101-00341099711ADDMA1999999099411MD1810081+9999REMSYN060AAXX  14171 01033 46/// /1705 10010 21034 39941 49971 58008;
0130010330999992008011418004+70250+019500FM-12+002499999V0201501N004019999999N9999999N1+00101-00541099641ADDKA1120M+00121MA1999999099341MD1810151+9999REMSYN076AAXX  14181 01033 46/// /1504 10010 21054 39934 49964 58015 333 10012 91108;
0101010330999992008011419004+70250+019500FM-12+002499999V0201601N004019999999N9999999N1+00101-00441099581ADDMA1999999099281MD1810171+9999REMSYN060AAXX  14191 01033 46/// /1604 10010 21044 39928 49958 58017;
0101010330999992008011420004+70250+019500FM-12+002499999V0201901N001019999999N9999999N1+00071-00571099481ADDMA1999999099181MD1810231+9999REMSYN060AAXX  14201 01033 46/// /1901 10007 21057 39918 49948 58023;
0101010330999992008011421004+70250+019500FM-12+002499999V0201701N002019999999N9999999N1+00061-00731099371ADDMA1999999099071MD1810271+9999REMSYN060AAXX  14211 01033 46/// /1702 10006 21073 39907 49937 58027;
0101010330999992008011422004+70250+019500FM-12+002499999V0200301N002019999999N9999999N1+00051-00791099251ADDMA1999999098951MD1810331+9999REMSYN060AAXX  14221 01033 46/// /0302 10005 21079 39895 49925 58033;
0101010330999992008011423004+70250+019500FM-12+002499999V0200401N002019999999N9999999N1+00091-00731099091ADDMA1999999098801MD1810381+9999REMSYN060AAXX  14231 01033 46/// /0402 10009 21073 39880 49909 58038;
0111010330999992008011500004+70250+019500FM-12+002499999V0201001N001019999999N9999999N1+00181-00911098931ADDMA1999999098631MD1810441+9999REMSYN070AAXX  15001 01033 46/// /1001 10018 21091 39863 49893 58044 333 91108;
0101010330999992008011501004+70250+019500FM-12+002499999V0201401N005019999999N9999999N1+00241-00471098801ADDMA1999999098511MD1610441+9999REMSYN060AAXX  15011 01033 46/// /1405 10024 21047 39851 49880 56044;
0101010330999992008011502004+70250+019500FM-12+002499999V0201201N008019999999N9999999N1+00211-00401098661ADDMA1999999098371MD1610431+9999REMSYN060AAXX  15021 01033 46/// /1208 10021 21040 39837 49866 56043;
0101010330999992008011503004+70250+019500FM-12+002499999V0201101N006019999999N9999999N1+00081-00281098581ADDMA1999999098281MD1610351+9999REMSYN060AAXX  15031 01033 46/// /1106 10008 21028 39828 49858 56035;
0101010330999992008011504004+70250+019500FM-12+002499999V0209999C000019999999N9999999N1+00111-00301098451ADDMA1999999098161MD1610351+9999REMSYN060AAXX  15041 01033 46/// /0000 10011 21030 39816 49845 56035;
0101010330999992008011505004+70250+019500FM-12+002499999V0201501N003019999999N9999999N1+00081-00241098371ADDMA1999999098081MD1610291+9999REMSYN060AAXX  15051 01033 46/// /1503 10008 21024 39808 49837 56029;
0130010330999992008011506004+70250+019500FM-12+002499999V0201501N001019999999N9999999N1+00071-00191098301ADDKA1120N+00031MA1999999098011MD1610271+9999REMSYN076AAXX  15061 01033 46/// /1501 10007 21019 39801 49830 56027 333 20003 91110;
0101010330999992008011507004+70250+019500FM-12+002499999V0202001N002019999999N9999999N1+00061-00141098281ADDMA1999999097991MD1610171+9999REMSYN060AAXX  15071 01033 46/// /2002 10006 21014 39799 49828 56017;
0101010330999992008011508004+70250+019500FM-12+002499999V0201901N002019999999N9999999N1+00061-00111098261ADDMA1999999097961MD1610121+9999REMSYN060AAXX  15081 01033 46/// /1902 10006 21011 39796 49826 56012;
0101010330999992008011509004+70250+019500FM-12+002499999V0202001N005019999999N9999999N1+00061-00161098261ADDMA1999999097961MD1610051+9999REMSYN060AAXX  15091 01033 46/// /2005 10006 21016 39796 49826 56005;
0101010330999992008011510004+70250+019500FM-12+002499999V0201801N005019999999N9999999N1+00051-00121098271ADDMA1999999097981MD1510011+9999REMSYN060AAXX  15101 01033 46/// /1805 10005 21012 39798 49827 55001;
0101010330999992008011511004+70250+019500FM-12+002499999V0201801N006019999999N9999999N1+00051-00081098271ADDMA1999999097981MD1210021+9999REMSYN060AAXX  15111 01033 46/// /1806 10005 21008 39798 49827 52002;
0111010330999992008011512004+70250+019500FM-12+002499999V0201901N007019999999N9999999N1+00111-00101098281ADDMA1999999097981MD1110021+9999REMSYN070AAXX  15121 01033 46/// /1907 10011 21010 39798 49828 51002 333 91110;
0101010330999992008011515004+70250+019500FM-12+002499999V0201501N006019999999N9999999N1+00161-00201098221ADDMA1999999097931MD1810051+9999REMSYN060AAXX  15151 01033 46/// /1506 10016 21020 39793 49822 58005;
0101010330999992008011516004+70250+019500FM-12+002499999V0201601N004019999999N9999999N1+00191-00201098251ADDMA1999999097961MD1510021+9999REMSYN060AAXX  15161 01033 46/// /1604 10019 21020 39796 49825 55002;
0101010330999992008011517004+70250+019500FM-12+002499999V0201501N005019999999N9999999N1+00171-00181098241ADDMA1999999097951MD1610031+9999REMSYN060AAXX  15171 01033 46/// /1505 10017 21018 39795 49824 56003;
0130010330999992008011518004+70250+019500FM-12+002499999V0201301N003019999999N9999999N1+00191-00221098201ADDKA1120M+00211MA1999999097901MD1810031+9999REMSYN076AAXX  15181 01033 46/// /1303 10019 21022 39790 49820 58003 333 10021 91110;
0101010330999992008011519004+70250+019500FM-12+002499999V0201801N003019999999N9999999N1+00201-00211098161ADDMA1999999097871MD1810091+9999REMSYN060AAXX  15191 01033 46/// /1803 10020 21021 39787 49816 58009;
0101010330999992008011520004+70250+019500FM-12+002499999V0201501N006019999999N9999999N1+00181-00181098141ADDMA1999999097851MD1610101+9999REMSYN060AAXX  15201 01033 46/// /1506 10018 21018 39785 49814 56010;
0101010330999992008011521004+70250+019500FM-12+002499999V0201601N005019999999N9999999N1+00181-00191098111ADDMA1999999097821MD1710081+9999REMSYN060AAXX  15211 01033 46/// /1605 10018 21019 39782 49811 57008;
0101010330999992008011522004+70250+019500FM-12+002499999V0201501N004019999999N9999999N1+00201-00181098081ADDMA1999999097791MD1810081+9999REMSYN060AAXX  15221 01033 46/// /1504 10020 21018 39779 49808 58008;
0101010330999992008011523004+70250+019500FM-12+002499999V0201801N005019999999N9999999N1+00211-00201098031ADDMA1999999097741MD1810111+9999REMSYN060AAXX  15231 01033 46/// /1805 10021 21020 39774 49803 58011;
0111010330999992008011600004+70250+019500FM-12+002499999V0201701N004019999999N9999999N1+00211-00201097971ADDMA1999999097681MD1810141+9999REMSYN070AAXX  16001 01033 46/// /1704 10021 21020 39768 49797 58014 333 91108;
0101010330999992008011601004+70250+019500FM-12+002499999V0201801N004019999999N9999999N1+00261-00181097921ADDMA1999999097631MD1710161+9999REMSYN060AAXX  16011 01033 46/// /1804 10026 21018 39763 49792 57016;
0101010330999992008011602004+70250+019500FM-12+002499999V0201801N005019999999N9999999N1+00341-00191097901ADDMA1999999097611MD1610131+9999REMSYN060AAXX  16021 01033 46/// /1805 10034 21019 39761 49790 56013;
0101010330999992008011603004+70250+019500FM-12+002499999V0201901N007019999999N9999999N1+00401-00191097851ADDMA1999999097561MD1710121+9999REMSYN060AAXX  16031 01033 46/// /1907 10040 21019 39756 49785 57012;
0101010330999992008011604004+70250+019500FM-12+002499999V0201601N006019999999N9999999N1+00401-00141097821ADDMA1999999097531MD1810101+9999REMSYN060AAXX  16041 01033 46/// /1606 10040 21014 39753 49782 58010;
0101010330999992008011605004+70250+019500FM-12+002499999V0201501N007019999999N9999999N1+00401-00101097811ADDMA1999999097521MD1610091+9999REMSYN060AAXX  16051 01033 46/// /1507 10040 21010 39752 49781 56009;
0130010330999992008011606004+70250+019500FM-12+002499999V0201501N007019999999N9999999N1+00451-00131097791ADDKA1120N+00181MA1999999097501MD1610061+9999REMSYN076AAXX  16061 01033 46/// /1507 10045 21013 39750 49779 56006 333 20018 91111;
0101010330999992008011607004+70250+019500FM-12+002499999V0201501N007019999999N9999999N1+00481-00071097791ADDMA1999999097511MD1510021+9999REMSYN060AAXX  16071 01033 46/// /1507 10048 21007 39751 49779 55002;
0101010330999992008011608004+70250+019500FM-12+002499999V0201501N009019999999N9999999N1+00541-00041097791ADDMA1999999097511MD1610011+9999REMSYN060AAXX  16081 01033 46/// /1509 10054 21004 39751 49779 56001;
0101010330999992008011609004+70250+019500FM-12+002499999V0201601N006019999999N9999999N1+00551-00041097851ADDMA1999999097571MD1310071+9999REMSYN060AAXX  16091 01033 46/// /1606 10055 21004 39757 49785 53007;
0101010330999992008011610004+70250+019500FM-12+002499999V0202401N012019999999N9999999N1+00401+00101098191ADDMA1999999097901MD1310391+9999REMSYN060AAXX  16101 01033 46/// /2412 10040 20010 39790 49819 53039;
0101010330999992008011611004+70250+019500FM-12+002499999V0202501N014019999999N9999999N1+00271-00131098391ADDMA1999999098101MD1310591+9999REMSYN060AAXX  16111 01033 46/// /2514 10027 21013 39810 49839 53059;
0111010330999992008011612004+70250+019500FM-12+002499999V0202401N013019999999N9999999N1+00221-00251098531ADDMA1999999098241MD1110671+9999REMSYN070AAXX  16121 01033 46/// /2413 10022 21025 39824 49853 51067 333 91121;
0101010330999992008011613004+70250+019500FM-12+002499999V0202301N011019999999N9999999N1+00171-00341098691ADDMA1999999098401MD1110501+9999REMSYN060AAXX  16131 01033 46/// /2311 10017 21034 39840 49869 51050;
0101010330999992008011614004+70250+019500FM-12+002499999V0202501N011019999999N9999999N1+00141-00381098841ADDMA1999999098541MD1210441+9999REMSYN060AAXX  16141 01033 46/// /2511 10014 21038 39854 49884 52044;
0101010330999992008011615004+70250+019500FM-12+002499999V0202401N011019999999N9999999N1+00141-00461098951ADDMA1999999098651MD1110411+9999REMSYN060AAXX  16151 01033 46/// /2411 10014 21046 39865 49895 51041;
0101010330999992008011616004+70250+019500FM-12+002499999V0202301N011019999999N9999999N1+00121-00621099051ADDMA1999999098751MD1110351+9999REMSYN060AAXX  16161 01033 46/// /2311 10012 21062 39875 49905 51035;
0101010330999992008011617004+70250+019500FM-12+002499999V0202401N009019999999N9999999N1+00031-00471099131ADDMA1999999098841MD1110301+9999REMSYN060AAXX  16171 01033 46/// /2409 10003 21047 39884 49913 51030;
0130010330999992008011618004+70250+019500FM-12+002499999V0202301N013019999999N9999999N1+00071-00331099201ADDKA1120M+00621MA1999999098901MD1110251+9999REMSYN076AAXX  16181 01033 46/// /2313 10007 21033 39890 49920 51025 333 10062 91119;
0101010330999992008011619004+70250+019500FM-12+002499999V0202401N009019999999N9999999N1-00031-00351099291ADDMA1999999098991MD1210241+9999REMSYN060AAXX  16191 01033 46/// /2409 11003 21035 39899 49929 52024;
0101010330999992008011620004+70250+019500FM-12+002499999V0202201N007019999999N9999999N1-00021-00421099331ADDMA1999999099031MD1110191+9999REMSYN060AAXX  16201 01033 46/// /2207 11002 21042 39903 49933 51019;
0101010330999992008011621004+70250+019500FM-12+002499999V0202001N007019999999N9999999N1-00071-00361099401ADDMA1999999099101MD1110201+9999REMSYN060AAXX  16211 01033 46/// /2007 11007 21036 39910 49940 51020;
0101010330999992008011622004+70250+019500FM-12+002499999V0201901N006019999999N9999999N1-00121-00281099441ADDMA1999999099141MD1210151+9999REMSYN060AAXX  16221 01033 46/// /1906 11012 21028 39914 49944 52015;
0101010330999992008011623004+70250+019500FM-12+002499999V0201901N004019999999N9999999N1-00071-00441099441ADDMA1999999099141MD1110111+9999REMSYN060AAXX  16231 01033 46/// /1904 11007 21044 39914 49944 51011;
0111010330999992008011700004+70250+019500FM-12+002499999V0202401N004019999999N9999999N1-00161-00381099511ADDMA1999999099211MD1310111+9999REMSYN070AAXX  17001 01033 46/// /2404 11016 21038 39921 49951 53011 333 91116;
0101010330999992008011701004+70250+019500FM-12+002499999V0202701N008019999999N9999999N1-00161-00331099511ADDMA1999999099211MD1210071+9999REMSYN060AAXX  17011 01033 46/// /2708 11016 21033 39921 49951 52007;
0101010330999992008011702004+70250+019500FM-12+002499999V0201501N004019999999N9999999N1-00091-00411099521ADDMA1999999099221MD1110081+9999REMSYN060AAXX  17021 01033 46/// /1504 11009 21041 39922 49952 51008;
0101010330999992008011703004+70250+019500FM-12+002499999V0201501N003019999999N9999999N1-00091-00351099541ADDMA1999999099241MD1310031+9999REMSYN060AAXX  17031 01033 46/// /1503 11009 21035 39924 49954 53003;
0101010330999992008011704004+70250+019500FM-12+002499999V0202701N006019999999N9999999N1-00081-00381099591ADDMA1999999099291MD1310081+9999REMSYN060AAXX  17041 01033 46/// /2706 11008 21038 39929 49959 53008;
0101010330999992008011705004+70250+019500FM-12+002499999V0201501N004019999999N9999999N1-00101-00371099591ADDMA1999999099291MD1110071+9999REMSYN060AAXX  17051 01033 46/// /1504 11010 21037 39929 49959 51007;
0130010330999992008011706004+70250+019500FM-12+002499999V0202001N004019999999N9999999N1-00181-00341099671ADDKA1120N-00181MA1999999099371MD1310131+9999REMSYN076AAXX  17061 01033 46/// /2004 11018 21034 39937 49967 53013 333 21018 91113;
0101010330999992008011707004+70250+019500FM-12+002499999V0202201N006019999999N9999999N1-00101-00401099701ADDMA1999999099401MD1310111+9999REMSYN060AAXX  17071 01033 46/// /2206 11010 21040 39940 49970 53011;
0101010330999992008011708004+70250+019500FM-12+002499999V0202501N008019999999N9999999N1+00001-00591099731ADDMA1999999099431MD1110141+9999REMSYN060AAXX  17081 01033 46/// /2508 10000 21059 39943 49973 51014;
0101010330999992008011709004+70250+019500FM-12+002499999V0202901N012019999999N9999999N1-00041-00361099791ADDMA1999999099491MD1310121+9999REMSYN060AAXX  17091 01033 46/// /2912 11004 21036 39949 49979 53012;
0101010330999992008011710004+70250+019500FM-12+002499999V0202901N008019999999N9999999N1-00121-00481099881ADDMA1999999099581MD1310181+9999REMSYN060AAXX  17101 01033 46/// /2908 11012 21048 39958 49988 53018;
0101010330999992008011711004+70250+019500FM-12+002499999V0202701N009019999999N9999999N1-00031-00781099951ADDMA1999999099651MD1310221+9999REMSYN060AAXX  17111 01033 46/// /2709 11003 21078 39965 49995 53022;
0111010330999992008011712004+70250+019500FM-12+002499999V0202801N009019999999N9999999N1-00051-00581100001ADDMA1999999099701MD1110211+9999REMSYN070AAXX  17121 01033 46/// /2809 11005 21058 39970 40000 51021 333 91116;
0101010330999992008011714004+70250+019500FM-12+002499999V0202301N006019999999N9999999N1-00141-00491100141ADDMA1999999099841MD1210191+9999REMSYN060AAXX  17141 01033 46/// /2306 11014 21049 39984 40014 52019;
0101010330999992008011715004+70250+019500FM-12+002499999V0202401N005019999999N9999999N1-00081-00601100181ADDMA1999999099871MD1110171+9999REMSYN060AAXX  17151 01033 46/// /2405 11008 21060 39987 40018 51017;
0101010330999992008011716004+70250+019500FM-12+002499999V0202401N007019999999N9999999N1-00031-00511100241ADDMA1999999099941MD1310151+9999REMSYN060AAXX  17161 01033 46/// /2407 11003 21051 39994 40024 53015;
0101010330999992008011717004+70250+019500FM-12+002499999V0202301N006019999999N9999999N1-00061-00421100271ADDMA1999999099971MD1210131+9999REMSYN060AAXX  17171 01033 46/// /2306 11006 21042 39997 40027 52013;
0130010330999992008011718004+70250+019500FM-12+002499999V0202001N005019999999N9999999N1-00111-00351100301ADDKA1120M+00021MA1999999100001MD1110131+9999REMSYN076AAXX  17181 01033 46/// /2005 11011 21035 30000 40030 51013 333 10002 91115;
0101010330999992008011719004+70250+019500FM-12+002499999V0202001N007019999999N9999999N1-00051-00341100321ADDMA1999999100021MD1110081+9999REMSYN060AAXX  17191 01033 46/// /2007 11005 21034 30002 40032 51008;
0101010330999992008011720004+70250+019500FM-12+002499999V0202101N009019999999N9999999N1-00021-00361100361ADDMA1999999100061MD1310091+9999REMSYN060AAXX  17201 01033 46/// /2109 11002 21036 30006 40036 53009;
0101010330999992008011721004+70250+019500FM-12+002499999V0201901N009019999999N9999999N1+00011-00461100361ADDMA1999999100061MD1110061+9999REMSYN060AAXX  17211 01033 46/// /1909 10001 21046 30006 40036 51006;
0101010330999992008011722004+70250+019500FM-12+002499999V0201901N009019999999N9999999N1+00041-00501100361ADDMA1999999100061MD1110041+9999REMSYN060AAXX  17221 01033 46/// /1909 10004 21050 30006 40036 51004;
0101010330999992008011723004+70250+019500FM-12+002499999V0201901N009019999999N9999999N1+00071-00421100431ADDMA1999999100131MD1310071+9999REMSYN060AAXX  17231 01033 46/// /1909 10007 21042 30013 40043 53007;
0111010330999992008011800004+70250+019500FM-12+002499999V0202201N008019999999N9999999N1+00101-00251100501ADDMA1999999100201MD1310141+9999REMSYN070AAXX  18001 01033 46/// /2208 10010 21025 30020 40050 53014 333 91115;
0101010330999992008011801004+70250+019500FM-12+002499999V0202001N007019999999N9999999N1+00041-00181100561ADDMA1999999100261MD1110201+9999REMSYN060AAXX  18011 01033 46/// /2007 10004 21018 30026 40056 51020;
0101010330999992008011802004+70250+019500FM-12+002499999V0202001N011019999999N9999999N1+00031-00131100621ADDMA1999999100321MD1110191+9999REMSYN060AAXX  18021 01033 46/// /2011 10003 21013 30032 40062 51019;
0101010330999992008011803004+70250+019500FM-12+002499999V0202101N010019999999N9999999N1+00031-00121100691ADDMA1999999100391MD1310191+9999REMSYN060AAXX  18031 01033 46/// /2110 10003 21012 30039 40069 53019;
0101010330999992008011804004+70250+019500FM-12+002499999V0202101N009019999999N9999999N1+00071-00071100731ADDMA1999999100431MD1110171+9999REMSYN060AAXX  18041 01033 46/// /2109 10007 21007 30043 40073 51017;
0101010330999992008011805004+70250+019500FM-12+002499999V0202001N009019999999N9999999N1+00021-00101100771ADDMA1999999100471MD1110151+9999REMSYN060AAXX  18051 01033 46/// /2009 10002 21010 30047 40077 51015;
0130010330999992008011806004+70250+019500FM-12+002499999V0202101N009019999999N9999999N1+00051-00121100801ADDKA1120N-00111MA1999999100501MD1110111+9999REMSYN076AAXX  18061 01033 46/// /2109 10005 21012 30050 40080 51011 333 21011 91115;
0101010330999992008011807004+70250+019500FM-12+002499999V0201901N005019999999N9999999N1+00091-00101100841ADDMA1999999100541MD1210111+9999REMSYN060AAXX  18071 01033 46/// /1905 10009 21010 30054 40084 52011;
0101010330999992008011808004+70250+019500FM-12+002499999V0202001N006019999999N9999999N1+00141-00181100881ADDMA1999999100581MD1310111+9999REMSYN060AAXX  18081 01033 46/// /2006 10014 21018 30058 40088 53011;
0101010330999992008011809004+70250+019500FM-12+002499999V0201901N005019999999N9999999N1+00141-00231100901ADDMA1999999100601MD1110101+9999REMSYN060AAXX  18091 01033 46/// /1905 10014 21023 30060 40090 51010;
0101010330999992008011810004+70250+019500FM-12+002499999V0201701N004019999999N9999999N1+00111-00231100921ADDMA1999999100621MD1110081+9999REMSYN060AAXX  18101 01033 46/// /1704 10011 21023 30062 40092 51008;
0101010330999992008011811004+70250+019500FM-12+002499999V0201701N002019999999N9999999N1+00091-00271100911ADDMA1999999100601MD1010021+9999REMSYN060AAXX  18111 01033 46/// /1702 10009 21027 30060 40091 50002;
0111010330999992008011812004+70250+019500FM-12+002499999V0201701N004019999999N9999999N1+00111-00251100881ADDMA1999999100581MD1810021+9999REMSYN070AAXX  18121 01033 46/// /1704 10011 21025 30058 40088 58002 333 91110;
0101010330999992008011813004+70250+019500FM-12+002499999V0200301N001019999999N9999999N1+00091-00311100851ADDMA1999999100551MD1810071+9999REMSYN060AAXX  18131 01033 46/// /0301 10009 21031 30055 40085 58007;
0101010330999992008011814004+70250+019500FM-12+002499999V0200101N001019999999N9999999N1+00041-00351100811ADDMA1999999100511MD1810091+9999REMSYN060AAXX  18141 01033 46/// /0101 10004 21035 30051 40081 58009;
0101010330999992008011815004+70250+019500FM-12+002499999V0201901N002019999999N9999999N1+00011-00371100761ADDMA1999999100451MD1810131+9999REMSYN060AAXX  18151 01033 46/// /1902 10001 21037 30045 40076 58013;
0101010330999992008011816004+70250+019500FM-12+002499999V0201401N002019999999N9999999N1+00031-00351100681ADDMA1999999100381MD1810171+9999REMSYN060AAXX  18161 01033 46/// /1402 10003 21035 30038 40068 58017;
0101010330999992008011817004+70250+019500FM-12+002499999V0203201N001019999999N9999999N1+00041-00361100611ADDMA1999999100301MD1810211+9999REMSYN060AAXX  18171 01033 46/// /3201 10004 21036 30030 40061 58021;
0130010330999992008011818004+70250+019500FM-12+002499999V0202601N001019999999N9999999N1+00051-00511100521ADDKA1120M+00151MA1999999100221MD1810231+9999REMSYN076AAXX  18181 01033 46/// /2601 10005 21051 30022 40052 58023 333 10015 91107;
0101010330999992008011819004+70250+019500FM-12+002499999V0209999C000019999999N9999999N1+00131-00551100461ADDMA1999999100161MD1610221+9999REMSYN060AAXX  18191 01033 46/// /0000 10013 21055 30016 40046 56022;
0101010330999992008011820004+70250+019500FM-12+002499999V0201601N003019999999N9999999N1+00191-00841100341ADDMA1999999100041MD1810261+9999REMSYN060AAXX  18201 01033 46/// /1603 10019 21084 30004 40034 58026;
0101010330999992008011821004+70250+019500FM-12+002499999V0201101N012019999999N9999999N1+00261-00951100241ADDMA1999999099951MD1810271+9999REMSYN060AAXX  18211 01033 46/// /1112 10026 21095 39995 40024 58027;
0101010330999992008011822004+70250+019500FM-12+002499999V0201101N014019999999N9999999N1+00221-01001100101ADDMA1999999099801MD1810361+9999REMSYN060AAXX  18221 01033 46/// /1114 10022 21100 39980 40010 58036;
0101010330999992008011823004+70250+019500FM-12+002499999V0201201N009019999999N9999999N1+00251-00921100041ADDMA1999999099741MD1610301+9999REMSYN060AAXX  18231 01033 46/// /1209 10025 21092 39974 40004 56030;
0111010330999992008011900004+70250+019500FM-12+002499999V0201301N012019999999N9999999N1+00301-00471099861ADDMA1999999099571MD1810381+9999REMSYN070AAXX  19001 01033 46/// /1312 10030 21047 39957 49986 58038 333 91118;
0101010330999992008011901004+70250+019500FM-12+002499999V0201301N010019999999N9999999N1+00301-00471099791ADDMA1999999099501MD1810301+9999REMSYN060AAXX  19011 01033 46/// /1310 10030 21047 39950 49979 58030;
0101010330999992008011902004+70250+019500FM-12+002499999V0201201N008019999999N9999999N1+00261-00491099681ADDMA1999999099391MD1610351+9999REMSYN060AAXX  19021 01033 46/// /1208 10026 21049 39939 49968 56035;
0101010330999992008011903004+70250+019500FM-12+002499999V0201201N014019999999N9999999N1+00181-00481099551ADDMA1999999099251MD1810321+9999REMSYN060AAXX  19031 01033 46/// /1214 10018 21048 39925 49955 58032;
0101010330999992008011904004+70250+019500FM-12+002499999V0201201N013019999999N9999999N1+00201-00481099401ADDMA1999999099101MD1810401+9999REMSYN060AAXX  19041 01033 46/// /1213 10020 21048 39910 49940 58040;
0101010330999992008011905004+70250+019500FM-12+002499999V0201201N012019999999N9999999N1+00141-00481099341ADDMA1999999099041MD1610351+9999REMSYN060AAXX  19051 01033 46/// /1212 10014 21048 39904 49934 56035;
0130010330999992008011906004+70250+019500FM-12+002499999V0201201N012019999999N9999999N1+00201-00611099211ADDKA1120N+00051MA1999999098921MD1610331+9999REMSYN076AAXX  19061 01033 46/// /1212 10020 21061 39892 49921 56033 333 20005 91121;
0101010330999992008011907004+70250+019500FM-12+002499999V0201101N010019999999N9999999N1+00161-00551099201ADDMA1999999098911MD1610191+9999REMSYN060AAXX  19071 01033 46/// /1110 10016 21055 39891 49920 56019;
0101010330999992008011908004+70250+019500FM-12+002499999V0201001N010019999999N9999999N1+00191-00591099141ADDMA1999999098841MD1610201+9999REMSYN060AAXX  19081 01033 46/// /1010 10019 21059 39884 49914 56020;
0101010330999992008011909004+70250+019500FM-12+002499999V0201301N009019999999N9999999N1+00261-00521099081ADDMA1999999098781MD1810141+9999REMSYN060AAXX  19091 01033 46/// /1309 10026 21052 39878 49908 58014;
0101010330999992008011910004+70250+019500FM-12+002499999V0201301N008019999999N9999999N1+00311-00471098981ADDMA1999999098691MD1810221+9999REMSYN060AAXX  19101 01033 46/// /1308 10031 21047 39869 49898 58022;
0101010330999992008011911004+70250+019500FM-12+002499999V0201201N015019999999N9999999N1+00321-00421098811ADDMA1999999098511MD1810331+9999REMSYN060AAXX  19111 01033 46/// /1215 10032 21042 39851 49881 58033;
0111010330999992008011912004+70250+019500FM-12+002499999V0201201N019019999999N9999999N1+00281-00391098691ADDMA1999999098391MD1810391+9999REMSYN070AAXX  19121 01033 46/// /1219 10028 21039 39839 49869 58039 333 91124;
0101010330999992008011913004+70250+019500FM-12+002499999V0201101N019019999999N9999999N1+00231-00411098661ADDMA1999999098361MD1610331+9999REMSYN060AAXX  19131 01033 46/// /1119 10023 21041 39836 49866 56033;
0101010330999992008011914004+70250+019500FM-12+002499999V0201101N010019999999N9999999N1+00251-00411098741ADDMA1999999098451MD1510061+9999REMSYN060AAXX  19141 01033 46/// /1110 10025 21041 39845 49874 55006;
0101010330999992008011915004+70250+019500FM-12+002499999V0201001N014019999999N9999999N1+00281-00441098731ADDMA1999999098431MD1310041+9999REMSYN060AAXX  19151 01033 46/// /1014 10028 21044 39843 49873 53004;
0101010330999992008011916004+70250+019500FM-12+002499999V0200901N013019999999N9999999N1+00221-00451098711ADDMA1999999098421MD1010061+9999REMSYN060AAXX  19161 01033 46/// /0913 10022 21045 39842 49871 50006;
0101010330999992008011917004+70250+019500FM-12+002499999V0201001N013019999999N9999999N1+00241-00421098661ADDMA1999999098371MD1810081+9999REMSYN060AAXX  19171 01033 46/// /1013 10024 21042 39837 49866 58008;
0130010330999992008011918004+70250+019500FM-12+002499999V0201001N015019999999N9999999N1+00231-00441098641ADDKA1120M+00341MA1999999098351MD1810081+9999REMSYN076AAXX  19181 01033 46/// /1015 10023 21044 39835 49864 58008 333 10034 91127;
0101010330999992008011919004+70250+019500FM-12+002499999V0201001N011019999999N9999999N1+00231-00371098671ADDMA1999999098371MD1510051+9999REMSYN060AAXX  19191 01033 46/// /1011 10023 21037 39837 49867 55005;
0101010330999992008011920004+70250+019500FM-12+002499999V0200901N013019999999N9999999N1+00231-00361098641ADDMA1999999098341MD1810031+9999REMSYN060AAXX  19201 01033 46/// /0913 10023 21036 39834 49864 58003;
0101010330999992008011921004+70250+019500FM-12+002499999V0201001N016019999999N9999999N1+00241-00411098671ADDMA1999999098381MD1310031+9999REMSYN060AAXX  19211 01033 46/// /1016 10024 21041 39838 49867 53003;
0101010330999992008011922004+70250+019500FM-12+002499999V0201101N012019999999N9999999N1+00281-00451098761ADDMA1999999098461MD1310091+9999REMSYN060AAXX  19221 01033 46/// /1112 10028 21045 39846 49876 53009;
0101010330999992008011923004+70250+019500FM-12+002499999V0201301N005019999999N9999999N1+00251-00391098841ADDMA1999999098551MD1310211+9999REMSYN060AAXX  19231 01033 46/// /1305 10025 21039 39855 49884 53021;
0111010330999992008012000004+70250+019500FM-12+002499999V0201101N011019999999N9999999N1+00241-00311098841ADDMA1999999098551MD1110171+9999REMSYN070AAXX  20001 01033 46/// /1111 10024 21031 39855 49884 51017 333 91125;
0101010330999992008012001004+70250+019500FM-12+002499999V0201001N008019999999N9999999N1+00271-00331098921ADDMA1999999098631MD1110171+9999REMSYN060AAXX  20011 01033 46/// /1008 10027 21033 39863 49892 51017;
0101010330999992008012002004+70250+019500FM-12+002499999V0201601N006019999999N9999999N1+00291-00381098941ADDMA1999999098641MD1310091+9999REMSYN060AAXX  20021 01033 46/// /1606 10029 21038 39864 49894 53009;
0101010330999992008012003004+70250+019500FM-12+002499999V0201101N010019999999N9999999N1+00281-00381098961ADDMA1999999098671MD1110121+9999REMSYN060AAXX  20031 01033 46/// /1110 10028 21038 39867 49896 51012;
0101010330999992008012004004+70250+019500FM-12+002499999V0200901N008019999999N9999999N1+00251-00341099021ADDMA1999999098731MD1310101+9999REMSYN060AAXX  20041 01033 46/// /0908 10025 21034 39873 49902 53010;
0101010330999992008012005004+70250+019500FM-12+002499999V0201001N004019999999N9999999N1+00271-00331099051ADDMA1999999098761MD1210121+9999REMSYN060AAXX  20051 01033 46/// /1004 10027 21033 39876 49905 52012;
0130010330999992008012006004+70250+019500FM-12+002499999V0200601N005019999999N9999999N1+00271-00261099091ADDKA1120N+00211MA1999999098791MD1110121+9999REMSYN076AAXX  20061 01033 46/// /0605 10027 21026 39879 49909 51012 333 20021 91120;
0101010330999992008012007004+70250+019500FM-12+002499999V0200701N005019999999N9999999N1+00281-00161099141ADDMA1999999098851MD1310121+9999REMSYN060AAXX  20071 01033 46/// /0705 10028 21016 39885 49914 53012;
0101010330999992008012008004+70250+019500FM-12+002499999V0200201N003019999999N9999999N1+00281-00171099211ADDMA1999999098911MD1310151+9999REMSYN060AAXX  20081 01033 46/// /0203 10028 21017 39891 49921 53015;
0101010330999992008012009004+70250+019500FM-12+002499999V0200501N009019999999N9999999N1+00321-00061099241ADDMA1999999098941MD1110151+9999REMSYN060AAXX  20091 01033 46/// /0509 10032 21006 39894 49924 51015;
0101010330999992008012010004+70250+019500FM-12+002499999V0200701N009019999999N9999999N1+00311-00101099291ADDMA1999999099001MD1210151+9999REMSYN060AAXX  20101 01033 46/// /0709 10031 21010 39900 49929 52015;
0101010330999992008012011004+70250+019500FM-12+002499999V0200701N012019999999N9999999N1+00301-00171099311ADDMA1999999099011MD1110101+9999REMSYN060AAXX  20111 01033 46/// /0712 10030 21017 39901 49931 51010;
0111010330999992008012012004+70250+019500FM-12+002499999V0200701N010019999999N9999999N1+00281-00181099391ADDMA1999999099091MD1310151+9999REMSYN070AAXX  20121 01033 46/// /0710 10028 21018 39909 49939 53015 333 91123;
0101010330999992008012013004+70250+019500FM-12+002499999V0200501N007019999999N9999999N1+00271-00171099461ADDMA1999999099161MD1310161+9999REMSYN060AAXX  20131 01033 46/// /0507 10027 21017 39916 49946 53016;
0101010330999992008012014004+70250+019500FM-12+002499999V0200601N011019999999N9999999N1+00261-00171099521ADDMA1999999099221MD1110211+9999REMSYN060AAXX  20141 01033 46/// /0611 10026 21017 39922 49952 51021;
0101010330999992008012015004+70250+019500FM-12+002499999V0200401N013019999999N9999999N1+00251-00191099531ADDMA1999999099241MD1110151+9999REMSYN060AAXX  20151 01033 46/// /0413 10025 21019 39924 49953 51015;
0101010330999992008012016004+70250+019500FM-12+002499999V0200501N013019999999N9999999N1+00241-00291099571ADDMA1999999099271MD1110111+9999REMSYN060AAXX  20161 01033 46/// /0513 10024 21029 39927 49957 51011;
0101010330999992008012017004+70250+019500FM-12+002499999V0200401N014019999999N9999999N1+00231-00331099601ADDMA1999999099301MD1310081+9999REMSYN060AAXX  20171 01033 46/// /0414 10023 21033 39930 49960 53008;
0130010330999992008012018004+70250+019500FM-12+002499999V0200501N012019999999N9999999N1+00211-00361099651ADDKA1120M+00331MA1999999099351MD1310111+9999REMSYN076AAXX  20181 01033 46/// /0512 10021 21036 39935 49965 53011 333 10033 91126;
0101010330999992008012019004+70250+019500FM-12+002499999V0200601N012019999999N9999999N1+00171-00541099691ADDMA1999999099391MD1310121+9999REMSYN060AAXX  20191 01033 46/// /0612 10017 21054 39939 49969 53012;
0101010330999992008012020004+70250+019500FM-12+002499999V0200501N011019999999N9999999N1+00151-00571099761ADDMA1999999099461MD1310161+9999REMSYN060AAXX  20201 01033 46/// /0511 10015 21057 39946 49976 53016;
0101010330999992008012021004+70250+019500FM-12+002499999V0200701N011019999999N9999999N1+00171-00621099781ADDMA1999999099481MD1110131+9999REMSYN060AAXX  20211 01033 46/// /0711 10017 21062 39948 49978 51013;
0101010330999992008012022004+70250+019500FM-12+002499999V0200601N008019999999N9999999N1+00191-00691099861ADDMA1999999099561MD1310171+9999REMSYN060AAXX  20221 01033 46/// /0608 10019 21069 39956 49986 53017;
0101010330999992008012023004+70250+019500FM-12+002499999V0200501N009019999999N9999999N1+00191-00391099921ADDMA1999999099621MD1310161+9999REMSYN060AAXX  20231 01033 46/// /0509 10019 21039 39962 49992 53016;
0111010330999992008012100004+70250+019500FM-12+002499999V0200601N009019999999N9999999N1+00181-00391099931ADDMA1999999099631MD1110151+9999REMSYN070AAXX  21001 01033 46/// /0609 10018 21039 39963 49993 51015 333 91122;
