0122010014999992010010313204+59783+005350FM-15+0049ENSO V0200901N001010060019N0112651N1-00301-00601999999ADDGA1071+006001999GF107991999999999999999999MA1102001999999REMMET053METAR ENSO 031320Z 09002KT 9999 BKN020 M03/M06 Q1020;
0122010014999992010010313504+59783+005350FM-15+0049ENSO V0201001N001010060019N0112651N1-00301-00701999999ADDGA1071+006001999GF107991999999999999999999MA1101901999999REMMET053METAR ENSO 031350Z 10002KT 9999 BKN020 M03/M07 Q1019;
0122010014999992010010314204+59783+005350FM-15+0049ENSO V0201301N001010060019N0112651N1-00301-00701999999ADDGA1071+006001999GF107991999999999999999999MA1101901999999REMMET053METAR ENSO 031420Z 13002KT 9999 BKN020 M03/M07 Q1019;
0122010014999992010010314504+59783+005350FM-15+0049ENSO V0201201N001512200019N0112651N1-00301-00701999999ADDGA1041+006001999GF104991999999999999999999MA1101901999999REMMET053METAR ENSO 031450Z 12003KT 9999 SCT020 M03/M07 Q1019;
0145010014999992010010315204+59783+005350FM-15+0049ENSO V0201001N001512200019N0112651N1-00301-00701999999ADDGA1021+006001999GA2041+009001999GF104991999999999999999999MA1101801999999REMMET060METAR ENSO 031520Z 10003KT 9999 FEW020 SCT030 M03/M07 Q1018;
0145010014999992010010315504+59783+005350FM-15+0049ENSO V0200501N001012200019N0112651N1-00401-00701999999ADDGA1021+006001999GA2041+009001999GF104991999999999999999999MA1101801999999REMMET060METAR ENSO 031550Z 05002KT 9999 FEW020 SCT030 M04/M07 Q1018;
0173010014999992010010316204+59783+005350FM-15+0049ENSO V0200401N00151006001CN0112651N1-00401-00601999999ADDGA1021+003901999GA2041+006001999GA3071+009001999GF107991999999999999999999MA1101801999999REMMET072METAR ENSO 031620Z 04003KT 9999 SHSN FEW013 SCT020 BKN030 M04/M06 Q1018;
0151010014999992010010316504+59783+005350FM-15+0049ENSO V0200501N001010045019N0112651N1-00301-00601999999ADDGA1021+003601999GA2071+004501999GF107991999999999999999999MA1101801999999REMMET066METAR ENSO 031650Z 05002KT 9999 -SHSN FEW012 BKN015 M03/M06 Q1018;
0168010014999992010010317204+59783+005350FM-15+0049ENSO V0200801N00211009001CN0112651N1-00401-00501999999ADDGA1021+003601999GA2041+009001999GA3071+012001999GF107991999999999999999999MA1101801999999REMMET067METAR ENSO 031720Z 08004KT 9999 FEW012 SCT030 BKN040 M04/M05 Q1018;
0168010014999992010010317504+59783+005350FM-15+0049ENSO V0200901N00211009001CN0112651N1-00301-00501999999ADDGA1021+003601999GA2041+009001999GA3071+012001999GF107991999999999999999999MA1101801999999REMMET067METAR ENSO 031750Z 09004KT 9999 FEW012 SCT030 BKN040 M03/M05 Q1018;
0168010014999992010010318204+59783+005350FM-15+0049ENSO V0201301N00051009001CN0112651N1-00301-00501999999ADDGA1021+003601999GA2041+009001999GA3071+012001999GF107991999999999999999999MA1101691999999REMMET067METAR ENSO 031820Z 13001KT 9999 FEW012 SCT030 BKN040 M03/M05 Q1017;
0168010014999992010010404504+59783+005350FM-15+0049ENSO V0201401N00151004501CN0112651N1-00201-00201999999ADDGA1021+001801999GA2041+004501999GA3071+009001999GF107991999999999999999999MA1101081999999REMMET067METAR ENSO 040450Z 14003KT 9999 FEW006 SCT015 BKN030 M02/M02 Q1011;
0168010014999992010010405204+59783+005350FM-15+0049ENSO V0201201N00151003001CN0112651N1-00201-00201999999ADDGA1021+000601999GA2041+003001999GA3071+005401999GF107991999999999999999999MA1101081999999REMMET067METAR ENSO 040520Z 12003KT 9999 FEW002 SCT010 BKN018 M02/M02 Q1011;
0174010014999992010010405504+59783+005350FM-15+0049ENSO V0201401N00211001501CN0112651N1-00101-00101999999ADDGA1021+000601999GA2041+001501999GA3071+003001999GF107991999999999999999999MA1101021999999REMMET073METAR ENSO 040550Z 14004KT 9999 -SHSN FEW002 SCT005 BKN010 M01/M01 Q1010;
0127010014999992010010406204+59783+005350FM-15+0049ENSO V0201201N001510012019N0112651N1-00101-00101999999ADDGA1091+001201999GF109991999999000251999999MA1101021999999REMMET058METAR ENSO 040620Z 12003KT 9999 +SHSN VV004 M01/M01 Q1010;
0174010014999992010010406504+59783+005350FM-15+0049ENSO V0209999V00101001501CN0112651N1-00101-00101999999ADDGA1021+000901999GA2041+001501999GA3071+002101999GF107991999999999999999999MA1101021999999REMMET073METAR ENSO 040650Z VRB02KT 9999 -SHSN FEW003 SCT005 BKN007 M01/M01 Q1010;
0173010014999992010010407204+59783+005350FM-15+0049ENSO V0202901N00051001501CN0040001N1-00101-00101999999ADDGA1021+000901999GA2041+001501999GA3071+002101999GF107991999999999999999999MA1100911999999REMMET072METAR ENSO 040720Z 29001KT 4000 SHSN FEW003 SCT005 BKN007 M01/M01 Q1009;
0173010014999992010010407504+59783+005350FM-15+0049ENSO V0209999C00001001501CN0070001N1-00101-00101999999ADDGA1021+000901999GA2041+001501999GA3071+002101999GF107991999999999999999999MA1100911999999REMMET072METAR ENSO 040750Z 00000KT 7000 SHSN FEW003 SCT005 BKN007 M01/M01 Q1009;
0130010014999992010010408204+59783+005350FM-15+0049ENSO V0201001N000510006019N0030001N1-00101-00201999999ADDGA1091+000601999GF109991999999000251999999MA1100811999999MW1101REMMET055METAR ENSO 040820Z 10001KT 3000 BR VV002 M01/M02 Q1008;
0153010014999992010010408504+59783+005350FM-15+0049ENSO V0201301N001010015019N0030001N1+00201-00201999999ADDGA1021+000601999GA2071+001501999GF107991999999999999999999MA1100811999999MW1101REMMET062METAR ENSO 040850Z 13002KT 3000 BR FEW002 BKN005 02/M02 Q1008;
0179010014999992010010409204+59783+005350FM-15+0049ENSO V0201401N00051005401CN0112651N1-00101-00101999999ADDGA1021+000901999GA2041+005401999GA3071+009001999GF107991999999999999999999MA1100811999999MW1161REMMET072METAR ENSO 040920Z 14001KT 9999 VCSH FEW003 SCT018 BKN030 M01/M01 Q1008;
0127010014999992010010409504+59783+005350FM-15+0049ENSO V0209999C000010015019N0015001N1-00101-00101999999ADDGA1091+001501999GF109991999999000251999999MA1100811999999REMMET058METAR ENSO 040950Z 00000KT 1500 +SHSN VV005 M01/M01 Q1008;
0127010014999992010010410204+59783+005350FM-15+0049ENSO V0201401N001010009019N0010001N1-00101-00101999999ADDGA1091+000901999GF109991999999000251999999MA1100811999999REMMET058METAR ENSO 041020Z 14002KT 1000 +SHSN VV003 M01/M01 Q1008;
0179010014999992010010410504+59783+005350FM-15+0049ENSO V0209999C00001002101CN0112651N1-00101-00101999999ADDGA1021+000901999GA2041+002101999GA3071+004501999GF107991999999999999999999MA1100811999999MW1161REMMET072METAR ENSO 041050Z 00000KT 9999 VCSH FEW003 SCT007 BKN015 M01/M01 Q1008;
0179010014999992010010411204+59783+005350FM-15+0049ENSO V0201401N00051002101CN0112651N1-00101-00101999999ADDGA1021+000901999GA2041+002101999GA3071+004501999GF107991999999999999999999MA1100711999999MW1161REMMET072METAR ENSO 041120Z 14001KT 9999 VCSH FEW003 SCT007 BKN015 M01/M01 Q1007;
0179010014999992010010411504+59783+005350FM-15+0049ENSO V0201301N00151002101CN0112651N1-00101-00101999999ADDGA1021+000901999GA2041+002101999GA3071+004501999GF107991999999999999999999MA1100711999999MW1161REMMET072METAR ENSO 041150Z 13003KT 9999 VCSH FEW003 SCT007 BKN015 M01/M01 Q1007;
0179010014999992010010412204+59783+005350FM-15+0049ENSO V0201101N00211002401CN0112651N1-00101-00101999999ADDGA1021+001501999GA2041+002401999GA3071+003601999GF107991999999999999999999MA1100611999999MW1161REMMET072METAR ENSO 041220Z 11004KT 9999 VCSH FEW005 SCT008 BKN012 M01/M01 Q1006;
0179010014999992010010412504+59783+005350FM-15+0049ENSO V0201001N00211002101CN0112651N1-00101-00101999999ADDGA1021+001501999GA2041+002101999GA3071+003601999GF107991999999999999999999MA1100611999999MW1161REMMET072METAR ENSO 041250Z 10004KT 9999 VCSH FEW005 SCT007 BKN012 M01/M01 Q1006;
0144010014999992010010413204+59783+005350FM-15+0049ENSO V0201401N002110036019N0112651N1+00001-00101999999ADDGA1021+000151999GA2071+003601999GF107991999999999999999999MA1100611999999REMMET059METAR ENSO 041320Z 14004KT 9999 FEW00 BKN012 M00/M01 Q1006;
0163010014999992010010413504+59783+005350FM-15+0049ENSO V0201801N001510030019N0090001N1+00001-00101999999ADDGA1041+001801999GA2071+003001999GF107991999999999999999999MA1100611999999MW1711REMMET072METAR ENSO 041350Z 18003KT 130V220 9000 -SN SCT006 BKN010 M00/M01 Q1006;
0112010014999992010010414204+59783+005350FM-15+0049ENSO V0209999C000012200019N0112651N1-00101-00101999999ADDMA1100501999999MW1311REMMET079METAR ENSO 041420Z 00000KT 9999 4000SSE -SN FEW003 SCT008 BKN011 M01/M01 Q1005;
0178010014999992010010414504+59783+005350FM-15+0049ENSO V0201101N00211003001CN0112651N1-00101-00201999999ADDGA1021+000901999GA2041+003001999GA3071+004501999GF107991999999999999999999MA1100511999999MW1711REMMET071METAR ENSO 041450Z 11004KT 9999 -SN FEW003 SCT010 BKN015 M01/M02 Q1005;
0168010014999992010010415204+59783+005350FM-15+0049ENSO V0200801N00211003601CN0112651N1-00101-00201999999ADDGA1021+002101999GA2041+003601999GA3071+005401999GF107991999999999999999999MA1100511999999REMMET067METAR ENSO 041520Z 08004KT 9999 FEW007 SCT012 BKN018 M01/M02 Q1005;
0168010014999992010010415504+59783+005350FM-15+0049ENSO V0200801N00211006001CN0112651N1-00101-00201999999ADDGA1021+003001999GA2041+006001999GA3071+007801999GF107991999999999999999999MA1100511999999REMMET067METAR ENSO 041550Z 08004KT 9999 FEW010 SCT020 BKN026 M01/M02 Q1005;
0145010014999992010010416204+59783+005350FM-15+0049ENSO V0201001N003112200019N0112651N1-00201-00301999999ADDGA1021+003601999GA2041+009001999GF104991999999999999999999MA1100511999999REMMET060METAR ENSO 041620Z 10006KT 9999 FEW012 SCT030 M02/M03 Q1005;
0145010014999992010010416504+59783+005350FM-15+0049ENSO V0201101N003112200019N0112651N1-00201-00201999999ADDGA1021+003901999GA2041+009001999GF104991999999999999999999MA1100511999999REMMET060METAR ENSO 041650Z 11006KT 9999 FEW013 SCT030 M02/M02 Q1005;
0145010014999992010010417204+59783+005350FM-15+0049ENSO V0201101N002610105019N0112651N1-00201-00201999999ADDGA1021+004501999GA2071+010501999GF107991999999999999999999MA1100511999999REMMET060METAR ENSO 041720Z 11005KT 9999 FEW015 BKN035 M02/M02 Q1005;
0145010014999992010010417504+59783+005350FM-15+0049ENSO V0201101N001012200019N0112651N1-00101-00201999999ADDGA1021+003901999GA2041+010501999GF104991999999999999999999MA1100511999999REMMET060METAR ENSO 041750Z 11002KT 9999 FEW013 SCT035 M01/M02 Q1005;
0145010014999992010010418204+59783+005350FM-15+0049ENSO V0209999V000512200019N0112651N1-00201-00301999999ADDGA1021+003901999GA2041+013501999GF104991999999999999999999MA1100511999999REMMET060METAR ENSO 041820Z VRB01KT 9999 FEW013 SCT045 M02/M03 Q1005;
0145010014999992010010418504+59783+005350FM-15+0049ENSO V0200501N001512200019N0112651N1-00401-00401999999ADDGA1021+003901999GA2041+015001999GF104991999999999999999999MA1100511999999REMMET060METAR ENSO 041850Z 05003KT 9999 FEW013 SCT050 M04/M04 Q1005;
0074010014999992010010505204+59783+005350FM-15+0049ENSO V0201201N002119999999Y0099001N1-00501-00701999999ADDMA1100511999999REMMET047METAR ENSO 050520Z 12004KT CAVOK M05/M07 Q1005;
0074010014999992010010505504+59783+005350FM-15+0049ENSO V0200701N001519999999Y0099001N1-00501-00701999999ADDMA1100511999999REMMET047METAR ENSO 050550Z 07003KT CAVOK M05/M07 Q1005;
0074010014999992010010506204+59783+005350FM-15+0049ENSO V0201101N002119999999Y0099001N1-00401-00701999999ADDMA1100511999999REMMET047METAR ENSO 050620Z 11004KT CAVOK M04/M07 Q1005;
0074010014999992010010507204+59783+005350FM-15+0049ENSO V0201001N003119999999Y0099001N1-00401-00601999999ADDMA1100511999999REMMET047METAR ENSO 050720Z 10006KT CAVOK M04/M06 Q1005;
0074010014999992010010507504+59783+005350FM-15+0049ENSO V0201001N002619999999Y0099001N1-00401-00601999999ADDMA1100511999999REMMET047METAR ENSO 050750Z 10005KT CAVOK M04/M06 Q1005;
0074010014999992010010508204+59783+005350FM-15+0049ENSO V0200901N002619999999Y0099001N1-00401-00601999999ADDMA1100511999999REMMET047METAR ENSO 050820Z 09005KT CAVOK M04/M06 Q1005;
0074010014999992010010508504+59783+005350FM-15+0049ENSO V0200701N001519999999Y0099001N1-00401-00701999999ADDMA1100511999999REMMET047METAR ENSO 050850Z 07003KT CAVOK M04/M07 Q1005;
0074010014999992010010509204+59783+005350FM-15+0049ENSO V0209999V001019999999Y0099001N1-00401-00701999999ADDMA1100511999999REMMET047METAR ENSO 050920Z VRB02KT CAVOK M04/M07 Q1005;
0074010014999992010010510204+59783+005350FM-15+0049ENSO V0201001N002119999999Y0099001N1-00301-00601999999ADDMA1100611999999REMMET047METAR ENSO 051020Z 10004KT CAVOK M03/M06 Q1006;
0074010014999992010010510504+59783+005350FM-15+0049ENSO V0201001N002619999999Y0099001N1-00401-00701999999ADDMA1100611999999REMMET047METAR ENSO 051050Z 10005KT CAVOK M04/M07 Q1006;
0074010014999992010010511204+59783+005350FM-15+0049ENSO V0200901N003619999999Y0099001N1-00301-00601999999ADDMA1100611999999REMMET047METAR ENSO 051120Z 09007KT CAVOK M03/M06 Q1006;
0074010014999992010010511504+59783+005350FM-15+0049ENSO V0200901N004119999999Y0099001N1-00301-00601999999ADDMA1100611999999REMMET047METAR ENSO 051150Z 09008KT CAVOK M03/M06 Q1006;
0074010014999992010010512504+59783+005350FM-15+0049ENSO V0200801N003119999999Y0099001N1-00301-00701999999ADDMA1100611999999REMMET047METAR ENSO 051250Z 08006KT CAVOK M03/M07 Q1006;
0074010014999992010010513204+59783+005350FM-15+0049ENSO V0200801N003619999999Y0099001N1-00401-00701999999ADDMA1100611999999REMMET047METAR ENSO 051320Z 08007KT CAVOK M04/M07 Q1006;
0074010014999992010010513504+59783+005350FM-15+0049ENSO V0200501N001519999999Y0099001N1-00401-00801999999ADDMA1100611999999REMMET047METAR ENSO 051350Z 05003KT CAVOK M04/M08 Q1006;
0122010014999992010010514204+59783+005350FM-15+0049ENSO V0209999C000012200019N0112651N1-00401-00801999999ADDGA1021+010501999GF102991999999999999999999MA1100711999999REMMET053METAR ENSO 051420Z 00000KT 9999 FEW035 M04/M08 Q1007;
0122010014999992010010514504+59783+005350FM-15+0049ENSO V0200601N002112200019N0112651N1-00401-00801999999ADDGA1021+010501999GF102991999999999999999999MA1100711999999REMMET053METAR ENSO 051450Z 06004KT 9999 FEW035 M04/M08 Q1007;
0122010014999992010010515504+59783+005350FM-15+0049ENSO V0201001N003112200019N0112651N1-00401-00801999999ADDGA1021+010501999GF102991999999999999999999MA1100811999999REMMET053METAR ENSO 051550Z 10006KT 9999 FEW035 M04/M08 Q1008;
0130010014999992010010516204+59783+005350FM-15+0049ENSO V0200901N001512200019N0112651N1-00501-00801999999ADDGA1021+010501999GF102991999999999999999999MA1100811999999REMMET061METAR ENSO 051620Z 09003KT 050V130 9999 FEW035 M05/M08 Q1008;
0122010014999992010010516504+59783+005350FM-15+0049ENSO V0209999V001512200019N0112651N1-00401-00801999999ADDGA1021+012001999GF102991999999999999999999MA1100811999999REMMET053METAR ENSO 051650Z VRB03KT 9999 FEW040 M04/M08 Q1008;
0122010014999992010010517204+59783+005350FM-15+0049ENSO V0209999V000512200019N0112651N1-00501-00801999999ADDGA1021+012001999GF102991999999999999999999MA1100811999999REMMET053METAR ENSO 051720Z VRB01KT 9999 FEW040 M05/M08 Q1008;
0122010014999992010010517504+59783+005350FM-15+0049ENSO V0209999C000012200019N0112651N1-00401-00901999999ADDGA1021+012001999GF102991999999999999999999MA1100911999999REMMET053METAR ENSO 051750Z 00000KT 9999 FEW040 M04/M09 Q1009;
0122010014999992010010518204+59783+005350FM-15+0049ENSO V0209999V001012200019N0112651N1-00401-00901999999ADDGA1021+012001999GF102991999999999999999999MA1100911999999REMMET053METAR ENSO 051820Z VRB02KT 9999 FEW040 M04/M09 Q1009;
0082010014999992010010604504+59783+005350FM-15+0049ENSO V0200901N001519999999Y0099001N1-00601-01401999999ADDMA1101081999999REMMET055METAR ENSO 060450Z 09003KT 050V130 CAVOK M06/M14 Q1011;
0074010014999992010010605204+59783+005350FM-15+0049ENSO V0201101N001519999999Y0099001N1-00601-01301999999ADDMA1101081999999REMMET047METAR ENSO 060520Z 11003KT CAVOK M06/M13 Q1011;
0074010014999992010010605504+59783+005350FM-15+0049ENSO V0200601N002119999999Y0099001N1-00801-01301999999ADDMA1101081999999REMMET047METAR ENSO 060550Z 06004KT CAVOK M08/M13 Q1011;
0074010014999992010010606204+59783+005350FM-15+0049ENSO V0200501N002619999999Y0099001N1-00801-01301999999ADDMA1101081999999REMMET047METAR ENSO 060620Z 05005KT CAVOK M08/M13 Q1011;
0074010014999992010010606504+59783+005350FM-15+0049ENSO V0209999V000519999999Y0099001N1-00801-01301999999ADDMA1101191999999REMMET047METAR ENSO 060650Z VRB01KT CAVOK M08/M13 Q1012;
0073010014999992010010607204+59783+005350FM-15+0049ENSO V02099999999999999999Y0000001N1-00601-00901999999ADDMA1101201999999REMMET046METAR ENSO 060720Z 0000KT CAVOK M06/M09 Q1012;
0074010014999992010010607504+59783+005350FM-15+0049ENSO V0209999C000019999999Y0099001N1-00601-00801999999ADDMA1101191999999REMMET047METAR ENSO 060750Z 00000KT CAVOK M06/M08 Q1012;
0074010014999992010010610204+59783+005350FM-15+0049ENSO V0201001N001519999999Y0099001N1-00501-01401999999ADDMA1101291999999REMMET047METAR ENSO 061020Z 10003KT CAVOK M05/M14 Q1013;
0074010014999992010010610504+59783+005350FM-15+0049ENSO V0201001N002619999999Y0099001N1-00601-01201999999ADDMA1101291999999REMMET047METAR ENSO 061050Z 10005KT CAVOK M06/M12 Q1013;
0074010014999992010010611204+59783+005350FM-15+0049ENSO V0200901N003119999999Y0099001N1-00601-01101999999ADDMA1101291999999REMMET047METAR ENSO 061120Z 09006KT CAVOK M06/M11 Q1013;
0074010014999992010010612204+59783+005350FM-15+0049ENSO V0209999C000019999999Y0099001N1-00401-01201999999ADDMA1101191999999REMMET047METAR ENSO 061220Z 00000KT CAVOK M04/M12 Q1012;
0074010014999992010010612504+59783+005350FM-15+0049ENSO V0200601N001019999999Y0099001N1-00501-01301999999ADDMA1101191999999REMMET047METAR ENSO 061250Z 06002KT CAVOK M05/M13 Q1012;
0074010014999992010010613204+59783+005350FM-15+0049ENSO V0200501N001019999999Y0099001N1-00401-01401999999ADDMA1101191999999REMMET047METAR ENSO 061320Z 05002KT CAVOK M04/M14 Q1012;
0074010014999992010010613504+59783+005350FM-15+0049ENSO V0201101N001019999999Y0099001N1-00501-01301999999ADDMA1101191999999REMMET047METAR ENSO 061350Z 11002KT CAVOK M05/M13 Q1012;
0074010014999992010010614504+59783+005350FM-15+0049ENSO V0200901N003119999999Y0099001N1-00601-01301999999ADDMA1101191999999REMMET047METAR ENSO 061450Z 09006KT CAVOK M06/M13 Q1012;
0074010014999992010010615204+59783+005350FM-15+0049ENSO V0201001N004119999999Y0099001N1-00701-01301999999ADDMA1101191999999REMMET047METAR ENSO 061520Z 10008KT CAVOK M07/M13 Q1012;
0074010014999992010010616204+59783+005350FM-15+0049ENSO V0200801N003619999999Y0099001N1-00601-01301999999ADDMA1101191999999REMMET047METAR ENSO 061620Z 08007KT CAVOK M06/M13 Q1012;
0074010014999992010010617204+59783+005350FM-15+0049ENSO V0200801N003619999999Y0099001N1-00601-01201999999ADDMA1101191999999REMMET047METAR ENSO 061720Z 08007KT CAVOK M06/M12 Q1012;
0074010014999992010010617504+59783+005350FM-15+0049ENSO V0200901N003119999999Y0099001N1-00601-01201999999ADDMA1101191999999REMMET047METAR ENSO 061750Z 09006KT CAVOK M06/M12 Q1012;
0074010014999992010010618204+59783+005350FM-15+0049ENSO V0200901N004119999999Y0099001N1-00601-01201999999ADDMA1101191999999REMMET047METAR ENSO 061820Z 09008KT CAVOK M06/M12 Q1012;
0145010014999992010010704504+59783+005350FM-15+0049ENSO V0200701N001512200019N0112651N1-00601-01301999999ADDGA1021+005401999GA2041+010501999GF104991999999999999999999MA1101391999999REMMET060METAR ENSO 070450Z 07003KT 9999 FEW018 SCT035 M06/M13 Q1014;
0145010014999992010010705204+59783+005350FM-15+0049ENSO V0200101N001512200019N0112651N1-00701-01301999999ADDGA1021+006001999GA2041+011401999GF104991999999999999999999MA1101391999999REMMET060METAR ENSO 070520Z 01003KT 9999 FEW020 SCT038 M07/M13 Q1014;
0145010014999992010010705504+59783+005350FM-15+0049ENSO V0200401N002112200019N0112651N1-00801-01301999999ADDGA1021+006001999GA2041+010501999GF104991999999999999999999MA1101391999999REMMET060METAR ENSO 070550Z 04004KT 9999 FEW020 SCT035 M08/M13 Q1014;
0145010014999992010010706204+59783+005350FM-15+0049ENSO V0200901N002612200019N0112651N1-00701-01301999999ADDGA1021+006001999GA2041+012001999GF104991999999999999999999MA1101391999999REMMET060METAR ENSO 070620Z 09005KT 9999 FEW020 SCT040 M07/M13 Q1014;
0168010014999992010010706504+59783+005350FM-15+0049ENSO V0200801N00151008401CN0112651N1-00601-01301999999ADDGA1021+005401999GA2041+008401999GA3071+012001999GF107991999999999999999999MA1101491999999REMMET067METAR ENSO 070650Z 08003KT 9999 FEW018 SCT028 BKN040 M06/M13 Q1015;
0178010014999992010010707204+59783+005350FM-15+0049ENSO V0201001N00311008401CN0112651N1-00601-01101999999ADDGA1021+004501999GA2041+008401999GA3071+013501999GF107991999999999999999999MA1101491999999MW1711REMMET071METAR ENSO 070720Z 10006KT 9999 -SN FEW015 SCT028 BKN045 M06/M11 Q1015;
0168010014999992010010707504+59783+005350FM-15+0049ENSO V0201001N00311009001CN0112651N1-00601-01301999999ADDGA1021+004501999GA2041+009001999GA3071+015001999GF107991999999999999999999MA1101491999999REMMET067METAR ENSO 070750Z 10006KT 9999 FEW015 SCT030 BKN050 M06/M13 Q1015;
0168010014999992010010708204+59783+005350FM-15+0049ENSO V0201101N00311009001CN0112651N1-00601-01201999999ADDGA1021+004501999GA2041+009001999GA3071+015001999GF107991999999999999999999MA1101491999999REMMET067METAR ENSO 070820Z 11006KT 9999 FEW015 SCT030 BKN050 M06/M12 Q1015;
0182010014999992010010709204+59783+005350FM-15+0049ENSO V0201101N003112200019N0112651N1-00601-01101999999ADDGA1021+004501999GA2041+009001021GA3041+012001999GF104991999999999999999999MA1101591999999MW1161REMMET075METAR ENSO 070920Z 11006KT 9999 VCSH FEW015 SCT030TCU SCT040 M06/M11 Q1016;
0122010014999992010010710504+59783+005350FM-15+0049ENSO V0201201N003612200019N0112651N1-00501-01101999999ADDGA1041+009001999GF104991999999999999999999MA1101591999999REMMET053METAR ENSO 071050Z 12007KT 9999 SCT030 M05/M11 Q1016;
0122010014999992010010711204+59783+005350FM-15+0049ENSO V0201101N003612200019N0112651N1-00501-01101999999ADDGA1041+009001999GF104991999999999999999999MA1101591999999REMMET053METAR ENSO 071120Z 11007KT 9999 SCT030 M05/M11 Q1016;
0145010014999992010010711504+59783+005350FM-15+0049ENSO V0201201N004112200019N0112651N1-00501-01201999999ADDGA1041+006001999GA2041+011401999GF104991999999999999999999MA1101691999999REMMET060METAR ENSO 071150Z 12008KT 9999 SCT020 SCT038 M05/M12 Q1017;
0145010014999992010010712204+59783+005350FM-15+0049ENSO V0201201N003112200019N0112651N1-00501-01101999999ADDGA1041+007501999GA2041+011401999GF104991999999999999999999MA1101691999999REMMET060METAR ENSO 071220Z 12006KT 9999 SCT025 SCT038 M05/M11 Q1017;
0145010014999992010010712504+59783+005350FM-15+0049ENSO V0201201N003612200019N0112651N1-00501-01101999999ADDGA1021+005401999GA2041+012001999GF104991999999999999999999MA1101691999999REMMET060METAR ENSO 071250Z 12007KT 9999 FEW018 SCT040 M05/M11 Q1017;
0145010014999992010010713204+59783+005350FM-15+0049ENSO V0201101N003112200019N0112651N1-00501-01101999999ADDGA1021+006001999GA2041+012001999GF104991999999999999999999MA1101691999999REMMET060METAR ENSO 071320Z 11006KT 9999 FEW020 SCT040 M05/M11 Q1017;
0145010014999992010010713504+59783+005350FM-15+0049ENSO V0201101N003612200019N0112651N1-00501-01101999999ADDGA1021+006001999GA2041+012001999GF104991999999999999999999MA1101691999999REMMET060METAR ENSO 071350Z 11007KT 9999 FEW020 SCT040 M05/M11 Q1017;
0145010014999992010010714204+59783+005350FM-15+0049ENSO V0201101N003612200019N0112651N1-00601-01101999999ADDGA1021+006001999GA2041+010501999GF104991999999999999999999MA1101691999999REMMET060METAR ENSO 071420Z 11007KT 9999 FEW020 SCT035 M06/M11 Q1017;
0145010014999992010010714504+59783+005350FM-15+0049ENSO V0201101N003612200019N0112651N1-00601-01101999999ADDGA1041+006601999GA2041+011401999GF104991999999999999999999MA1101691999999REMMET060METAR ENSO 071450Z 11007KT 9999 SCT022 SCT038 M06/M11 Q1017;
0122010014999992010010715204+59783+005350FM-15+0049ENSO V0201201N003112200019N0112651N1-00601-01101999999ADDGA1041+006601999GF104991999999999999999999MA1101801999999REMMET053METAR ENSO 071520Z 12006KT 9999 SCT022 M06/M11 Q1018;
0122010014999992010010715504+59783+005350FM-15+0049ENSO V0201201N004112200019N0112651N1-00601-01101999999ADDGA1041+007501999GF104991999999999999999999MA1101801999999REMMET053METAR ENSO 071550Z 12008KT 9999 SCT025 M06/M11 Q1018;
0122010014999992010010716204+59783+005350FM-15+0049ENSO V0201201N003112200019N0112651N1-00601-01201999999ADDGA1041+007501999GF104991999999999999999999MA1101801999999REMMET053METAR ENSO 071620Z 12006KT 9999 SCT025 M06/M12 Q1018;
0145010014999992010010717204+59783+005350FM-15+0049ENSO V0201201N002612200019N0112651N1-00601-01101999999ADDGA1041+007501999GA2041+010501999GF104991999999999999999999MA1101901999999REMMET060METAR ENSO 071720Z 12005KT 9999 SCT025 SCT035 M06/M11 Q1019;
0145010014999992010010718204+59783+005350FM-15+0049ENSO V0201001N004112200019N0112651N1-00601-01101999999ADDGA1041+005401999GA2041+015001999GF104991999999999999999999MA1101901999999REMMET060METAR ENSO 071820Z 10008KT 9999 SCT018 SCT055 M06/M11 Q1019;
0153010014999992010010719204+59783+005350FM-15+0049ENSO V0201101N004110105019N0112651N1-00601-01101999999ADDGA1041+006001999GA2071+010501999GF107991999999999999999999MA1102001999999REMMET068METAR ENSO 071920Z 11008KT 090V160 9999 SCT020 BKN035 M06/M11 Q1020;
0155010014999992010010719504+59783+005350FM-15+0049ENSO V0201001N004610105019N0112651N1-00601-01101999999ADDGA1041+006001999GA2071+010501999GF107991999999999999999999MA1102001999999MW1711REMMET064METAR ENSO 071950Z 10009KT 9999 -SN SCT020 BKN035 M06/M11 Q1020;
0074010014999992010010811204+59783+005350FM-15+0049ENSO V0201001N004119999999Y0099001N1-00601-01501999999ADDMA1103011999999REMMET047METAR ENSO 081120Z 10008KT CAVOK M06/M15 Q1030;
0074010014999992010010811504+59783+005350FM-15+0049ENSO V0201101N003619999999Y0099001N1-00601-01501999999ADDMA1103011999999REMMET047METAR ENSO 081150Z 11007KT CAVOK M06/M15 Q1030;
0074010014999992010010812204+59783+005350FM-15+0049ENSO V0201101N003119999999Y0099001N1-00601-01301999999ADDMA1103011999999REMMET047METAR ENSO 081220Z 11006KT CAVOK M06/M13 Q1030;
0074010014999992010010812504+59783+005350FM-15+0049ENSO V0201001N004619999999Y0099001N1-00601-01201999999ADDMA1103011999999REMMET047METAR ENSO 081250Z 10009KT CAVOK M06/M12 Q1030;
0074010014999992010010813204+59783+005350FM-15+0049ENSO V0201101N003119999999Y0099001N1-00601-01301999999ADDMA1103121999999REMMET047METAR ENSO 081320Z 11006KT CAVOK M06/M13 Q1031;
0074010014999992010010813504+59783+005350FM-15+0049ENSO V0201101N003619999999Y0099001N1-00601-01301999999ADDMA1103121999999REMMET047METAR ENSO 081350Z 11007KT CAVOK M06/M13 Q1031;
0074010014999992010010814204+59783+005350FM-15+0049ENSO V0200901N002619999999Y0099001N1-00601-01201999999ADDMA1103121999999REMMET047METAR ENSO 081420Z 09005KT CAVOK M06/M12 Q1031;
0074010014999992010010814504+59783+005350FM-15+0049ENSO V0201201N002619999999Y0099001N1-00701-01201999999ADDMA1103121999999REMMET047METAR ENSO 081450Z 12005KT CAVOK M07/M12 Q1031;
0074010014999992010010815204+59783+005350FM-15+0049ENSO V0200801N002119999999Y0099001N1-00701-01301999999ADDMA1103181999999REMMET047METAR ENSO 081520Z 08004KT CAVOK M07/M13 Q1032;
0074010014999992010010816204+59783+005350FM-15+0049ENSO V0201001N004119999999Y0099001N1-00701-01301999999ADDMA1103181999999REMMET047METAR ENSO 081620Z 10008KT CAVOK M07/M13 Q1032;
0074010014999992010010816504+59783+005350FM-15+0049ENSO V0200901N002619999999Y0099001N1-00701-01301999999ADDMA1103181999999REMMET047METAR ENSO 081650Z 09005KT CAVOK M07/M13 Q1032;
0074010014999992010010817204+59783+005350FM-15+0049ENSO V0200701N002619999999Y0099001N1-00701-01301999999ADDMA1103291999999REMMET047METAR ENSO 081720Z 07005KT CAVOK M07/M13 Q1033;
0074010014999992010010817504+59783+005350FM-15+0049ENSO V0200801N002619999999Y0099001N1-00701-01201999999ADDMA1103291999999REMMET047METAR ENSO 081750Z 08005KT CAVOK M07/M12 Q1033;
0074010014999992010011012504+59783+005350FM-15+0049ENSO V0200501N002119999999Y0099001N1-00201-00901999999ADDMA1103591999999REMMET047METAR ENSO 101250Z 05004KT CAVOK M02/M09 Q1036;
0074010014999992010011013504+59783+005350FM-15+0049ENSO V0209999C000019999999Y0099001N1+00001-00701999999ADDMA1103591999999REMMET047METAR ENSO 101350Z 00000KT CAVOK M00/M07 Q1036;
0074010014999992010011014504+59783+005350FM-15+0049ENSO V0209999C000019999999Y0099001N1-00201-00701999999ADDMA1103591999999REMMET047METAR ENSO 101450Z 00000KT CAVOK M02/M07 Q1036;
0082010014999992010011015204+59783+005350FM-15+0049ENSO V0203301N001519999999Y0099001N1-00201-00801999999ADDMA1103491999999REMMET055METAR ENSO 101520Z 33003KT 240V360 CAVOK M02/M08 Q1035;
0074010014999992010011015504+59783+005350FM-15+0049ENSO V0201001N003619999999Y0099001N1-00201-00801999999ADDMA1103491999999REMMET047METAR ENSO 101550Z 10007KT CAVOK M02/M08 Q1035;
0074010014999992010011016204+59783+005350FM-15+0049ENSO V0200301N002619999999Y0099001N1-00401-00901999999ADDMA1103491999999REMMET047METAR ENSO 101620Z 03005KT CAVOK M04/M09 Q1035;
0074010014999992010011016504+59783+005350FM-15+0049ENSO V0209999C000019999999Y0099001N1-00301-00801999999ADDMA1103491999999REMMET047METAR ENSO 101650Z 00000KT CAVOK M03/M08 Q1035;
0074010014999992010011017204+59783+005350FM-15+0049ENSO V0209999V001519999999Y0099001N1-00301-00701999999ADDMA1103491999999REMMET047METAR ENSO 101720Z VRB03KT CAVOK M03/M07 Q1035;
0074010014999992010011017504+59783+005350FM-15+0049ENSO V0209999V001019999999Y0099001N1-00301-01001999999ADDMA1103491999999REMMET047METAR ENSO 101750Z VRB02KT CAVOK M03/M10 Q1035;
0074010014999992010011105204+59783+005350FM-15+0049ENSO V0209999V001019999999Y0099001N1-00301-00501999999ADDMA1103181999999REMMET047METAR ENSO 110520Z VRB02KT CAVOK M03/M05 Q1032;
0074010014999992010011105504+59783+005350FM-15+0049ENSO V0209999V000519999999Y0099001N1-00301-00601999999ADDMA1103181999999REMMET047METAR ENSO 110550Z VRB01KT CAVOK M03/M06 Q1032;
0074010014999992010011106204+59783+005350FM-15+0049ENSO V0201801N000519999999Y0099001N1-00301-00601999999ADDMA1103181999999REMMET047METAR ENSO 110620Z 18001KT CAVOK M03/M06 Q1032;
0074010014999992010011107204+59783+005350FM-15+0049ENSO V0202901N001519999999Y0099001N1-00401-00801999999ADDMA1103181999999REMMET047METAR ENSO 110720Z 29003KT CAVOK M04/M08 Q1032;
0074010014999992010011107504+59783+005350FM-15+0049ENSO V0203301N000519999999Y0099001N1-00301-00901999999ADDMA1103181999999REMMET047METAR ENSO 110750Z 33001KT CAVOK M03/M09 Q1032;
0074010014999992010011108204+59783+005350FM-15+0049ENSO V0202801N001019999999Y0099001N1-00301-00901999999ADDMA1103181999999REMMET047METAR ENSO 110820Z 28002KT CAVOK M03/M09 Q1032;
0074010014999992010011108504+59783+005350FM-15+0049ENSO V0202901N001519999999Y0099001N1-00301-00701999999ADDMA1103181999999REMMET047METAR ENSO 110850Z 29003KT CAVOK M03/M07 Q1032;
0074010014999992010011110204+59783+005350FM-15+0049ENSO V0209999V000519999999Y0099001N1-00101-00701999999ADDMA1103181999999REMMET047METAR ENSO 111020Z VRB01KT CAVOK M01/M07 Q1032;
0074010014999992010011110504+59783+005350FM-15+0049ENSO V0209999V000519999999Y0099001N1-00101-00701999999ADDMA1103121999999REMMET047METAR ENSO 111050Z VRB01KT CAVOK M01/M07 Q1031;
0074010014999992010011111204+59783+005350FM-15+0049ENSO V0203201N001019999999Y0099001N1+00001-00601999999ADDMA1103121999999REMMET047METAR ENSO 111120Z 32002KT CAVOK M00/M06 Q1031;
0073010014999992010011111504+59783+005350FM-15+0049ENSO V0209999V000519999999Y0099001N1+00001-00801999999ADDMA1103121999999REMMET046METAR ENSO 111150Z VRB01KT CAVOK 00/M08 Q1031;
0073010014999992010011112204+59783+005350FM-15+0049ENSO V0209999V001019999999Y0099001N1+00201-00701999999ADDMA1103121999999REMMET046METAR ENSO 111220Z VRB02KT CAVOK 02/M07 Q1031;
0073010014999992010011112504+59783+005350FM-15+0049ENSO V0209999C000019999999Y0099001N1+00101-00701999999ADDMA1103011999999REMMET046METAR ENSO 111250Z 00000KT CAVOK 01/M07 Q1030;
0073010014999992010011113204+59783+005350FM-15+0049ENSO V0209999C000019999999Y0099001N1+00101-00701999999ADDMA1103011999999REMMET046METAR ENSO 111320Z 00000KT CAVOK 01/M07 Q1030;
0073010014999992010011113504+59783+005350FM-15+0049ENSO V0209999C000019999999Y0099001N1+00001-01001999999ADDMA1103011999999REMMET046METAR ENSO 111350Z 00000KT CAVOK 00/M10 Q1030;
0073010014999992010011114204+59783+005350FM-15+0049ENSO V0209999C000019999999Y0099001N1+00001-00801999999ADDMA1103011999999REMMET046METAR ENSO 111420Z 00000KT CAVOK 00/M08 Q1030;
0074010014999992010011114504+59783+005350FM-15+0049ENSO V0209999V001019999999Y0099001N1-00101-01001999999ADDMA1103011999999REMMET047METAR ENSO 111450Z VRB02KT CAVOK M01/M10 Q1030;
0074010014999992010011116204+59783+005350FM-15+0049ENSO V0209999V000519999999Y0099001N1-00201-00701999999ADDMA1102911999999REMMET047METAR ENSO 111620Z VRB01KT CAVOK M02/M07 Q1029;
0074010014999992010011116504+59783+005350FM-15+0049ENSO V0209999C000019999999Y0099001N1-00101-00401999999ADDMA1102911999999REMMET047METAR ENSO 111650Z 00000KT CAVOK M01/M04 Q1029;
0074010014999992010011117204+59783+005350FM-15+0049ENSO V0209999C000019999999Y0099001N1-00101-00401999999ADDMA1102911999999REMMET047METAR ENSO 111720Z 00000KT CAVOK M01/M04 Q1029;
0074010014999992010011117504+59783+005350FM-15+0049ENSO V0201801N001519999999Y0099001N1-00201-00401999999ADDMA1102911999999REMMET047METAR ENSO 111750Z 18003KT CAVOK M02/M04 Q1029;
0074010014999992010011204504+59783+005350FM-15+0049ENSO V0209999C000019999999Y0099001N1-00201-00501999999ADDMA1102611999999REMMET047METAR ENSO 120450Z 00000KT CAVOK M02/M05 Q1026;
0074010014999992010011205204+59783+005350FM-15+0049ENSO V0209999C000019999999Y0099001N1-00201-00501999999ADDMA1102611999999REMMET047METAR ENSO 120520Z 00000KT CAVOK M02/M05 Q1026;
0074010014999992010011205504+59783+005350FM-15+0049ENSO V0201901N000519999999Y0099001N1-00201-00401999999ADDMA1102611999999REMMET047METAR ENSO 120550Z 19001KT CAVOK M02/M04 Q1026;
0074010014999992010011206204+59783+005350FM-15+0049ENSO V0202001N001519999999Y0099001N1-00201-00401999999ADDMA1102611999999REMMET047METAR ENSO 120620Z 20003KT CAVOK M02/M04 Q1026;
0074010014999992010011206504+59783+005350FM-15+0049ENSO V0201801N001019999999Y0099001N1-00301-00501999999ADDMA1102511999999REMMET047METAR ENSO 120650Z 18002KT CAVOK M03/M05 Q1025;
0074010014999992010011207204+59783+005350FM-15+0049ENSO V0202101N001019999999Y0099001N1-00201-00501999999ADDMA1102511999999REMMET047METAR ENSO 120720Z 21002KT CAVOK M02/M05 Q1025;
0074010014999992010011207504+59783+005350FM-15+0049ENSO V0209999C000019999999Y0099001N1-00301-00601999999ADDMA1102511999999REMMET047METAR ENSO 120750Z 00000KT CAVOK M03/M06 Q1025;
0074010014999992010011208204+59783+005350FM-15+0049ENSO V0209999C000019999999Y0099001N1-00201-00501999999ADDMA1102511999999REMMET047METAR ENSO 120820Z 00000KT CAVOK M02/M05 Q1025;
0074010014999992010011208504+59783+005350FM-15+0049ENSO V0201901N001019999999Y0099001N1-00101-00301999999ADDMA1102401999999REMMET047METAR ENSO 120850Z 19002KT CAVOK M01/M03 Q1024;
0074010014999992010011209204+59783+005350FM-15+0049ENSO V0202201N001019999999Y0099001N1+00001-00301999999ADDMA1102401999999REMMET047METAR ENSO 120920Z 22002KT CAVOK M00/M03 Q1024;
0074010014999992010011209504+59783+005350FM-15+0049ENSO V0209999C000019999999Y0099001N1-00101-00401999999ADDMA1102401999999REMMET047METAR ENSO 120950Z 00000KT CAVOK M01/M04 Q1024;
0074010014999992010011210204+59783+005350FM-15+0049ENSO V0209999C000019999999Y0099001N1+00001-00601999999ADDMA1102401999999REMMET047METAR ENSO 121020Z 00000KT CAVOK M00/M06 Q1024;
0073010014999992010011210504+59783+005350FM-15+0049ENSO V0209999C000019999999Y0099001N1+00101-00501999999ADDMA1102401999999REMMET046METAR ENSO 121050Z 00000KT CAVOK 01/M05 Q1024;
0073010014999992010011211204+59783+005350FM-15+0049ENSO V0201801N000519999999Y0099001N1+00201-00401999999ADDMA1102401999999REMMET046METAR ENSO 121120Z 18001KT CAVOK 02/M04 Q1024;
0073010014999992010011211504+59783+005350FM-15+0049ENSO V0209999C000019999999Y0099001N1+00201-00301999999ADDMA1102301999999REMMET046METAR ENSO 121150Z 00000KT CAVOK 02/M03 Q1023;
0073010014999992010011212204+59783+005350FM-15+0049ENSO V0209999C000019999999Y0099001N1+00301-00301999999ADDMA1102301999999REMMET046METAR ENSO 121220Z 00000KT CAVOK 03/M03 Q1023;
0073010014999992010011212504+59783+005350FM-15+0049ENSO V0209999C000019999999Y0099001N1+00301-00301999999ADDMA1102201999999REMMET046METAR ENSO 121250Z 00000KT CAVOK 03/M03 Q1022;
0073010014999992010011213204+59783+005350FM-15+0049ENSO V0203101N001019999999Y0099001N1+00301-00301999999ADDMA1102201999999REMMET046METAR ENSO 121320Z 31002KT CAVOK 03/M03 Q1022;
0073010014999992010011213504+59783+005350FM-15+0049ENSO V0209999V000519999999Y0099001N1+00201-00301999999ADDMA1102201999999REMMET046METAR ENSO 121350Z VRB01KT CAVOK 02/M03 Q1022;
0073010014999992010011214504+59783+005350FM-15+0049ENSO V0201601N001519999999Y0099001N1+00201-00201999999ADDMA1102101999999REMMET046METAR ENSO 121450Z 16003KT CAVOK 02/M02 Q1021;
0081010014999992010011215204+59783+005350FM-15+0049ENSO V0201501N001519999999Y0099001N1+00101-00101999999ADDMA1102101999999REMMET054METAR ENSO 121520Z 15003KT 090V240 CAVOK 01/M01 Q1021;
0073010014999992010011215504+59783+005350FM-15+0049ENSO V0209999V001519999999Y0099001N1+00101-00301999999ADDMA1102101999999REMMET046METAR ENSO 121550Z VRB03KT CAVOK 01/M03 Q1021;
0073010014999992010011216204+59783+005350FM-15+0049ENSO V0201501N001519999999Y0099001N1+00201-00401999999ADDMA1102101999999REMMET046METAR ENSO 121620Z 15003KT CAVOK 02/M04 Q1021;
0073010014999992010011216504+59783+005350FM-15+0049ENSO V0201501N001519999999Y0099001N1+00201-00401999999ADDMA1102101999999REMMET046METAR ENSO 121650Z 15003KT CAVOK 02/M04 Q1021;
0073010014999992010011217204+59783+005350FM-15+0049ENSO V0201001N003119999999Y0099001N1+00001-00401999999ADDMA1102101999999REMMET046METAR ENSO 121720Z 10006KT CAVOK 00/M04 Q1021;
0073010014999992010011217504+59783+005350FM-15+0049ENSO V0201001N002619999999Y0099001N1+00201-00401999999ADDMA1102101999999REMMET046METAR ENSO 121750Z 10005KT CAVOK 02/M04 Q1021;
0073010014999992010011305204+59783+005350FM-15+0049ENSO V0201101N005719999999Y0099001N1+00501-00401999999ADDMA1101691999999REMMET046METAR ENSO 130520Z 11011KT CAVOK 05/M04 Q1017;
0073010014999992010011305504+59783+005350FM-15+0049ENSO V0201101N005719999999Y0099001N1+00401-00401999999ADDMA1101691999999REMMET046METAR ENSO 130550Z 11011KT CAVOK 04/M04 Q1017;
0073010014999992010011306204+59783+005350FM-15+0049ENSO V0201101N006219999999Y0099001N1+00501-00301999999ADDMA1101691999999REMMET046METAR ENSO 130620Z 11012KT CAVOK 05/M03 Q1017;
0073010014999992010011306504+59783+005350FM-15+0049ENSO V0201101N006719999999Y0099001N1+00401-00301999999ADDMA1101691999999REMMET046METAR ENSO 130650Z 11013KT CAVOK 04/M03 Q1017;
0073010014999992010011307204+59783+005350FM-15+0049ENSO V0201201N004119999999Y0099001N1+00401-00301999999ADDMA1101691999999REMMET046METAR ENSO 130720Z 12008KT CAVOK 04/M03 Q1017;
0073010014999992010011308504+59783+005350FM-15+0049ENSO V0201201N003619999999Y0099001N1+00401-00301999999ADDMA1101691999999REMMET046METAR ENSO 130850Z 12007KT CAVOK 04/M03 Q1017;
0073010014999992010011309204+59783+005350FM-15+0049ENSO V0201201N002619999999Y0099001N1+00401-00301999999ADDMA1101691999999REMMET046METAR ENSO 130920Z 12005KT CAVOK 04/M03 Q1017;
0073010014999992010011309504+59783+005350FM-15+0049ENSO V0201201N003119999999Y0099001N1+00501-00301999999ADDMA1101691999999REMMET046METAR ENSO 130950Z 12006KT CAVOK 05/M03 Q1017;
0073010014999992010011310504+59783+005350FM-15+0049ENSO V0201201N003619999999Y0099001N1+00501-00301999999ADDMA1101691999999REMMET046METAR ENSO 131050Z 12007KT CAVOK 05/M03 Q1017;
0073010014999992010011311204+59783+005350FM-15+0049ENSO V0201201N004619999999Y0099001N1+00601-00301999999ADDMA1101691999999REMMET046METAR ENSO 131120Z 12009KT CAVOK 06/M03 Q1017;
0073010014999992010011312204+59783+005350FM-15+0049ENSO V0201101N005119999999Y0099001N1+00601-00301999999ADDMA1101691999999REMMET046METAR ENSO 131220Z 11010KT CAVOK 06/M03 Q1017;
0073010014999992010011312504+59783+005350FM-15+0049ENSO V0201101N003619999999Y0099001N1+00601-00301999999ADDMA1101591999999REMMET046METAR ENSO 131250Z 11007KT CAVOK 06/M03 Q1016;
0073010014999992010011313204+59783+005350FM-15+0049ENSO V0201001N003619999999Y0099001N1+00601-00301999999ADDMA1101591999999REMMET046METAR ENSO 131320Z 10007KT CAVOK 06/M03 Q1016;
0073010014999992010011314204+59783+005350FM-15+0049ENSO V0201001N003119999999Y0099001N1+00501-00401999999ADDMA1101591999999REMMET046METAR ENSO 131420Z 10006KT CAVOK 05/M04 Q1016;
0073010014999992010011314504+59783+005350FM-15+0049ENSO V0209999V000519999999Y0099001N1+00501-00401999999ADDMA1101591999999REMMET046METAR ENSO 131450Z VRB01KT CAVOK 05/M04 Q1016;
0081010014999992010011315504+59783+005350FM-15+0049ENSO V0200801N002119999999Y0099001N1+00301-00401999999ADDMA1101491999999REMMET054METAR ENSO 131550Z 08004KT 030V120 CAVOK 03/M04 Q1015;
0073010014999992010011316204+59783+005350FM-15+0049ENSO V0200901N003119999999Y0099001N1+00301-00501999999ADDMA1101491999999REMMET046METAR ENSO 131620Z 09006KT CAVOK 03/M05 Q1015;
0073010014999992010011316504+59783+005350FM-15+0049ENSO V0200901N003119999999Y0099001N1+00301-00401999999ADDMA1101491999999REMMET046METAR ENSO 131650Z 09006KT CAVOK 03/M04 Q1015;
0073010014999992010011317204+59783+005350FM-15+0049ENSO V0200901N004619999999Y0099001N1+00401-00401999999ADDMA1101491999999REMMET046METAR ENSO 131720Z 09009KT CAVOK 04/M04 Q1015;
0081010014999992010011318204+59783+005350FM-15+0049ENSO V0200901N003619999999Y0099001N1+00301-00501999999ADDMA1101491999999REMMET054METAR ENSO 131820Z 09007KT 030V140 CAVOK 03/M05 Q1015;
0073010014999992010011404504+59783+005350FM-15+0049ENSO V0201301N004619999999Y0099001N1+00301-00501999999ADDMA1101291999999REMMET046METAR ENSO 140450Z 13009KT CAVOK 03/M05 Q1013;
0073010014999992010011405204+59783+005350FM-15+0049ENSO V0201301N005119999999Y0099001N1+00301-00501999999ADDMA1101291999999REMMET046METAR ENSO 140520Z 13010KT CAVOK 03/M05 Q1013;
0073010014999992010011405504+59783+005350FM-15+0049ENSO V0201201N005119999999Y0099001N1+00301-00601999999ADDMA1101291999999REMMET046METAR ENSO 140550Z 12010KT CAVOK 03/M06 Q1013;
0073010014999992010011406204+59783+005350FM-15+0049ENSO V0201201N005119999999Y0099001N1+00301-00601999999ADDMA1101291999999REMMET046METAR ENSO 140620Z 12010KT CAVOK 03/M06 Q1013;
0073010014999992010011407204+59783+005350FM-15+0049ENSO V0201201N004619999999Y0099001N1+00301-00601999999ADDMA1101291999999REMMET046METAR ENSO 140720Z 12009KT CAVOK 03/M06 Q1013;
0073010014999992010011407504+59783+005350FM-15+0049ENSO V0201201N004119999999Y0099001N1+00301-00601999999ADDMA1101291999999REMMET046METAR ENSO 140750Z 12008KT CAVOK 03/M06 Q1013;
0073010014999992010011408204+59783+005350FM-15+0049ENSO V0201201N003119999999Y0099001N1+00201-00501999999ADDMA1101291999999REMMET046METAR ENSO 140820Z 12006KT CAVOK 02/M05 Q1013;
0081010014999992010011408504+59783+005350FM-15+0049ENSO V0201101N003619999999Y0099001N1+00301-00601999999ADDMA1101391999999REMMET054METAR ENSO 140850Z 11007KT 080V140 CAVOK 03/M06 Q1014;
0081010014999992010011409204+59783+005350FM-15+0049ENSO V0200801N002619999999Y0099001N1+00301-00601999999ADDMA1101391999999REMMET054METAR ENSO 140920Z 08005KT 030V120 CAVOK 03/M06 Q1014;
0073010014999992010011409504+59783+005350FM-15+0049ENSO V0209999V000519999999Y0099001N1+00301-00701999999ADDMA1101391999999REMMET046METAR ENSO 140950Z VRB01KT CAVOK 03/M07 Q1014;
0073010014999992010011410504+59783+005350FM-15+0049ENSO V0201201N002619999999Y0099001N1+00401-00701999999ADDMA1101391999999REMMET046METAR ENSO 141050Z 12005KT CAVOK 04/M07 Q1014;
0073010014999992010011411204+59783+005350FM-15+0049ENSO V0201301N002119999999Y0099001N1+00401-00901999999ADDMA1101391999999REMMET046METAR ENSO 141120Z 13004KT CAVOK 04/M09 Q1014;
0073010014999992010011411504+59783+005350FM-15+0049ENSO V0201201N004619999999Y0099001N1+00401-01001999999ADDMA1101391999999REMMET046METAR ENSO 141150Z 12009KT CAVOK 04/M10 Q1014;
0073010014999992010011412204+59783+005350FM-15+0049ENSO V0201401N004119999999Y0099001N1+00501-01001999999ADDMA1101391999999REMMET046METAR ENSO 141220Z 14008KT CAVOK 05/M10 Q1014;
0073010014999992010011412504+59783+005350FM-15+0049ENSO V0201401N004619999999Y0099001N1+00501-01001999999ADDMA1101391999999REMMET046METAR ENSO 141250Z 14009KT CAVOK 05/M10 Q1014;
0073010014999992010011413204+59783+005350FM-15+0049ENSO V0209999V002619999999Y0099001N1+00401-00202999999ADDMA1101391999999REMMET046METAR ENSO 141320Z VRB05KT CAVOK 04/M02 Q1014;
0073010014999992010011414504+59783+005350FM-15+0049ENSO V0203501N001019999999Y0099001N1+00101-00301999999ADDMA1101391999999REMMET046METAR ENSO 141450Z 35002KT CAVOK 01/M03 Q1014;
0073010014999992010011415204+59783+005350FM-15+0049ENSO V0203501N002119999999Y0099001N1+00001-00201999999ADDMA1101391999999REMMET046METAR ENSO 141520Z 35004KT CAVOK 00/M02 Q1014;
0074010014999992010011415504+59783+005350FM-15+0049ENSO V0209999V000519999999Y0099001N1+00001-00201999999ADDMA1101491999999REMMET047METAR ENSO 141550Z VRB01KT CAVOK M00/M02 Q1015;
0074010014999992010011416204+59783+005350FM-15+0049ENSO V0200201N002119999999Y0099001N1-00101-00301999999ADDMA1101491999999REMMET047METAR ENSO 141620Z 02004KT CAVOK M01/M03 Q1015;
0074010014999992010011416504+59783+005350FM-15+0049ENSO V0201401N002119999999Y0099001N1-00201-00401999999ADDMA1101491999999REMMET047METAR ENSO 141650Z 14004KT CAVOK M02/M04 Q1015;
0074010014999992010011417204+59783+005350FM-15+0049ENSO V0201801N003119999999Y0099001N1+00001-00501999999ADDMA1101591999999REMMET047METAR ENSO 141720Z 18006KT CAVOK M00/M05 Q1016;
0074010014999992010011418204+59783+005350FM-15+0049ENSO V0201601N003619999999Y0099001N1+00001-00501999999ADDMA1101591999999REMMET047METAR ENSO 141820Z 16007KT CAVOK M00/M05 Q1016;
0074010014999992010011418504+59783+005350FM-15+0049ENSO V0201601N003619999999Y0099001N1-00101-00501999999ADDMA1101591999999REMMET047METAR ENSO 141850Z 16007KT CAVOK M01/M05 Q1016;
0074010014999992010011419204+59783+005350FM-15+0049ENSO V0201401N003119999999Y0099001N1-00101-00601999999ADDMA1101591999999REMMET047METAR ENSO 141920Z 14006KT CAVOK M01/M06 Q1016;
0074010014999992010011420204+59783+005350FM-15+0049ENSO V0201501N002619999999Y0099001N1-00101-00501999999ADDMA1101691999999REMMET047METAR ENSO 142020Z 15005KT CAVOK M01/M05 Q1017;
0074010014999992010011421204+59783+005350FM-15+0049ENSO V0201501N004619999999Y0099001N1-00101-00501999999ADDMA1101691999999REMMET047METAR ENSO 142120Z 15009KT CAVOK M01/M05 Q1017;
0132010014999992010011511204+59783+005350FM-15+0049ENSO V0201301N007710090019N0112651N1+00101-00701999999ADDGA1071+009001999GF107991999999999999999999MA1102101999999OC101291REMMET055METAR ENSO 151120Z 13015G25KT 9999 BKN030 01/M07 Q1021;
0132010014999992010011511504+59783+005350FM-15+0049ENSO V0201301N005710090019N0112651N1+00101-00701999999ADDGA1071+009001999GF107991999999999999999999MA1102201999999OC101081REMMET055METAR ENSO 151150Z 13011G21KT 9999 BKN030 01/M07 Q1022;
0132010014999992010011512204+59783+005350FM-15+0049ENSO V0201301N006710090019N0112651N1+00101-00701999999ADDGA1071+009001999GF107991999999999999999999MA1102101999999OC101181REMMET055METAR ENSO 151220Z 13013G23KT 9999 BKN030 01/M07 Q1021;
0121010014999992010011512504+59783+005350FM-15+0049ENSO V0201301N008210090019N0112651N1+00101-00701999999ADDGA1071+009001999GF107991999999999999999999MA1102101999999REMMET052METAR ENSO 151250Z 13016KT 9999 BKN030 01/M07 Q1021;
0132010014999992010011513204+59783+005350FM-15+0049ENSO V0201301N008210090019N0112651N1+00101-00701999999ADDGA1071+009001999GF107991999999999999999999MA1102101999999OC101391REMMET055METAR ENSO 151320Z 13016G27KT 9999 BKN030 01/M07 Q1021;
0132010014999992010011513504+59783+005350FM-15+0049ENSO V0201301N007210090019N0112651N1+00101-00701999999ADDGA1071+009001999GF107991999999999999999999MA1102101999999OC101441REMMET055METAR ENSO 151350Z 13014G28KT 9999 BKN030 01/M07 Q1021;
0132010014999992010011514204+59783+005350FM-15+0049ENSO V0201301N007210090019N0112651N1+00101-00701999999ADDGA1071+009001999GF107991999999999999999999MA1102101999999OC101231REMMET055METAR ENSO 151420Z 13014G24KT 9999 BKN030 01/M07 Q1021;
0121010014999992010011514504+59783+005350FM-15+0049ENSO V0201301N007710105019N0112651N1+00101-00601999999ADDGA1071+010501999GF107991999999999999999999MA1102101999999REMMET052METAR ENSO 151450Z 13015KT 9999 BKN035 01/M06 Q1021;
0132010014999992010011515204+59783+005350FM-15+0049ENSO V0201301N006710105019N0112651N1+00101-00601999999ADDGA1071+010501999GF107991999999999999999999MA1102101999999OC101181REMMET055METAR ENSO 151520Z 13013G23KT 9999 BKN035 01/M06 Q1021;
0121010014999992010011515504+59783+005350FM-15+0049ENSO V0201301N005710105019N0112651N1+00101-00601999999ADDGA1071+010501999GF107991999999999999999999MA1102101999999REMMET052METAR ENSO 151550Z 13011KT 9999 BKN035 01/M06 Q1021;
0132010014999992010011516204+59783+005350FM-15+0049ENSO V0201401N005710105019N0112651N1+00101-00501999999ADDGA1071+010501999GF107991999999999999999999MA1102101999999OC101081REMMET055METAR ENSO 151620Z 14011G21KT 9999 BKN035 01/M05 Q1021;
0121010014999992010011517504+59783+005350FM-15+0049ENSO V0201401N006210105019N0112651N1+00101-00401999999ADDGA1071+010501999GF107991999999999999999999MA1102101999999REMMET052METAR ENSO 151750Z 14012KT 9999 BKN035 01/M04 Q1021;
0132010014999992010011518204+59783+005350FM-15+0049ENSO V0201501N007210105019N0112651N1+00101-00401999999ADDGA1071+010501999GF107991999999999999999999MA1102201999999OC101231REMMET055METAR ENSO 151820Z 15014G24KT 9999 BKN035 01/M04 Q1022;
0121010014999992010011518504+59783+005350FM-15+0049ENSO V0201501N007210105019N0112651N1+00101-00401999999ADDGA1071+010501999GF107991999999999999999999MA1102201999999REMMET052METAR ENSO 151850Z 15014KT 9999 BKN035 01/M04 Q1022;
0155010014999992010011712504+59783+005350FM-15+0049ENSO V0201701N004610090019N0112651N1+00201-00601999999ADDGA1021+006001999GA2071+009001999GF107991999999999999999999MA1101391999999OC101031REMMET062METAR ENSO 171250Z 17009G20KT 9999 FEW020 BKN030 02/M06 Q1014;
0144010014999992010011713204+59783+005350FM-15+0049ENSO V0201901N004610120019N0112651N1+00201-00501999999ADDGA1021+006001999GA2071+012001999GF107991999999999999999999MA1101391999999REMMET059METAR ENSO 171320Z 19009KT 9999 FEW020 BKN040 02/M05 Q1014;
0144010014999992010011713504+59783+005350FM-15+0049ENSO V0201901N003610120019N0112651N1+00201-00501999999ADDGA1021+009001999GA2071+012001999GF107991999999999999999999MA1101491999999REMMET059METAR ENSO 171350Z 19007KT 9999 FEW030 BKN040 02/M05 Q1015;
0144010014999992010011714204+59783+005350FM-15+0049ENSO V0201801N004110120019N0112651N1+00201-00601999999ADDGA1021+009001999GA2071+012001999GF107991999999999999999999MA1101491999999REMMET059METAR ENSO 171420Z 18008KT 9999 FEW030 BKN040 02/M06 Q1015;
0144010014999992010011714504+59783+005350FM-15+0049ENSO V0201501N004610120019N0112651N1+00201-00601999999ADDGA1021+009001999GA2071+012001999GF107991999999999999999999MA1101591999999REMMET059METAR ENSO 171450Z 15009KT 9999 FEW030 BKN040 02/M06 Q1016;
0144010014999992010011715504+59783+005350FM-15+0049ENSO V0201501N004110135019N0112651N1+00201-00801999999ADDGA1021+009001999GA2071+013501999GF107991999999999999999999MA1101591999999REMMET059METAR ENSO 171550Z 15008KT 9999 FEW030 BKN045 02/M08 Q1016;
0144010014999992010011716504+59783+005350FM-15+0049ENSO V0201701N003110120019N0112651N1+00101-00601999999ADDGA1021+009001999GA2071+012001999GF107991999999999999999999MA1101691999999REMMET059METAR ENSO 171650Z 17006KT 9999 FEW030 BKN040 01/M06 Q1017;
0144010014999992010011717204+59783+005350FM-15+0049ENSO V0201701N004110150019N0112651N1+00101-00601999999ADDGA1041+012001999GA2071+015001999GF107991999999999999999999MA1101691999999REMMET059METAR ENSO 171720Z 17008KT 9999 SCT040 BKN055 01/M06 Q1017;
0144010014999992010011717504+59783+005350FM-15+0049ENSO V0201601N003610150019N0112651N1+00101-00601999999ADDGA1041+012001999GA2071+015001999GF107991999999999999999999MA1101691999999REMMET059METAR ENSO 171750Z 16007KT 9999 SCT040 BKN050 01/M06 Q1017;
0144010014999992010011718204+59783+005350FM-15+0049ENSO V0201501N004610120019N0112651N1+00201-00601999999ADDGA1041+009001999GA2071+012001999GF107991999999999999999999MA1101801999999REMMET059METAR ENSO 171820Z 15009KT 9999 SCT030 BKN040 02/M06 Q1018;
0121010014999992010011805204+59783+005350FM-15+0049ENSO V0201301N004610120019N0112651N1+00101-00701999999ADDGA1071+012001999GF107991999999999999999999MA1101901999999REMMET052METAR ENSO 180520Z 13009KT 9999 BKN040 01/M07 Q1019;
0144010014999992010011805504+59783+005350FM-15+0049ENSO V0201101N008710150019N0112651N1+00101-00701999999ADDGA1041+012001999GA2071+015001999GF107991999999999999999999MA1101901999999REMMET059METAR ENSO 180550Z 11017KT 9999 SCT040 BKN050 01/M07 Q1019;
0144010014999992010011807204+59783+005350FM-15+0049ENSO V0201101N007710150019N0112651N1+00101-00701999999ADDGA1041+012001999GA2071+015001999GF107991999999999999999999MA1101901999999REMMET059METAR ENSO 180720Z 11015KT 9999 SCT040 BKN050 01/M07 Q1019;
0155010014999992010011807504+59783+005350FM-15+0049ENSO V0201101N007710150019N0112651N1+00101-00701999999ADDGA1041+012001999GA2071+015001999GF107991999999999999999999MA1101801999999OC101291REMMET062METAR ENSO 180750Z 11015G25KT 9999 SCT040 BKN050 01/M07 Q1018;
0155010014999992010011808504+59783+005350FM-15+0049ENSO V0201201N007212200019N0112651N1+00101-00701999999ADDGA1041+012001999GA2041+015001999GF104991999999999999999999MA1101801999999OC101231REMMET062METAR ENSO 180850Z 12014G24KT 9999 SCT040 SCT050 01/M07 Q1018;
0121010014999992010011809204+59783+005350FM-15+0049ENSO V0201101N008712200019N0112651N1+00001-00701999999ADDGA1041+015001999GF104991999999999999999999MA1101901999999REMMET052METAR ENSO 180920Z 11017KT 9999 SCT050 00/M07 Q1019;
0121010014999992010011809504+59783+005350FM-15+0049ENSO V0201201N008212200019N0112651N1+00101-00701999999ADDGA1041+015001999GF104991999999999999999999MA1101901999999REMMET052METAR ENSO 180950Z 12016KT 9999 SCT050 01/M07 Q1019;
0121010014999992010011810504+59783+005350FM-15+0049ENSO V0201201N009810150019N0112651N1+00101-00701999999ADDGA1071+015001999GF107991999999999999999999MA1101901999999REMMET052METAR ENSO 181050Z 12019KT 9999 BKN050 01/M07 Q1019;
0132010014999992010011811204+59783+005350FM-15+0049ENSO V0201101N008710150019N0112651N1+00101-00701999999ADDGA1071+015001999GF107991999999999999999999MA1101801999999OC101391REMMET055METAR ENSO 181120Z 11017G27KT 9999 BKN050 01/M07 Q1018;
0144010014999992010011812204+59783+005350FM-15+0049ENSO V0201201N007210240019N0112651N1+00101-00701999999ADDGA1041+015001999GA2071+024001999GF107991999999999999999999MA1101901999999REMMET059METAR ENSO 181220Z 12014KT 9999 SCT050 BKN080 01/M07 Q1019;
0144010014999992010011812504+59783+005350FM-15+0049ENSO V0201201N006710240019N0112651N1+00101-00701999999ADDGA1041+015001999GA2071+024001999GF107991999999999999999999MA1101901999999REMMET059METAR ENSO 181250Z 12013KT 9999 SCT050 BKN080 01/M07 Q1019;
0144010014999992010011813204+59783+005350FM-15+0049ENSO V0201101N005710210019N0112651N1+00101-00701999999ADDGA1021+008401999GA2071+021001999GF107991999999999999999999MA1101901999999REMMET059METAR ENSO 181320Z 11011KT 9999 FEW028 BKN075 01/M07 Q1019;
0143010014999992010011813504+59783+005350FM-15+0049ENSO V0201201N005710135019N0112651N1+00101-00601999999ADDGA1041+008401999GA2071+013501999GF107991999999999999999999MA1101901999999REMMET058METAR ENSO 181350Z 12011KT 9999SCT028 BKN045 01/M06 Q1019;
0144010014999992010011814204+59783+005350FM-15+0049ENSO V0201301N004110105019N0112651N1+00101-00701999999ADDGA1041+007801999GA2071+010501999GF107991999999999999999999MA1101901999999REMMET059METAR ENSO 181420Z 13008KT 9999 SCT026 BKN035 01/M07 Q1019;
0152010014999992010011814504+59783+005350FM-15+0049ENSO V0201201N004110066019N0112651N1+00101-00701999999ADDGA1041+004801999GA2071+006601999GF107991999999999999999999MA1102001999999REMMET067METAR ENSO 181450Z 12008KT 090V150 9999 SCT016 BKN022 01/M07 Q1020;
0152010014999992010011815204+59783+005350FM-15+0049ENSO V0201101N005110060019N0112651N1+00101-00701999999ADDGA1041+004801999GA2071+006001999GF107991999999999999999999MA1102001999999REMMET067METAR ENSO 181520Z 11010KT 080V140 9999 SCT016 BKN020 01/M07 Q1020;
0152010014999992010011815504+59783+005350FM-15+0049ENSO V0201201N004110060019N0112651N1+00101-00701999999ADDGA1021+004501999GA2071+006001999GF107991999999999999999999MA1102001999999REMMET067METAR ENSO 181550Z 12008KT 090V150 9999 FEW015 BKN020 01/M07 Q1020;
0144010014999992010011816204+59783+005350FM-15+0049ENSO V0201201N003610066019N0112651N1+00101-00701999999ADDGA1021+005401999GA2071+006601999GF107991999999999999999999MA1102001999999REMMET059METAR ENSO 181620Z 12007KT 9999 FEW018 BKN022 01/M07 Q1020;
0144010014999992010011816504+59783+005350FM-15+0049ENSO V0201301N003610075019N0112651N1+00101-00701999999ADDGA1021+006001999GA2071+007501999GF107991999999999999999999MA1102101999999REMMET059METAR ENSO 181650Z 13007KT 9999 FEW020 BKN025 01/M07 Q1021;
0144010014999992010011817204+59783+005350FM-15+0049ENSO V0201301N003610060019N0112651N1+00101-00701999999ADDGA1041+004801999GA2071+006001999GF107991999999999999999999MA1102101999999REMMET059METAR ENSO 181720Z 13007KT 9999 SCT016 BKN020 01/M07 Q1021;
0152010014999992010011817504+59783+005350FM-15+0049ENSO V0201801N002610135019N0112651N1+00101-00601999999ADDGA1021+004801999GA2071+013501999GF107991999999999999999999MA1102201999999REMMET067METAR ENSO 181750Z 18005KT 120V240 9999 FEW016 BKN045 01/M06 Q1022;
0175010014999992010011818204+59783+005350FM-15+0049ENSO V0201701N00211010501CN0112651N1+00101-00601999999ADDGA1021+007501999GA2041+010501999GA3071+018001999GF107991999999999999999999MA1102201999999REMMET074METAR ENSO 181820Z 17004KT 110V210 9999 FEW025 SCT035 BKN060 01/M06 Q1022;
0167010014999992010011818504+59783+005350FM-15+0049ENSO V0201701N00211012001CN0112651N1+00001-00601999999ADDGA1021+006601999GA2041+012001999GA3071+015001999GF107991999999999999999999MA1102201999999REMMET066METAR ENSO 181850Z 17004KT 9999 FEW022 SCT040 BKN055 00/M06 Q1022;
0144010014999992010011904504+59783+005350FM-15+0049ENSO V0201001N004110066019N0112651N1+00101-00201999999ADDGA1021+004501999GA2071+006601999GF107991999999999999999999MA1102611999999REMMET059METAR ENSO 190450Z 10008KT 9999 FEW015 BKN022 01/M02 Q1026;
0144010014999992010011905204+59783+005350FM-15+0049ENSO V0201101N004110066019N0112651N1+00101-00201999999ADDGA1021+004501999GA2071+006601999GF107991999999999999999999MA1102711999999REMMET059METAR ENSO 190520Z 11008KT 9999 FEW015 BKN022 01/M02 Q1027;
0144010014999992010011905504+59783+005350FM-15+0049ENSO V0201101N004110066019N0112651N1+00101-00201999999ADDGA1021+004501999GA2071+006601999GF107991999999999999999999MA1102711999999REMMET059METAR ENSO 190550Z 11008KT 9999 FEW015 BKN022 01/M02 Q1027;
0144010014999992010011906204+59783+005350FM-15+0049ENSO V0201101N003610066019N0112651N1+00101-00301999999ADDGA1021+004501999GA2071+006601999GF107991999999999999999999MA1102711999999REMMET059METAR ENSO 190620Z 11007KT 9999 FEW015 BKN022 01/M03 Q1027;
0144010014999992010011906504+59783+005350FM-15+0049ENSO V0201101N003610060019N0112651N1+00101-00301999999ADDGA1021+004501999GA2071+006001999GF107991999999999999999999MA1102711999999REMMET059METAR ENSO 190650Z 11007KT 9999 FEW015 BKN020 01/M03 Q1027;
0144010014999992010011907204+59783+005350FM-15+0049ENSO V0201001N004110063019N0112651N1+00101-00201999999ADDGA1021+004501999GA2071+006301999GF107991999999999999999999MA1102711999999REMMET059METAR ENSO 190720Z 10008KT 9999 FEW015 BKN021 01/M02 Q1027;
0144010014999992010011907504+59783+005350FM-15+0049ENSO V0201101N003110063019N0112651N1+00101-00201999999ADDGA1021+004501999GA2071+006301999GF107991999999999999999999MA1102811999999REMMET059METAR ENSO 190750Z 11006KT 9999 FEW015 BKN021 01/M02 Q1028;
0144010014999992010011908204+59783+005350FM-15+0049ENSO V0201201N003110060019N0112651N1+00101-00201999999ADDGA1021+004501999GA2071+006001999GF107991999999999999999999MA1102811999999REMMET059METAR ENSO 190820Z 12006KT 9999 FEW015 BKN020 01/M02 Q1028;
0144010014999992010011908504+59783+005350FM-15+0049ENSO V0201301N003110060019N0112651N1+00101-00201999999ADDGA1021+004501999GA2071+006001999GF107991999999999999999999MA1102811999999REMMET059METAR ENSO 190850Z 13006KT 9999 FEW015 BKN020 01/M02 Q1028;
0144010014999992010011909204+59783+005350FM-15+0049ENSO V0201101N002610066019N0112651N1+00101-00201999999ADDGA1021+004501999GA2071+006601999GF107991999999999999999999MA1102811999999REMMET059METAR ENSO 190920Z 11005KT 9999 FEW015 BKN022 01/M02 Q1028;
0152010014999992010011909504+59783+005350FM-15+0049ENSO V0201101N003110066019N0112651N1+00101-00201999999ADDGA1021+005101999GA2071+006601999GF107991999999999999999999MA1102911999999REMMET067METAR ENSO 190950Z 11006KT 080V150 9999 FEW017 BKN022 01/M02 Q1029;
0152010014999992010011910204+59783+005350FM-15+0049ENSO V0201101N002110069019N0112651N1+00101-00201999999ADDGA1021+005401999GA2071+006901999GF107991999999999999999999MA1102811999999REMMET067METAR ENSO 191020Z 11004KT 090V150 9999 FEW018 BKN023 01/M02 Q1028;
0150010014999992010011910504+59783+005350FM-15+0049ENSO V0201001N002610060019N0112651N1+00101-00101999999ADDGA1021+003601999GA2071+006001999GF107991999999999999999999MA1102911999999REMMET065METAR ENSO 191050Z 10005KT 9999 -SHSN FEW012 BKN020 01/M01 Q1029;
0149010014999992010011911204+59783+005350FM-15+0049ENSO V0201001N003110060019N0112651N1+00101-00101999999ADDGA1021+003001999GA2071+006001999GF107991999999999999999999MA1102911999999REMMET064METAR ENSO 191120Z 10006KT 9999 SHSN FEW010 BKN020 01/M01 Q1029;
0150010014999992010011911504+59783+005350FM-15+0049ENSO V0201201N002612200019N0112651N1+00201-00101999999ADDGA1021+003001999GA2041+006001999GF104991999999999999999999MA1102911999999REMMET065METAR ENSO 191150Z 12005KT 9999 -SHSN FEW010 SCT020 02/M01 Q1029;
0144010014999992010011912204+59783+005350FM-15+0049ENSO V0201201N002612200019N0112651N1+00201-00101999999ADDGA1021+003001999GA2041+006001999GF104991999999999999999999MA1102811999999REMMET059METAR ENSO 191220Z 12005KT 9999 FEW010 SCT020 02/M01 Q1028;
0144010014999992010011912504+59783+005350FM-15+0049ENSO V0201101N003612200019N0112651N1+00101-00201999999ADDGA1021+003001999GA2041+006001999GF104991999999999999999999MA1102811999999REMMET059METAR ENSO 191250Z 11007KT 9999 FEW010 SCT020 01/M02 Q1028;
0167010014999992010011913504+59783+005350FM-15+0049ENSO V0201301N00101006001CN0112651N1+00201-00101999999ADDGA1021+003001999GA2041+006001999GA3071+012001999GF107991999999999999999999MA1102811999999REMMET066METAR ENSO 191350Z 13002KT 9999 FEW010 SCT020 BKN040 02/M01 Q1028;
0121010014999992010011914204+59783+005350FM-15+0049ENSO V0209999V000510060019N0112651N1+00201-00201999999ADDGA1071+006001999GF107991999999999999999999MA1102911999999REMMET052METAR ENSO 191420Z VRB01KT 9999 BKN020 02/M02 Q1029;
0144010014999992010011914504+59783+005350FM-15+0049ENSO V0201501N001512200019N0112651N1+00201-00101999999ADDGA1041+006001999GA2041+012001999GF104991999999999999999999MA1102911999999REMMET059METAR ENSO 191450Z 15003KT 9999 SCT020 SCT040 02/M01 Q1029;
0144010014999992010011915204+59783+005350FM-15+0049ENSO V0201301N002112200019N0112651N1+00101-00101999999ADDGA1041+005401999GA2041+007501999GF104991999999999999999999MA1102911999999REMMET059METAR ENSO 191520Z 13004KT 9999 SCT018 SCT025 01/M01 Q1029;
0144010014999992010011915504+59783+005350FM-15+0049ENSO V0201201N002110075019N0112651N1+00101-00101999999ADDGA1041+005401999GA2071+007501999GF107991999999999999999999MA1102911999999REMMET059METAR ENSO 191550Z 12004KT 9999 SCT018 BKN025 01/M01 Q1029;
0121010014999992010011916504+59783+005350FM-15+0049ENSO V0201101N001010054019N0112651N1+00101-00101999999ADDGA1071+005401999GF107991999999999999999999MA1102911999999REMMET052METAR ENSO 191650Z 11002KT 9999 BKN018 01/M01 Q1029;
0121010014999992010011917204+59783+005350FM-15+0049ENSO V0209999C000010054019N0112651N1+00101-00201999999ADDGA1071+005401999GF107991999999999999999999MA1102911999999REMMET052METAR ENSO 191720Z 00000KT 9999 BKN018 01/M02 Q1029;
0144010014999992010011918204+59783+005350FM-15+0049ENSO V0200901N002610060019N0112651N1+00101-00101999999ADDGA1041+004501999GA2071+006001999GF107991999999999999999999MA1102911999999REMMET059METAR ENSO 191820Z 09005KT 9999 SCT015 BKN020 01/M01 Q1029;
0074010014999992010012005204+59783+005350FM-15+0049ENSO V0201301N002619999999Y0099001N1-00201-00201999999ADDMA1102711999999REMMET047METAR ENSO 200520Z 13005KT CAVOK M02/M02 Q1027;
0122010014999992010012005504+59783+005350FM-15+0049ENSO V0201201N002612200019N0112651N1-00201-00201999999ADDGA1021+006001999GF102991999999999999999999MA1102711999999REMMET053METAR ENSO 200550Z 12005KT 9999 FEW020 M02/M02 Q1027;
0122010014999992010012006204+59783+005350FM-15+0049ENSO V0201501N002612200019N0112651N1-00101-00201999999ADDGA1021+006001999GF102991999999999999999999MA1102711999999REMMET053METAR ENSO 200620Z 15005KT 9999 FEW020 M01/M02 Q1027;
0130010014999992010012007204+59783+005350FM-15+0049ENSO V0201201N003612200019N0112651N1-00201-00201999999ADDGA1021+000151999GF102991999999999999999999MA1102701999999REMMET061METAR ENSO 200720Z 12007KT 9999 FEW0008 SCT020 M02/M02 Q1027;
0130010014999992010012007504+59783+005350FM-15+0049ENSO V0201201N002612200019N0112651N1-00101-00201999999ADDGA1021+000151999GF102991999999999999999999MA1102701999999REMMET061METAR ENSO 200750Z 12005KT 9999 FEW0008 SCT020 M01/M02 Q1027;
0122010014999992010012008504+59783+005350FM-15+0049ENSO V0200901N002112200019N0112651N1-00101-00201999999ADDGA1041+002401999GF104991999999999999999999MA1102711999999REMMET053METAR ENSO 200850Z 09004KT 9999 SCT008 M01/M02 Q1027;
0122010014999992010012009204+59783+005350FM-15+0049ENSO V0201301N001012200019N0112651N1-00201-00201999999ADDGA1041+002401999GF104991999999999999999999MA1102711999999REMMET053METAR ENSO 200920Z 13002KT 9999 SCT008 M02/M02 Q1027;
0122010014999992010012009504+59783+005350FM-15+0049ENSO V0209999V001012200019N0112651N1-00101-00201999999ADDGA1041+002401999GF104991999999999999999999MA1102711999999REMMET053METAR ENSO 200950Z VRB02KT 9999 SCT008 M01/M02 Q1027;
0122010014999992010012010204+59783+005350FM-15+0049ENSO V0201301N002612200019N0112651N1-00101-00201999999ADDGA1021+002401999GF102991999999999999999999MA1102711999999REMMET053METAR ENSO 201020Z 13005KT 9999 FEW008 M01/M02 Q1027;
0122010014999992010012011204+59783+005350FM-15+0049ENSO V0201301N001512200019N0112651N1+00001-00301999999ADDGA1021+006001999GF102991999999999999999999MA1102711999999REMMET053METAR ENSO 201120Z 13003KT 9999 FEW020 M00/M03 Q1027;
0074010014999992010012012204+59783+005350FM-15+0049ENSO V0201301N003119999999Y0099001N1+00001-00501999999ADDMA1102711999999REMMET047METAR ENSO 201220Z 13006KT CAVOK M00/M05 Q1027;
0074010014999992010012012504+59783+005350FM-15+0049ENSO V0201101N001519999999Y0099001N1+00001-00501999999ADDMA1102711999999REMMET047METAR ENSO 201250Z 11003KT CAVOK M00/M05 Q1027;
0073010014999992010012013204+59783+005350FM-15+0049ENSO V0209999V001019999999Y0099001N1+00001-00601999999ADDMA1102711999999REMMET046METAR ENSO 201320Z VRB02KT CAVOK 00/M06 Q1027;
0144010014999992010012013504+59783+005350FM-15+0049ENSO V0209999V001012200019N0112651N1+00001-00601999999ADDGA1021+012001999GA2041+075001999GF104991999999999999999999MA1102711999999REMMET059METAR ENSO 201350Z VRB02KT 9999 FEW040 SCT250 00/M06 Q1027;
0144010014999992010012014204+59783+005350FM-15+0049ENSO V0209999V001012200019N0112651N1+00001-00601999999ADDGA1021+015001999GA2041+075001999GF104991999999999999999999MA1102711999999REMMET059METAR ENSO 201420Z VRB02KT 9999 FEW055 SCT250 00/M06 Q1027;
0144010014999992010012014504+59783+005350FM-15+0049ENSO V0201201N002612200019N0112651N1+00001-00701999999ADDGA1021+015001999GA2041+075001999GF104991999999999999999999MA1102711999999REMMET059METAR ENSO 201450Z 12005KT 9999 FEW050 SCT250 00/M07 Q1027;
0152010014999992010012015204+59783+005350FM-15+0049ENSO V0201001N002112200019N0112651N1+00101-00701999999ADDGA1041+015001999GA2041+075001999GF104991999999999999999999MA1102711999999REMMET067METAR ENSO 201520Z 10004KT 040V210 9999 SCT055 SCT250 01/M07 Q1027;
0081010014999992010012015504+59783+005350FM-15+0049ENSO V0200901N002119999999Y0099001N1+00001-00701999999ADDMA1102711999999REMMET054METAR ENSO 201550Z 09004KT 050V150 CAVOK 00/M07 Q1027;
0073010014999992010012017204+59783+005350FM-15+0049ENSO V0209999V000519999999Y0099001N1+00001-00601999999ADDMA1102611999999REMMET046METAR ENSO 201720Z VRB01KT CAVOK 00/M06 Q1026;
0074010014999992010012017504+59783+005350FM-15+0049ENSO V0201101N003619999999Y0099001N1+00001-00601999999ADDMA1102611999999REMMET047METAR ENSO 201750Z 11007KT CAVOK M00/M06 Q1026;
0122010014999992010012104504+59783+005350FM-15+0049ENSO V0201301N005710150019N0112651N1+00001-00901999999ADDGA1071+015001999GF107991999999999999999999MA1102811999999REMMET053METAR ENSO 210450Z 13011KT 9999 BKN050 M00/M09 Q1028;
0145010014999992010012105204+59783+005350FM-15+0049ENSO V0201301N005110240019N0112651N1+00001-00901999999ADDGA1041+013501999GA2071+024001999GF107991999999999999999999MA1102811999999REMMET060METAR ENSO 210520Z 13010KT 9999 SCT045 BKN080 M00/M09 Q1028;
0153010014999992010012105504+59783+005350FM-15+0049ENSO V0201101N004110240019N0112651N1-00101-00901999999ADDGA1041+015001999GA2071+024001999GF107991999999999999999999MA1102911999999REMMET068METAR ENSO 210550Z 11008KT 080V150 9999 SCT050 BKN085 M01/M09 Q1029;
0153010014999992010012106504+59783+005350FM-15+0049ENSO V0201301N003112200019N0112651N1-00101-00901999999ADDGA1021+015001999GA2041+024001999GF104991999999999999999999MA1102911999999REMMET068METAR ENSO 210650Z 13006KT 100V170 9999 FEW050 SCT080 M01/M09 Q1029;
0153010014999992010012107204+59783+005350FM-15+0049ENSO V0201101N003612200019N0112651N1-00101-00901999999ADDGA1021+015001999GA2041+027001999GF104991999999999999999999MA1102811999999REMMET068METAR ENSO 210720Z 11007KT 080V150 9999 FEW050 SCT090 M01/M09 Q1028;
0074010014999992010012108204+59783+005350FM-15+0049ENSO V0201101N005719999999Y0099001N1+00001-00901999999ADDMA1102911999999REMMET047METAR ENSO 210820Z 11011KT CAVOK M00/M09 Q1029;
0074010014999992010012109504+59783+005350FM-15+0049ENSO V0201001N005719999999Y0099001N1+00001-00901999999ADDMA1102911999999REMMET047METAR ENSO 210950Z 10011KT CAVOK M00/M09 Q1029;
0073010014999992010012110504+59783+005350FM-15+0049ENSO V0201101N006219999999Y0099001N1+00001-00901999999ADDMA1102911999999REMMET046METAR ENSO 211050Z 11012KT CAVOK 00/M09 Q1029;
0073010014999992010012111204+59783+005350FM-15+0049ENSO V0201101N005119999999Y0099001N1+00101-00901999999ADDMA1102911999999REMMET046METAR ENSO 211120Z 11010KT CAVOK 01/M09 Q1029;
0073010014999992010012112204+59783+005350FM-15+0049ENSO V0201101N005119999999Y0099001N1+00101-00901999999ADDMA1102911999999REMMET046METAR ENSO 211220Z 11010KT CAVOK 01/M09 Q1029;
0073010014999992010012112504+59783+005350FM-15+0049ENSO V0201101N005719999999Y0099001N1+00101-00901999999ADDMA1102911999999REMMET046METAR ENSO 211250Z 11011KT CAVOK 01/M09 Q1029;
0073010014999992010012113204+59783+005350FM-15+0049ENSO V0201101N004619999999Y0099001N1+00101-00901999999ADDMA1102911999999REMMET046METAR ENSO 211320Z 11009KT CAVOK 01/M09 Q1029;
0073010014999992010012113504+59783+005350FM-15+0049ENSO V0201101N004619999999Y0099001N1+00101-00801999999ADDMA1102811999999REMMET046METAR ENSO 211350Z 11009KT CAVOK 01/M08 Q1028;
0073010014999992010012114204+59783+005350FM-15+0049ENSO V0201201N005119999999Y0099001N1+00101-00801999999ADDMA1102811999999REMMET046METAR ENSO 211420Z 12010KT CAVOK 01/M08 Q1028;
0155010014999992010012115204+59783+005350FM-15+0049ENSO V0201101N003612200019N0112651N1+00101-00801999999ADDGA1041+015001999GA2041+024001999GF104991999999999999999999MA1102811999999MW1161REMMET064METAR ENSO 211520Z 11007KT 9999 VCSH SCT055 SCT080 01/M08 Q1028;
0144010014999992010012116204+59783+005350FM-15+0049ENSO V0201301N004612200019N0112651N1+00201-00701999999ADDGA1041+012001999GA2041+018001999GF104991999999999999999999MA1102811999999REMMET059METAR ENSO 211620Z 13009KT 9999 SCT040 SCT060 02/M07 Q1028;
0144010014999992010012116504+59783+005350FM-15+0049ENSO V0201101N005112200019N0112651N1+00201-00701999999ADDGA1041+013501999GA2041+018001999GF104991999999999999999999MA1102811999999REMMET059METAR ENSO 211650Z 11010KT 9999 SCT045 SCT060 02/M07 Q1028;
0144010014999992010012117204+59783+005350FM-15+0049ENSO V0201101N006710270019N0112651N1+00201-00701999999ADDGA1041+013501999GA2071+027001999GF107991999999999999999999MA1102811999999REMMET059METAR ENSO 211720Z 11013KT 9999 SCT045 BKN090 02/M07 Q1028;
0144010014999992010012117504+59783+005350FM-15+0049ENSO V0201001N005110270019N0112651N1+00201-00701999999ADDGA1041+013501999GA2071+027001999GF107991999999999999999999MA1102811999999REMMET059METAR ENSO 211750Z 10010KT 9999 SCT045 BKN090 02/M07 Q1028;
0167010014999992010012118204+59783+005350FM-15+0049ENSO V0201101N00511018001CN0112651N1+00201-00601999999ADDGA1021+012001999GA2041+018001999GA3071+027001999GF107991999999999999999999MA1102811999999REMMET066METAR ENSO 211820Z 11010KT 9999 FEW040 SCT060 BKN090 02/M06 Q1028;
0167010014999992010012118504+59783+005350FM-15+0049ENSO V0201001N00671018001CN0112651N1+00201-00601999999ADDGA1021+012001999GA2041+018001999GA3071+027001999GF107991999999999999999999MA1102811999999REMMET066METAR ENSO 211850Z 10013KT 9999 FEW040 SCT060 BKN090 02/M06 Q1028;
0167010014999992010012119204+59783+005350FM-15+0049ENSO V0201101N00671018001CN0112651N1+00201-00601999999ADDGA1021+012001999GA2041+018001999GA3071+027001999GF107991999999999999999999MA1102811999999REMMET066METAR ENSO 211920Z 11013KT 9999 FEW040 SCT060 BKN090 02/M06 Q1028;
0073010014999992010012120204+59783+005350FM-15+0049ENSO V0201101N003619999999Y0099001N1+00201-00601999999ADDMA1102811999999REMMET046METAR ENSO 212020Z 11007KT CAVOK 02/M06 Q1028;
0073010014999992010012207504+59783+005350FM-15+0049ENSO V0201301N005719999999Y0099001N1+00101-01001999999ADDMA1102711999999REMMET046METAR ENSO 220750Z 13011KT CAVOK 01/M10 Q1027;
0073010014999992010012208204+59783+005350FM-15+0049ENSO V0201301N006219999999Y0099001N1+00101-01101999999ADDMA1102711999999REMMET046METAR ENSO 220820Z 13012KT CAVOK 01/M11 Q1027;
0073010014999992010012209504+59783+005350FM-15+0049ENSO V0201301N007719999999Y0099001N1+00101-01101999999ADDMA1102711999999REMMET046METAR ENSO 220950Z 13015KT CAVOK 01/M11 Q1027;
0084010014999992010012210204+59783+005350FM-15+0049ENSO V0201301N007219999999Y0099001N1+00201-01101999999ADDMA1102711999999OC101231REMMET049METAR ENSO 221020Z 13014G24KT CAVOK 02/M11 Q1027;
0084010014999992010012210504+59783+005350FM-15+0049ENSO V0201301N007219999999Y0099001N1+00101-01101999999ADDMA1102711999999OC101231REMMET049METAR ENSO 221050Z 13014G24KT CAVOK 01/M11 Q1027;
0073010014999992010012211204+59783+005350FM-15+0049ENSO V0201301N007719999999Y0099001N1+00101-01101999999ADDMA1102711999999REMMET046METAR ENSO 221120Z 13015KT CAVOK 01/M11 Q1027;
0084010014999992010012212204+59783+005350FM-15+0049ENSO V0201401N004619999999Y0099001N1+00201-01001999999ADDMA1102711999999OC101031REMMET049METAR ENSO 221220Z 14009G20KT CAVOK 02/M10 Q1027;
0084010014999992010012212504+59783+005350FM-15+0049ENSO V0201301N006219999999Y0099001N1+00101-01101999999ADDMA1102711999999OC101131REMMET049METAR ENSO 221250Z 13012G22KT CAVOK 01/M11 Q1027;
0084010014999992010012213504+59783+005350FM-15+0049ENSO V0201401N004619999999Y0099001N1+00101-01001999999ADDMA1102711999999OC101081REMMET049METAR ENSO 221350Z 14009G21KT CAVOK 01/M10 Q1027;
0073010014999992010012214204+59783+005350FM-15+0049ENSO V0201401N006719999999Y0099001N1+00101-01001999999ADDMA1102811999999REMMET046METAR ENSO 221420Z 14013KT CAVOK 01/M10 Q1028;
0073010014999992010012215504+59783+005350FM-15+0049ENSO V0201401N005719999999Y0099001N1+00101-01001999999ADDMA1102811999999REMMET046METAR ENSO 221550Z 14011KT CAVOK 01/M10 Q1028;
0073010014999992010012216204+59783+005350FM-15+0049ENSO V0201301N006219999999Y0099001N1+00001-01001999999ADDMA1102811999999REMMET046METAR ENSO 221620Z 13012KT CAVOK 00/M10 Q1028;
0073010014999992010012217204+59783+005350FM-15+0049ENSO V0201301N005719999999Y0099001N1+00001-01001999999ADDMA1102911999999REMMET046METAR ENSO 221720Z 13011KT CAVOK 00/M10 Q1029;
0084010014999992010012218204+59783+005350FM-15+0049ENSO V0201301N007219999999Y0099001N1+00101-01001999999ADDMA1102911999999OC101231REMMET049METAR ENSO 221820Z 13014G24KT CAVOK 01/M10 Q1029;
0073010014999992010012412504+59783+005350FM-15+0049ENSO V0203301N002119999999Y0099001N1+00301-00301999999ADDMA1103391999999REMMET046METAR ENSO 241250Z 33004KT CAVOK 03/M03 Q1034;
0073010014999992010012413204+59783+005350FM-15+0049ENSO V0203201N002119999999Y0099001N1+00301-00401999999ADDMA1103391999999REMMET046METAR ENSO 241320Z 32004KT CAVOK 03/M04 Q1034;
0073010014999992010012413504+59783+005350FM-15+0049ENSO V0203001N002619999999Y0099001N1+00201-00401999999ADDMA1103391999999REMMET046METAR ENSO 241350Z 30005KT CAVOK 02/M04 Q1034;
0073010014999992010012414204+59783+005350FM-15+0049ENSO V0203201N002619999999Y0099001N1+00101-00401999999ADDMA1103391999999REMMET046METAR ENSO 241420Z 32005KT CAVOK 01/M04 Q1034;
0073010014999992010012415204+59783+005350FM-15+0049ENSO V0203201N001519999999Y0099001N1+00101-00301999999ADDMA1103391999999REMMET046METAR ENSO 241520Z 32003KT CAVOK 01/M03 Q1034;
0074010014999992010012415504+59783+005350FM-15+0049ENSO V0203001N000519999999Y0099001N1+00001-00301999999ADDMA1103391999999REMMET047METAR ENSO 241550Z 30001KT CAVOK M00/M03 Q1034;
0074010014999992010012416204+59783+005350FM-15+0049ENSO V0203301N001519999999Y0099001N1+00001-00301999999ADDMA1103391999999REMMET047METAR ENSO 241620Z 33003KT CAVOK M00/M03 Q1034;
0074010014999992010012417204+59783+005350FM-15+0049ENSO V0209999C000019999999Y0099001N1-00101-00301999999ADDMA1103391999999REMMET047METAR ENSO 241720Z 00000KT CAVOK M01/M03 Q1034;
0079010014999992010012504504+59783+005350FM-15+0049ENSO V02099999999992200019N0014061N1-00101-00401999999ADDMA1103701999999REMMET052METAR ENSO 250450Z 1406KT 9999 BKN015 M01/M04 Q1037;
0155010014999992010012505204+59783+005350FM-15+0049ENSO V0201201N002610075019N0112651N1-00101-00401999999ADDGA1041+005101999GA2071+007501999GF107991999999999999999999MA1103691999999MW1711REMMET064METAR ENSO 250520Z 12005KT 9999 -SN SCT017 BKN025 M01/M04 Q1037;
0153010014999992010012505504+59783+005350FM-15+0049ENSO V0201501N002610075019N0112651N1-00101-00501999999ADDGA1041+005401999GA2071+007501999GF107991999999999999999999MA1103691999999REMMET068METAR ENSO 250550Z 15005KT 120V190 9999 SCT018 BKN025 M01/M05 Q1037;
0145010014999992010012506204+59783+005350FM-15+0049ENSO V0201401N002610075019N0112651N1-00101-00501999999ADDGA1041+005401999GA2071+007501999GF107991999999999999999999MA1103691999999REMMET060METAR ENSO 250620Z 14005KT 9999 SCT018 BKN025 M01/M05 Q1037;
0145010014999992010012506504+59783+005350FM-15+0049ENSO V0201501N002610066019N0112651N1-00101-00501999999ADDGA1041+005401999GA2071+006601999GF107991999999999999999999MA1103791999999REMMET060METAR ENSO 250650Z 15005KT 9999 SCT018 BKN022 M01/M05 Q1038;
0145010014999992010012507504+59783+005350FM-15+0049ENSO V0201501N002610075019N0112651N1-00101-00501999999ADDGA1041+005401999GA2071+007501999GF107991999999999999999999MA1103791999999REMMET060METAR ENSO 250750Z 15005KT 9999 SCT018 BKN025 M01/M05 Q1038;
0168010014999992010012508204+59783+005350FM-15+0049ENSO V0201501N00211005401CN0112651N1-00101-00501999999ADDGA1021+004501999GA2041+005401999GA3071+007201999GF107991999999999999999999MA1103891999999REMMET067METAR ENSO 250820Z 15004KT 9999 FEW015 SCT018 BKN024 M01/M05 Q1039;
0168010014999992010012508504+59783+005350FM-15+0049ENSO V0201401N00261005401CN0112651N1-00101-00501999999ADDGA1021+004501999GA2041+005401999GA3071+007201999GF107991999999999999999999MA1103891999999REMMET067METAR ENSO 250850Z 14005KT 9999 FEW015 SCT018 BKN024 M01/M05 Q1039;
0145010014999992010012509504+59783+005350FM-15+0049ENSO V0201401N003110075019N0112651N1-00101-00401999999ADDGA1041+006001999GA2071+007501999GF107991999999999999999999MA1103891999999REMMET060METAR ENSO 250950Z 14006KT 9999 SCT020 BKN025 M01/M04 Q1039;
0145010014999992010012510204+59783+005350FM-15+0049ENSO V0201201N003110075019N0112651N1-00101-00401999999ADDGA1041+006001999GA2071+007501999GF107991999999999999999999MA1103891999999REMMET060METAR ENSO 251020Z 12006KT 9999 SCT020 BKN025 M01/M04 Q1039;
0145010014999992010012510504+59783+005350FM-15+0049ENSO V0201201N002610075019N0112651N1-00101-00501999999ADDGA1041+006001999GA2071+007501999GF107991999999999999999999MA1103891999999REMMET060METAR ENSO 251050Z 12005KT 9999 SCT020 BKN025 M01/M05 Q1039;
0145010014999992010012511204+59783+005350FM-15+0049ENSO V0201301N002110075019N0112651N1-00101-00401999999ADDGA1041+006001999GA2071+007501999GF107991999999999999999999MA1104001999999REMMET060METAR ENSO 251120Z 13004KT 9999 SCT020 BKN025 M01/M04 Q1040;
0145010014999992010012512204+59783+005350FM-15+0049ENSO V0201101N003110075019N0112651N1-00101-00401999999ADDGA1041+006001999GA2071+007501999GF107991999999999999999999MA1103891999999REMMET060METAR ENSO 251220Z 11006KT 9999 SCT020 BKN025 M01/M04 Q1039;
0156010014999992010012512504+59783+005350FM-15+0049ENSO V0201301N003610090019N0112651N1-00101-00401999999ADDGA1041+005401999GA2071+009001999GF107991999999999999999999MA1103891999999MW1161REMMET065METAR ENSO 251250Z 13007KT 9999 VCSH SCT018 BKN030 M01/M04 Q1039;
0156010014999992010012513204+59783+005350FM-15+0049ENSO V0201201N003610090019N0112651N1-00101-00401999999ADDGA1041+005401999GA2071+009001999GF107991999999999999999999MA1103891999999MW1161REMMET065METAR ENSO 251320Z 12007KT 9999 VCSH SCT018 BKN030 M01/M04 Q1039;
0151010014999992010012514204+59783+005350FM-15+0049ENSO V0201201N002610060019N0112651N1+00001-00301999999ADDGA1041+005401999GA2071+006001999GF107991999999999999999999MA1104001999999REMMET066METAR ENSO 251420Z 12005KT 9999 -SHSN SCT018 BKN020 M00/M03 Q1040;
0156010014999992010012514504+59783+005350FM-15+0049ENSO V0201301N003610075019N0112651N1-00101-00301999999ADDGA1041+005401999GA2071+007501999GF107991999999999999999999MA1103891999999MW1161REMMET065METAR ENSO 251450Z 13007KT 9999 VCSH SCT018 BKN025 M01/M03 Q1039;
0156010014999992010012515204+59783+005350FM-15+0049ENSO V0201301N003110075019N0112651N1+00001-00301999999ADDGA1041+005401999GA2071+007501999GF107991999999999999999999MA1104001999999MW1161REMMET065METAR ENSO 251520Z 13006KT 9999 VCSH SCT018 BKN025 M00/M03 Q1040;
0156010014999992010012516204+59783+005350FM-15+0049ENSO V0201301N002610066019N0112651N1+00001-00301999999ADDGA1041+004801999GA2071+006601999GF107991999999999999999999MA1104001999999MW1161REMMET065METAR ENSO 251620Z 13005KT 9999 VCSH SCT016 BKN022 M00/M03 Q1040;
0145010014999992010012516504+59783+005350FM-15+0049ENSO V0201301N002110075019N0112651N1+00001-00301999999ADDGA1041+005401999GA2071+007501999GF107991999999999999999999MA1104001999999REMMET060METAR ENSO 251650Z 13004KT 9999 SCT018 BKN025 M00/M03 Q1040;
0145010014999992010012517204+59783+005350FM-15+0049ENSO V0201201N002110075019N0112651N1+00001-00301999999ADDGA1041+005401999GA2071+007501999GF107991999999999999999999MA1104001999999REMMET060METAR ENSO 251720Z 12004KT 9999 SCT018 BKN025 M00/M03 Q1040;
0145010014999992010012517504+59783+005350FM-15+0049ENSO V0201201N002610084019N0112651N1+00001-00301999999ADDGA1041+005401999GA2071+008401999GF107991999999999999999999MA1104001999999REMMET060METAR ENSO 251750Z 12005KT 9999 SCT018 BKN028 M00/M03 Q1040;
0145010014999992010012604504+59783+005350FM-15+0049ENSO V0201301N004610600019N0112651N1-00201-00601999999ADDGA1021+007501999GA2071+060001999GF107991999999999999999999MA1104101999999REMMET060METAR ENSO 260450Z 13009KT 9999 FEW025 BKN200 M02/M06 Q1041;
0145010014999992010012605204+59783+005350FM-15+0049ENSO V0201201N003610600019N0112651N1-00201-00501999999ADDGA1021+007501999GA2071+060001999GF107991999999999999999999MA1104101999999REMMET060METAR ENSO 260520Z 12007KT 9999 FEW025 BKN200 M02/M05 Q1041;
0145010014999992010012605504+59783+005350FM-15+0049ENSO V0201201N005110600019N0112651N1-00201-00601999999ADDGA1021+007501999GA2071+060001999GF107991999999999999999999MA1104101999999REMMET060METAR ENSO 260550Z 12010KT 9999 FEW025 BKN200 M02/M06 Q1041;
0145010014999992010012606204+59783+005350FM-15+0049ENSO V0201201N004110450019N0112651N1-00101-00501999999ADDGA1021+007501999GA2071+045001999GF107991999999999999999999MA1104101999999REMMET060METAR ENSO 260620Z 12008KT 9999 FEW025 BKN150 M01/M05 Q1041;
0145010014999992010012606504+59783+005350FM-15+0049ENSO V0201201N005110450019N0112651N1-00101-00401999999ADDGA1041+006001999GA2071+045001999GF107991999999999999999999MA1104101999999REMMET060METAR ENSO 260650Z 12010KT 9999 SCT020 BKN150 M01/M04 Q1041;
0145010014999992010012607204+59783+005350FM-15+0049ENSO V0201201N004110450019N0112651N1-00101-00401999999ADDGA1041+006001999GA2071+045001999GF107991999999999999999999MA1104101999999REMMET060METAR ENSO 260720Z 12008KT 9999 SCT020 BKN150 M01/M04 Q1041;
0145010014999992010012607504+59783+005350FM-15+0049ENSO V0201201N004610390019N0112651N1-00101-00401999999ADDGA1041+009001999GA2071+039001999GF107991999999999999999999MA1104201999999REMMET060METAR ENSO 260750Z 12009KT 9999 SCT030 BKN130 M01/M04 Q1042;
0145010014999992010012608204+59783+005350FM-15+0049ENSO V0201201N005710390019N0112651N1-00101-00401999999ADDGA1041+009001999GA2071+039001999GF107991999999999999999999MA1104101999999REMMET060METAR ENSO 260820Z 12011KT 9999 SCT030 BKN130 M01/M04 Q1041;
0145010014999992010012608504+59783+005350FM-15+0049ENSO V0201201N005110360019N0112651N1-00101-00401999999ADDGA1041+009001999GA2071+036001999GF107991999999999999999999MA1104101999999REMMET060METAR ENSO 260850Z 12010KT 9999 SCT030 BKN120 M01/M04 Q1041;
0145010014999992010012609204+59783+005350FM-15+0049ENSO V0201101N005110330019N0112651N1+00001-00401999999ADDGA1041+007501999GA2071+033001999GF107991999999999999999999MA1104101999999REMMET060METAR ENSO 260920Z 11010KT 9999 SCT025 BKN110 M00/M04 Q1041;
0145010014999992010012609504+59783+005350FM-15+0049ENSO V0201101N003610330019N0112651N1+00001-00401999999ADDGA1041+007501999GA2071+033001999GF107991999999999999999999MA1104101999999REMMET060METAR ENSO 260950Z 11007KT 9999 SCT025 BKN110 M00/M04 Q1041;
0145010014999992010012610204+59783+005350FM-15+0049ENSO V0201301N003110330019N0112651N1+00001-00301999999ADDGA1041+007501999GA2071+033001999GF107991999999999999999999MA1104101999999REMMET060METAR ENSO 261020Z 13006KT 9999 SCT025 BKN110 M00/M03 Q1041;
0144010014999992010012610504+59783+005350FM-15+0049ENSO V0201201N003110210019N0112651N1+00001-00301999999ADDGA1041+006001999GA2071+021001999GF107991999999999999999999MA1104101999999REMMET059METAR ENSO 261050Z 12006KT 9999 SCT020 BKN070 00/M03 Q1041;
0144010014999992010012611204+59783+005350FM-15+0049ENSO V0201201N004610210019N0112651N1+00101-00401999999ADDGA1041+006001999GA2071+021001999GF107991999999999999999999MA1104101999999REMMET059METAR ENSO 261120Z 12009KT 9999 SCT020 BKN070 01/M04 Q1041;
0144010014999992010012611504+59783+005350FM-15+0049ENSO V0201301N004110105019N0112651N1+00001-00401999999ADDGA1041+006001999GA2071+010501999GF107991999999999999999999MA1104101999999REMMET059METAR ENSO 261150Z 13008KT 9999 SCT020 BKN035 00/M04 Q1041;
0167010014999992010012612204+59783+005350FM-15+0049ENSO V0201501N00461010501CN0112651N1+00101-00501999999ADDGA1021+006001999GA2041+010501999GA3071+021001999GF107991999999999999999999MA1104101999999REMMET066METAR ENSO 261220Z 15009KT 9999 FEW020 SCT035 BKN070 01/M05 Q1041;
0175010014999992010012612504+59783+005350FM-15+0049ENSO V0201601N00461010501CN0112651N1+00101-00501999999ADDGA1021+006001999GA2041+010501999GA3071+021001999GF107991999999999999999999MA1104101999999REMMET074METAR ENSO 261250Z 16009KT 130V220 9999 FEW020 SCT035 BKN070 01/M05 Q1041;
0175010014999992010012613204+59783+005350FM-15+0049ENSO V0201501N00411009001CN0112651N1+00101-00401999999ADDGA1021+004801999GA2041+009001999GA3071+018001999GF107991999999999999999999MA1104001999999REMMET074METAR ENSO 261320Z 15008KT 120V190 9999 FEW016 SCT030 BKN060 01/M04 Q1040;
0167010014999992010012613504+59783+005350FM-15+0049ENSO V0201401N00511009001CN0112651N1+00101-00301999999ADDGA1021+004801999GA2041+009001999GA3071+015001999GF107991999999999999999999MA1103891999999REMMET066METAR ENSO 261350Z 14010KT 9999 FEW016 SCT030 BKN050 01/M03 Q1039;
0167010014999992010012614204+59783+005350FM-15+0049ENSO V0201501N00461009001CN0112651N1+00101-00201999999ADDGA1021+005401999GA2041+009001999GA3071+015001999GF107991999999999999999999MA1103891999999REMMET066METAR ENSO 261420Z 15009KT 9999 FEW018 SCT030 BKN050 01/M02 Q1039;
0167010014999992010012614504+59783+005350FM-15+0049ENSO V0201401N00571009001CN0112651N1+00101-00201999999ADDGA1021+005401999GA2041+009001999GA3071+015001999GF107991999999999999999999MA1103891999999REMMET066METAR ENSO 261450Z 14011KT 9999 FEW018 SCT030 BKN050 01/M02 Q1039;
0167010014999992010012615204+59783+005350FM-15+0049ENSO V0201401N00571008401CN0112651N1+00101-00201999999ADDGA1021+004501999GA2041+008401999GA3071+013501999GF107991999999999999999999MA1103891999999REMMET066METAR ENSO 261520Z 14011KT 9999 FEW015 SCT028 BKN045 01/M02 Q1039;
0175010014999992010012615504+59783+005350FM-15+0049ENSO V0201401N00511009001CN0112651N1+00101-00201999999ADDGA1021+005401999GA2041+009001999GA3071+015001999GF107991999999999999999999MA1103791999999REMMET074METAR ENSO 261550Z 14010KT 110V180 9999 FEW018 SCT030 BKN055 01/M02 Q1038;
0167010014999992010012616204+59783+005350FM-15+0049ENSO V0201401N00511007501CN0112651N1+00101-00201999999ADDGA1021+005401999GA2041+007501999GA3071+012001999GF107991999999999999999999MA1103791999999REMMET066METAR ENSO 261620Z 14010KT 9999 FEW018 SCT025 BKN040 01/M02 Q1038;
0130010014999992010012616504+59783+005350FM-15+0049ENSO V0201401N005110036019N0080001N1+00101-00101999999ADDGA1091+003601999GF109991999999000251999999MA1103791999999MW1711REMMET055METAR ENSO 261650Z 14010KT 8000 -SN VV012 01/M01 Q1038;
0144010014999992010012617204+59783+005350FM-15+0049ENSO V0201401N006210090019N0112651N1+00101-00201999999ADDGA1041+004801999GA2071+009001999GF107991999999999999999999MA1103691999999REMMET059METAR ENSO 261720Z 14012KT 9999 SCT016 BKN030 01/M02 Q1037;
0185010014999992010012617504+59783+005350FM-15+0049ENSO V0201401N00671005401CN0112651N1+00101-00201999999ADDGA1021+004201999GA2041+005401999GA3071+009001999GF107991999999999999999999MA1103691999999MW1711REMMET078METAR ENSO 261750Z 14013KT 110V170 9999 -SN FEW014 SCT018 BKN030 01/M02 Q1037;
0143010014999992010012704504+59783+005350FM-15+0049ENSO V0201301N006710009019N0035001N1+00201+00201999999ADDGA1041+000601999GA2081+000901999GF108991999999999999999999MA1101691999999REMMET058METAR ENSO 270450Z 13013KT 3500 SCT002 OVC003 02/02 Q1017;
0138010014999992010012705204+59783+005350FM-15+0049ENSO V0201301N006710006019N0030001N1+00201+00201999999ADDGA1081+000601999GF108991999999999999999999MA1101591999999MW1511MW2611REMMET057METAR ENSO 270520Z 13013KT 3000 -RADZ OVC002 02/02 Q1016;
0161010014999992010012705504+59783+005350FM-15+0049ENSO V0201301N006710003019N0018001N1+00201+00201999999ADDGA1071+000301999GA2081+001201999GF108991999999999999999999MA1101391999999MW1511MW2611REMMET064METAR ENSO 270550Z 13013KT 1800 -RADZ BKN001 OVC004 02/02 Q1014;
0160010014999992010012706204+59783+005350FM-15+0049ENSO V0201501N006710012019N0030001N1+00401+00401999999ADDGA1041+000601999GA2081+001201999GF108991999999999999999999MA1101191999999MW1531MW2631REMMET063METAR ENSO 270620Z 15013KT 3000 RADZ SCT002 OVC004 04/04 Q1012;
0160010014999992010012706504+59783+005350FM-15+0049ENSO V0201701N006210012019N0050001N1+00401+00401999999ADDGA1041+000601999GA2071+001201999GF107991999999999999999999MA1101191999999MW1631REMMET069METAR ENSO 270650Z 17012KT 140V230 5000 RA SCT002 BKN004 04/04 Q1012;
0148010014999992010012707204+59783+005350FM-15+0049ENSO V0202201N006210009019N0070001N1+00601+00601999999ADDGA1071+000901999GF107991999999999999999999MA1101021999999MW1631OC101131REMMET065METAR ENSO 270720Z 22012G22KT 180V260 7000 RA BKN003 06/06 Q1010;
0164010014999992010012708204+59783+005350FM-15+0049ENSO V0202701N009810015019N0112651N1+00601+00501999999ADDGA1041+000901999GA2071+001501999GF107991999999999999999999MA1100711999999MW1611OC101541REMMET065METAR ENSO 270820Z 27019G30KT 9999 -RA SCT003 BKN005 06/05 Q1007;
0177010014999992010012708504+59783+005350FM-15+0049ENSO V0202701N00821002101CN0112651N1+00501+00501999999ADDGA1021+001201999GA2041+002101999GA3071+003001999GF107991999999999999999999MA1100711999999OC101341REMMET068METAR ENSO 270850Z 27016G26KT 9999 FEW004 SCT007 BKN010 05/05 Q1007;
0143010014999992010012709204+59783+005350FM-15+0049ENSO V0203001N006710075019N0112651N1+00401+00401999999ADDGA1041+002701999GA2071+007501999GF107991999999999999999999MA1100611999999REMMET058METAR ENSO 270920Z 30013KT 9999 SCT009 BKN025 04/04 Q1006;
0166010014999992010012709504+59783+005350FM-15+0049ENSO V0203001N00931003001CN0112651N1+00401+00401999999ADDGA1021+001801999GA2041+003001999GA3071+004801999GF107991999999999999999999MA1100611999999REMMET065METAR ENSO 270950Z 30018KT 9999 FEW006 SCT010 BKN016 04/04 Q1006;
0166010014999992010012710204+59783+005350FM-15+0049ENSO V0203301N00671007501CN0112651N1+00501+00401999999ADDGA1021+003601999GA2041+007501999GA3071+012001999GF107991999999999999999999MA1100611999999REMMET065METAR ENSO 271020Z 33013KT 9999 FEW012 SCT025 BKN040 05/04 Q1006;
0169010014999992010012710504+59783+005350FM-15+0049ENSO V0203201N006712200019N0112651N1+00401+00301999999ADDGA1021+004201999GA2041+007501021GA3041+018001999GF104991999999999999999999MA1100611999999REMMET068METAR ENSO 271050Z 32013KT 9999 FEW014 SCT025TCU SCT060 04/03 Q1006;
0169010014999992010012711204+59783+005350FM-15+0049ENSO V0203101N007712200019N0112651N1+00401+00201999999ADDGA1041+005401999GA2041+008401021GA3041+018001999GF104991999999999999999999MA1100611999999REMMET068METAR ENSO 271120Z 31015KT 9999 SCT018 SCT028TCU SCT060 04/02 Q1006;
0169010014999992010012711504+59783+005350FM-15+0049ENSO V0203201N008712200019N0112651N1+00401+00201999999ADDGA1041+006001999GA2041+010501021GA3041+018001999GF104991999999999999999999MA1100511999999REMMET068METAR ENSO 271150Z 32017KT 9999 SCT020 SCT035TCU SCT060 04/02 Q1005;
0146010014999992010012712504+59783+005350FM-15+0049ENSO V0203401N005112200019N0112651N1+00401+00201999999ADDGA1041+006601999GA2041+010501021GF104991999999999999999999MA1100411999999REMMET061METAR ENSO 271250Z 34010KT 9999 SCT022 SCT035TCU 04/02 Q1004;
0157010014999992010012713204+59783+005350FM-15+0049ENSO V0203301N005712200019N0112651N1+00401+00201999999ADDGA1041+006001999GA2041+010501021GF104991999999999999999999MA1100411999999MW1161REMMET066METAR ENSO 271320Z 33011KT 9999 VCSH SCT020 SCT035TCU 04/02 Q1004;
0180010014999992010012714204+59783+005350FM-15+0049ENSO V0203401N006212200019N0112651N1+00301+00101999999ADDGA1021+004501999GA2041+006001999GA3041+010501021GF104991999999999999999999MA1100201999999MW1811REMMET073METAR ENSO 271420Z 34012KT 9999 SHRA FEW015 SCT020 SCT035TCU 03/01 Q1002;
0191010014999992010012714504+59783+005350FM-15+0049ENSO V0203501N007712200019N0112651N1+00201+00101999999ADDGA1021+002401999GA2041+005401999GA3041+009001021GF104991999999999999999999MA1100311999999MW1811OC101291REMMET076METAR ENSO 271450Z 35015G25KT 9999 SHRA FEW008 SCT018 SCT030TCU 02/01 Q1003;
0193010014999992010012715504+59783+005350FM-15+0049ENSO V0203501N005112200019N0112651N1+00201+00101999999ADDGA1021+002401999GA2041+004801021GA3041+007501999GF104991999999999999999999MA1100201999999MW1841OC101131REMMET078METAR ENSO 271550Z 35010G22KT 9999 SHRASN FEW008 SCT016TCU SCT025 02/01 Q1002;
0146010014999992010012716204+59783+005350FM-15+0049ENSO V0203401N006212200019N0112651N1+00101+00101999999ADDGA1021+003601999GA2041+006001021GF104991999999999999999999MA1100201999999REMMET061METAR ENSO 271620Z 34012KT 9999 FEW012 SCT020TCU 01/01 Q1002;
0180010014999992010012717204+59783+005350FM-15+0049ENSO V0203301N005712200019N0112651N1+00201+00101999999ADDGA1021+004501999GA2041+006601021GA3041+012001999GF104991999999999999999999MA1100201999999OC101081REMMET071METAR ENSO 271720Z 33011G21KT 9999 FEW015 SCT022TCU SCT040 02/01 Q1002;
0154010014999992010012717504+59783+005350FM-15+0049ENSO V0203301N006712200019N0112651N1+00201+00101999999ADDGA1021+003601999GA2041+006001999GF104991999999999999999999MA1100201999999OC101291REMMET061METAR ENSO 271750Z 33013G25KT 9999 FEW012 SCT020 02/01 Q1002;
0154010014999992010012718204+59783+005350FM-15+0049ENSO V0203301N006212200019N0112651N1+00201+00101999999ADDGA1021+003601999GA2041+006001999GF104991999999999999999999MA1100201999999OC101131REMMET061METAR ENSO 271820Z 33012G22KT 9999 FEW012 SCT020 02/01 Q1002;
0144010014999992010012804504+59783+005350FM-15+0049ENSO V0203401N005712200019N0112651N1+00101-00101999999ADDGA1021+004501999GA2041+018001999GF104991999999999999999999MA1099901999999REMMET059METAR ENSO 280450Z 34011KT 9999 FEW015 SCT060 01/M01 Q0999;
0144010014999992010012805204+59783+005350FM-15+0049ENSO V0203201N008212200019N0112651N1+00101-00101999999ADDGA1021+004501999GA2041+018001999GF104991999999999999999999MA1099801999999REMMET059METAR ENSO 280520Z 32016KT 9999 FEW015 SCT060 01/M01 Q0998;
0144010014999992010012805504+59783+005350FM-15+0049ENSO V0203501N006712200019N0112651N1+00101-00101999999ADDGA1021+004501999GA2041+018001999GF104991999999999999999999MA1099801999999REMMET059METAR ENSO 280550Z 35013KT 9999 FEW015 SCT060 01/M01 Q0998;
0144010014999992010012806204+59783+005350FM-15+0049ENSO V0203301N006712200019N0112651N1+00101-00201999999ADDGA1021+006001999GA2041+018001999GF104991999999999999999999MA1099801999999REMMET059METAR ENSO 280620Z 33013KT 9999 FEW020 SCT060 01/M02 Q0998;
0145010014999992010012806504+59783+005350FM-15+0049ENSO V0203501N006712200019N0112651N1+00001-00101999999ADDGA1021+006001999GA2041+009001999GF104991999999999999999999MA1099801999999REMMET060METAR ENSO 280650Z 35013KT 9999 FEW020 SCT030 M00/M01 Q0998;
0144010014999992010012807204+59783+005350FM-15+0049ENSO V0203501N004112200019N0112651N1+00001-00201999999ADDGA1021+006001999GA2041+012001999GF104991999999999999999999MA1099801999999REMMET059METAR ENSO 280720Z 35008KT 9999 FEW020 SCT040 00/M02 Q0998;
0150010014999992010012807504+59783+005350FM-15+0049ENSO V0203401N004610036019N0070001N1+00001-00101999999ADDGA1021+002101999GA2071+003601999GF107991999999999999999999MA1099801999999REMMET065METAR ENSO 280750Z 34009KT 7000 -SHSN FEW007 BKN012 00/M01 Q0998;
0155010014999992010012808204+59783+005350FM-15+0049ENSO V0203501N005712200019N0112651N1+00001-00101999999ADDGA1021+002701999GA2041+007501999GF104991999999999999999999MA1099801999999MW1161REMMET064METAR ENSO 280820Z 35011KT 9999 VCSH FEW009 SCT025 00/M01 Q0998;
0143010014999992010012808504+59783+005350FM-15+0049ENSO V0203501N005712200019N0112651N1+00001-00101999999ADDGA1021+003601091GF102991999999999999999999MA1099801999999MW1161REMMET068METAR ENSO 280850Z 35011KT 9999 VCSH FEW012CB ST025TCU 00/M01 Q0998;
0143010014999992010012809204+59783+005350FM-15+0049ENSO V0203301N002612200019N0112651N1+00101-00201999999ADDGA1021+003601091GF102991999999999999999999MA1099801999999MW1161REMMET068METAR ENSO 280920Z 33005KT 9999 VCSH FEW012CB ST025TCU 01/M02 Q0998;
0154010014999992010012809504+59783+005350FM-15+0049ENSO V0203101N007212200019N0112651N1+00101-00201999999ADDGA1021+003601091GF102991999999999999999999MA1099801999999MW1161OC101291REMMET071METAR ENSO 280950Z 31014G25KT 9999 VCSH FEW012CB ST025TCU 01/M02 Q0998;
0143010014999992010012810204+59783+005350FM-15+0049ENSO V0203401N004612200019N0112651N1+00201-00201999999ADDGA1021+003601091GF102991999999999999999999MA1099701999999MW1161REMMET068METAR ENSO 281020Z 34009KT 9999 VCSH FEW012CB ST025TCU 02/M02 Q0997;
0150010014999992010012810504+59783+005350FM-15+0049ENSO V0203401N007212200019N0112651N1+00201-00201999999ADDGA1021+004501091GF102991999999999999999999MA1099701999999MW1161REMMET075METAR ENSO 281050Z 34014KT 9999 VCSH FEW015CB ST025TCU BKN040 02/M02 Q0997;
0144010014999992010012811204+59783+005350FM-15+0049ENSO V0203501N003612200019N0112651N1+00001-00101999999ADDGA1021+004501091GF102991999999999999999999MA1099701999999MW1161REMMET069METAR ENSO 281120Z 35007KT 9999 VCSH FEW015CB ST025TCU M00/M01 Q0997;
0144010014999992010012811504+59783+005350FM-15+0049ENSO V0203301N004112200019N0112651N1-00101-00101999999ADDGA1021+004501091GF102991999999999999999999MA1099701999999MW1161REMMET069METAR ENSO 281150Z 33008KT 9999 VCSH FEW015CB ST025TCU M01/M01 Q0997;
0143010014999992010012812204+59783+005350FM-15+0049ENSO V0203601N004112200019N0112651N1+00101-00201999999ADDGA1021+004501091GF102991999999999999999999MA1099601999999MW1161REMMET068METAR ENSO 281220Z 36008KT 9999 VCSH FEW015CB ST025TCU 01/M02 Q0996;
