0207010010999992009010100004+70933-008667FM-12+0009ENJA V0200101N002012200019N0300001N1-00761-01291103701ADDAA106000091AY101061AY201061GF102991021051004501001001MA1999999103571MD1310021+9999MW1021REMSYN088AAXX  01001 01001 11480 20102 11076 21129 30357 40370 53002 60001 70200 82500 333 91110;EQDQ01  00002PRCP06
0101010010999992009010101004+70933-008667FM-12+0009ENJA V0203301N002019999999N9999999N1-00731-01241103691ADDMA1999999103571MD1010041+9999REMSYN060AAXX  01011 01001 46/// /3302 11073 21124 30357 40369 50004;
0101010010999992009010102004+70933-008667FM-12+0009ENJA V0203101N001019999999N9999999N1-00821-01281103681ADDMA1999999103551MD1410001+9999REMSYN060AAXX  01021 01001 46/// /3101 11082 21128 30355 40368 54000;
0101010010999992009010103004+70933-008667FM-12+0009ENJA V0202601N002019999999N9999999N1-00641-01171103631ADDMA1999999103511MD1710061+9999REMSYN060AAXX  01031 01001 46/// /2602 11064 21117 30351 40363 57006;
0101010010999992009010104004+70933-008667FM-12+0009ENJA V0202501N003019999999N9999999N1-00601-01181103581ADDMA1999999103461MD1810111+9999REMSYN060AAXX  01041 01001 46/// /2503 11060 21118 30346 40358 58011;
0101010010999992009010105004+70933-008667FM-12+0009ENJA V0202501N004019999999N9999999N1-00581-01121103591ADDMA1999999103471MD1510081+9999REMSYN060AAXX  01051 01001 46/// /2504 11058 21112 30347 40359 55008;
0230010010999992009010106004+70933-008667FM-12+0009ENJA V0202501N005010240019N0200001N1-00591-01071103601ADDAA112000021AA224000021AY181061AY221061GF105991041081004501061001KA1120N-00851MA1999999103481MD1510041+9999MW1851REMSYN106AAXX  01061 01001 11470 52505 11059 21107 30348 40360 55004 69902 78582 84860 333 21085 4//// 70001 91110;
0101010010999992009010107004+70933-008667FM-12+0009ENJA V0202601N006019999999N9999999N1-00581-01081103551ADDMA1999999103431MD1810031+9999REMSYN060AAXX  01071 01001 46/// /2606 11058 21108 30343 40355 58003;
0101010010999992009010108004+70933-008667FM-12+0009ENJA V0202501N005019999999N9999999N1-00591-01071103531ADDMA1999999103411MD1810061+9999REMSYN060AAXX  01081 01001 46/// /2505 11059 21107 30341 40353 58006;
0161010010999992009010109004+70933-008667FM-12+0009ENJA V0202501N005010090019N0150001N1-00571-01001103501ADDAY181031AY221031GF107991071081004501999999MA1999999103381MD1710101+9999MW1851REMSYN072AAXX  01091 01001 41465 72505 11057 21100 30338 40350 57010 78582 878//;
0101010010999992009010110004+70933-008667FM-12+0009ENJA V0202501N006019999999N9999999N1-00551-00951103491ADDMA1999999103371MD1710061+9999REMSYN060AAXX  01101 01001 46/// /2506 11055 21095 30337 40349 57006;
0101010010999992009010111004+70933-008667FM-12+0009ENJA V0202601N006019999999N9999999N1-00521-00931103431ADDMA1999999103311MD1810101+9999REMSYN060AAXX  01111 01001 46/// /2606 11052 21093 30331 40343 58010;
0208010010999992009010112004+70933-008667FM-12+0009ENJA V0202501N003010090019N0150001N1-00501-00931103391ADDAA106000021AY181061AY221061GF106991051081004501061001MA1999999103271MD1810111+9999MW1151SA1+0029REMSYN100AAXX  01121 01001 11465 62503 11050 21093 30327 40339 58011 69911 71582 85860 222// 00002 333 91114;
0101010010999992009010113004+70933-008667FM-12+0009ENJA V0202501N003019999999N9999999N1-00491-00941103321ADDMA1999999103201MD1810171+9999REMSYN060AAXX  01131 01001 46/// /2503 11049 21094 30320 40332 58017;
0101010010999992009010114004+70933-008667FM-12+0009ENJA V0202501N005019999999N9999999N1-00471-00861103271ADDMA1999999103151MD1810161+9999REMSYN060AAXX  01141 01001 46/// /2505 11047 21086 30315 40327 58016;
0161010010999992009010115004+70933-008667FM-12+0009ENJA V0202601N006012200019N0250001N1-00431-00801103211ADDAY121031AY201031GF103991031011004501001001MA1999999103091MD1810181+9999MW1021REMSYN072AAXX  01151 01001 41475 32606 11043 21080 30309 40321 58018 70220 83100;
0101010010999992009010116004+70933-008667FM-12+0009ENJA V0202701N006019999999N9999999N1-00361-00731103141ADDMA1999999103021MD1810181+9999REMSYN060AAXX  01161 01001 46/// /2706 11036 21073 30302 40314 58018;
0101010010999992009010117004+70933-008667FM-12+0009ENJA V0202401N006019999999N9999999N1-00331-00681103071ADDMA1999999102951MD1810201+9999REMSYN060AAXX  01171 01001 46/// /2406 11033 21068 30295 40307 58020;
0207010010999992009010118004+70933-008667FM-12+0009ENJA V0202501N005012200019N0250001N1-00271-00631103011ADDAA112000021AY121061AY201061GF103991031051004501001001KA1120M-00271MA1999999102891MD1710201+9999MW1021REMSYN094AAXX  01181 01001 11475 32505 11027 21063 30289 40301 57020 69912 70220 83500 333 11027 91114;
0101010010999992009010119004+70933-008667FM-12+0009ENJA V0202601N005019999999N9999999N1-00261-00601102951ADDMA1999999102831MD1810191+9999REMSYN060AAXX  01191 01001 46/// /2605 11026 21060 30283 40295 58019;
0101010010999992009010120004+70933-008667FM-12+0009ENJA V0202501N005019999999N9999999N1-00241-00571102961ADDMA1999999102841MD1510111+9999REMSYN060AAXX  01201 01001 46/// /2505 11024 21057 30284 40296 55011;
0101010010999992009010121004+70933-008667FM-12+0009ENJA V0202301N009019999999N9999999N1-00241-00561102911ADDMA1999999102791MD1810091+9999REMSYN060AAXX  01211 01001 46/// /2309 11024 21056 30279 40291 58009;
0101010010999992009010122004+70933-008667FM-12+0009ENJA V0202401N009019999999N9999999N1-00231-00571102821ADDMA1999999102701MD1810131+9999REMSYN060AAXX  01221 01001 46/// /2409 11023 21057 30270 40282 58013;
0101010010999992009010123004+70933-008667FM-12+0009ENJA V0202401N009019999999N9999999N1-00231-00561102721ADDMA1999999102601MD1810241+9999REMSYN060AAXX  01231 01001 46/// /2409 11023 21056 30260 40272 58024;
0207010010999992009010200004+70933-008667FM-12+0009ENJA V0202301N010010042019N0250001N1-00211-00541102661ADDAA106000091AY121061AY201061GF106991061011004501001001MA1999999102541MD1610251+9999MW1031REMSYN088AAXX  02001 01001 11475 62310 11021 21054 30254 40266 56025 60001 70320 86100 333 91115;EQDQ01  00002PRCP06
0101010010999992009010201004+70933-008667FM-12+0009ENJA V0202301N010019999999N9999999N1-00221-00521102581ADDMA1999999102461MD1610251+9999REMSYN060AAXX  02011 01001 46/// /2310 11022 21052 30246 40258 56025;
0101010010999992009010202004+70933-008667FM-12+0009ENJA V0202501N008019999999N9999999N1-00201-00491102521ADDMA1999999102401MD1510211+9999REMSYN060AAXX  02021 01001 46/// /2508 11020 21049 30240 40252 55021;
0101010010999992009010203004+70933-008667FM-12+0009ENJA V0202601N012019999999N9999999N1-00211-00521102481ADDMA1999999102361MD1610171+9999REMSYN060AAXX  02031 01001 46/// /2612 11021 21052 30236 40248 56017;
0101010010999992009010204004+70933-008667FM-12+0009ENJA V0202801N009019999999N9999999N1-00231-00551102431ADDMA1999999102311MD1610141+9999REMSYN060AAXX  02041 01001 46/// /2809 11023 21055 30231 40243 56014;
0101010010999992009010205004+70933-008667FM-12+0009ENJA V0202801N007019999999N9999999N1-00211-00511102381ADDMA1999999102261MD1810131+9999REMSYN060AAXX  02051 01001 46/// /2807 11021 21051 30226 40238 58013;
0230010010999992009010206004+70933-008667FM-12+0009ENJA V0202901N006010042019N0150001N1-00221-00521102301ADDAA112000021AA224000021AY181061AY231061GF106991061021004501001001KA1120N-00281MA1999999102181MD1810181+9999MW1851REMSYN106AAXX  02061 01001 11465 62906 11022 21052 30218 40230 58018 69902 78583 86200 333 21028 4//// 70001 91120;
0101010010999992009010207004+70933-008667FM-12+0009ENJA V0203201N007019999999N9999999N1-00251-00561102241ADDMA1999999102121MD1810181+9999REMSYN060AAXX  02071 01001 46/// /3207 11025 21056 30212 40224 58018;
0101010010999992009010208004+70933-008667FM-12+0009ENJA V0203301N009019999999N9999999N1-00321-00631102301ADDMA1999999102181MD1510091+9999REMSYN060AAXX  02081 01001 46/// /3309 11032 21063 30218 40230 55009;
0161010010999992009010209004+70933-008667FM-12+0009ENJA V0203401N012012200019N0200001N1-00371-00651102341ADDAY181031AY231031GF103991021021004501061001MA1999999102221MD1310041+9999MW1361REMSYN072AAXX  02091 01001 41470 33412 11037 21065 30222 40234 53004 73683 82260;
0101010010999992009010210004+70933-008667FM-12+0009ENJA V0203601N007019999999N9999999N1-00241-00531102431ADDMA1999999102311MD1310181+9999REMSYN060AAXX  02101 01001 46/// /3607 11024 21053 30231 40243 53018;
0101010010999992009010211004+70933-008667FM-12+0009ENJA V0203601N009019999999N9999999N1-00231-00581102441ADDMA1999999102321MD1110141+9999REMSYN060AAXX  02111 01001 46/// /3609 11023 21058 30232 40244 51014;
0208010010999992009010212004+70933-008667FM-12+0009ENJA V0203501N008010042019N0250001N1-00201-00581102491ADDAA106000021AY181061AY231061GF106991061051004501001001MA1999999102371MD1110151+9999MW1031SA1+0019REMSYN100AAXX  02121 01001 11475 63508 11020 21058 30237 40249 51015 69901 70383 86500 222// 00001 333 91116;
0101010010999992009010213004+70933-008667FM-12+0009ENJA V0200101N006019999999N9999999N1-00201-00621102591ADDMA1999999102471MD1310171+9999REMSYN060AAXX  02131 01001 46/// /0106 11020 21062 30247 40259 53017;
0101010010999992009010214004+70933-008667FM-12+0009ENJA V0203601N007019999999N9999999N1-00251-00691102641ADDMA1999999102521MD1310201+9999REMSYN060AAXX  02141 01001 46/// /3607 11025 21069 30252 40264 53020;
0101010010999992009010215004+70933-008667FM-12+0009ENJA V0203401N007019999999N9999999N1-00261-00691102701ADDMA1999999102581MD1110201+9999REMSYN060AAXX  02151 01001 46/// /3407 11026 21069 30258 40270 51020;
0101010010999992009010216004+70933-008667FM-12+0009ENJA V0203601N005019999999N9999999N1-00251-00731102741ADDMA1999999102621MD1310151+9999REMSYN060AAXX  02161 01001 46/// /3605 11025 21073 30262 40274 53015;
0101010010999992009010217004+70933-008667FM-12+0009ENJA V0200201N007019999999N9999999N1-00221-00581102791ADDMA1999999102671MD1310151+9999REMSYN060AAXX  02171 01001 46/// /0207 11022 21058 30267 40279 53015;
0207010010999992009010218004+70933-008667FM-12+0009ENJA V0200101N009010075019N0250001N1-00261-00671102811ADDAA112000021AY121061AY221061GF107991071051008001999001KA1120M-00171MA1999999102691MD1110121+9999MW1031REMSYN094AAXX  02181 01001 11575 70109 11026 21067 30269 40281 51012 60002 70322 875/0 333 11017 91115;
0101010010999992009010219004+70933-008667FM-12+0009ENJA V0200201N006019999999N9999999N1-00301-00791102861ADDMA1999999102741MD1310121+9999REMSYN060AAXX  02191 01001 46/// /0206 11030 21079 30274 40286 53012;
0101010010999992009010220004+70933-008667FM-12+0009ENJA V0200101N007019999999N9999999N1-00331-00851102931ADDMA1999999102811MD1310141+9999REMSYN060AAXX  02201 01001 46/// /0107 11033 21085 30281 40293 53014;
0101010010999992009010221004+70933-008667FM-12+0009ENJA V0200101N004019999999N9999999N1-00351-00791102981ADDMA1999999102861MD1210171+9999REMSYN060AAXX  02211 01001 46/// /0104 11035 21079 30286 40298 52017;
0101010010999992009010222004+70933-008667FM-12+0009ENJA V0203401N004019999999N9999999N1-00361-00871102991ADDMA1999999102871MD1110121+9999REMSYN060AAXX  02221 01001 46/// /3404 11036 21087 30287 40299 51012;
0101010010999992009010223004+70933-008667FM-12+0009ENJA V0203601N005019999999N9999999N1-00361-00861102991ADDMA1999999102871MD1110061+9999REMSYN060AAXX  02231 01001 46/// /3605 11036 21086 30287 40299 51006;
0207010010999992009010300004+70933-008667FM-12+0009ENJA V0203501N004010075019N0250001N1-00361-00861103011ADDAA106000091AY121061AY221061GF105991051051008001001001MA1999999102891MD1210031+9999MW1011REMSYN088AAXX  03001 01001 11575 53504 11036 21086 30289 40301 52003 60001 70122 85500 333 91112;EQDQ01  00002PRCP06
0101010010999992009010301004+70933-008667FM-12+0009ENJA V0203401N002019999999N9999999N1-00371-00861103011ADDMA1999999102891MD1210021+9999REMSYN060AAXX  03011 01001 46/// /3402 11037 21086 30289 40301 52002;
0101010010999992009010302004+70933-008667FM-12+0009ENJA V0203501N003019999999N9999999N1-00351-00791103021ADDMA1999999102901MD1210031+9999REMSYN060AAXX  03021 01001 46/// /3503 11035 21079 30290 40302 52003;
0101010010999992009010303004+70933-008667FM-12+0009ENJA V0203401N005019999999N9999999N1-00341-00821103011ADDMA1999999102891MD1410001+9999REMSYN060AAXX  03031 01001 46/// /3405 11034 21082 30289 40301 54000;
0101010010999992009010304004+70933-008667FM-12+0009ENJA V0200101N003019999999N9999999N1-00351-00821102991ADDMA1999999102871MD1710011+9999REMSYN060AAXX  03041 01001 46/// /0103 11035 21082 30287 40299 57001;
0101010010999992009010305004+70933-008667FM-12+0009ENJA V0200101N004019999999N9999999N1-00341-00751102991ADDMA1999999102871MD1710031+9999REMSYN060AAXX  03051 01001 46/// /0104 11034 21075 30287 40299 57003;
0249010010999992009010306004+70933-008667FM-12+0009ENJA V0200301N002010075019N0250001N1-00371-00711102971ADDAA112000091AA224000021AY121061AY221061GF105991051051008001001001KA1120N-00371MA1999999102851MD1710041+9999MW1021REMSYN106AAXX  03061 01001 11575 50302 11037 21071 30285 40297 57004 60002 70222 85500 333 21037 4//// 70000 91106;EQDQ01  00002PRCP12
0101010010999992009010307004+70933-008667FM-12+0009ENJA V0200101N001019999999N9999999N1-00381-00731102971ADDMA1999999102851MD1710021+9999REMSYN060AAXX  03071 01001 46/// /0101 11038 21073 30285 40297 57002;
0101010010999992009010308004+70933-008667FM-12+0009ENJA V0203601N002019999999N9999999N1-00361-00831102961ADDMA1999999102841MD1710031+9999REMSYN060AAXX  03081 01001 46/// /3602 11036 21083 30284 40296 57003;
0161010010999992009010309004+70933-008667FM-12+0009ENJA V0203401N002010075019N0250001N1-00371-00841102951ADDAY171031AY221031GF105991051051008001999001MA1999999102831MD1710021+9999MW1711REMSYN072AAXX  03091 01001 41575 53402 11037 21084 30283 40295 57002 77172 855/0;
0101010010999992009010310004+70933-008667FM-12+0009ENJA V0203101N003019999999N9999999N1-00381-00841102931ADDMA1999999102811MD1710041+9999REMSYN060AAXX  03101 01001 46/// /3103 11038 21084 30281 40293 57004;
0101010010999992009010311004+70933-008667FM-12+0009ENJA V0203601N001019999999N9999999N1-00401-00771102901ADDMA1999999102781MD1710061+9999REMSYN060AAXX  03111 01001 46/// /3601 11040 21077 30278 40290 57006;
0208010010999992009010312004+70933-008667FM-12+0009ENJA V0203401N002010075019N0250001N1-00411-00751102881ADDAA106000021AY171061AY221061GF107991071051008001999001MA1999999102761MD1710081+9999MW1031SA1-0039REMSYN100AAXX  03121 01001 11575 73402 11041 21075 30276 40288 57008 69901 70372 875/0 222// 01003 333 91105;
0101010010999992009010313004+70933-008667FM-12+0009ENJA V0200201N001019999999N9999999N1-00411-00731102851ADDMA1999999102731MD1710081+9999REMSYN060AAXX  03131 01001 46/// /0201 11041 21073 30273 40285 57008;
0101010010999992009010314004+70933-008667FM-12+0009ENJA V0203101N001019999999N9999999N1-00431-00711102821ADDMA1999999102701MD1710081+9999REMSYN060AAXX  03141 01001 46/// /3101 11043 21071 30270 40282 57008;
0161010010999992009010315004+70933-008667FM-12+0009ENJA V0200201N001010075019N0250001N1-00451-00721102781ADDAY171031AY221031GF108991051051008001021999MA1999999102661MD1710091+9999MW1711REMSYN072AAXX  03151 01001 41575 80201 11045 21072 30266 40278 57009 77172 8552/;
0101010010999992009010316004+70933-008667FM-12+0009ENJA V0203101N001019999999N9999999N1-00441-00721102741ADDMA1999999102621MD1710101+9999REMSYN060AAXX  03161 01001 46/// /3101 11044 21072 30262 40274 57010;
0101010010999992009010317004+70933-008667FM-12+0009ENJA V0202601N001019999999N9999999N1-00431-00701102721ADDMA1999999102601MD1710101+9999REMSYN060AAXX  03171 01001 46/// /2601 11043 21070 30260 40272 57010;
0207010010999992009010318004+70933-008667FM-12+0009ENJA V0202501N002010075019N0250001N1-00401-00681102671ADDAA112000021AY171061AY221061GF108991081051008001999999KA1120M-00351MA1999999102551MD1710111+9999MW1711REMSYN094AAXX  03181 01001 11575 82502 11040 21068 30255 40267 57011 69902 77172 885// 333 11035 91103;
0101010010999992009010319004+70933-008667FM-12+0009ENJA V0202301N002019999999N9999999N1-00381-00641102621ADDMA1999999102501MD1810131+9999REMSYN060AAXX  03191 01001 46/// /2302 11038 21064 30250 40262 58013;
0101010010999992009010320004+70933-008667FM-12+0009ENJA V0202201N003019999999N9999999N1-00351-00721102611ADDMA1999999102491MD1510111+9999REMSYN060AAXX  03201 01001 46/// /2203 11035 21072 30249 40261 55011;
0101010010999992009010321004+70933-008667FM-12+0009ENJA V0202301N002019999999N9999999N1-00351-00741102571ADDMA1999999102451MD1610101+9999REMSYN060AAXX  03211 01001 46/// /2302 11035 21074 30245 40257 56010;
0101010010999992009010322004+70933-008667FM-12+0009ENJA V0202401N003019999999N9999999N1-00331-00711102531ADDMA1999999102411MD1810091+9999REMSYN060AAXX  03221 01001 46/// /2403 11033 21071 30241 40253 58009;
0101010010999992009010323004+70933-008667FM-12+0009ENJA V0202401N001019999999N9999999N1-00321-00691102481ADDMA1999999102361MD1810121+9999REMSYN060AAXX  03231 01001 46/// /2401 11032 21069 30236 40248 58012;
0188010010999992009010400004+70933-008667FM-12+0009ENJA V0202401N002010075019N0300001N1-00301-00681102471ADDAA106000021AY171061AY221061GF108991081051008001999999MA1999999102351MD1710101+9999MW1021REMSYN088AAXX  04001 01001 11580 82402 11030 21068 30235 40247 57010 69901 70272 885// 333 91106;
0101010010999992009010401004+70933-008667FM-12+0009ENJA V0202401N002019999999N9999999N1-00291-00671102431ADDMA1999999102311MD1710101+9999REMSYN060AAXX  04011 01001 46/// /2402 11029 21067 30231 40243 57010;
0101010010999992009010402004+70933-008667FM-12+0009ENJA V0202401N002019999999N9999999N1-00281-00631102361ADDMA1999999102241MD1810121+9999REMSYN060AAXX  04021 01001 46/// /2402 11028 21063 30224 40236 58012;
0101010010999992009010403004+70933-008667FM-12+0009ENJA V0202301N003019999999N9999999N1-00281-00611102301ADDMA1999999102181MD1810171+9999REMSYN060AAXX  04031 01001 46/// /2303 11028 21061 30218 40230 58017;
0101010010999992009010404004+70933-008667FM-12+0009ENJA V0202201N005019999999N9999999N1-00301-00611102261ADDMA1999999102141MD1810171+9999REMSYN060AAXX  04041 01001 46/// /2205 11030 21061 30214 40226 58017;
0101010010999992009010405004+70933-008667FM-12+0009ENJA V0202301N004019999999N9999999N1-00291-00571102191ADDMA1999999102071MD1810181+9999REMSYN060AAXX  04051 01001 46/// /2304 11029 21057 30207 40219 58018;
0230010010999992009010406004+70933-008667FM-12+0009ENJA V0202201N004010042019N0150001N1-00271-00511102121ADDAA112000021AA224000021AY121061AY221061GF108991081061004501999999KA1120N-00401MA1999999102001MD1710171+9999MW1021REMSYN106AAXX  04061 01001 11465 82204 11027 21051 30200 40212 57017 69902 70222 886// 333 21040 4//// 70000 91109;
0101010010999992009010407004+70933-008667FM-12+0009ENJA V0202301N005019999999N9999999N1-00251-00501102071ADDMA1999999101951MD1610191+9999REMSYN060AAXX  04071 01001 46/// /2305 11025 21050 30195 40207 56019;
0101010010999992009010408004+70933-008667FM-12+0009ENJA V0202201N007019999999N9999999N1-00231-00461102021ADDMA1999999101901MD1810161+9999REMSYN060AAXX  04081 01001 46/// /2207 11023 21046 30190 40202 58016;
0161010010999992009010409004+70933-008667FM-12+0009ENJA V0202201N006010042019N0100001N1-00211-00411102031ADDAY161031AY221031GF108991081061004501999999MA1999999101911MD1610101+9999MW1661REMSYN072AAXX  04091 01001 41460 82206 11021 21041 30191 40203 56010 76662 886//;
0101010010999992009010410004+70933-008667FM-12+0009ENJA V0202301N004019999999N9999999N1-00201-00411101991ADDMA1999999101871MD1710081+9999REMSYN060AAXX  04101 01001 46/// /2304 11020 21041 30187 40199 57008;
0101010010999992009010411004+70933-008667FM-12+0009ENJA V0202301N007019999999N9999999N1-00171-00421101911ADDMA1999999101791MD1810121+9999REMSYN060AAXX  04111 01001 46/// /2307 11017 21042 30179 40191 58012;
0208010010999992009010412004+70933-008667FM-12+0009ENJA V0202301N007010021019N0030001N1-00161-00351101881ADDAA106000591AY171061AY261061GF108991081071002501999999MA1999999101761MD1710151+9999MW1711SA1+0009REMSYN100AAXX  04121 01001 11330 82307 11016 21035 30176 40188 57015 69941 77176 887// 222// 00000 333 91115;
0101010010999992009010413004+70933-008667FM-12+0009ENJA V0202301N006019999999N9999999N1-00141-00381101801ADDMA1999999101681MD1810181+9999REMSYN060AAXX  04131 01001 46/// /2306 11014 21038 30168 40180 58018;
0101010010999992009010414004+70933-008667FM-12+0009ENJA V0202501N007019999999N9999999N1-00141-00331101781ADDMA1999999101661MD1810131+9999REMSYN060AAXX  04141 01001 46/// /2507 11014 21033 30166 40178 58013;
0161010010999992009010415004+70933-008667FM-12+0009ENJA V0202501N006010021019N0040001N1-00151-00341101741ADDAY171031AY231031GF108991071071002501021999MA1999999101621MD1710131+9999MW1711REMSYN072AAXX  04151 01001 41340 82506 11015 21034 30162 40174 57013 77173 8772/;
0101010010999992009010416004+70933-008667FM-12+0009ENJA V0202501N007019999999N9999999N1-00181-00421101721ADDMA1999999101601MD1810091+9999REMSYN060AAXX  04161 01001 46/// /2507 11018 21042 30160 40172 58009;
0101010010999992009010417004+70933-008667FM-12+0009ENJA V0202801N006019999999N9999999N1-00201-00461101671ADDMA1999999101551MD1710121+9999REMSYN060AAXX  04171 01001 46/// /2806 11020 21046 30155 40167 57012;
0207010010999992009010418004+70933-008667FM-12+0009ENJA V0202401N003010021019N0025001N1-00261-00441101661ADDAA112001091AY171061AY251061GF108991051071002501021999KA1120M-00121MA1999999101541MD1710091+9999MW1571REMSYN094AAXX  04181 01001 11325 82403 11026 21044 30154 40166 57009 60012 75775 8572/ 333 11012 91115;
0101010010999992009010419004+70933-008667FM-12+0009ENJA V0202501N003019999999N9999999N1-00291-00501101621ADDMA1999999101501MD1610101+9999REMSYN060AAXX  04191 01001 46/// /2503 11029 21050 30150 40162 56010;
0101010010999992009010420004+70933-008667FM-12+0009ENJA V0203201N002019999999N9999999N1-00291-00521101611ADDMA1999999101491MD1710061+9999REMSYN060AAXX  04201 01001 46/// /3202 11029 21052 30149 40161 57006;
0101010010999992009010421004+70933-008667FM-12+0009ENJA V0202601N003019999999N9999999N1-00291-00551101581ADDMA1999999101461MD1710071+9999REMSYN060AAXX  04211 01001 46/// /2603 11029 21055 30146 40158 57007;
0101010010999992009010422004+70933-008667FM-12+0009ENJA V0200901N003019999999N9999999N1-00291-00501101521ADDMA1999999101401MD1810101+9999REMSYN060AAXX  04221 01001 46/// /0903 11029 21050 30140 40152 58010;
0101010010999992009010423004+70933-008667FM-12+0009ENJA V0200501N002019999999N9999999N1-00301-00531101481ADDMA1999999101361MD1710131+9999REMSYN060AAXX  04231 01001 46/// /0502 11030 21053 30136 40148 57013;
0188010010999992009010500004+70933-008667FM-12+0009ENJA V0201301N002010042019N0100001N1-00321-00541101421ADDAA106000021AY151061AY221061GF108991061051004501071999MA1999999101301MD1710161+9999MW1021REMSYN088AAXX  05001 01001 11460 81302 11032 21054 30130 40142 57016 69901 70252 8657/ 333 91112;
0101010010999992009010501004+70933-008667FM-12+0009ENJA V0203601N003019999999N9999999N1-00331-00561101381ADDMA1999999101261MD1710141+9999REMSYN060AAXX  05011 01001 46/// /3603 11033 21056 30126 40138 57014;
0101010010999992009010502004+70933-008667FM-12+0009ENJA V0200301N002019999999N9999999N1-00361-00561101331ADDMA1999999101211MD1710151+9999REMSYN060AAXX  05021 01001 46/// /0302 11036 21056 30121 40133 57015;
0101010010999992009010503004+70933-008667FM-12+0009ENJA V0200101N005019999999N9999999N1-00401-00591101311ADDMA1999999101191MD1710111+9999REMSYN060AAXX  05031 01001 46/// /0105 11040 21059 30119 40131 57011;
0101010010999992009010504004+70933-008667FM-12+0009ENJA V0203501N005019999999N9999999N1-00411-00621101251ADDMA1999999101131MD1810121+9999REMSYN060AAXX  05041 01001 46/// /3505 11041 21062 30113 40125 58012;
0101010010999992009010505004+70933-008667FM-12+0009ENJA V0203501N003019999999N9999999N1-00391-00641101201ADDMA1999999101081MD1810131+9999REMSYN060AAXX  05051 01001 46/// /3503 11039 21064 30108 40120 58013;
0230010010999992009010506004+70933-008667FM-12+0009ENJA V0200101N008010075019N0100001N1-00371-00711101191ADDAA112000021AA224001391AY121061AY221061GF108991081051008001999999KA1120N-00421MA1999999101071MD1610121+9999MW1021REMSYN106AAXX  05061 01001 11560 80108 11037 21071 30107 40119 56012 69902 70222 885// 333 21042 4//// 70013 91110;
0101010010999992009010507004+70933-008667FM-12+0009ENJA V0200101N010019999999N9999999N1-00411-00631101151ADDMA1999999101031MD1810111+9999REMSYN060AAXX  05071 01001 46/// /0110 11041 21063 30103 40115 58011;
0101010010999992009010508004+70933-008667FM-12+0009ENJA V0203601N009019999999N9999999N1-00421-00821101271ADDMA1999999101151MD1310071+9999REMSYN060AAXX  05081 01001 46/// /3609 11042 21082 30115 40127 53007;
0161010010999992009010509004+70933-008667FM-12+0009ENJA V0203601N009010075019N0100001N1-00481-00781101321ADDAY121031AY221031GF108991081051008001999999MA1999999101201MD1310131+9999MW1021REMSYN072AAXX  05091 01001 41560 83609 11048 21078 30120 40132 53013 70222 885//;
0101010010999992009010510004+70933-008667FM-12+0009ENJA V0200101N011019999999N9999999N1-00541-00851101391ADDMA1999999101271MD1110241+9999REMSYN060AAXX  05101 01001 46/// /0111 11054 21085 30127 40139 51024;
0101010010999992009010511004+70933-008667FM-12+0009ENJA V0203601N012019999999N9999999N1-00561-00991101441ADDMA1999999101321MD1310171+9999REMSYN060AAXX  05111 01001 46/// /3612 11056 21099 30132 40144 53017;
0227010010999992009010512004+70933-008667FM-12+0009ENJA V0203601N013010120019N0100001N1-00651-01041101511ADDAA106000091AY131061AY221061GF108991051081008001061999MA1999999101391MD1310191+9999MW1021SA1+0009REMSYN100AAXX  05121 01001 11560 83613 11065 21104 30139 40151 53019 69901 70232 8586/ 222// 00000 333 91117;EQDQ01  00002PRCP06
0101010010999992009010513004+70933-008667FM-12+0009ENJA V0203601N012019999999N9999999N1-00781-01241101611ADDMA1999999101491MD1310231+9999REMSYN060AAXX  05131 01001 46/// /3612 11078 21124 30149 40161 53023;
0101010010999992009010514004+70933-008667FM-12+0009ENJA V0203601N011019999999N9999999N1-00841-01351101641ADDMA1999999101521MD1110201+9999REMSYN060AAXX  05141 01001 46/// /3611 11084 21135 30152 40164 51020;
0161010010999992009010515004+70933-008667FM-12+0009ENJA V0203401N010010120019N0100001N1-00921-01421101721ADDAY181031AY271031GF108991071081008001999081MA1999999101601MD1310201+9999MW1851REMSYN072AAXX  05151 01001 41560 83410 11092 21142 30160 40172 53020 78587 878/8;
0101010010999992009010516004+70933-008667FM-12+0009ENJA V0203401N012019999999N9999999N1-00961-01431101771ADDMA1999999101651MD1310151+9999REMSYN060AAXX  05161 01001 46/// /3412 11096 21143 30165 40177 53015;
0101010010999992009010517004+70933-008667FM-12+0009ENJA V0203401N010019999999N9999999N1-01021-01471101801ADDMA1999999101681MD1210161+9999REMSYN060AAXX  05171 01001 46/// /3410 11102 21147 30168 40180 52016;
0207010010999992009010518004+70933-008667FM-12+0009ENJA V0203401N009010042019N0040001N1-01051-01381101811ADDAA112000021AY181061AY231061GF107991071031004501999999KA1120M-00351MA1999999101691MD1110091+9999MW1851REMSYN094AAXX  05181 01001 11440 73409 11105 21138 30169 40181 51009 69922 78583 873// 333 11035 91118;
0101010010999992009010519004+70933-008667FM-12+0009ENJA V0203401N012019999999N9999999N1-01101-01531101851ADDMA1999999101731MD1210091+9999REMSYN060AAXX  05191 01001 46/// /3412 11110 21153 30173 40185 52009;
0101010010999992009010520004+70933-008667FM-12+0009ENJA V0203401N011019999999N9999999N1-01101-01541101891ADDMA1999999101771MD1310101+9999REMSYN060AAXX  05201 01001 46/// /3411 11110 21154 30177 40189 53010;
0101010010999992009010521004+70933-008667FM-12+0009ENJA V0203401N013019999999N9999999N1-01151-01541101951ADDMA1999999101831MD1210141+9999REMSYN060AAXX  05211 01001 46/// /3413 11115 21154 30183 40195 52014;
0101010010999992009010522004+70933-008667FM-12+0009ENJA V0203401N012019999999N9999999N1-01211-01541101971ADDMA1999999101841MD1210121+9999REMSYN060AAXX  05221 01001 46/// /3412 11121 21154 30184 40197 52012;
0101010010999992009010523004+70933-008667FM-12+0009ENJA V0203401N012019999999N9999999N1-01191-01601102001ADDMA1999999101881MD1210111+9999REMSYN060AAXX  05231 01001 46/// /3412 11119 21160 30188 40200 52011;
0188010010999992009010600004+70933-008667FM-12+0009ENJA V0203401N013010075019N0050001N1-01201-01771102051ADDAA106000021AY181061AY231061GF108991061031008001061999MA1999999101921MD1210091+9999MW1381REMSYN088AAXX  06001 01001 11550 83413 11120 21177 30192 40205 52009 69921 73883 8636/ 333 91122;
0101010010999992009010601004+70933-008667FM-12+0009ENJA V0203401N012019999999N9999999N1-01201-01711102071ADDMA1999999101941MD1210091+9999REMSYN060AAXX  06011 01001 46/// /3412 11120 21171 30194 40207 52009;
0101010010999992009010602004+70933-008667FM-12+0009ENJA V0203401N013019999999N9999999N1-01201-01801102071ADDMA1999999101941MD1010051+9999REMSYN060AAXX  06021 01001 46/// /3413 11120 21180 30194 40207 50005;
0101010010999992009010603004+70933-008667FM-12+0009ENJA V0203401N013019999999N9999999N1-01251-01611102071ADDMA1999999101941MD1010021+9999REMSYN060AAXX  06031 01001 46/// /3413 11125 21161 30194 40207 50002;
0101010010999992009010604004+70933-008667FM-12+0009ENJA V0203401N012019999999N9999999N1-01261-01621102091ADDMA1999999101961MD1010021+9999REMSYN060AAXX  06041 01001 46/// /3412 11126 21162 30196 40209 50002;
0101010010999992009010605004+70933-008667FM-12+0009ENJA V0203401N013019999999N9999999N1-01261-01711102081ADDMA1999999101951MD1410001+9999REMSYN060AAXX  06051 01001 46/// /3413 11126 21171 30195 40208 54001;
0230010010999992009010606004+70933-008667FM-12+0009ENJA V0203501N013010075019N0080001N1-01201-01751102081ADDAA112000391AA224000591AY181061AY231061GF108991071031008001999999KA1120N-01291MA1999999101951MD1210021+9999MW1851REMSYN106AAXX  06061 01001 11558 83513 11120 21175 30195 40208 52002 69932 78583 873// 333 21129 4//// 70005 91123;
0101010010999992009010607004+70933-008667FM-12+0009ENJA V0203401N011019999999N9999999N1-01251-01541102111ADDMA1999999101981MD1210021+9999REMSYN060AAXX  06071 01001 46/// /3411 11125 21154 30198 40211 52002;
0101010010999992009010608004+70933-008667FM-12+0009ENJA V0203401N011019999999N9999999N1-01211-01681102101ADDMA1999999101971MD1210021+9999REMSYN060AAXX  06081 01001 46/// /3411 11121 21168 30197 40210 52002;
0161010010999992009010609004+70933-008667FM-12+0009ENJA V0203401N009010075019N0120001N1-01211-01561102101ADDAY181031AY231031GF108991051021008001061999MA1999999101971MD1210021+9999MW1361REMSYN072AAXX  06091 01001 41562 83409 11121 21156 30197 40210 52002 73683 8526/;
0101010010999992009010610004+70933-008667FM-12+0009ENJA V0203501N010019999999N9999999N1-01171-01801102071ADDMA1999999101951MD1710031+9999REMSYN060AAXX  06101 01001 46/// /3510 11117 21180 30195 40207 57003;
0101010010999992009010611004+70933-008667FM-12+0009ENJA V0203501N009019999999N9999999N1-01141-01791102051ADDMA1999999101931MD1710041+9999REMSYN060AAXX  06111 01001 46/// /3509 11114 21179 30193 40205 57004;
0208010010999992009010612004+70933-008667FM-12+0009ENJA V0203301N007010042019N0140001N1-01141-01731102061ADDAA106000021AY181061AY231061GF107991071031004501999999MA1999999101941MD1510031+9999MW1361SA1-0069REMSYN100AAXX  06121 01001 11464 73307 11114 21173 30194 40206 55003 69911 73683 873// 222// 01006 333 91122;
0101010010999992009010613004+70933-008667FM-12+0009ENJA V0203401N007019999999N9999999N1-01101-01741102011ADDMA1999999101891MD1810051+9999REMSYN060AAXX  06131 01001 46/// /3407 11110 21174 30189 40201 58005;
0101010010999992009010614004+70933-008667FM-12+0009ENJA V0203601N004019999999N9999999N1-01051-01721101961ADDMA1999999101841MD1810101+9999REMSYN060AAXX  06141 01001 46/// /3604 11105 21172 30184 40196 58010;
0161010010999992009010615004+70933-008667FM-12+0009ENJA V0202801N003010042019N0200001N1-00981-01551101931ADDAY131031AY221031GF107991071011004501999999MA1999999101811MD1710131+9999MW1021REMSYN072AAXX  06151 01001 41470 72803 11098 21155 30181 40193 57013 70232 871//;
0101010010999992009010616004+70933-008667FM-12+0009ENJA V0203401N004019999999N9999999N1-00951-01611101881ADDMA1999999101761MD1710131+9999REMSYN060AAXX  06161 01001 46/// /3404 11095 21161 30176 40188 57013;
0101010010999992009010617004+70933-008667FM-12+0009ENJA V0203501N004019999999N9999999N1-00901-01531101851ADDMA1999999101731MD1710101+9999REMSYN060AAXX  06171 01001 46/// /3504 11090 21153 30173 40185 57010;
0207010010999992009010618004+70933-008667FM-12+0009ENJA V0203201N005012200019N0200001N1-00891-01541101851ADDAA112000021AY121061AY221061GF104991041081008001001001KA1120M-00891MA1999999101731MD1610081+9999MW1011REMSYN094AAXX  06181 01001 11570 43205 11089 21154 30173 40185 56008 69912 70122 84800 333 11089 91115;
0101010010999992009010619004+70933-008667FM-12+0009ENJA V0203401N004019999999N9999999N1-00881-01521101801ADDMA1999999101681MD1810091+9999REMSYN060AAXX  06191 01001 46/// /3404 11088 21152 30168 40180 58009;
0101010010999992009010620004+70933-008667FM-12+0009ENJA V0202801N003019999999N9999999N1-00831-01461101761ADDMA1999999101641MD1810091+9999REMSYN060AAXX  06201 01001 46/// /2803 11083 21146 30164 40176 58009;
0101010010999992009010621004+70933-008667FM-12+0009ENJA V0202801N004019999999N9999999N1-00791-01421101711ADDMA1999999101591MD1610131+9999REMSYN060AAXX  06211 01001 46/// /2804 11079 21142 30159 40171 56013;
0101010010999992009010622004+70933-008667FM-12+0009ENJA V0202501N004019999999N9999999N1-00721-01381101641ADDMA1999999101521MD1810161+9999REMSYN060AAXX  06221 01001 46/// /2504 11072 21138 30152 40164 58016;
0101010010999992009010623004+70933-008667FM-12+0009ENJA V0202301N003019999999N9999999N1-00751-01321101541ADDMA1999999101421MD1810221+9999REMSYN060AAXX  06231 01001 46/// /2303 11075 21132 30142 40154 58022;
0207010010999992009010700004+70933-008667FM-12+0009ENJA V0202301N003012200019N0250001N1-00711-01291101471ADDAA106000091AY101061AY201061GF103991031011008001001001MA1999999101351MD1710251+9999MW1011REMSYN088AAXX  07001 01001 11575 32303 11071 21129 30135 40147 57025 60001 70100 83100 333 91111;EQDQ01  00002PRCP06
0101010010999992009010701004+70933-008667FM-12+0009ENJA V0202401N005019999999N9999999N1-00631-01201101391ADDMA1999999101271MD1710251+9999REMSYN060AAXX  07011 01001 46/// /2405 11063 21120 30127 40139 57025;
0101010010999992009010702004+70933-008667FM-12+0009ENJA V0202301N006019999999N9999999N1-00591-01101101291ADDMA1999999101171MD1810251+9999REMSYN060AAXX  07021 01001 46/// /2306 11059 21110 30117 40129 58025;
0101010010999992009010704004+70933-008667FM-12+0009ENJA V0202301N005019999999N9999999N1-00561-01101100991ADDMA1999999100871MD1810391+9999REMSYN060AAXX  07041 01001 46/// /2305 11056 21110 30087 40099 58039;
0101010010999992009010705004+70933-008667FM-12+0009ENJA V0202301N005019999999N9999999N1-00551-01061100891ADDMA1999999100771MD1810411+9999REMSYN060AAXX  07051 01001 46/// /2305 11055 21106 30077 40089 58041;
0205010010999992009010706004+70933-008667FM-12+0009ENJA V0202301N006010042019N0060001N1-00551-01071100721ADDAA112000021AA224000021AY181061AY271061GF108991071031004501061999MA1999999100601MD1810431+9999MW1851REMSYN094AAXX  07061 01001 11456 82306 11055 21107 30060 40072 58043 69902 78587 8736/ 333 4//// 70001;
0101010010999992009010707004+70933-008667FM-12+0009ENJA V0202301N007019999999N9999999N1-00521-01011100581ADDMA1999999100461MD1810411+9999REMSYN060AAXX  07071 01001 46/// /2307 11052 21101 30046 40058 58041;
0101010010999992009010708004+70933-008667FM-12+0009ENJA V0202201N008019999999N9999999N1-00491-00901100391ADDMA1999999100271MD1810491+9999REMSYN060AAXX  07081 01001 46/// /2208 11049 21090 30027 40039 58049;
0161010010999992009010709004+70933-008667FM-12+0009ENJA V0202101N009010042019N0100001N1-00431-00861100201ADDAY171031AY281031GF108991061061004501021999MA1999999100081MD1810521+9999MW1711REMSYN072AAXX  07091 01001 41460 82109 11043 21086 30008 40020 58052 77178 8662/;
0101010010999992009010710004+70933-008667FM-12+0009ENJA V0202101N010019999999N9999999N1-00371-00671100021ADDMA1999999099901MD1810561+9999REMSYN060AAXX  07101 01001 46/// /2110 11037 21067 39990 40002 58056;
0101010010999992009010711004+70933-008667FM-12+0009ENJA V0201901N010019999999N9999999N1-00291-00401099851ADDMA1999999099731MD1810541+9999REMSYN060AAXX  07111 01001 46/// /1910 11029 21040 39973 49985 58054;
0208010010999992009010712004+70933-008667FM-12+0009ENJA V02099999999990021019N0050001N1-00211-00301099621ADDAA106000021AY151061AY271061GF108991081061002501999999MA1999999099501MD1810581+9999MW1511SA1-0039REMSYN100AAXX  07121 01001 11350 8//// 11021 21030 39950 49962 58058 69911 75157 886// 222// 01003 333 91119;
0101010010999992009010713004+70933-008667FM-12+0009ENJA V0201801N006019999999N9999999N1-00131-00211099381ADDMA1999999099261MD1810641+9999REMSYN060AAXX  07131 01001 46/// /1806 11013 21021 39926 49938 58064;
0101010010999992009010714004+70933-008667FM-12+0009ENJA V0202401N002019999999N9999999N1-00101-00181099191ADDMA1999999099071MD1810661+9999REMSYN060AAXX  07141 01001 46/// /2402 11010 21018 39907 49919 58066;
0161010010999992009010715004+70933-008667FM-12+0009ENJA V0202301N005010042019N0030001N1-00051-00191099091ADDAY171031AY251031GF108991081061004501999999MA1999999098971MD1610531+9999MW1701REMSYN072AAXX  07151 01001 41430 82305 11005 21019 39897 49909 56053 77075 886//;
0101010010999992009010716004+70933-008667FM-12+0009ENJA V0202301N005019999999N9999999N1-00101-00281099031ADDMA1999999098911MD1610351+9999REMSYN060AAXX  07161 01001 46/// /2305 11010 21028 39891 49903 56035;
0101010010999992009010717004+70933-008667FM-12+0009ENJA V0202401N005019999999N9999999N1-00101-00351098941ADDMA1999999098821MD1710251+9999REMSYN060AAXX  07171 01001 46/// /2405 11010 21035 39882 49894 57025;
0207010010999992009010718004+70933-008667FM-12+0009ENJA V0202701N004010042019N0150001N1-00081-00311098911ADDAA112001091AY171061AY251061GF107991071051004501001001KA1120M-00031MA1999999098791MD1610171+9999MW1011REMSYN094AAXX  07181 01001 11465 72704 11008 21031 39879 49891 56017 60012 70175 87500 333 11003 91117;
0101010010999992009010719004+70933-008667FM-12+0009ENJA V0200101N005019999999N9999999N1-00091-00321098911ADDMA1999999098791MD1610121+9999REMSYN060AAXX  07191 01001 46/// /0105 11009 21032 39879 49891 56012;
0101010010999992009010720004+70933-008667FM-12+0009ENJA V0203401N008019999999N9999999N1-00141-00351098921ADDMA1999999098801MD1710021+9999REMSYN060AAXX  07201 01001 46/// /3408 11014 21035 39880 49892 57002;
0101010010999992009010721004+70933-008667FM-12+0009ENJA V0203501N007019999999N9999999N1-00191-00411098951ADDMA1999999098831MD1310031+9999REMSYN060AAXX  07211 01001 46/// /3507 11019 21041 39883 49895 53003;
0101010010999992009010722004+70933-008667FM-12+0009ENJA V0203501N005019999999N9999999N1-00191-00361098961ADDMA1999999098841MD1210051+9999REMSYN060AAXX  07221 01001 46/// /3505 11019 21036 39884 49896 52005;
0101010010999992009010723004+70933-008667FM-12+0009ENJA V0203601N011019999999N9999999N1-00331-00471099041ADDMA1999999098921MD1310121+9999REMSYN060AAXX  07231 01001 46/// /3611 11033 21047 39892 49904 53012;
0188010010999992009010800004+70933-008667FM-12+0009ENJA V0203501N007010042019N0150001N1-00411-00611099101ADDAA106000021AY171061AY251061GF108991061051004501071999MA1999999098981MD1310161+9999MW1561REMSYN088AAXX  08001 01001 11465 83507 11041 21061 39898 49910 53016 69901 75675 8657/ 333 91116;
0101010010999992009010801004+70933-008667FM-12+0009ENJA V0203401N011019999999N9999999N1-00521-00691099151ADDMA1999999099031MD1210191+9999REMSYN060AAXX  08011 01001 46/// /3411 11052 21069 39903 49915 52019;
0101010010999992009010802004+70933-008667FM-12+0009ENJA V0203501N012019999999N9999999N1-00621-00921099151ADDMA1999999099031MD1110111+9999REMSYN060AAXX  08021 01001 46/// /3512 11062 21092 39903 49915 51011;
0101010010999992009010803004+70933-008667FM-12+0009ENJA V0203501N011019999999N9999999N1-00591-00941099191ADDMA1999999099071MD1110091+9999REMSYN060AAXX  08031 01001 46/// /3511 11059 21094 39907 49919 51009;
0101010010999992009010804004+70933-008667FM-12+0009ENJA V0203501N011019999999N9999999N1-00501-00861099201ADDMA1999999099081MD1210051+9999REMSYN060AAXX  08041 01001 46/// /3511 11050 21086 39908 49920 52005;
0101010010999992009010805004+70933-008667FM-12+0009ENJA V0203601N013019999999N9999999N1-00531-00921099231ADDMA1999999099111MD1210081+9999REMSYN060AAXX  08051 01001 46/// /3613 11053 21092 39911 49923 52008;
0230010010999992009010806004+70933-008667FM-12+0009ENJA V0203501N011010042019N0200001N1-00591-00941099261ADDAA112000021AA224001391AY131061AY221061GF106991061051004501001001KA1120N-00641MA1999999099141MD1310071+9999MW1011REMSYN106AAXX  08061 01001 11470 63511 11059 21094 39914 49926 53007 69902 70132 86500 333 21064 4//// 70013 91117;
0101010010999992009010807004+70933-008667FM-12+0009ENJA V0203601N009019999999N9999999N1-00591-00941099341ADDMA1999999099221MD1310151+9999REMSYN060AAXX  08071 01001 46/// /3609 11059 21094 39922 49934 53015;
0101010010999992009010808004+70933-008667FM-12+0009ENJA V0203601N009019999999N9999999N1-00581-00951099391ADDMA1999999099271MD1310161+9999REMSYN060AAXX  08081 01001 46/// /3609 11058 21095 39927 49939 53016;
0161010010999992009010809004+70933-008667FM-12+0009ENJA V0200101N007010042019N0150001N1-00581-00941099451ADDAY171031AY231031GF107991071051004501001001MA1999999099331MD1110191+9999MW1701REMSYN072AAXX  08091 01001 41465 70107 11058 21094 39933 49945 51019 77073 87500;
0101010010999992009010810004+70933-008667FM-12+0009ENJA V0200101N006019999999N9999999N1-00581-00951099501ADDMA1999999099381MD1310161+9999REMSYN060AAXX  08101 01001 46/// /0106 11058 21095 39938 49950 53016;
0101010010999992009010811004+70933-008667FM-12+0009ENJA V0203401N007019999999N9999999N1-00591-00951099541ADDMA1999999099421MD1210161+9999REMSYN060AAXX  08111 01001 46/// /3407 11059 21095 39942 49954 52016;
0208010010999992009010812004+70933-008667FM-12+0009ENJA V0203601N006010042019N0250001N1-00601-00971099601ADDAA106000021AY171061AY231061GF105991051011004501001001MA1999999099481MD1310151+9999MW1011SA1-0069REMSYN100AAXX  08121 01001 11475 53606 11060 21097 39948 49960 53015 69901 70173 85100 222// 01006 333 91115;
0101010010999992009010813004+70933-008667FM-12+0009ENJA V0203501N004019999999N9999999N1-00631-01021099601ADDMA1999999099481MD1010101+9999REMSYN060AAXX  08131 01001 46/// /3504 11063 21102 39948 49960 50010;
0101010010999992009010814004+70933-008667FM-12+0009ENJA V0203501N003019999999N9999999N1-00651-01041099641ADDMA1999999099521MD1110091+9999REMSYN060AAXX  08141 01001 46/// /3503 11065 21104 39952 49964 51009;
0101010010999992009010815004+70933-008667FM-12+0009ENJA V0203301N003019999999N9999999N1-00711-01081099681ADDMA1999999099561MD1210081+9999REMSYN060AAXX  08151 01001 46/// /3303 11071 21108 39956 49968 52008;
0101010010999992009010816004+70933-008667FM-12+0009ENJA V0203101N003019999999N9999999N1-00701-01041099761ADDMA1999999099641MD1310161+9999REMSYN060AAXX  08161 01001 46/// /3103 11070 21104 39964 49976 53016;
0101010010999992009010817004+70933-008667FM-12+0009ENJA V0203001N002019999999N9999999N1-00691-01021099761ADDMA1999999099641MD1110131+9999REMSYN060AAXX  08171 01001 46/// /3002 11069 21102 39964 49976 51013;
0207010010999992009010818004+70933-008667FM-12+0009ENJA V0202601N004010042019N0250001N1-00601-00961099771ADDAA112000021AY121061AY211061GF108991081051004501999999KA1120M-00571MA1999999099651MD1110101+9999MW1031REMSYN094AAXX  08181 01001 11475 82604 11060 21096 39965 49977 51010 69902 70321 885// 333 11057 91107;
0101010010999992009010819004+70933-008667FM-12+0009ENJA V0202701N005019999999N9999999N1-00591-00981099831ADDMA1999999099711MD1310071+9999REMSYN060AAXX  08191 01001 46/// /2705 11059 21098 39971 49983 53007;
0101010010999992009010820004+70933-008667FM-12+0009ENJA V0202901N004019999999N9999999N1-00571-00981099861ADDMA1999999099741MD1310101+9999REMSYN060AAXX  08201 01001 46/// /2904 11057 21098 39974 49986 53010;
0101010010999992009010821004+70933-008667FM-12+0009ENJA V0202901N003019999999N9999999N1-00551-00931099891ADDMA1999999099771MD1110111+9999REMSYN060AAXX  08211 01001 46/// /2903 11055 21093 39977 49989 51011;
0101010010999992009010822004+70933-008667FM-12+0009ENJA V0203101N004019999999N9999999N1-00541-00891099861ADDMA1999999099741MD1010041+9999REMSYN060AAXX  08221 01001 46/// /3104 11054 21089 39974 49986 50004;
0101010010999992009010823004+70933-008667FM-12+0009ENJA V0200101N003019999999N9999999N1-00531-00871099881ADDMA1999999099761MD1010021+9999REMSYN060AAXX  08231 01001 46/// /0103 11053 21087 39976 49988 50002;
0188010010999992009010900004+70933-008667FM-12+0009ENJA V0203601N002010075019N0150001N1-00551-00851099871ADDAA106000021AY171061AY221061GF108991081001008001021999MA1999999099751MD1510021+9999MW1711REMSYN088AAXX  09001 01001 11565 83602 11055 21085 39975 49987 55002 69911 77172 8802/ 333 91108;
0101010010999992009010901004+70933-008667FM-12+0009ENJA V0203401N001019999999N9999999N1-00491-00791099811ADDMA1999999099691MD1810051+9999REMSYN060AAXX  09011 01001 46/// /3401 11049 21079 39969 49981 58005;
0101010010999992009010902004+70933-008667FM-12+0009ENJA V0201001N007019999999N9999999N1-00351-00651099721ADDMA1999999099601MD1810161+9999REMSYN060AAXX  09021 01001 46/// /1007 11035 21065 39960 49972 58016;
0101010010999992009010903004+70933-008667FM-12+0009ENJA V0200901N010019999999N9999999N1-00341-00571099641ADDMA1999999099521MD1810231+9999REMSYN060AAXX  09031 01001 46/// /0910 11034 21057 39952 49964 58023;
0101010010999992009010904004+70933-008667FM-12+0009ENJA V0200901N010019999999N9999999N1-00331-00531099581ADDMA1999999099461MD1610231+9999REMSYN060AAXX  09041 01001 46/// /0910 11033 21053 39946 49958 56023;
0101010010999992009010905004+70933-008667FM-12+0009ENJA V0200901N011019999999N9999999N1-00351-00521099501ADDMA1999999099381MD1810211+9999REMSYN060AAXX  09051 01001 46/// /0911 11035 21052 39938 49950 58021;
0272010010999992009010906004+70933-008667FM-12+0009ENJA V0200901N013010150019N0200001N1-00331-00481099331ADDAA112000021AA224000021AJ199991999999999AY171061AY221061GF108991081001017501011999IA1309KA1120N-00611MA1999999099211MD1810311+9999MW1021REMSYN106AAXX  09061 01001 11770 80913 11033 21048 39921 49933 58031 69912 70272 8801/ 333 21061 42999 70001 91116;EQDQ01  09962SNDP  
0101010010999992009010907004+70933-008667FM-12+0009ENJA V0200801N011019999999N9999999N1-00291-00431099181ADDMA1999999099061MD1810401+9999REMSYN060AAXX  09071 01001 46/// /0811 11029 21043 39906 49918 58040;
0101010010999992009010908004+70933-008667FM-12+0009ENJA V0200901N012019999999N9999999N1-00261-00371099011ADDMA1999999098891MD1810491+9999REMSYN060AAXX  09081 01001 46/// /0912 11026 21037 39889 49901 58049;
0075010010999992009010909004+70933-008667FM-12+0009ENJA V02099999999999999999N9999999N1+99999+99999999999REMSYN066AAXX  09091 01001 41X08 90814 11023 21029 39864 49876 58057 77373;
0101010010999992009010910004+70933-008667FM-12+0009ENJA V0200801N014019999999N9999999N1-00201-00251098481ADDMA1999999098361MD1810701+9999REMSYN060AAXX  09101 01001 46/// /0814 11020 21025 39836 49848 58070;
0101010010999992009010911004+70933-008667FM-12+0009ENJA V0200801N015019999999N9999999N1-00141-00191098091ADDMA1999999097971MD1810921+9999REMSYN060AAXX  09111 01001 46/// /0815 11014 21019 39797 49809 58092;
0227010010999992009010912004+70933-008667FM-12+0009ENJA V02099999999990021019N0012001N1-00061-00101097721ADDAA106001091AY171061AY231061GF108991081071002501999999MA1999999097611MD1811032+9999MW1731SA1-0079REMSYN100AAXX  09121 01001 11312 8//// 11006 21010 39761 49772 58103 60011 77373 887// 222// 01007 333 91120;EQDQ01+001032APC3  
0101010010999992009010913004+70933-008667FM-12+0009ENJA V0200901N012019999999N9999999N1+00011-00031097441ADDMA1999999097331MD1611031+9999REMSYN060AAXX  09131 01001 46/// /0912 10001 21003 39733 49744 56103;
0101010010999992009010914004+70933-008667FM-12+0009ENJA V0201601N007019999999N9999999N1+00111+00071097221ADDMA1999999097111MD1610861+9999REMSYN060AAXX  09141 01001 46/// /1607 10011 20007 39711 49722 56086;
0161010010999992009010915004+70933-008667FM-12+0009ENJA V0202001N007010021019N0070001N1-00011-00051097231ADDAY171031AY261031GF108991071071002501999999MA1999999097121MD1610491+9999MW1601REMSYN072AAXX  09151 01001 41357 82007 11001 21005 39712 49723 56049 76076 877//;
0101010010999992009010916004+70933-008667FM-12+0009ENJA V0202101N012019999999N9999999N1-00041-00111097131ADDMA1999999097021MD1610311+9999REMSYN060AAXX  09161 01001 46/// /2112 11004 21011 39702 49713 56031;
0101010010999992009010917004+70933-008667FM-12+0009ENJA V0202101N011019999999N9999999N1-00051-00201097051ADDMA1999999096941MD1810171+9999REMSYN060AAXX  09171 01001 46/// /2111 11005 21020 39694 49705 58017;
0207010010999992009010918004+70933-008667FM-12+0009ENJA V0202101N016012200019N0200001N1-00031-00291096851ADDAA112002091AY161061AY271061GF101991011011004501001001KA1120M+00121MA1999999096741MD1810371+9999MW1011REMSYN094AAXX  09181 01001 11470 12116 11003 21029 39674 49685 58037 60022 70167 81100 333 10012 91122;
0136010010999992009010919004+70933-008667FM-12+0009ENJA V0202201N017019999999N9999999N1-00031-00481999999ADDMA1999999999999MD1810521+9999REMSYN060AAXX  09191 01001 46/// /2217 11003 21048 39650 49661 58052;EQDQ01 096503APOSP Q02 096613APOSLP
0136010010999992009010920004+70933-008667FM-12+0009ENJA V0202501N015019999999N9999999N1-00231-00421999999ADDMA1999999999999MD1510091+9999REMSYN060AAXX  09201 01001 46/// /2515 11023 21042 39685 49696 55009;EQDQ01 096853APOSP Q02 096963APOSLP
0101010010999992009010921004+70933-008667FM-12+0009ENJA V0202701N008019999999N9999999N1-00511-00621097491ADDMA1999999097371MD1310641+9999REMSYN060AAXX  09211 01001 46/// /2708 11051 21062 39737 49749 53064;
0101010010999992009010922004+70933-008667FM-12+0009ENJA V0202801N008019999999N9999999N1-00611-00871097821ADDMA1999999097701MD1311201+9999REMSYN060AAXX  09221 01001 46/// /2808 11061 21087 39770 49782 53120;
0101010010999992009010923004+70933-008667FM-12+0009ENJA V0202801N010019999999N9999999N1-00661-00911097961ADDMA1999999097841MD1111001+9999REMSYN060AAXX  09231 01001 46/// /2810 11066 21091 39784 49796 51100;
0188010010999992009011000004+70933-008667FM-12+0009ENJA V0202801N010010090019N0100001N1-00711-00971098131ADDAA106000591AY171061AY231061GF107991071081004501999001MA1999999098011MD1110631+9999MW1031REMSYN088AAXX  10001 01001 11460 72810 11071 21097 39801 49813 51063 69951 70373 878/0 333 91129;
0101010010999992009011001004+70933-008667FM-12+0009ENJA V0202901N012019999999N9999999N1-00751-01041098211ADDMA1999999098091MD1110391+9999REMSYN060AAXX  10011 01001 46/// /2912 11075 21104 39809 49821 51039;
0101010010999992009011002004+70933-008667FM-12+0009ENJA V0202901N013019999999N9999999N1-00781-01051098231ADDMA1999999098111MD1110261+9999REMSYN060AAXX  10021 01001 46/// /2913 11078 21105 39811 49823 51026;
0101010010999992009011003004+70933-008667FM-12+0009ENJA V0203201N008019999999N9999999N1-00821-01081098321ADDMA1999999098201MD1310191+9999REMSYN060AAXX  10031 01001 46/// /3208 11082 21108 39820 49832 53019;
0101010010999992009011004004+70933-008667FM-12+0009ENJA V0203401N009019999999N9999999N1-00811-01061098311ADDMA1999999098191MD1010101+9999REMSYN060AAXX  10041 01001 46/// /3409 11081 21106 39819 49831 50010;
0101010010999992009011005004+70933-008667FM-12+0009ENJA V0203301N009019999999N9999999N1-00811-01031098281ADDMA1999999098161MD1010051+9999REMSYN060AAXX  10051 01001 46/// /3309 11081 21103 39816 49828 50005;
0272010010999992009011006004+70933-008667FM-12+0009ENJA V0203301N006010075019N0200001N1-00821-01081098321ADDAA112000591AA224002391AJ199991999999999AY121061AY221061GF108991081051008001999999IA1309KA1120N-00821MA1999999098201MD1010001+9999MW1031REMSYN106AAXX  10061 01001 11570 83306 11082 21108 39820 49832 50000 69952 70322 885// 333 21082 42999 70023 91122;EQDQ01  09962SNDP  
0101010010999992009011008004+70933-008667FM-12+0009ENJA V0203201N010019999999N9999999N1-00811-01021098191ADDMA1999999098071MD1810091+9999REMSYN060AAXX  10081 01001 46/// /3210 11081 21102 39807 49819 58009;
0161010010999992009011009004+70933-008667FM-12+0009ENJA V0203401N009010600019N0200001N1-00791-00991098151ADDAY121031AY221031GF105991041051008001001051MA1999999098031MD1610171+9999MW1011REMSYN072AAXX  10091 01001 41570 53409 11079 21099 39803 49815 56017 70122 84505;
0101010010999992009011010004+70933-008667FM-12+0009ENJA V0203501N007019999999N9999999N1-00741-00951098111ADDMA1999999097991MD1610121+9999REMSYN060AAXX  10101 01001 46/// /3507 11074 21095 39799 49811 56012;
0101010010999992009011011004+70933-008667FM-12+0009ENJA V0203601N003019999999N9999999N1-00661-00941098011ADDMA1999999097891MD1810181+9999REMSYN060AAXX  10111 01001 46/// /3603 11066 21094 39789 49801 58018;
0230010010999992009011012004+70933-008667FM-12+0009ENJA V0203601N006010240019N0200001N1-00621-00841097831ADDAA106000091AY121061AY221061GF107991021011008001011061MA1999999097711MD1810321+9999MW1031SA1-0079UA1I009999999REMSYN090AAXX  10121 01001 11570 73606 11062 21084 39771 49783 58032 60001 70322 82116 222// 01007;EQDQ01  00002PRCP06
0101010010999992009011013004+70933-008667FM-12+0009ENJA V0203301N007019999999N9999999N1-00521-00761097661ADDMA1999999097541MD1810451+9999REMSYN060AAXX  10131 01001 46/// /3307 11052 21076 39754 49766 58045;
0101010010999992009011014004+70933-008667FM-12+0009ENJA V0202801N002019999999N9999999N1-00411-00791097471ADDMA1999999097351MD1810541+9999REMSYN060AAXX  10141 01001 46/// /2802 11041 21079 39735 49747 58054;
0161010010999992009011015004+70933-008667FM-12+0009ENJA V0201501N003010240019N0200001N1-00291-00821097361ADDAY121031AY221031GF108991031051008001051041MA1999999097241MD1810471+9999MW1031REMSYN072AAXX  10151 01001 41570 81503 11029 21082 39724 49736 58047 70322 83554;
0101010010999992009011016004+70933-008667FM-12+0009ENJA V0201901N003019999999N9999999N1-00261-00871097271ADDMA1999999097151MD1610391+9999REMSYN060AAXX  10161 01001 46/// /1903 11026 21087 39715 49727 56039;
0101010010999992009011017004+70933-008667FM-12+0009ENJA V0200801N005019999999N9999999N1-00201-00671097201ADDMA1999999097091MD1510261+9999REMSYN060AAXX  10171 01001 46/// /0805 11020 21067 39709 49720 55026;
0207010010999992009011018004+70933-008667FM-12+0009ENJA V0200701N010010240019N0250001N1-00171-00541097161ADDAA112000091AY121061AY221061GF108991021011004501051061MA1999999097051MD1610201+9999MW1021REMSYN088AAXX  10181 01001 11475 80710 11017 21054 39705 49716 56020 60002 70222 82156 333 91122;EQDQ01  00002PRCP12
0101010010999992009011019004+70933-008667FM-12+0009ENJA V0200801N016019999999N9999999N1-00201-00551097091ADDMA1999999096981MD1810181+9999REMSYN060AAXX  10191 01001 46/// /0816 11020 21055 39698 49709 58018;
0101010010999992009011020004+70933-008667FM-12+0009ENJA V0200901N004019999999N9999999N1-00181-00611097081ADDMA1999999096971MD1510121+9999REMSYN060AAXX  10201 01001 46/// /0904 11018 21061 39697 49708 55012;
0101010010999992009011021004+70933-008667FM-12+0009ENJA V0203301N003019999999N9999999N1-00201-00601097071ADDMA1999999096961MD1510081+9999REMSYN060AAXX  10211 01001 46/// /3303 11020 21060 39696 49707 55008;
0101010010999992009011022004+70933-008667FM-12+0009ENJA V0200101N011019999999N9999999N1-00251-00631097091ADDMA1999999096981MD1510011+9999REMSYN060AAXX  10221 01001 46/// /0111 11025 21063 39698 49709 55001;
0101010010999992009011023004+70933-008667FM-12+0009ENJA V0200201N018019999999N9999999N1-00311-00631097121ADDMA1999999097001MD1310031+9999REMSYN060AAXX  10231 01001 46/// /0218 11031 21063 39700 49712 53003;
0188010010999992009011100004+70933-008667FM-12+0009ENJA V0200101N020010042019N0200001N1-00321-00671097181ADDAA106000021AY171061AY221061GF108991061071004501011999MA1999999097061MD1310101+9999MW1711REMSYN088AAXX  11001 01001 11470 80120 11032 21067 39706 49718 53010 69901 77172 8671/ 333 91130;
0101010010999992009011101004+70933-008667FM-12+0009ENJA V0200101N018019999999N9999999N1-00331-00731097331ADDMA1999999097211MD1310241+9999REMSYN060AAXX  11011 01001 46/// /0118 11033 21073 39721 49733 53024;
0101010010999992009011102004+70933-008667FM-12+0009ENJA V0200101N020019999999N9999999N1-00331-00751097431ADDMA1999999097311MD1310321+9999REMSYN060AAXX  11021 01001 46/// /0120 11033 21075 39731 49743 53032;
0101010010999992009011103004+70933-008667FM-12+0009ENJA V0203601N017019999999N9999999N1-00441-00641097481ADDMA1999999097361MD1310301+9999REMSYN060AAXX  11031 01001 46/// /3617 11044 21064 39736 49748 53030;
0101010010999992009011104004+70933-008667FM-12+0009ENJA V0200101N016019999999N9999999N1-00381-00661097611ADDMA1999999097491MD1310281+9999REMSYN060AAXX  11041 01001 46/// /0116 11038 21066 39749 49761 53028;
0101010010999992009011105004+70933-008667FM-12+0009ENJA V0200101N020019999999N9999999N1-00411-00831097721ADDMA1999999097601MD1310291+9999REMSYN060AAXX  11051 01001 46/// /0120 11041 21083 39760 49772 53029;
0272010010999992009011106004+70933-008667FM-12+0009ENJA V0200101N015010042019N0150001N1-00421-00721097851ADDAA112000021AA224000021AJ199991999999999AY171061AY221061GF107991051021004501051001IA1309KA1120N-00471MA1999999097731MD1310361+9999MW1011REMSYN106AAXX  11061 01001 11465 70115 11042 21072 39773 49785 53036 69902 70172 85250 333 21047 42999 70000 91130;EQDQ01  09962SNDP  
0101010010999992009011107004+70933-008667FM-12+0009ENJA V0200101N014019999999N9999999N1-00551-00741098001ADDMA1999999097881MD1310381+9999REMSYN060AAXX  11071 01001 46/// /0114 11055 21074 39788 49800 53038;
0101010010999992009011108004+70933-008667FM-12+0009ENJA V0200201N013019999999N9999999N1-00511-00851098151ADDMA1999999098031MD1310441+9999REMSYN060AAXX  11081 01001 46/// /0213 11051 21085 39803 49815 53044;
0161010010999992009011109004+70933-008667FM-12+0009ENJA V0200101N015010042019N0150001N1-00481-01021098301ADDAY121031AY221031GF105991051021004501001001MA1999999098181MD1310451+9999MW1011REMSYN072AAXX  11091 01001 41465 50115 11048 21102 39818 49830 53045 70122 85200;
0101010010999992009011110004+70933-008667FM-12+0009ENJA V0200201N012019999999N9999999N1-00511-01041098411ADDMA1999999098291MD1110411+9999REMSYN060AAXX  11101 01001 46/// /0212 11051 21104 39829 49841 51041;
0101010010999992009011111004+70933-008667FM-12+0009ENJA V0200101N009019999999N9999999N1-00531-01011098551ADDMA1999999098431MD1310401+9999REMSYN060AAXX  11111 01001 46/// /0109 11053 21101 39843 49855 53040;
0227010010999992009011112004+70933-008667FM-12+0009ENJA V0200101N010012200019N0200001N1-00561-00951098621ADDAA106000091AY181061AY221061GF104991031011004501001061MA1999999098501MD1110331+9999MW1011SA1-0059REMSYN100AAXX  11121 01001 11470 40110 11056 21095 39850 49862 51033 69901 70182 83106 222// 01005 333 91124;EQDQ01  00002PRCP06
0101010010999992009011113004+70933-008667FM-12+0009ENJA V0200101N009019999999N9999999N1-00561-01131098711ADDMA1999999098591MD1110301+9999REMSYN060AAXX  11131 01001 46/// /0109 11056 21113 39859 49871 51030;
0101010010999992009011114004+70933-008667FM-12+0009ENJA V0200101N008019999999N9999999N1-00571-00941098791ADDMA1999999098671MD1310241+9999REMSYN060AAXX  11141 01001 46/// /0108 11057 21094 39867 49879 53024;
0161010010999992009011115004+70933-008667FM-12+0009ENJA V0201001N004010240019N0150001N1-00541-01161098851ADDAY121031AY211031GF105991031081004501051001MA1999999098731MD1110231+9999MW1031REMSYN072AAXX  11151 01001 41465 51004 11054 21116 39873 49885 51023 70321 83850;
0101010010999992009011116004+70933-008667FM-12+0009ENJA V0201001N009019999999N9999999N1-00521-00941098881ADDMA1999999098761MD1110171+9999REMSYN060AAXX  11161 01001 46/// /1009 11052 21094 39876 49888 51017;
0101010010999992009011117004+70933-008667FM-12+0009ENJA V0200801N008019999999N9999999N1-00561-01061098951ADDMA1999999098831MD1310161+9999REMSYN060AAXX  11171 01001 46/// /0808 11056 21106 39883 49895 53016;
0226010010999992009011118004+70933-008667FM-12+0009ENJA V0200801N008010075019N0200001N1-00601-01001099021ADDAA112000091AY121061AY211061GF106991061021008001001001KA1120M-00411MA1999999098901MD1310171+9999MW1031REMSYN094AAXX  11181 01001 11570 60808 11060 21100 39890 49902 53017 69902 70321 86200 333 11041 91117;EQDQ01  00002PRCP12
0101010010999992009011119004+70933-008667FM-12+0009ENJA V0200901N010019999999N9999999N1-00601-00931099031ADDMA1999999098911MD1110151+9999REMSYN060AAXX  11191 01001 46/// /0910 11060 21093 39891 49903 51015;
0101010010999992009011120004+70933-008667FM-12+0009ENJA V0200801N005019999999N9999999N1-00601-00971099071ADDMA1999999098951MD1310121+9999REMSYN060AAXX  11201 01001 46/// /0805 11060 21097 39895 49907 53012;
0101010010999992009011121004+70933-008667FM-12+0009ENJA V0200901N008019999999N9999999N1-00591-01061099111ADDMA1999999098991MD1310091+9999REMSYN060AAXX  11211 01001 46/// /0908 11059 21106 39899 49911 53009;
0101010010999992009011122004+70933-008667FM-12+0009ENJA V0201001N007019999999N9999999N1-00581-01011099161ADDMA1999999099041MD1210121+9999REMSYN060AAXX  11221 01001 46/// /1007 11058 21101 39904 49916 52012;
0101010010999992009011123004+70933-008667FM-12+0009ENJA V0200501N003019999999N9999999N1-00631-01041099181ADDMA1999999099061MD1210111+9999REMSYN060AAXX  11231 01001 46/// /0503 11063 21104 39906 49918 52011;
0188010010999992009011200004+70933-008667FM-12+0009ENJA V0201001N006010075019N0150001N1-00621-00991099181ADDAA106000021AY181061AY221061GF106991051031008001061001MA1999999099061MD1110071+9999MW1851REMSYN088AAXX  12001 01001 11565 61006 11062 21099 39906 49918 51007 69911 78582 85360 333 91113;
0101010010999992009011201004+70933-008667FM-12+0009ENJA V0201001N006019999999N9999999N1-00631-00991099181ADDMA1999999099061MD1210031+9999REMSYN060AAXX  12011 01001 46/// /1006 11063 21099 39906 49918 52003;
0101010010999992009011202004+70933-008667FM-12+0009ENJA V0200901N006019999999N9999999N1-00631-00951099211ADDMA1999999099091MD1210031+9999REMSYN060AAXX  12021 01001 46/// /0906 11063 21095 39909 49921 52003;
0101010010999992009011203004+70933-008667FM-12+0009ENJA V0200901N006019999999N9999999N1-00661-00931099241ADDMA1999999099121MD1310071+9999REMSYN060AAXX  12031 01001 46/// /0906 11066 21093 39912 49924 53007;
0101010010999992009011204004+70933-008667FM-12+0009ENJA V0200101N009019999999N9999999N1-00811-01011099281ADDMA1999999099161MD1210101+9999REMSYN060AAXX  12041 01001 46/// /0109 11081 21101 39916 49928 52010;
0101010010999992009011205004+70933-008667FM-12+0009ENJA V0200101N010019999999N9999999N1-00891-01141099341ADDMA1999999099221MD1310131+9999REMSYN060AAXX  12051 01001 46/// /0110 11089 21114 39922 49934 53013;
0272010010999992009011206004+70933-008667FM-12+0009ENJA V0200101N009010042019N0022001N1-00921-01081099371ADDAA112000391AA224000391AJ199991999999999AY181061AY231061GF106991061031004501001001IA1309KA1120N-00941MA1999999099251MD1210131+9999MW1851REMSYN106AAXX  12061 01001 11422 60109 11092 21108 39925 49937 52013 69932 78583 86300 333 21094 42999 70003 91115;EQDQ01  09962SNDP  
0101010010999992009011207004+70933-008667FM-12+0009ENJA V0203501N008019999999N9999999N1-00891-01231099441ADDMA1999999099321MD1210161+9999REMSYN060AAXX  12071 01001 46/// /3508 11089 21123 39932 49944 52016;
0101010010999992009011208004+70933-008667FM-12+0009ENJA V0200201N010019999999N9999999N1-00891-01131099521ADDMA1999999099401MD1310181+9999REMSYN060AAXX  12081 01001 46/// /0210 11089 21113 39940 49952 53018;
0161010010999992009011209004+70933-008667FM-12+0009ENJA V0203601N008010042019N0045001N1-00901-01171099591ADDAY181031AY231031GF108991061031004501061999MA1999999099471MD1210211+9999MW1851REMSYN072AAXX  12091 01001 41445 83608 11090 21117 39947 49959 52021 78583 8636/;
0101010010999992009011210004+70933-008667FM-12+0009ENJA V0200101N007019999999N9999999N1-00911-01301099671ADDMA1999999099551MD1210221+9999REMSYN060AAXX  12101 01001 46/// /0107 11091 21130 39955 49967 52022;
0101010010999992009011211004+70933-008667FM-12+0009ENJA V0200101N011019999999N9999999N1-00971-01181099731ADDMA1999999099611MD1210221+9999REMSYN060AAXX  12111 01001 46/// /0111 11097 21118 39961 49973 52022;
0208010010999992009011212004+70933-008667FM-12+0009ENJA V0200201N009010042019N0070001N1-00991-01351099811ADDAA106000021AY181061AY231061GF107991061031004501061999MA1999999099691MD1210231+9999MW1161SA1-0069REMSYN100AAXX  12121 01001 11457 70209 11099 21135 39969 49981 52023 69901 71683 8636/ 222// 01006 333 91115;
0101010010999992009011213004+70933-008667FM-12+0009ENJA V0203601N008019999999N9999999N1-01051-01511099901ADDMA1999999099781MD1210241+9999REMSYN060AAXX  12131 01001 46/// /3608 11105 21151 39978 49990 52024;
0101010010999992009011214004+70933-008667FM-12+0009ENJA V0203601N009019999999N9999999N1-01101-01341099971ADDMA1999999099851MD1210231+9999REMSYN060AAXX  12141 01001 46/// /3609 11110 21134 39985 49997 52023;
0161010010999992009011215004+70933-008667FM-12+0009ENJA V0200101N009010042019N0040001N1-01131-01461100021ADDAY181031AY231031GF108991071031004501999999MA1999999099901MD1110201+9999MW1851REMSYN072AAXX  12151 01001 41440 80109 11113 21146 39990 40002 51020 78583 873//;
0101010010999992009011216004+70933-008667FM-12+0009ENJA V0203601N010019999999N9999999N1-01141-01481100091ADDMA1999999099971MD1310201+9999REMSYN060AAXX  12161 01001 46/// /3610 11114 21148 39997 40009 53020;
0101010010999992009011217004+70933-008667FM-12+0009ENJA V0200101N008019999999N9999999N1-01171-01661100171ADDMA1999999100051MD1310201+9999REMSYN060AAXX  12171 01001 46/// /0108 11117 21166 30005 40017 53020;
0207010010999992009011218004+70933-008667FM-12+0009ENJA V0203501N008010240019N0070001N1-01211-01821100251ADDAA112000021AY181061AY231061GF105991041031004501061001KA1120M-00851MA1999999100131MD1210231+9999MW1851REMSYN094AAXX  12181 01001 11457 53508 11121 21182 30013 40025 52023 69912 78583 84360 333 11085 91115;
0101010010999992009011219004+70933-008667FM-12+0009ENJA V0203601N009019999999N9999999N1-01251-01761100301ADDMA1999999100181MD1210211+9999REMSYN060AAXX  12191 01001 46/// /3609 11125 21176 30018 40030 52021;
0101010010999992009011220004+70933-008667FM-12+0009ENJA V0203601N008019999999N9999999N1-01281-01591100381ADDMA1999999100261MD1310211+9999REMSYN060AAXX  12201 01001 46/// /3608 11128 21159 30026 40038 53021;
0101010010999992009011221004+70933-008667FM-12+0009ENJA V0200101N009019999999N9999999N1-01301-01521100411ADDMA1999999100291MD1210161+9999REMSYN060AAXX  12211 01001 46/// /0109 11130 21152 30029 40041 52016;
0101010010999992009011222004+70933-008667FM-12+0009ENJA V0203601N007019999999N9999999N1-01241-01811100461ADDMA1999999100341MD1110161+9999REMSYN060AAXX  12221 01001 46/// /3607 11124 21181 30034 40046 51016;
0101010010999992009011223004+70933-008667FM-12+0009ENJA V0203601N008019999999N9999999N1-01241-01751100481ADDMA1999999100361MD1210101+9999REMSYN060AAXX  12231 01001 46/// /3608 11124 21175 30036 40048 52010;
0188010010999992009011300004+70933-008667FM-12+0009ENJA V0203601N008010090019N0030001N1-01221-01581100551ADDAA106000021AY181061AY221061GF107991071081004501001001MA1999999100431MD1310141+9999MW1261REMSYN088AAXX  13001 01001 11430 73608 11122 21158 30043 40055 53014 69911 72682 87800 333 91115;
0101010010999992009011301004+70933-008667FM-12+0009ENJA V0203601N007019999999N9999999N1-01231-01791100571ADDMA1999999100451MD1210111+9999REMSYN060AAXX  13011 01001 46/// /3607 11123 21179 30045 40057 52011;
0101010010999992009011302004+70933-008667FM-12+0009ENJA V0203501N008019999999N9999999N1-01251-01751100621ADDMA1999999100501MD1210141+9999REMSYN060AAXX  13021 01001 46/// /3508 11125 21175 30050 40062 52014;
0101010010999992009011303004+70933-008667FM-12+0009ENJA V0203501N007019999999N9999999N1-01241-01651100661ADDMA1999999100541MD1310111+9999REMSYN060AAXX  13031 01001 46/// /3507 11124 21165 30054 40066 53011;
0101010010999992009011304004+70933-008667FM-12+0009ENJA V0203401N005019999999N9999999N1-01221-01841100701ADDMA1999999100581MD1210141+9999REMSYN060AAXX  13041 01001 46/// /3405 11122 21184 30058 40070 52014;
0101010010999992009011305004+70933-008667FM-12+0009ENJA V0203601N005019999999N9999999N1-01231-01951100751ADDMA1999999100631MD1210131+9999REMSYN060AAXX  13051 01001 46/// /3605 11123 21195 30063 40075 52013;
0272010010999992009011306004+70933-008667FM-12+0009ENJA V0203601N005010090019N0120001N1-01231-01871100791ADDAA112000021AA224000391AJ199991999999999AY181061AY221061GF107991071081004501001001IA1309KA1120N-01311MA1999999100671MD1210131+9999MW1151REMSYN106AAXX  13061 01001 11462 73605 11123 21187 30067 40079 52013 69912 71582 87800 333 21131 42999 70002 91112;EQDQ01  09962SNDP  
0101010010999992009011307004+70933-008667FM-12+0009ENJA V0203401N003019999999N9999999N1-01211-01841100821ADDMA1999999100701MD1210111+9999REMSYN060AAXX  13071 01001 46/// /3403 11121 21184 30070 40082 52011;
0101010010999992009011308004+70933-008667FM-12+0009ENJA V0203401N004019999999N9999999N1-01191-01761100851ADDMA1999999100731MD1210101+9999REMSYN060AAXX  13081 01001 46/// /3404 11119 21176 30073 40085 52010;
0161010010999992009011309004+70933-008667FM-12+0009ENJA V0203401N004010090019N0150001N1-01191-01751100891ADDAY181031AY221031GF106991061081004501001001MA1999999100771MD1210101+9999MW1151REMSYN072AAXX  13091 01001 41465 63404 11119 21175 30077 40089 52010 71582 86800;
0101010010999992009011310004+70933-008667FM-12+0009ENJA V0203201N006019999999N9999999N1-01201-01621100941ADDMA1999999100821MD1210121+9999REMSYN060AAXX  13101 01001 46/// /3206 11120 21162 30082 40094 52012;
0101010010999992009011311004+70933-008667FM-12+0009ENJA V0203201N004019999999N9999999N1-01161-01731100981ADDMA1999999100861MD1210131+9999REMSYN060AAXX  13111 01001 46/// /3204 11116 21173 30086 40098 52013;
0208010010999992009011312004+70933-008667FM-12+0009ENJA V0203201N004010090019N0080001N1-01171-01641101011ADDAA106000021AY181061AY221061GF107991061081004501061001MA1999999100891MD1210131+9999MW1851SA1-0139REMSYN100AAXX  13121 01001 11458 73204 11117 21164 30089 40101 52013 69911 78582 86860 222// 01013 333 91108;
0101010010999992009011313004+70933-008667FM-12+0009ENJA V0203001N004019999999N9999999N1-01191-01721101021ADDMA1999999100901MD1210081+9999REMSYN060AAXX  13131 01001 46/// /3004 11119 21172 30090 40102 52008;
0101010010999992009011314004+70933-008667FM-12+0009ENJA V0203101N004019999999N9999999N1-01191-01811101041ADDMA1999999100921MD1210061+9999REMSYN060AAXX  13141 01001 46/// /3104 11119 21181 30092 40104 52006;
0161010010999992009011315004+70933-008667FM-12+0009ENJA V0203401N003010042019N0130001N1-01181-01661101071ADDAY181031AY221031GF106991051031004501061001MA1999999100951MD1310061+9999MW1151REMSYN072AAXX  13151 01001 41463 63403 11118 21166 30095 40107 53006 71582 85360;
0101010010999992009011316004+70933-008667FM-12+0009ENJA V0203401N002019999999N9999999N1-01191-01561101071ADDMA1999999100951MD1210051+9999REMSYN060AAXX  13161 01001 46/// /3402 11119 21156 30095 40107 52005;
0101010010999992009011317004+70933-008667FM-12+0009ENJA V0203001N004019999999N9999999N1-01151-01601101071ADDMA1999999100951MD1010031+9999REMSYN060AAXX  13171 01001 46/// /3004 11115 21160 30095 40107 50003;
0207010010999992009011318004+70933-008667FM-12+0009ENJA V0203201N002010042019N0070001N1-01151-01641101091ADDAA112000021AY181061AY221061GF107991061031004501061999KA1120M-01141MA1999999100971MD1310021+9999MW1851REMSYN094AAXX  13181 01001 11457 73202 11115 21164 30097 40109 53002 69922 78582 8636/ 333 11114 91106;
0101010010999992009011319004+70933-008667FM-12+0009ENJA V0203301N001019999999N9999999N1-01161-01681101091ADDMA1999999100971MD1310021+9999REMSYN060AAXX  13191 01001 46/// /3301 11116 21168 30097 40109 53002;
0101010010999992009011320004+70933-008667FM-12+0009ENJA V0202901N001019999999N9999999N1-01171-01601101121ADDMA1999999101001MD1210051+9999REMSYN060AAXX  13201 01001 46/// /2901 11117 21160 30100 40112 52005;
0101010010999992009011321004+70933-008667FM-12+0009ENJA V0202301N002019999999N9999999N1-01211-01551101131ADDMA1999999101011MD1210041+9999REMSYN060AAXX  13211 01001 46/// /2302 11121 21155 30101 40113 52004;
0101010010999992009011322004+70933-008667FM-12+0009ENJA V0203001N001019999999N9999999N1-01221-01561101121ADDMA1999999101001MD1210031+9999REMSYN060AAXX  13221 01001 46/// /3001 11122 21156 30100 40112 52003;
0101010010999992009011323004+70933-008667FM-12+0009ENJA V0202401N002019999999N9999999N1-01221-01591101111ADDMA1999999100991MD1410001+9999REMSYN060AAXX  13231 01001 46/// /2402 11122 21159 30099 40111 54001;
0188010010999992009011400004+70933-008667FM-12+0009ENJA V0202501N003010042019N0050001N1-01171-01571101131ADDAA106000021AY181061AY221061GF107991051031004501061999MA1999999101011MD1410001+9999MW1851REMSYN088AAXX  14001 01001 11450 72503 11117 21157 30101 40113 54000 69911 78582 8536/ 333 91105;
0101010010999992009011401004+70933-008667FM-12+0009ENJA V0202401N003019999999N9999999N1-01151-01641101131ADDMA1999999101011MD1210011+9999REMSYN060AAXX  14011 01001 46/// /2403 11115 21164 30101 40113 52001;
0101010010999992009011402004+70933-008667FM-12+0009ENJA V0202501N002019999999N9999999N1-01111-01531101121ADDMA1999999101001MD1410001+9999REMSYN060AAXX  14021 01001 46/// /2502 11111 21153 30100 40112 54001;
0101010010999992009011403004+70933-008667FM-12+0009ENJA V0202401N003019999999N9999999N1-01061-01411101091ADDMA1999999100971MD1810041+9999REMSYN060AAXX  14031 01001 46/// /2403 11106 21141 30097 40109 58004;
0101010010999992009011404004+70933-008667FM-12+0009ENJA V0202601N003019999999N9999999N1-01141-01611101051ADDMA1999999100931MD1810091+9999REMSYN060AAXX  14041 01001 46/// /2603 11114 21161 30093 40105 58009;
0101010010999992009011405004+70933-008667FM-12+0009ENJA V0202501N003019999999N9999999N1-01041-01531101001ADDMA1999999100881MD1810121+9999REMSYN060AAXX  14051 01001 46/// /2503 11104 21153 30088 40100 58012;
0272010010999992009011406004+70933-008667FM-12+0009ENJA V0202501N003010240019N0150001N1-00961-01381100981ADDAA112000021AA224000591AJ199991999999999AY181061AY221061GF106991041031008001071001IA1289KA1120N-01331MA1999999100861MD1710111+9999MW1151REMSYN106AAXX  14061 01001 11565 62503 11096 21138 30086 40098 57011 69922 71582 84370 333 21133 44999 70004 91106;EQDQ01  09962SNDP  
0101010010999992009011407004+70933-008667FM-12+0009ENJA V0201901N005019999999N9999999N1-00791-01261100941ADDMA1999999100821MD1710111+9999REMSYN060AAXX  14071 01001 46/// /1905 11079 21126 30082 40094 57011;
0101010010999992009011408004+70933-008667FM-12+0009ENJA V0201901N006019999999N9999999N1-00731-01171100911ADDMA1999999100791MD1710091+9999REMSYN060AAXX  14081 01001 46/// /1906 11073 21117 30079 40091 57009;
0161010010999992009011409004+70933-008667FM-12+0009ENJA V0201901N005010075019N0060001N1-00681-01061100901ADDAY181031AY221031GF108991071031008001999999MA1999999100781MD1710081+9999MW1851REMSYN072AAXX  14091 01001 41556 81905 11068 21106 30078 40090 57008 78582 873//;
0101010010999992009011410004+70933-008667FM-12+0009ENJA V0201701N007019999999N9999999N1-00621-00791100841ADDMA1999999100721MD1810101+9999REMSYN060AAXX  14101 01001 46/// /1707 11062 21079 30072 40084 58010;
0101010010999992009011411004+70933-008667FM-12+0009ENJA V0201701N006019999999N9999999N1-00541-00691100761ADDMA1999999100641MD1810141+9999REMSYN060AAXX  14111 01001 46/// /1706 11054 21069 30064 40076 58014;
0208010010999992009011412004+70933-008667FM-12+0009ENJA V0201101N004010042019N0045001N1-00421-00571100631ADDAA106000591AY181061AY221061GF108991071031004501999999MA1999999100511MD1810271+9999MW1871SA1-0089REMSYN100AAXX  14121 01001 11445 81104 11042 21057 30051 40063 58027 69941 78782 873// 222// 01008 333 91108;
0101010010999992009011413004+70933-008667FM-12+0009ENJA V0203401N003019999999N9999999N1-00431-00541100511ADDMA1999999100391MD1810331+9999REMSYN060AAXX  14131 01001 46/// /3403 11043 21054 30039 40051 58033;
0101010010999992009011414004+70933-008667FM-12+0009ENJA V0202501N007019999999N9999999N1-00261-00661100571ADDMA1999999100451MD1510191+9999REMSYN060AAXX  14141 01001 46/// /2507 11026 21066 30045 40057 55019;
0161010010999992009011415004+70933-008667FM-12+0009ENJA V0202701N006012200019N0100001N1-00291-00691100581ADDAY181031AY231031GF104991031031004501051001MA1999999100461MD1510051+9999MW1151REMSYN072AAXX  14151 01001 41460 42706 11029 21069 30046 40058 55005 71583 83350;
0101010010999992009011416004+70933-008667FM-12+0009ENJA V0202601N006019999999N9999999N1-00331-00691100631ADDMA1999999100511MD1210121+9999REMSYN060AAXX  14161 01001 46/// /2606 11033 21069 30051 40063 52012;
0101010010999992009011417004+70933-008667FM-12+0009ENJA V0202701N007019999999N9999999N1-00371-00751100671ADDMA1999999100551MD1310101+9999REMSYN060AAXX  14171 01001 46/// /2707 11037 21075 30055 40067 53010;
0207010010999992009011418004+70933-008667FM-12+0009ENJA V0202601N005012200019N0150001N1-00461-00921100751ADDAA112003091AY181061AY231061GF103991031081004501001001KA1120M-00221MA1999999100631MD1310171+9999MW1011REMSYN094AAXX  14181 01001 11465 32605 11046 21092 30063 40075 53017 60032 70183 83800 333 11022 91115;
0101010010999992009011419004+70933-008667FM-12+0009ENJA V0202801N006019999999N9999999N1-00481-00891100761ADDMA1999999100641MD1110131+9999REMSYN060AAXX  14191 01001 46/// /2806 11048 21089 30064 40076 51013;
0101010010999992009011420004+70933-008667FM-12+0009ENJA V0202701N002019999999N9999999N1-00541-00891100831ADDMA1999999100711MD1110161+9999REMSYN060AAXX  14201 01001 46/// /2702 11054 21089 30071 40083 51016;
0101010010999992009011421004+70933-008667FM-12+0009ENJA V0202701N003019999999N9999999N1-00541-00901100851ADDMA1999999100731MD1310111+9999REMSYN060AAXX  14211 01001 46/// /2703 11054 21090 30073 40085 53011;
0101010010999992009011422004+70933-008667FM-12+0009ENJA V0203201N002019999999N9999999N1-00661-01061100931ADDMA1999999100811MD1310161+9999REMSYN060AAXX  14221 01001 46/// /3202 11066 21106 30081 40093 53016;
0101010010999992009011423004+70933-008667FM-12+0009ENJA V0202601N002019999999N9999999N1-00591-01241100981ADDMA1999999100861MD1310151+9999REMSYN060AAXX  14231 01001 46/// /2602 11059 21124 30086 40098 53015;
0207010010999992009011500004+70933-008667FM-12+0009ENJA V0202501N002012200019N0300001N1-00551-01351101011ADDAA106000091AY101061AY201061GF102991021011008001001001MA1999999100891MD1110151+9999MW1021REMSYN088AAXX  15001 01001 11580 22502 11055 21135 30089 40101 51015 60001 70200 82100 333 91110;EQDQ01  00002PRCP06
0101010010999992009011501004+70933-008667FM-12+0009ENJA V0200101N002019999999N9999999N1-00681-01401101031ADDMA1999999100911MD1210101+9999REMSYN060AAXX  15011 01001 46/// /0102 11068 21140 30091 40103 52010;
0101010010999992009011502004+70933-008667FM-12+0009ENJA V0202401N002019999999N9999999N1-00641-01231101051ADDMA1999999100931MD1210071+9999REMSYN060AAXX  15021 01001 46/// /2402 11064 21123 30093 40105 52007;
0101010010999992009011503004+70933-008667FM-12+0009ENJA V0203101N002019999999N9999999N1-00671-01081101041ADDMA1999999100921MD1010041+9999REMSYN060AAXX  15031 01001 46/// /3102 11067 21108 30092 40104 50004;
0101010010999992009011504004+70933-008667FM-12+0009ENJA V0203201N002019999999N9999999N1-00621-00931101071ADDMA1999999100951MD1210041+9999REMSYN060AAXX  15041 01001 46/// /3202 11062 21093 30095 40107 52004;
0101010010999992009011505004+70933-008667FM-12+0009ENJA V0202701N002019999999N9999999N1-00561-00811101031ADDMA1999999100911MD1810021+9999REMSYN060AAXX  15051 01001 46/// /2702 11056 21081 30091 40103 58002;
0288010010999992009011506004+70933-008667FM-12+0009ENJA V0201601N002010240019N0250001N1-00351-00611101051ADDAA112000091AA224002591AJ199991999999999AY111061AY211061GF107991031051008001061001IA1289KA1120N-00811MA1999999100931MD1010011+9999MW1031REMSYN106AAXX  15061 01001 11575 71602 11035 21061 30093 40105 50001 60002 70311 83560 333 21081 44999 70025 91105;EQDQ01  00002PRCP12Q02  09962SNDP  
0101010010999992009011507004+70933-008667FM-12+0009ENJA V0201401N002019999999N9999999N1-00281-00501101021ADDMA1999999100901MD1610051+9999REMSYN060AAXX  15071 01001 46/// /1402 11028 21050 30090 40102 56005;
0101010010999992009011508004+70933-008667FM-12+0009ENJA V0203101N002019999999N9999999N1-00291-00471101011ADDMA1999999100891MD1810021+9999REMSYN060AAXX  15081 01001 46/// /3102 11029 21047 30089 40101 58002;
0161010010999992009011509004+70933-008667FM-12+0009ENJA V0203301N002010042019N0030001N1-00191-00331101001ADDAY171031AY221031GF108991081071004501999999MA1999999100881MD1610051+9999MW1711REMSYN072AAXX  15091 01001 41430 83302 11019 21033 30088 40100 56005 77172 887//;
0101010010999992009011510004+70933-008667FM-12+0009ENJA V0202001N001019999999N9999999N1-00171-00291101011ADDMA1999999100891MD1510021+9999REMSYN060AAXX  15101 01001 46/// /2001 11017 21029 30089 40101 55002;
0101010010999992009011511004+70933-008667FM-12+0009ENJA V0202001N003019999999N9999999N1-00111-00201101021ADDMA1999999100901MD1310021+9999REMSYN060AAXX  15111 01001 46/// /2003 11011 21020 30090 40102 53002;
0208010010999992009011512004+70933-008667FM-12+0009ENJA V0201901N006010042019N0150001N1+00001-00151100971ADDAA106000591AY171061AY221061GF108991071051004501061999MA1999999100851MD1810041+9999MW1021SA1-0089REMSYN100AAXX  15121 01001 11465 81906 10000 21015 30085 40097 58004 69951 70272 8756/ 222// 01008 333 91108;
0101010010999992009011513004+70933-008667FM-12+0009ENJA V0201701N005019999999N9999999N1-00011-00151100961ADDMA1999999100841MD1810051+9999REMSYN060AAXX  15131 01001 46/// /1705 11001 21015 30084 40096 58005;
0101010010999992009011514004+70933-008667FM-12+0009ENJA V0201701N004019999999N9999999N1-00021-00141100931ADDMA1999999100811MD1710091+9999REMSYN060AAXX  15141 01001 46/// /1704 11002 21014 30081 40093 57009;
0161010010999992009011515004+70933-008667FM-12+0009ENJA V0201301N005010240019N0100001N1+00001-00121100851ADDAY121031AY221031GF108991031011004501041071MA1999999100731MD1810121+9999MW1021REMSYN072AAXX  15151 01001 41460 81305 10000 21012 30073 40085 58012 70222 83147;
0101010010999992009011516004+70933-008667FM-12+0009ENJA V0201301N006019999999N9999999N1+00031-00181100731ADDMA1999999100611MD1810231+9999REMSYN060AAXX  15161 01001 46/// /1306 10003 21018 30061 40073 58023;
0101010010999992009011517004+70933-008667FM-12+0009ENJA V0201301N009019999999N9999999N1+00061-00251100661ADDMA1999999100541MD1710271+9999REMSYN060AAXX  15171 01001 46/// /1309 10006 21025 30054 40066 57027;
0207010010999992009011518004+70933-008667FM-12+0009ENJA V0201201N007010240019N0150001N1+00051-00241100511ADDAA112000591AY121061AY221061GF108991031061004501071999KA1120M+00081MA1999999100391MD1810341+9999MW1021REMSYN094AAXX  15181 01001 11465 81207 10005 21024 30039 40051 58034 69952 70222 8367/ 333 10008 91112;
0101010010999992009011519004+70933-008667FM-12+0009ENJA V0201001N006019999999N9999999N1+00061-00181100401ADDMA1999999100281MD1810331+9999REMSYN060AAXX  15191 01001 46/// /1006 10006 21018 30028 40040 58033;
0101010010999992009011520004+70933-008667FM-12+0009ENJA V0201201N009019999999N9999999N1+00081-00091100271ADDMA1999999100151MD1610391+9999REMSYN060AAXX  15201 01001 46/// /1209 10008 21009 30015 40027 56039;
0101010010999992009011521004+70933-008667FM-12+0009ENJA V0201001N008019999999N9999999N1+00061-00071100101ADDMA1999999099981MD1810411+9999REMSYN060AAXX  15211 01001 46/// /1008 10006 21007 39998 40010 58041;
0101010010999992009011522004+70933-008667FM-12+0009ENJA V0201001N008019999999N9999999N1+00061-00051099961ADDMA1999999099841MD1810441+9999REMSYN060AAXX  15221 01001 46/// /1008 10006 21005 39984 49996 58044;
0178010010999992009011600004+70933-008667FM-12+0009ENJA V0200901N008010042019N0030001N1+00031-00061099611ADDAA106000021AY171061AY261061GF108991081071004501999999MA1999999099491MD1810491+9999MW1711REMSYN078AAXX  16001 01001 11430 80908 10003 21006 39949 49961 58049 69921 77176 887//;
0101010010999992009011601004+70933-008667FM-12+0009ENJA V0200901N009019999999N9999999N1+00021-00051099411ADDMA1999999099291MD1810551+9999REMSYN060AAXX  16011 01001 46/// /0909 10002 21005 39929 49941 58055;
0120010010999992009011602004+70933-008667FM-12+0009ENJA V0200801N012019999999N9999999N1+00021-00041099171ADDMA1999999099051MD1810642+9999REMSYN060AAXX  16021 01001 46/// /0812 10002 21004 39905 49917 58064;EQDQ01+000642APC3  
0120010010999992009011603004+70933-008667FM-12+0009ENJA V0200801N012019999999N9999999N1+00011-00051098941ADDMA1999999098821MD1810672+9999REMSYN060AAXX  16031 01001 46/// /0812 10001 21005 39882 49894 58067;EQDQ01+000672APC3  
0101010010999992009011604004+70933-008667FM-12+0009ENJA V02099999999999999999N9999999N1+00011-00051098731ADDMA1999999098611MD1810681+9999REMSYN060AAXX  16041 01001 46/// ///// 10001 21005 39861 49873 58068;
0101010010999992009011605004+70933-008667FM-12+0009ENJA V0200801N012019999999N9999999N1+00021-00031098561ADDMA1999999098441MD1810601+9999REMSYN060AAXX  16051 01001 46/// /0812 10002 21003 39844 49856 58060;
0253010010999992009011606004+70933-008667FM-12+0009ENJA V0200801N010010042019N0035001N1+00041-00011098431ADDAA112002091AA224002891AJ199991999999999AY171061AY261061GF108991081071004501999999IA1289MA1999999098311MD1610501+9999MW1611REMSYN100AAXX  16061 01001 11435 80810 10004 21001 39831 49843 56050 60022 76176 887// 333 44999 70027 91118;EQDQ01  09962SNDP  
0101010010999992009011607004+70933-008667FM-12+0009ENJA V0200801N009019999999N9999999N1+00031-00031098321ADDMA1999999098201MD1810411+9999REMSYN060AAXX  16071 01001 46/// /0809 10003 21003 39820 49832 58041;
0101010010999992009011608004+70933-008667FM-12+0009ENJA V0200701N009019999999N9999999N1+00051-00011098181ADDMA1999999098071MD1810371+9999REMSYN060AAXX  16081 01001 46/// /0709 10005 21001 39807 49818 58037;
0161010010999992009011609004+70933-008667FM-12+0009ENJA V0200801N008010042019N0040001N1+00121+00061098061ADDAY161031AY221031GF108991081071004501999999MA1999999097951MD1810361+9999MW1611REMSYN072AAXX  16091 01001 41440 80808 10012 20006 39795 49806 58036 76162 887//;
0101010010999992009011610004+70933-008667FM-12+0009ENJA V0200801N007019999999N9999999N1+00161+00101097961ADDMA1999999097851MD1710351+9999REMSYN060AAXX  16101 01001 46/// /0807 10016 20010 39785 49796 57035;
0101010010999992009011611004+70933-008667FM-12+0009ENJA V0200701N005019999999N9999999N1+00181+00121097861ADDMA1999999097751MD1710321+9999REMSYN060AAXX  16111 01001 46/// /0705 10018 20012 39775 49786 57032;
0208010010999992009011612004+70933-008667FM-12+0009ENJA V0200701N007010021019N0025001N1+00211+00151097751ADDAA106004191AY161061AY221061GF108991081071002501999999MA1999999097641MD1710311+9999MW1611SA1-0039REMSYN100AAXX  16121 01001 11325 80707 10021 20015 39764 49775 57031 60041 76162 887// 222// 01003 333 91112;
0101010010999992009011613004+70933-008667FM-12+0009ENJA V0200801N007019999999N9999999N1+00211+00151097681ADDMA1999999097571MD1710281+9999REMSYN060AAXX  16131 01001 46/// /0807 10021 20015 39757 49768 57028;
0101010010999992009011614004+70933-008667FM-12+0009ENJA V0200901N006019999999N9999999N1+00201+00141097601ADDMA1999999097491MD1710251+9999REMSYN060AAXX  16141 01001 46/// /0906 10020 20014 39749 49760 57025;
0161010010999992009011615004+70933-008667FM-12+0009ENJA V0200901N004010012019N0010001N1+00161+00101097571ADDAY161031AY251031GF108991081061001501999999MA1999999097461MD1710191+9999MW1511REMSYN072AAXX  16151 01001 41210 80904 10016 20010 39746 49757 57019 75165 886//;
0101010010999992009011616004+70933-008667FM-12+0009ENJA V0200901N002019999999N9999999N1+00161+00111097561ADDMA1999999097451MD1610121+9999REMSYN060AAXX  16161 01001 46/// /0902 10016 20011 39745 49756 56012;
0101010010999992009011617004+70933-008667FM-12+0009ENJA V0201001N002019999999N9999999N1+00181+00131097551ADDMA1999999097441MD1710061+9999REMSYN060AAXX  16171 01001 46/// /1002 10018 20013 39744 49755 57006;
0097010010999992009011618004+70933-008667FM-12+0009ENJA V02099999999999999999N9999999N1+99999+99999999999REMSYN088AAXX  16181 01001 11X09 90905 10015 20010 39741 49752 57004 60052 76365 333 10022 91109;
0101010010999992009011619004+70933-008667FM-12+0009ENJA V0201201N002019999999N9999999N1+00121+00071097561ADDMA1999999097451MD1510011+9999REMSYN060AAXX  16191 01001 46/// /1202 10012 20007 39745 49756 55001;
0101010010999992009011620004+70933-008667FM-12+0009ENJA V0201801N002019999999N9999999N1+00111+00061097621ADDMA1999999097511MD1310071+9999REMSYN060AAXX  16201 01001 46/// /1802 10011 20006 39751 49762 53007;
0101010010999992009011621004+70933-008667FM-12+0009ENJA V0201801N003019999999N9999999N1+00131+00081097661ADDMA1999999097551MD1210141+9999REMSYN060AAXX  16211 01001 46/// /1803 10013 20008 39755 49766 52014;
0101010010999992009011622004+70933-008667FM-12+0009ENJA V0202001N004019999999N9999999N1+00111+00061097751ADDMA1999999097641MD1310181+9999REMSYN060AAXX  16221 01001 46/// /2004 10011 20006 39764 49775 53018;
0101010010999992009011623004+70933-008667FM-12+0009ENJA V0201901N004019999999N9999999N1+00091+00041097831ADDMA1999999097721MD1310211+9999REMSYN060AAXX  16231 01001 46/// /1904 10009 20004 39772 49783 53021;
0091010010999992009011700004+70933-008667FM-12+0009ENJA V02099999999999999999N9999999N1+99999+99999999999REMSYN082AAXX  17001 01001 11X08 91805 10005 20000 39783 49794 53028 60021 76364 333 91106;
0101010010999992009011701004+70933-008667FM-12+0009ENJA V0201901N007019999999N9999999N1+00111+00061097981ADDMA1999999097871MD1110241+9999REMSYN060AAXX  17011 01001 46/// /1907 10011 20006 39787 49798 51024;
0101010010999992009011702004+70933-008667FM-12+0009ENJA V0201801N006019999999N9999999N1+00131+00071098051ADDMA1999999097941MD1110221+9999REMSYN060AAXX  17021 01001 46/// /1806 10013 20007 39794 49805 51022;
0101010010999992009011703004+70933-008667FM-12+0009ENJA V0201901N006019999999N9999999N1+00151+00091098101ADDMA1999999097991MD1310161+9999REMSYN060AAXX  17031 01001 46/// /1906 10015 20009 39799 49810 53016;
0101010010999992009011705004+70933-008667FM-12+0009ENJA V0201801N004019999999N9999999N1+00141+00081098111ADDMA1999999098001MD1110061+9999REMSYN060AAXX  17051 01001 46/// /1804 10014 20008 39800 49811 51006;
0109010010999992009011706004+70933-008667FM-12+0009ENJA V02099999999999999999N9999999N1+99999+99999999999REMSYN100AAXX  17061 01001 11X09 91506 10014 20008 39803 49814 52004 60072 76364 333 20005 42999 70119 91111;
0101010010999992009011707004+70933-008667FM-12+0009ENJA V0202001N002019999999N9999999N1+00121+00061098201ADDMA1999999098091MD1310101+9999REMSYN060AAXX  17071 01001 46/// /2002 10012 20006 39809 49820 53010;
0101010010999992009011708004+70933-008667FM-12+0009ENJA V0201901N004019999999N9999999N1+00191+00131098271ADDMA1999999098161MD1310171+9999REMSYN060AAXX  17081 01001 46/// /1904 10019 20013 39816 49827 53017;
0075010010999992009011709004+70933-008667FM-12+0009ENJA V02099999999999999999N9999999N1+99999+99999999999REMSYN066AAXX  17091 01001 41X09 91906 10013 20007 39827 49838 53024 74564;
0101010010999992009011710004+70933-008667FM-12+0009ENJA V0201901N005019999999N9999999N1+00091+00041098491ADDMA1999999098371MD1310281+9999REMSYN060AAXX  17101 01001 46/// /1905 10009 20004 39837 49849 53028;
0101010010999992009011711004+70933-008667FM-12+0009ENJA V0201801N004019999999N9999999N1+00071+00021098581ADDMA1999999098461MD1310301+9999REMSYN060AAXX  17111 01001 46/// /1804 10007 20002 39846 49858 53030;
0103010010999992009011712004+70933-008667FM-12+0009ENJA V02099999999999999999N9999999N1+99999+99999999999REMSYN094AAXX  17121 01001 11X05 91204 10006 20002 39852 49864 52026 60051 75165 222// 00001 333 91107;
0101010010999992009011713004+70933-008667FM-12+0009ENJA V0201301N004019999999N9999999N1+00101+00051098701ADDMA1999999098581MD1210211+9999REMSYN060AAXX  17131 01001 46/// /1304 10010 20005 39858 49870 52021;
0101010010999992009011714004+70933-008667FM-12+0009ENJA V0201301N004019999999N9999999N1+00131+00081098711ADDMA1999999098591MD1110131+9999REMSYN060AAXX  17141 01001 46/// /1304 10013 20008 39859 49871 51013;
0161010010999992009011715004+70933-008667FM-12+0009ENJA V0201301N003010003019N0015001N1+00121+00071098721ADDAY151031AY241031GF108991081061000251999999MA1999999098601MD1110081+9999MW1101REMSYN072AAXX  17151 01001 41015 81303 10012 20007 39860 49872 51008 71054 886//;
0101010010999992009011716004+70933-008667FM-12+0009ENJA V0201301N004019999999N9999999N1+00101+00051098721ADDMA1999999098601MD1210021+9999REMSYN060AAXX  17161 01001 46/// /1304 10010 20005 39860 49872 52002;
0101010010999992009011717004+70933-008667FM-12+0009ENJA V0201301N003019999999N9999999N1+00081+00031098721ADDMA1999999098601MD1210011+9999REMSYN060AAXX  17171 01001 46/// /1303 10008 20003 39860 49872 52001;
0097010010999992009011718004+70933-008667FM-12+0009ENJA V02099999999999999999N9999999N1+99999+99999999999REMSYN088AAXX  17181 01001 11X05 90905 10010 20005 39858 49870 58002 60052 74554 333 10022 91107;
0101010010999992009011719004+70933-008667FM-12+0009ENJA V0200701N005019999999N9999999N1+00151+00101098621ADDMA1999999098511MD1810091+9999REMSYN060AAXX  17191 01001 46/// /0705 10015 20010 39851 49862 58009;
0101010010999992009011720004+70933-008667FM-12+0009ENJA V0200901N007019999999N9999999N1+00201+00141098571ADDMA1999999098461MD1810141+9999REMSYN060AAXX  17201 01001 46/// /0907 10020 20014 39846 49857 58014;
0101010010999992009011721004+70933-008667FM-12+0009ENJA V0200801N008019999999N9999999N1+00211+00141098471ADDMA1999999098361MD1810221+9999REMSYN060AAXX  17211 01001 46/// /0808 10021 20014 39836 49847 58022;
0101010010999992009011722004+70933-008667FM-12+0009ENJA V0200701N009019999999N9999999N1+00261+00181098341ADDMA1999999098231MD1810291+9999REMSYN060AAXX  17221 01001 46/// /0709 10026 20018 39823 49834 58029;
0101010010999992009011723004+70933-008667FM-12+0009ENJA V0200801N009019999999N9999999N1+00271+00191098211ADDMA1999999098101MD1810361+9999REMSYN060AAXX  17231 01001 46/// /0809 10027 20019 39810 49821 58036;
0188010010999992009011800004+70933-008667FM-12+0009ENJA V0200901N010010012019N0060001N1+00251+00171098181ADDAA106000891AY161061AY241061GF108991081061001501999999MA1999999098071MD1610291+9999MW1211REMSYN088AAXX  18001 01001 11256 80910 10025 20017 39807 49818 56029 69971 72164 886// 333 91115;
0101010010999992009011801004+70933-008667FM-12+0009ENJA V0200801N010019999999N9999999N1+00281+00201098091ADDMA1999999097981MD1610251+9999REMSYN060AAXX  18011 01001 46/// /0810 10028 20020 39798 49809 56025;
0101010010999992009011802004+70933-008667FM-12+0009ENJA V0200901N009019999999N9999999N1+00231+00151098031ADDMA1999999097921MD1810181+9999REMSYN060AAXX  18021 01001 46/// /0909 10023 20015 39792 49803 58018;
0101010010999992009011803004+70933-008667FM-12+0009ENJA V0201101N006019999999N9999999N1+00221+00151098021ADDMA1999999097911MD1610151+9999REMSYN060AAXX  18031 01001 46/// /1106 10022 20015 39791 49802 56015;
0101010010999992009011805004+70933-008667FM-12+0009ENJA V0201601N006019999999N9999999N1+00181+00121098081ADDMA1999999097971MD1310061+9999REMSYN060AAXX  18051 01001 46/// /1606 10018 20012 39797 49808 53006;
0109010010999992009011806004+70933-008667FM-12+0009ENJA V02099999999999999999N9999999N1+99999+99999999999REMSYN100AAXX  18061 01001 11X06 92003 10015 20009 39806 49817 53015 60022 74564 333 20009 42999 70069 91114;
0101010010999992009011807004+70933-008667FM-12+0009ENJA V0201801N005019999999N9999999N1+00141+00061098241ADDMA1999999098131MD1310211+9999REMSYN060AAXX  18071 01001 46/// /1805 10014 20006 39813 49824 53021;
0101010010999992009011808004+70933-008667FM-12+0009ENJA V0201801N003019999999N9999999N1+00131+00051098311ADDMA1999999098201MD1310231+9999REMSYN060AAXX  18081 01001 46/// /1803 10013 20005 39820 49831 53023;
0075010010999992009011809004+70933-008667FM-12+0009ENJA V02099999999999999999N9999999N1+99999+99999999999REMSYN066AAXX  18091 01001 41X08 91902 10012 20004 39824 49835 52018 74544;
0101010010999992009011810004+70933-008667FM-12+0009ENJA V0200601N001019999999N9999999N1+00121+00041098391ADDMA1999999098281MD1210141+9999REMSYN060AAXX  18101 01001 46/// /0601 10012 20004 39828 49839 52014;
0101010010999992009011811004+70933-008667FM-12+0009ENJA V0200901N004019999999N9999999N1+00161+00071098381ADDMA1999999098271MD1010081+9999REMSYN060AAXX  18111 01001 46/// /0904 10016 20007 39827 49838 50008;
0227010010999992009011812004+70933-008667FM-12+0009ENJA V0201001N005010012019N0030001N1+00201+00121098341ADDAA106000091AY141061AY221061GF108991081061001501999999MA1999999098231MD1810021+9999MW1401SA1+0049REMSYN100AAXX  18121 01001 11230 81005 10020 20012 39823 49834 58002 60001 74042 886// 222// 00004 333 91107;EQDQ01  00002PRCP06
0101010010999992009011813004+70933-008667FM-12+0009ENJA V0200901N006019999999N9999999N1+00231+00141098261ADDMA1999999098151MD1810121+9999REMSYN060AAXX  18131 01001 46/// /0906 10023 20014 39815 49826 58012;
0101010010999992009011814004+70933-008667FM-12+0009ENJA V0201001N006019999999N9999999N1+00231+00151098231ADDMA1999999098121MD1710151+9999REMSYN060AAXX  18141 01001 46/// /1006 10023 20015 39812 49823 57015;
0161010010999992009011815004+70933-008667FM-12+0009ENJA V0200901N007010012019N0030001N1+00231+00151098201ADDAY141031AY221031GF108991051061001501071999MA1999999098091MD1610131+9999MW1401REMSYN072AAXX  18151 01001 41230 80907 10023 20015 39809 49820 56013 74042 8567/;
0101010010999992009011816004+70933-008667FM-12+0009ENJA V0200901N007019999999N9999999N1+00251+00181098191ADDMA1999999098081MD1710071+9999REMSYN060AAXX  18161 01001 46/// /0907 10025 20018 39808 49819 57007;
0101010010999992009011817004+70933-008667FM-12+0009ENJA V0200801N007019999999N9999999N1+00251+00171098161ADDMA1999999098051MD1710071+9999REMSYN060AAXX  18171 01001 46/// /0807 10025 20017 39805 49816 57007;
0226010010999992009011818004+70933-008667FM-12+0009ENJA V0200701N005010021019N0030001N1+00231+00141098151ADDAA112000091AY141061AY221061GF108991081061002501999999KA1120M+00271MA1999999098041MD1710051+9999MW1401REMSYN094AAXX  18181 01001 11330 80705 10023 20014 39804 49815 57005 60002 74042 886// 333 10027 91110;EQDQ01  00002PRCP12
0101010010999992009011819004+70933-008667FM-12+0009ENJA V0200701N006019999999N9999999N1+00221+00131098131ADDMA1999999098021MD1710061+9999REMSYN060AAXX  18191 01001 46/// /0706 10022 20013 39802 49813 57006;
0101010010999992009011820004+70933-008667FM-12+0009ENJA V0200701N008019999999N9999999N1+00241+00131098081ADDMA1999999097971MD1810081+9999REMSYN060AAXX  18201 01001 46/// /0708 10024 20013 39797 49808 58008;
0101010010999992009011821004+70933-008667FM-12+0009ENJA V0200701N009019999999N9999999N1+00261+00151098071ADDMA1999999097961MD1710081+9999REMSYN060AAXX  18211 01001 46/// /0709 10026 20015 39796 49807 57008;
0101010010999992009011822004+70933-008667FM-12+0009ENJA V0200701N009019999999N9999999N1+00261+00141098031ADDMA1999999097921MD1710101+9999REMSYN060AAXX  18221 01001 46/// /0709 10026 20014 39792 49803 57010;
0101010010999992009011823004+70933-008667FM-12+0009ENJA V0200701N010019999999N9999999N1+00281+00141097991ADDMA1999999097881MD1710091+9999REMSYN060AAXX  18231 01001 46/// /0710 10028 20014 39788 49799 57009;
0188010010999992009011900004+70933-008667FM-12+0009ENJA V0200701N009010021019N0050001N1+00271+00151097961ADDAA106000021AY161061AY241061GF108991081071002501999999MA1999999097851MD1710111+9999MW1611REMSYN088AAXX  19001 01001 11350 80709 10027 20015 39785 49796 57011 69911 76164 887// 333 91113;
0101010010999992009011901004+70933-008667FM-12+0009ENJA V0200701N010019999999N9999999N1+00261+00141097931ADDMA1999999097821MD1710101+9999REMSYN060AAXX  19011 01001 46/// /0710 10026 20014 39782 49793 57010;
0101010010999992009011902004+70933-008667FM-12+0009ENJA V0200701N007019999999N9999999N1+00211+00111097891ADDMA1999999097781MD1710101+9999REMSYN060AAXX  19021 01001 46/// /0707 10021 20011 39778 49789 57010;
0101010010999992009011903004+70933-008667FM-12+0009ENJA V0200701N008019999999N9999999N1+00191+00091097871ADDMA1999999097761MD1710091+9999REMSYN060AAXX  19031 01001 46/// /0708 10019 20009 39776 49787 57009;
0101010010999992009011904004+70933-008667FM-12+0009ENJA V0200901N008019999999N9999999N1+00161+00071097841ADDMA1999999097731MD1710081+9999REMSYN060AAXX  19041 01001 46/// /0908 10016 20007 39773 49784 57008;
0101010010999992009011905004+70933-008667FM-12+0009ENJA V0200901N005019999999N9999999N1+00141+00061097811ADDMA1999999097701MD1810081+9999REMSYN060AAXX  19051 01001 46/// /0905 10014 20006 39770 49781 58008;
0272010010999992009011906004+70933-008667FM-12+0009ENJA V0200801N005010060019N0050001N1+00181+00101097841ADDAA112003091AA224003091AJ199991999999999AY161061AY221061GF106991051081002501061001IA1259KA1120N+00121MA1999999097731MD1510031+9999MW1001REMSYN106AAXX  19061 01001 11350 60805 10018 20010 39773 49784 55003 60032 70062 85860 333 20012 41999 70031 91114;EQDQ01  09962SNDP  
0101010010999992009011907004+70933-008667FM-12+0009ENJA V0200801N005019999999N9999999N1+00211+00121097901ADDMA1999999097791MD1310061+9999REMSYN060AAXX  19071 01001 46/// /0805 10021 20012 39779 49790 53006;
