0207010010999992010010100004+70933-008667FM-12+0009ENJA V0202601N003010090019N0200001N1-00611-00811102721ADDAA106000091AY121061AY211061GF105991051081004501001001MA1999999102601MD1510001+9999MW1021REMSYN088AAXX  01001 01001 11470 52603 11061 21081 30260 40272 55000 60001 70221 85800 333 91105;EQDQ01  00002PRCP06
0207010010999992010010118004+70933-008667FM-12+0009ENJA V0202501N005012200019N0300001N1-00221-00501102961ADDAA112000091AY111061AY211061GF104991011041008001001021MA1999999102851MD1510001+9999MW1021REMSYN088AAXX  01181 01001 11580 42505 11022 21050 30285 40296 55000 60002 70211 81402 333 91111;EQDQ01  00002PRCP12
0207010010999992010010200004+70933-008667FM-12+0009ENJA V0202701N009012200019N0200001N1-00081-00301102941ADDAA106000091AY111061AY211061GF104991041051008001001001MA1999999102831MD1810021+9999MW1021REMSYN088AAXX  02001 01001 11570 42709 11008 21030 30283 40294 58002 60001 70211 84500 333 91115;EQDQ01  00002PRCP06
0161010010999992010010215004+70933-008667FM-12+0009ENJA V0200101N006012200019N0300001N1-00181-00941103581ADDAY101031AY201031GF102991001001999999001081MA1999999103461MD1110121+9999MW1021REMSYN072AAXX  02151 01001 41980 20106 11018 21094 30346 40358 51012 70200 80008;
0223010010999992010010300004+70933-008667FM-12+0009ENJA V0203401N008012200019N0300001N1-00381+99999103521ADDAA106000091AY101061AY201061GF101991999001999999031001MA1999999103391MD1810121+9999MW1021REMSYN088AAXX  03001 01001 11980 13408 11038 21010 30339 40352 58012 60001 70200 80030 333 91114;EQDQ01+000002SCOTLCQ02  00002PRCP06
0252010010999992010010303004+70933-008667FM-12+0009ENJA V0203401N006012200019N0250001N1-00511-01051103231ADDAA112000091AJ199991999999999AY101031AY201031GF103991011051008001061051IA1259MA1999999103111MD1610161+9999MW1031REMSYN094AAXX  03031 01001 11575 33406 11051 21105 30311 40323 56016 60002 70300 81565 333 41999 91112;EQDQ01  00002PRCP12Q02  09962SNDP  
0252010010999992010010306004+70933-008667FM-12+0009ENJA V0203401N006012200019N0250001N1-00511-01051103231ADDAA112000091AJ199991999999999AY101061AY201061GF103991011051008001061051IA1259MA1999999103111MD1610161+9999MW1031REMSYN094AAXX  03061 01001 11575 33406 11051 21105 30311 40323 56016 60002 70300 81565 333 41999 91112;EQDQ01  00002PRCP12Q02  09962SNDP  
0171010010999992010010309004+70933-008667FM-12+0009ENJA V0203501N007012200019N0250001N1-00571+99999999999ADDAY101031AY201031GF102991011051012501061001MA1999999103011MD1710101+9999MW1021REMSYN082AAXX  03091 01001 41675 23507 11057 21012 30301 46313 57010 70200 81560 333 91112;
0227010010999992010010312004+70933-008667FM-12+0009ENJA V0203501N007012200019N0250001N1-00581+99999103081ADDAA106000091AY101061AY201061GF103991011041008001061061MA1999999102961MD1810041+9999MW1021SA1-0069REMSYN100AAXX  03121 01001 11575 33507 11058 21011 30296 40308 58004 60001 70200 81466 222// 01006 333 91110;EQDQ01  00002PRCP06
0161010010999992010010315004+70933-008667FM-12+0009ENJA V0203601N010010240019N0200001N1-00571-01121103051ADDAY111031AY201031GF105991031081008001051061MA1999999102931MD1810021+9999MW1031REMSYN072AAXX  03151 01001 41570 53610 11057 21112 30293 40305 58002 70310 83856;
0226010010999992010010318004+70933-008667FM-12+0009ENJA V0203601N010010090019N0200001N1-00611-01101103061ADDAA112000091AY121061AY211061GF108991081081004501999999KA1120M-00501MA1999999102941MD1510011+9999MW1021REMSYN094AAXX  03181 01001 11470 83610 11061 21110 30294 40306 55001 60002 70221 888// 333 11050 91117;EQDQ01  00002PRCP12
0207010010999992010010400004+70933-008667FM-12+0009ENJA V0203601N011010120019N0250001N1-00751-01211103111ADDAA106000091AY121061AY221061GF106991061021012501001001MA1999999102991MD1210031+9999MW1021REMSYN088AAXX  04001 01001 11675 63611 11075 21121 30299 40311 52003 60001 70222 86200 333 91120;EQDQ01  00002PRCP06
0255010010999992010010406004+70933-008667FM-12+0009ENJA V0203601N011010150019N0030001N1-00561-00781103071ADDAA112000021AJ199991999999999AY181061AY231061GF105991051081012501001001IA1249KA1999N-00821MA1999999102951MD1810051+9999MW1851REMSYN100AAXX  04061 01001 11630 53611 11056 21078 30295 40307 58005 69902 78583 85800 333 21082 48999 91121;EQDQ01  09962SNDP  
0161010010999992010010409004+70933-008667FM-12+0009ENJA V0203601N010010150019N0250001N1-00431-01051103191ADDAY181031AY221031GF106991051081012501031001MA1999999103071MD1110131+9999MW1021REMSYN072AAXX  04091 01001 41675 63610 11043 21105 30307 40319 51013 70282 85830;
0208010010999992010010412004+70933-008667FM-12+0009ENJA V0200101N010010120019N0250001N1-00471-01111103251ADDAA106000021AY181061AY221061GF108991081081008001999999MA1999999103121MD1010061+9999MW1021SA1-0139REMSYN100AAXX  04121 01001 11575 80110 11047 21111 30312 40325 50006 69901 70282 888// 222// 01013 333 91122;
0101010010999992010010414004+70933-008667FM-12+0009ENJA V0203601N010019999999N9999999N1-00531-01091103271ADDMA1999999103151MD1310021+9999REMSYN060AAXX  04141 01001 46/// /3610 11053 21109 30315 40327 53002;
0161010010999992010010415004+70933-008667FM-12+0009ENJA V0200101N009010120019N0250001N1-00561-01171103301ADDAY121031AY221031GF106991061021012501001001MA1999999103181MD1310061+9999MW1011REMSYN072AAXX  04151 01001 41675 60109 11056 21117 30318 40330 53006 70122 86200;
0101010010999992010010416004+70933-008667FM-12+0009ENJA V0203601N009019999999N9999999N1-00581-01211103311ADDMA1999999103191MD1310051+9999REMSYN060AAXX  04161 01001 46/// /3609 11058 21121 30319 40331 53005;
0101010010999992010010417004+70933-008667FM-12+0009ENJA V0200101N008019999999N9999999N1-00611-01251103291ADDMA1999999103171MD1010021+9999REMSYN060AAXX  04171 01001 46/// /0108 11061 21125 30317 40329 50002;
0178010010999992010010418004+70933-008667FM-12+0009ENJA V0203401N007010120019N0100001N1-00591-01081103291ADDAA112000021AY181061AY221061GF108991081081008001999999MA1999999103171MD1710011+9999MW1851REMSYN078AAXX  04181 01001 11560 83407 11059 21108 30317 40329 57001 69912 78582 888//;
0101010010999992010010419004+70933-008667FM-12+0009ENJA V0203501N007019999999N9999999N1-00661-01011103301ADDMA1999999103181MD1410001+9999REMSYN060AAXX  04191 01001 46/// /3507 11066 21101 30318 40330 54000;
0101010010999992010010420004+70933-008667FM-12+0009ENJA V0203401N006019999999N9999999N1-00651-01241103301ADDMA1999999103181MD1210021+9999REMSYN060AAXX  04201 01001 46/// /3406 11065 21124 30318 40330 52002;
0101010010999992010010421004+70933-008667FM-12+0009ENJA V0203601N007019999999N9999999N1-00651-00951103291ADDMA1999999103171MD1410001+9999REMSYN060AAXX  04211 01001 46/// /3607 11065 21095 30317 40329 54000;
0101010010999992010010422004+70933-008667FM-12+0009ENJA V0203501N006019999999N9999999N1-00661-01181103281ADDMA1999999103161MD1710021+9999REMSYN060AAXX  04221 01001 46/// /3506 11066 21118 30316 40328 57002;
0101010010999992010010423004+70933-008667FM-12+0009ENJA V0203401N007019999999N9999999N1-00651-00931103251ADDMA1999999103131MD1810051+9999REMSYN060AAXX  04231 01001 46/// /3407 11065 21093 30313 40325 58005;
0188010010999992010010500004+70933-008667FM-12+0009ENJA V0203401N006010120019N0050001N1-00681-01061103221ADDAA106000021AY181061AY221061GF108991081081008001999999MA1999999103101MD1810071+9999MW1851REMSYN088AAXX  05001 01001 11550 83406 11068 21106 30310 40322 58007 69911 78582 888// 333 91113;
0101010010999992010010501004+70933-008667FM-12+0009ENJA V0203501N008019999999N9999999N1-00681-01171103201ADDMA1999999103081MD1510081+9999REMSYN060AAXX  05011 01001 46/// /3508 11068 21117 30308 40320 55008;
0101010010999992010010502004+70933-008667FM-12+0009ENJA V0203401N007019999999N9999999N1-00701-01121103181ADDMA1999999103061MD1710071+9999REMSYN060AAXX  05021 01001 46/// /3407 11070 21112 30306 40318 57007;
0101010010999992010010503004+70933-008667FM-12+0009ENJA V0203401N007019999999N9999999N1-00701-01171103151ADDMA1999999103031MD1710071+9999REMSYN060AAXX  05031 01001 46/// /3407 11070 21117 30303 40315 57007;
0101010010999992010010504004+70933-008667FM-12+0009ENJA V0200101N006019999999N9999999N1-00701-01121103101ADDMA1999999102981MD1810101+9999REMSYN060AAXX  05041 01001 46/// /0106 11070 21112 30298 40310 58010;
0101010010999992010010505004+70933-008667FM-12+0009ENJA V0203301N005019999999N9999999N1-00691-01171103061ADDMA1999999102941MD1710121+9999REMSYN060AAXX  05051 01001 46/// /3305 11069 21117 30294 40306 57012;
0272010010999992010010506004+70933-008667FM-12+0009ENJA V0203501N005010120019N0100001N1-00671-01131103021ADDAA112000021AA224000391AJ199991999999999AY181061AY221061GF107991071081008001999999IA1249KA1999N-00711MA1999999102901MD1710131+9999MW1851REMSYN106AAXX  05061 01001 11560 73505 11067 21113 30290 40302 57013 69912 78582 878// 333 21071 48999 70002 91111;EQDQ01  09962SNDP  
0101010010999992010010507004+70933-008667FM-12+0009ENJA V0203601N003019999999N9999999N1-00651-01121102991ADDMA1999999102871MD1710111+9999REMSYN060AAXX  05071 01001 46/// /3603 11065 21112 30287 40299 57011;
0101010010999992010010508004+70933-008667FM-12+0009ENJA V0203601N003019999999N9999999N1-00651-01181102951ADDMA1999999102831MD1710111+9999REMSYN060AAXX  05081 01001 46/// /3603 11065 21118 30283 40295 57011;
0101010010999992010010509004+70933-008667FM-12+0009ENJA V0203501N002019999999N9999999N1-00651-01181102931ADDMA1999999102811MD1710091+9999REMSYN060AAXX  05091 01001 46/// /3502 11065 21118 30281 40293 57009;
0101010010999992010010510004+70933-008667FM-12+0009ENJA V0203601N001019999999N9999999N1-00651-01181102881ADDMA1999999102761MD1710111+9999REMSYN060AAXX  05101 01001 46/// /3601 11065 21118 30276 40288 57011;
0101010010999992010010511004+70933-008667FM-12+0009ENJA V0203201N001019999999N9999999N1-00681-01161102831ADDMA1999999102711MD1810111+9999REMSYN060AAXX  05111 01001 46/// /3201 11068 21116 30271 40283 58011;
0200010010999992010010512004+70933-008667FM-12+0009ENJA V0202601N001010240019N0300001N1-00741-01201102771ADDAA106000021AY121061AY221061GF105991041081008001061011MA1999999102651MD1710151+9999MW1021REMSYN100AAXX  05121 01001 11580 52601 11074 21120 30265 40277 57015 60001 70222 84861 222// 01010 333 91109;
0101010010999992010010513004+70933-008667FM-12+0009ENJA V0202801N002019999999N9999999N1-00851-01251102701ADDMA1999999102581MD1810181+9999REMSYN060AAXX  05131 01001 46/// /2802 11085 21125 30258 40270 58018;
0101010010999992010010514004+70933-008667FM-12+0009ENJA V0202301N002019999999N9999999N1-00821-01191102651ADDMA1999999102531MD1810181+9999REMSYN060AAXX  05141 01001 46/// /2302 11082 21119 30253 40265 58018;
0161010010999992010010515004+70933-008667FM-12+0009ENJA V0202601N004012200019N0300001N1-00851-01241102621ADDAY121031AY211031GF104991031081008001061011MA1999999102501MD1610151+9999MW1021REMSYN072AAXX  05151 01001 41580 42604 11085 21124 30250 40262 56015 70221 83861;
0101010010999992010010516004+70933-008667FM-12+0009ENJA V0202501N002019999999N9999999N1-00771-01151102541ADDMA1999999102421MD1810161+9999REMSYN060AAXX  05161 01001 46/// /2502 11077 21115 30242 40254 58016;
0101010010999992010010517004+70933-008667FM-12+0009ENJA V0202701N002019999999N9999999N1-00691-01041102481ADDMA1999999102361MD1810171+9999REMSYN060AAXX  05171 01001 46/// /2702 11069 21104 30236 40248 58017;
0207010010999992010010518004+70933-008667FM-12+0009ENJA V0202601N002010120019N0200001N1-00651-01011102391ADDAA112000021AY181061AY221061GF107991071081008001999999KA1120M-00631MA1999999102271MD1810221+9999MW1851REMSYN094AAXX  05181 01001 11570 72602 11065 21101 30227 40239 58022 69902 78582 878// 333 11063 91105;
0101010010999992010010519004+70933-008667FM-12+0009ENJA V0202401N002019999999N9999999N1-00591-00961102331ADDMA1999999102211MD1810211+9999REMSYN060AAXX  05191 01001 46/// /2402 11059 21096 30221 40233 58021;
0101010010999992010010520004+70933-008667FM-12+0009ENJA V0202701N001019999999N9999999N1-00601-00941102241ADDMA1999999102121MD1810241+9999REMSYN060AAXX  05201 01001 46/// /2701 11060 21094 30212 40224 58024;
0101010010999992010010521004+70933-008667FM-12+0009ENJA V0202001N003019999999N9999999N1-00551-00941102171ADDMA1999999102051MD1810221+9999REMSYN060AAXX  05211 01001 46/// /2003 11055 21094 30205 40217 58022;
0101010010999992010010522004+70933-008667FM-12+0009ENJA V0202301N003019999999N9999999N1-00511-00921102121ADDMA1999999102001MD1710221+9999REMSYN060AAXX  05221 01001 46/// /2303 11051 21092 30200 40212 57022;
0101010010999992010010523004+70933-008667FM-12+0009ENJA V0202401N001019999999N9999999N1-00511-00891102021ADDMA1999999101901MD1810221+9999REMSYN060AAXX  05231 01001 46/// /2401 11051 21089 30190 40202 58022;
0188010010999992010010600004+70933-008667FM-12+0009ENJA V0202001N003010075019N0200001N1-00421-00791101911ADDAA106000021AY181061AY221061GF107991071051008001999999MA1999999101791MD1810261+9999MW1021REMSYN088AAXX  06001 01001 11570 72003 11042 21079 30179 40191 58026 69901 70282 875// 333 91107;
0101010010999992010010601004+70933-008667FM-12+0009ENJA V0201701N005019999999N9999999N1-00361-00711101801ADDMA1999999101681MD1810321+9999REMSYN060AAXX  06011 01001 46/// /1705 11036 21071 30168 40180 58032;
0101010010999992010010602004+70933-008667FM-12+0009ENJA V0201701N006019999999N9999999N1-00301-00611101701ADDMA1999999101581MD1710331+9999REMSYN060AAXX  06021 01001 46/// /1706 11030 21061 30158 40170 57033;
0101010010999992010010603004+70933-008667FM-12+0009ENJA V0201601N006019999999N9999999N1-00251-00541101611ADDMA1999999101491MD1710301+9999REMSYN060AAXX  06031 01001 46/// /1606 11025 21054 30149 40161 57030;
0101010010999992010010604004+70933-008667FM-12+0009ENJA V0202301N003019999999N9999999N1-00261-00591101541ADDMA1999999101421MD1510261+9999REMSYN060AAXX  06041 01001 46/// /2303 11026 21059 30142 40154 55026;
0101010010999992010010605004+70933-008667FM-12+0009ENJA V0202401N003019999999N9999999N1-00311-00651101461ADDMA1999999101341MD1610241+9999REMSYN060AAXX  06051 01001 46/// /2403 11031 21065 30134 40146 56024;
0272010010999992010010606004+70933-008667FM-12+0009ENJA V0202601N001010075019N0200001N1-00301-00611101391ADDAA112000021AA224000021AJ199991999999999AY121061AY221061GF108991051051008001071999IA1249KA1999N-00651MA1999999101271MD1610221+9999MW1021REMSYN106AAXX  06061 01001 11570 82601 11030 21061 30127 40139 56022 69902 70222 8557/ 333 21065 48999 70000 91108;EQDQ01  09962SNDP  
0101010010999992010010607004+70933-008667FM-12+0009ENJA V0202501N002019999999N9999999N1-00341-00631101321ADDMA1999999101201MD1710211+9999REMSYN060AAXX  06071 01001 46/// /2502 11034 21063 30120 40132 57021;
0101010010999992010010608004+70933-008667FM-12+0009ENJA V0202601N002019999999N9999999N1-00291-00551101271ADDMA1999999101151MD1710181+9999REMSYN060AAXX  06081 01001 46/// /2602 11029 21055 30115 40127 57018;
0161010010999992010010609004+70933-008667FM-12+0009ENJA V0202201N001010042019N0180001N1-00271-00521101251ADDAY121031AY221031GF108991081051004501999999MA1999999101131MD1610131+9999MW1021REMSYN072AAXX  06091 01001 41468 82201 11027 21052 30113 40125 56013 70222 885//;
0101010010999992010010610004+70933-008667FM-12+0009ENJA V0202301N002019999999N9999999N1-00261-00501101211ADDMA1999999101091MD1710111+9999REMSYN060AAXX  06101 01001 46/// /2302 11026 21050 30109 40121 57011;
0101010010999992010010611004+70933-008667FM-12+0009ENJA V0202301N002019999999N9999999N1-00261-00511101181ADDMA1999999101061MD1710091+9999REMSYN060AAXX  06111 01001 46/// /2302 11026 21051 30106 40118 57009;
0219010010999992010010612004+70933-008667FM-12+0009ENJA V0202401N001010075019N0180001N1-00211-00481101161ADDAA106000091AY121061AY221061GF107991071051008001999999MA1999999101041MD1610091+9999MW1021REMSYN100AAXX  06121 01001 11568 72401 11021 21048 30104 40116 56009 60001 70222 875// 222// 01002 333 91104;EQDQ01  00002PRCP06
0101010010999992010010613004+70933-008667FM-12+0009ENJA V0200401N001019999999N9999999N1-00231-00501101151ADDMA1999999101031MD1610061+9999REMSYN060AAXX  06131 01001 46/// /0401 11023 21050 30103 40115 56006;
0101010010999992010010614004+70933-008667FM-12+0009ENJA V0200701N001019999999N9999999N1-00201-00461101141ADDMA1999999101021MD1710041+9999REMSYN060AAXX  06141 01001 46/// /0701 11020 21046 30102 40114 57004;
0161010010999992010010615004+70933-008667FM-12+0009ENJA V0203401N001010075019N0180001N1-00181-00491101111ADDAY121031AY221031GF107991071051008001999999MA1999999100991MD1710051+9999MW1021REMSYN072AAXX  06151 01001 41568 73401 11018 21049 30099 40111 57005 70222 875//;
0101010010999992010010616004+70933-008667FM-12+0009ENJA V0203301N007019999999N9999999N1-00151-00411101111ADDMA1999999100991MD1710041+9999REMSYN060AAXX  06161 01001 46/// /3307 11015 21041 30099 40111 57004;
0101010010999992010010617004+70933-008667FM-12+0009ENJA V0203201N006019999999N9999999N1-00181-00361101101ADDMA1999999100981MD1710041+9999REMSYN060AAXX  06171 01001 46/// /3206 11018 21036 30098 40110 57004;
0207010010999992010010618004+70933-008667FM-12+0009ENJA V0203201N006010120019N0130001N1-00211-00381101131ADDAA112000021AY181061AY221061GF108991081081008001999999KA1120M-00141MA1999999101011MD1310021+9999MW1851REMSYN094AAXX  06181 01001 11563 83206 11021 21038 30101 40113 53002 60002 78582 888// 333 11014 91109;
0101010010999992010010619004+70933-008667FM-12+0009ENJA V0203301N007019999999N9999999N1-00201-00451101131ADDMA1999999101011MD1310021+9999REMSYN060AAXX  06191 01001 46/// /3307 11020 21045 30101 40113 53002;
0101010010999992010010620004+70933-008667FM-12+0009ENJA V0203201N007019999999N9999999N1-00221-00421101141ADDMA1999999101021MD1010041+9999REMSYN060AAXX  06201 01001 46/// /3207 11022 21042 30102 40114 50004;
0101010010999992010010621004+70933-008667FM-12+0009ENJA V0203201N008019999999N9999999N1-00261-00471101201ADDMA1999999101081MD1310071+9999REMSYN060AAXX  06211 01001 46/// /3208 11026 21047 30108 40120 53007;
0101010010999992010010622004+70933-008667FM-12+0009ENJA V0203201N008019999999N9999999N1-00281-00441101231ADDMA1999999101111MD1210091+9999REMSYN060AAXX  06221 01001 46/// /3208 11028 21044 30111 40123 52009;
0101010010999992010010623004+70933-008667FM-12+0009ENJA V0203101N007019999999N9999999N1-00271-00541101211ADDMA1999999101091MD1010071+9999REMSYN060AAXX  06231 01001 46/// /3107 11027 21054 30109 40121 50007;
0188010010999992010010700004+70933-008667FM-12+0009ENJA V0203201N006012200019N0200001N1-00251-00581101221ADDAA106000021AY181061AY211061GF102991011081012501061001MA1999999101101MD1310021+9999MW1011REMSYN088AAXX  07001 01001 11670 23206 11025 21058 30110 40122 53002 60001 70181 81860 333 91111;
0101010010999992010010701004+70933-008667FM-12+0009ENJA V0203401N005019999999N9999999N1-00231-00541101241ADDMA1999999101121MD1310011+9999REMSYN060AAXX  07011 01001 46/// /3405 11023 21054 30112 40124 53001;
0101010010999992010010702004+70933-008667FM-12+0009ENJA V0203601N005019999999N9999999N1-00231-00481101241ADDMA1999999101121MD1310031+9999REMSYN060AAXX  07021 01001 46/// /3605 11023 21048 30112 40124 53003;
0101010010999992010010703004+70933-008667FM-12+0009ENJA V0200101N009019999999N9999999N1-00261-00471101271ADDMA1999999101151MD1310061+9999REMSYN060AAXX  07031 01001 46/// /0109 11026 21047 30115 40127 53006;
0101010010999992010010704004+70933-008667FM-12+0009ENJA V0200101N008019999999N9999999N1-00291-00551101311ADDMA1999999101191MD1310081+9999REMSYN060AAXX  07041 01001 46/// /0108 11029 21055 30119 40131 53008;
0101010010999992010010705004+70933-008667FM-12+0009ENJA V0203601N008019999999N9999999N1-00331-00621101351ADDMA1999999101231MD1210111+9999REMSYN060AAXX  07051 01001 46/// /3608 11033 21062 30123 40135 52011;
0272010010999992010010706004+70933-008667FM-12+0009ENJA V0203601N009012200019N0200001N1-00381-00781101381ADDAA112002092AA224001592AJ199991999999999AY181061AY211061GF104991021081008001061081IA1259KA1999N-00381MA1999999101261MD1210111+9999MW1021REMSYN106AAXX  07061 01001 11570 43609 11038 21078 30126 40138 52011 60022 70281 82868 333 21038 41999 70015 91115;EQDQ01  09962SNDP  
0101010010999992010010708004+70933-008667FM-12+0009ENJA V0203601N008019999999N9999999N1-00461-00891101501ADDMA1999999101381MD1210151+9999REMSYN060AAXX  07081 01001 46/// /3608 11046 21089 30138 40150 52015;
0161010010999992010010709004+70933-008667FM-12+0009ENJA V0203501N007012200019N0200001N1-00471-00861101581ADDAY111031AY201031GF102991011051012501061001MA1999999101461MD1310191+9999MW1021REMSYN072AAXX  07091 01001 41670 23507 11047 21086 30146 40158 53019 70210 81560;
0101010010999992010010710004+70933-008667FM-12+0009ENJA V0203501N006019999999N9999999N1-00501-00901101611ADDMA1999999101491MD1210181+9999REMSYN060AAXX  07101 01001 46/// /3506 11050 21090 30149 40161 52018;
0101010010999992010010711004+70933-008667FM-12+0009ENJA V0203501N005019999999N9999999N1-00541-00981101641ADDMA1999999101521MD1110141+9999REMSYN060AAXX  07111 01001 46/// /3505 11054 21098 30152 40164 51014;
0227010010999992010010712004+70933-008667FM-12+0009ENJA V0203401N008012200019N0200001N1-00551-00951101591ADDAA106000091AY101061AY201061GF103991021051008001061051MA1999999101471MD1010011+9999MW1021SA1-0059REMSYN100AAXX  07121 01001 11570 33408 11055 21095 30147 40159 50001 60001 70200 82565 222// 01005 333 91114;EQDQ01  00002PRCP06
0101010010999992010010713004+70933-008667FM-12+0009ENJA V0203301N005019999999N9999999N1-00591-01001101631ADDMA1999999101511MD1310021+9999REMSYN060AAXX  07131 01001 46/// /3305 11059 21100 30151 40163 53002;
0101010010999992010010714004+70933-008667FM-12+0009ENJA V0203101N004019999999N9999999N1-00621-01011101691ADDMA1999999101571MD1310051+9999REMSYN060AAXX  07141 01001 46/// /3104 11062 21101 30157 40169 53005;
0101010010999992010010715004+70933-008667FM-12+0009ENJA V0203301N004019999999N9999999N1-00651-01011101681ADDMA1999999101561MD1010091+9999REMSYN060AAXX  07151 01001 46/// /3304 11065 21101 30156 40168 50009;
0101010010999992010010716004+70933-008667FM-12+0009ENJA V0203101N004019999999N9999999N1-00661-01011101701ADDMA1999999101581MD1110071+9999REMSYN060AAXX  07161 01001 46/// /3104 11066 21101 30158 40170 51007;
0101010010999992010010717004+70933-008667FM-12+0009ENJA V0202501N002019999999N9999999N1-00641-00991101721ADDMA1999999101601MD1310031+9999REMSYN060AAXX  07171 01001 46/// /2502 11064 21099 30160 40172 53003;
0226010010999992010010718004+70933-008667FM-12+0009ENJA V0202601N001010240019N0300001N1-00621-00961101711ADDAA112000091AY111061AY201061GF105991041081012501031001KA1120M-00381MA1999999101591MD1210031+9999MW1031REMSYN094AAXX  07181 01001 11680 52601 11062 21096 30159 40171 52003 60002 70310 84830 333 11038 91111;EQDQ01  00002PRCP12
0101010010999992010010719004+70933-008667FM-12+0009ENJA V0201401N004019999999N9999999N1-00471-00831101711ADDMA1999999101591MD1410001+9999REMSYN060AAXX  07191 01001 46/// /1404 11047 21083 30159 40171 54001;
0101010010999992010010720004+70933-008667FM-12+0009ENJA V0201401N004019999999N9999999N1-00451-00831101701ADDMA1999999101581MD1710021+9999REMSYN060AAXX  07201 01001 46/// /1404 11045 21083 30158 40170 57002;
0101010010999992010010721004+70933-008667FM-12+0009ENJA V0201301N005019999999N9999999N1-00441-00791101661ADDMA1999999101541MD1810051+9999REMSYN060AAXX  07211 01001 46/// /1305 11044 21079 30154 40166 58005;
0101010010999992010010722004+70933-008667FM-12+0009ENJA V0201101N006019999999N9999999N1-00391-00711101611ADDMA1999999101491MD1810101+9999REMSYN060AAXX  07221 01001 46/// /1106 11039 21071 30149 40161 58010;
0101010010999992010010723004+70933-008667FM-12+0009ENJA V0201001N007019999999N9999999N1-00361-00651101551ADDMA1999999101431MD1810151+9999REMSYN060AAXX  07231 01001 46/// /1007 11036 21065 30143 40155 58015;
0188010010999992010010800004+70933-008667FM-12+0009ENJA V0201201N009010120019N0100001N1-00231-00541101441ADDAA106000021AY121061AY211061GF108991081081008001999999MA1999999101321MD1810211+9999MW1851REMSYN088AAXX  08001 01001 11560 81209 11023 21054 30132 40144 58021 69901 78521 888// 333 91111;
0101010010999992010010801004+70933-008667FM-12+0009ENJA V0201701N007019999999N9999999N1-00151-00551101381ADDMA1999999101261MD1810231+9999REMSYN060AAXX  08011 01001 46/// /1707 11015 21055 30126 40138 58023;
0101010010999992010010802004+70933-008667FM-12+0009ENJA V0201901N009019999999N9999999N1-00101-00531101311ADDMA1999999101191MD1610241+9999REMSYN060AAXX  08021 01001 46/// /1909 11010 21053 30119 40131 56024;
0101010010999992010010803004+70933-008667FM-12+0009ENJA V0201801N009019999999N9999999N1-00081-00391101251ADDMA1999999101131MD1710191+9999REMSYN060AAXX  08031 01001 46/// /1809 11008 21039 30113 40125 57019;
0101010010999992010010804004+70933-008667FM-12+0009ENJA V0201901N009019999999N9999999N1-00081-00221101161ADDMA1999999101041MD1810211+9999REMSYN060AAXX  08041 01001 46/// /1909 11008 21022 30104 40116 58021;
0101010010999992010010805004+70933-008667FM-12+0009ENJA V0201901N011019999999N9999999N1-00051-00241101071ADDMA1999999100951MD1810241+9999REMSYN060AAXX  08051 01001 46/// /1911 11005 21024 30095 40107 58024;
0272010010999992010010806004+70933-008667FM-12+0009ENJA V0201901N009010090019N0100001N1-00021-00221100991ADDAA112000021AA224000021AJ199991999999999AY181061AY221061GF108991081081004501999999IA1299KA1999N-00621MA1999999100871MD1810261+9999MW1851REMSYN106AAXX  08061 01001 11460 81909 11002 21022 30087 40099 58026 69902 78582 888// 333 21062 49999 70000 91113;EQDQ01  09962SNDP  
0101010010999992010010807004+70933-008667FM-12+0009ENJA V0201801N010019999999N9999999N1-00031-00131100911ADDMA1999999100791MD1710251+9999REMSYN060AAXX  08071 01001 46/// /1810 11003 21013 30079 40091 57025;
0101010010999992010010808004+70933-008667FM-12+0009ENJA V0202001N007019999999N9999999N1-00071-00151100871ADDMA1999999100751MD1610201+9999REMSYN060AAXX  08081 01001 46/// /2007 11007 21015 30075 40087 56020;
0161010010999992010010809004+70933-008667FM-12+0009ENJA V0202501N006010090019N0200001N1-00081-00331100881ADDAY181031AY221031GF108991081081004501999999MA1999999100761MD1510101+9999MW1021REMSYN072AAXX  08091 01001 41470 82506 11008 21033 30076 40088 55010 70282 888//;
0101010010999992010010810004+70933-008667FM-12+0009ENJA V0202001N004019999999N9999999N1-00121-00341100881ADDMA1999999100761MD1510031+9999REMSYN060AAXX  08101 01001 46/// /2004 11012 21034 30076 40088 55003;
0101010010999992010010811004+70933-008667FM-12+0009ENJA V0202601N004019999999N9999999N1-00081-00301100851ADDMA1999999100731MD1810021+9999REMSYN060AAXX  08111 01001 46/// /2604 11008 21030 30073 40085 58002;
0208010010999992010010812004+70933-008667FM-12+0009ENJA V0202801N006010090019N0100001N1-00151-00341100931ADDAA106000021AY181061AY221061GF107991071081004501999999MA1999999100811MD1310051+9999MW1021SA1-0069REMSYN100AAXX  08121 01001 11460 72806 11015 21034 30081 40093 53005 69911 70282 878// 222// 01006 333 91115;
0101010010999992010010813004+70933-008667FM-12+0009ENJA V0202701N004019999999N9999999N1-00201-00391101011ADDMA1999999100891MD1310131+9999REMSYN060AAXX  08131 01001 46/// /2704 11020 21039 30089 40101 53013;
0101010010999992010010814004+70933-008667FM-12+0009ENJA V0202301N005019999999N9999999N1-00281-00461101051ADDMA1999999100931MD1210201+9999REMSYN060AAXX  08141 01001 46/// /2305 11028 21046 30093 40105 52020;
0161010010999992010010815004+70933-008667FM-12+0009ENJA V0202401N006010090019N0100001N1-00351-00601101071ADDAY121031AY221031GF106991061081004501001001MA1999999100951MD1110121+9999MW1021REMSYN072AAXX  08151 01001 41460 62406 11035 21060 30095 40107 51012 70222 86800;
0101010010999992010010816004+70933-008667FM-12+0009ENJA V0202201N006019999999N9999999N1-00411-00651101081ADDMA1999999100961MD1210061+9999REMSYN060AAXX  08161 01001 46/// /2206 11041 21065 30096 40108 52006;
0101010010999992010010817004+70933-008667FM-12+0009ENJA V0202301N005019999999N9999999N1-00451-00701101081ADDMA1999999100961MD1210031+9999REMSYN060AAXX  08171 01001 46/// /2305 11045 21070 30096 40108 52003;
0207010010999992010010818004+70933-008667FM-12+0009ENJA V0202401N004010090019N0100001N1-00421-00691101041ADDAA112000391AY181061AY221061GF108991081081004501999999KA1120M+00011MA1999999100921MD1810021+9999MW1021REMSYN094AAXX  08181 01001 11460 82404 11042 21069 30092 40104 58002 69932 70282 888// 333 10001 91113;
0101010010999992010010819004+70933-008667FM-12+0009ENJA V0202301N005019999999N9999999N1-00391-00651101061ADDMA1999999100941MD1510021+9999REMSYN060AAXX  08191 01001 46/// /2305 11039 21065 30094 40106 55002;
0101010010999992010010820004+70933-008667FM-12+0009ENJA V0202501N004019999999N9999999N1-00351-00581101061ADDMA1999999100941MD1510021+9999REMSYN060AAXX  08201 01001 46/// /2504 11035 21058 30094 40106 55002;
0101010010999992010010821004+70933-008667FM-12+0009ENJA V0202401N003019999999N9999999N1-00321-00541101021ADDMA1999999100901MD1810021+9999REMSYN060AAXX  08211 01001 46/// /2403 11032 21054 30090 40102 58002;
0101010010999992010010822004+70933-008667FM-12+0009ENJA V0202801N001019999999N9999999N1-00301-00451101001ADDMA1999999100881MD1810051+9999REMSYN060AAXX  08221 01001 46/// /2801 11030 21045 30088 40100 58005;
0101010010999992010010823004+70933-008667FM-12+0009ENJA V0202401N002019999999N9999999N1-00171-00301100961ADDMA1999999100841MD1810101+9999REMSYN060AAXX  08231 01001 46/// /2402 11017 21030 30084 40096 58010;
0207010010999992010010900004+70933-008667FM-12+0009ENJA V0202401N009010240019N0100001N1+00161-00101100871ADDAA106000091AY121061AY221061GF105991041081004501061001MA1999999100751MD1810141+9999MW1021REMSYN088AAXX  09001 01001 11460 52409 10016 21010 30075 40087 58014 60001 70222 84860 333 91117;EQDQ01  00002PRCP06
0101010010999992010010901004+70933-008667FM-12+0009ENJA V0202101N011019999999N9999999N1+00231+00031100841ADDMA1999999100721MD1810171+9999REMSYN060AAXX  09011 01001 46/// /2111 10023 20003 30072 40084 58017;
0101010010999992010010902004+70933-008667FM-12+0009ENJA V0202201N010019999999N9999999N1+00291+00061100831ADDMA1999999100711MD1610131+9999REMSYN060AAXX  09021 01001 46/// /2210 10029 20006 30071 40083 56013;
0101010010999992010010903004+70933-008667FM-12+0009ENJA V0202001N010019999999N9999999N1+00211-00011100801ADDMA1999999100681MD1710081+9999REMSYN060AAXX  09031 01001 46/// /2010 10021 21001 30068 40080 57008;
0101010010999992010010904004+70933-008667FM-12+0009ENJA V0202001N008019999999N9999999N1+00191+00021100771ADDMA1999999100651MD1810071+9999REMSYN060AAXX  09041 01001 46/// /2008 10019 20002 30065 40077 58007;
0101010010999992010010905004+70933-008667FM-12+0009ENJA V0202101N009019999999N9999999N1+00231+00031100721ADDMA1999999100601MD1810111+9999REMSYN060AAXX  09051 01001 46/// /2109 10023 20003 30060 40072 58011;
0288010010999992010010906004+70933-008667FM-12+0009ENJA V0202201N011010042019N0100001N1+00301+00021100681ADDAA112000091AA224000391AJ199991999999999AY121061AY221061GF107991061051004501071001IA1289KA1999N-00421MA1999999100561MD1710121+9999MW1021REMSYN106AAXX  09061 01001 11460 72211 10030 20002 30056 40068 57012 60002 70222 86570 333 21042 44999 70003 91117;EQDQ01  00002PRCP12Q02  09962SNDP  
0101010010999992010010907004+70933-008667FM-12+0009ENJA V0202101N010019999999N9999999N1+00271+00011100641ADDMA1999999100521MD1710121+9999REMSYN060AAXX  09071 01001 46/// /2110 10027 20001 30052 40064 57012;
0101010010999992010010908004+70933-008667FM-12+0009ENJA V0202101N011019999999N9999999N1+00301+00031100601ADDMA1999999100481MD1710111+9999REMSYN060AAXX  09081 01001 46/// /2111 10030 20003 30048 40060 57011;
0161010010999992010010909004+70933-008667FM-12+0009ENJA V0202301N011010021019N0050001N1+00311+00061100591ADDAY161031AY221031GF108991081051002501999999MA1999999100471MD1710081+9999MW1601REMSYN072AAXX  09091 01001 41350 82311 10031 20006 30047 40059 57008 76062 885//;
0101010010999992010010910004+70933-008667FM-12+0009ENJA V0202301N010019999999N9999999N1+00341+00091100551ADDMA1999999100431MD1710091+9999REMSYN060AAXX  09101 01001 46/// /2310 10034 20009 30043 40055 57009;
0101010010999992010010911004+70933-008667FM-12+0009ENJA V0202201N011019999999N9999999N1+00351+00131100511ADDMA1999999100391MD1810101+9999REMSYN060AAXX  09111 01001 46/// /2211 10035 20013 30039 40051 58010;
0208010010999992010010912004+70933-008667FM-12+0009ENJA V0202201N014010042019N0030001N1+00371+00141100451ADDAA106003091AY161061AY221061GF108991081061004501999999MA1999999100331MD1710131+9999MW1611SA1-0049REMSYN100AAXX  09121 01001 11430 82214 10037 20014 30033 40045 57013 60031 76162 886// 222// 01004 333 91121;
0101010010999992010010913004+70933-008667FM-12+0009ENJA V0202201N013019999999N9999999N1+00361+00151100431ADDMA1999999100311MD1610121+9999REMSYN060AAXX  09131 01001 46/// /2213 10036 20015 30031 40043 56012;
0101010010999992010010914004+70933-008667FM-12+0009ENJA V0202401N011019999999N9999999N1+00401+00201100391ADDMA1999999100271MD1710121+9999REMSYN060AAXX  09141 01001 46/// /2411 10040 20020 30027 40039 57012;
0161010010999992010010915004+70933-008667FM-12+0009ENJA V0202301N012010021019N0035001N1+00391+00221100371ADDAY161031AY221031GF108991081061002501999999MA1999999100251MD1710091+9999MW1611REMSYN072AAXX  09151 01001 41335 82312 10039 20022 30025 40037 57009 76162 886//;
0101010010999992010010916004+70933-008667FM-12+0009ENJA V0202401N011019999999N9999999N1+00401+00231100341ADDMA1999999100221MD1610091+9999REMSYN060AAXX  09161 01001 46/// /2411 10040 20023 30022 40034 56009;
0101010010999992010010917004+70933-008667FM-12+0009ENJA V0202401N011019999999N9999999N1+00441+00261100321ADDMA1999999100201MD1710061+9999REMSYN060AAXX  09171 01001 46/// /2411 10044 20026 30020 40032 57006;
0207010010999992010010918004+70933-008667FM-12+0009ENJA V0202501N013010075019N0050001N1+00441+00241100261ADDAA112006191AY161061AY221061GF108991081051008001999999KA1120M+00451MA1999999100141MD1810121+9999MW1611REMSYN094AAXX  09181 01001 11550 82513 10044 20024 30014 40026 58012 60062 76162 885// 333 10045 91119;
0101010010999992010010919004+70933-008667FM-12+0009ENJA V0202501N015019999999N9999999N1+00371+00161100251ADDMA1999999100131MD1510091+9999REMSYN060AAXX  09191 01001 46/// /2515 10037 20016 30013 40025 55009;
0101010010999992010010920004+70933-008667FM-12+0009ENJA V0202501N012019999999N9999999N1+00331+00131100291ADDMA1999999100171MD1510021+9999REMSYN060AAXX  09201 01001 46/// /2512 10033 20013 30017 40029 55002;
0101010010999992010010921004+70933-008667FM-12+0009ENJA V0202501N013019999999N9999999N1+00251+00121100351ADDMA1999999100231MD1310111+9999REMSYN060AAXX  09211 01001 46/// /2513 10025 20012 30023 40035 53011;
0101010010999992010010922004+70933-008667FM-12+0009ENJA V0202501N013019999999N9999999N1+00191+00001100411ADDMA1999999100291MD1310161+9999REMSYN060AAXX  09221 01001 46/// /2513 10019 21000 30029 40041 53016;
0101010010999992010010923004+70933-008667FM-12+0009ENJA V0202501N015019999999N9999999N1+00091-00131100471ADDMA1999999100351MD1310171+9999REMSYN060AAXX  09231 01001 46/// /2515 10009 21013 30035 40047 53017;
0188010010999992010011000004+70933-008667FM-12+0009ENJA V0202501N012012200019N0150001N1-00011-00211100531ADDAA106002091AY181061AY261061GF103991031031004501001001MA1999999100411MD1310171+9999MW1011REMSYN088AAXX  10001 01001 11465 32512 11001 21021 30041 40053 53017 60021 70186 83300 333 91123;
0101010010999992010011001004+70933-008667FM-12+0009ENJA V0202701N013019999999N9999999N1-00021-00221100611ADDMA1999999100491MD1310211+9999REMSYN060AAXX  10011 01001 46/// /2713 11002 21022 30049 40061 53021;
0101010010999992010011002004+70933-008667FM-12+0009ENJA V0202701N014019999999N9999999N1-00081-00261100731ADDMA1999999100611MD1310261+9999REMSYN060AAXX  10021 01001 46/// /2714 11008 21026 30061 40073 53026;
0101010010999992010011003004+70933-008667FM-12+0009ENJA V02099999999999999999N9999999N1-00141-00291100781ADDMA1999999100661MD1310251+9999REMSYN060AAXX  10031 01001 46/// ///// 11014 21029 30066 40078 53025;
0101010010999992010011004004+70933-008667FM-12+0009ENJA V02099999999999999999N9999999N1-00171-00381100751ADDMA1999999100631MD1010141+9999REMSYN060AAXX  10041 01001 46/// ///// 11017 21038 30063 40075 50014;
0101010010999992010011005004+70933-008667FM-12+0009ENJA V0202801N017019999999N9999999N1-00251-00461100801ADDMA1999999100681MD1010081+9999REMSYN060AAXX  10051 01001 46/// /2817 11025 21046 30068 40080 50008;
0266010010999992010011006004+70933-008667FM-12+0009ENJA V02099999999992200019N0100001N1-00291-00471100961ADDAA112002091AA224007991AJ199991999999999AY111061AY201061GF103991031041004501001001IA1249KA1999N-00301MA1999999100841MD1310181+9999MW1021REMSYN100AAXX  10061 01001 11460 3//// 11029 21047 30084 40096 53018 60022 70210 83400 333 21030 48999 70080;EQDQ01  09962SNDP  
0101010010999992010011007004+70933-008667FM-12+0009ENJA V02099999999999999999N9999999N1-00281-00501101041ADDMA1999999100921MD1310301+9999REMSYN060AAXX  10071 01001 46/// ///// 11028 21050 30092 40104 53030;
0101010010999992010011008004+70933-008667FM-12+0009ENJA V0202701N011019999999N9999999N1-00211-00391101271ADDMA1999999101151MD1310471+9999REMSYN060AAXX  10081 01001 46/// /2711 11021 21039 30115 40127 53047;
0161010010999992010011009004+70933-008667FM-12+0009ENJA V0202901N004012200019N0030001N1-00131-00291101311ADDAY151031AY211031GF104991041061004501001001MA1999999101191MD1110361+9999MW1571REMSYN072AAXX  10091 01001 41430 42904 11013 21029 30119 40131 51036 75751 84600;
0101010010999992010011010004+70933-008667FM-12+0009ENJA V0202801N008019999999N9999999N1-00021-00191101381ADDMA1999999101261MD1110341+9999REMSYN060AAXX  10101 01001 46/// /2808 11002 21019 30126 40138 51034;
0101010010999992010011011004+70933-008667FM-12+0009ENJA V0202701N014019999999N9999999N1-00021-00201101461ADDMA1999999101341MD1310191+9999REMSYN060AAXX  10111 01001 46/// /2714 11002 21020 30134 40146 53019;
0208010010999992010011012004+70933-008667FM-12+0009ENJA V0203001N010010240019N0020001N1-00211-00361101641ADDAA106000591AY151061AY211061GF107991041061002501011001MA1999999101521MD1310331+9999MW1571SA1+0009REMSYN100AAXX  10121 01001 11320 73010 11021 21036 30152 40164 53033 69961 75751 84610 222// 00000 333 91123;
0101010010999992010011013004+70933-008667FM-12+0009ENJA V02099999999999999999N9999999N1-00391-00521101711ADDMA1999999101591MD1310331+9999REMSYN060AAXX  10131 01001 46/// ///// 11039 21052 30159 40171 53033;
0101010010999992010011014004+70933-008667FM-12+0009ENJA V0203001N010019999999N9999999N1-00501-00671101861ADDMA1999999101741MD1110401+9999REMSYN060AAXX  10141 01001 46/// /3010 11050 21067 30174 40186 51040;
0161010010999992010011015004+70933-008667FM-12+0009ENJA V0203101N014010021019N0150001N1-00631-00791101961ADDAY151031AY211031GF107991061061002501011001MA1999999101841MD1310321+9999MW1021REMSYN072AAXX  10151 01001 41365 73114 11063 21079 30184 40196 53032 70251 86610;
0101010010999992010011016004+70933-008667FM-12+0009ENJA V0203101N010019999999N9999999N1-00711-00911102111ADDMA1999999101991MD1310401+9999REMSYN060AAXX  10161 01001 46/// /3110 11071 21091 30199 40211 53040;
0101010010999992010011017004+70933-008667FM-12+0009ENJA V0203401N008019999999N9999999N1-00741-00941102211ADDMA1999999102091MD1310351+9999REMSYN060AAXX  10171 01001 46/// /3408 11074 21094 30209 40221 53035;
0207010010999992010011018004+70933-008667FM-12+0009ENJA V0203401N007010240019N0200001N1-00741-00931102291ADDAA112000591AY121061AY211061GF105991041051004501031001KA1120M+00001MA1999999102171MD1310331+9999MW1021REMSYN094AAXX  10181 01001 11470 53407 11074 21093 30217 40229 53033 69962 70221 84530 333 10000 91121;
0101010010999992010011019004+70933-008667FM-12+0009ENJA V0203301N002019999999N9999999N1-00631-00851102331ADDMA1999999102211MD1110221+9999REMSYN060AAXX  10191 01001 46/// /3302 11063 21085 30221 40233 51022;
0101010010999992010011020004+70933-008667FM-12+0009ENJA V0202601N001019999999N9999999N1-00601-00811102351ADDMA1999999102231MD1110151+9999REMSYN060AAXX  10201 01001 46/// /2601 11060 21081 30223 40235 51015;
0101010010999992010011021004+70933-008667FM-12+0009ENJA V0202301N001019999999N9999999N1-00551-00721102361ADDMA1999999102241MD1010071+9999REMSYN060AAXX  10211 01001 46/// /2301 11055 21072 30224 40236 50007;
0101010010999992010011022004+70933-008667FM-12+0009ENJA V0202301N002019999999N9999999N1-00461-00591102331ADDMA1999999102211MD1010001+9999REMSYN060AAXX  10221 01001 46/// /2302 11046 21059 30221 40233 50000;
0101010010999992010011023004+70933-008667FM-12+0009ENJA V0202201N004019999999N9999999N1-00391-00491102261ADDMA1999999102141MD1810091+9999REMSYN060AAXX  10231 01001 46/// /2204 11039 21049 30214 40226 58009;
0188010010999992010011100004+70933-008667FM-12+0009ENJA V0202101N002010090019N0060001N1-00311-00421102221ADDAA106002091AY181061AY221061GF108991081081004501999999MA1999999102101MD1810141+9999MW1851REMSYN088AAXX  11001 01001 11456 82102 11031 21042 30210 40222 58014 60021 78582 888// 333 91108;
0101010010999992010011101004+70933-008667FM-12+0009ENJA V0202001N001019999999N9999999N1-00281-00391102141ADDMA1999999102021MD1810191+9999REMSYN060AAXX  11011 01001 46/// /2001 11028 21039 30202 40214 58019;
0101010010999992010011102004+70933-008667FM-12+0009ENJA V0200301N002019999999N9999999N1-00101-00161102061ADDMA1999999101941MD1810201+9999REMSYN060AAXX  11021 01001 46/// /0302 11010 21016 30194 40206 58020;
0101010010999992010011103004+70933-008667FM-12+0009ENJA V0202401N010019999999N9999999N1+00231+00041101971ADDMA1999999101851MD1810251+9999REMSYN060AAXX  11031 01001 46/// /2410 10023 20004 30185 40197 58025;
0101010010999992010011104004+70933-008667FM-12+0009ENJA V0202301N010019999999N9999999N1+00211+00041101971ADDMA1999999101851MD1610161+9999REMSYN060AAXX  11041 01001 46/// /2310 10021 20004 30185 40197 56016;
0101010010999992010011105004+70933-008667FM-12+0009ENJA V0202301N014019999999N9999999N1+00211+00071101911ADDMA1999999101791MD1610151+9999REMSYN060AAXX  11051 01001 46/// /2314 10021 20007 30179 40191 56015;
0272010010999992010011106004+70933-008667FM-12+0009ENJA V0202301N016010042019N0070001N1+00181+00051101921ADDAA112000021AA224000891AJ199991999999999AY181061AY221061GF106991051031004501061001IA1259KA1999N-00741MA1999999101801MD1510051+9999MW1801REMSYN106AAXX  11061 01001 11457 62316 10018 20005 30180 40192 55005 69912 78082 85360 333 21074 41999 70007 91125;EQDQ01  09962SNDP  
0101010010999992010011107004+70933-008667FM-12+0009ENJA V0202301N012019999999N9999999N1+00131+00011101951ADDMA1999999101831MD1510031+9999REMSYN060AAXX  11071 01001 46/// /2312 10013 20001 30183 40195 55003;
0101010010999992010011108004+70933-008667FM-12+0009ENJA V0202401N009019999999N9999999N1+00151+00031101961ADDMA1999999101841MD1110051+9999REMSYN060AAXX  11081 01001 46/// /2409 10015 20003 30184 40196 51005;
0161010010999992010011109004+70933-008667FM-12+0009ENJA V0202701N007010042019N0070001N1+00171+00021101981ADDAY181031AY221031GF108991081031004501999999MA1999999101861MD1110061+9999MW1801REMSYN072AAXX  11091 01001 41457 82707 10017 20002 30186 40198 51006 78082 883//;
0101010010999992010011110004+70933-008667FM-12+0009ENJA V0202801N005019999999N9999999N1+00151+00001102041ADDMA1999999101921MD1310101+9999REMSYN060AAXX  11101 01001 46/// /2805 10015 21000 30192 40204 53010;
0101010010999992010011111004+70933-008667FM-12+0009ENJA V0202301N007019999999N9999999N1+00171-00021102031ADDMA1999999101911MD1010071+9999REMSYN060AAXX  11111 01001 46/// /2307 10017 21002 30191 40203 50007;
0208010010999992010011112004+70933-008667FM-12+0009ENJA V0202501N004010042019N0090001N1+00191+00001102031ADDAA106000591AY181061AY221061GF107991061031004501061999MA1999999101911MD1010041+9999MW1801SA1+0049REMSYN100AAXX  11121 01001 11459 72504 10019 21000 30191 40203 50004 69951 78082 8636/ 222// 00004 333 91124;
0101010010999992010011113004+70933-008667FM-12+0009ENJA V0202401N004019999999N9999999N1+00151-00051102021ADDMA1999999101901MD1510021+9999REMSYN060AAXX  11131 01001 46/// /2404 10015 21005 30190 40202 55002;
0101010010999992010011114004+70933-008667FM-12+0009ENJA V0202301N006019999999N9999999N1+00131-00061101971ADDMA1999999101851MD1810061+9999REMSYN060AAXX  11141 01001 46/// /2306 10013 21006 30185 40197 58006;
0161010010999992010011115004+70933-008667FM-12+0009ENJA V0202201N004010042019N0120001N1+00151-00041101951ADDAY181031AY221031GF107991061031004501061999MA1999999101831MD1810071+9999MW1801REMSYN072AAXX  11151 01001 41462 72204 10015 21004 30183 40195 58007 78082 8636/;
0101010010999992010011116004+70933-008667FM-12+0009ENJA V0202401N007019999999N9999999N1+00171-00031101911ADDMA1999999101791MD1710111+9999REMSYN060AAXX  11161 01001 46/// /2407 10017 21003 30179 40191 57011;
0101010010999992010011117004+70933-008667FM-12+0009ENJA V0202601N006019999999N9999999N1+00171-00011101941ADDMA1999999101821MD1510031+9999REMSYN060AAXX  11171 01001 46/// /2606 10017 21001 30182 40194 55003;
0207010010999992010011118004+70933-008667FM-12+0009ENJA V0202301N007010090019N0060001N1+00161+00001101941ADDAA112000891AY181061AY221061GF108991081081004501999999KA1120M+00191MA1999999101821MD1510011+9999MW1101REMSYN094AAXX  11181 01001 11456 82307 10016 20000 30182 40194 55001 69972 71082 888// 333 10019 91117;
0101010010999992010011119004+70933-008667FM-12+0009ENJA V0202201N006019999999N9999999N1+00131-00031101921ADDMA1999999101801MD1010021+9999REMSYN060AAXX  11191 01001 46/// /2206 10013 21003 30180 40192 50002;
0101010010999992010011120004+70933-008667FM-12+0009ENJA V0202201N007019999999N9999999N1+00141+00001101921ADDMA1999999101801MD1810021+9999REMSYN060AAXX  11201 01001 46/// /2207 10014 20000 30180 40192 58002;
0101010010999992010011121004+70933-008667FM-12+0009ENJA V0202101N006019999999N9999999N1+00161+00031101921ADDMA1999999101801MD1810031+9999REMSYN060AAXX  11211 01001 46/// /2106 10016 20003 30180 40192 58003;
0101010010999992010011122004+70933-008667FM-12+0009ENJA V0202101N007019999999N9999999N1+00181+00001101891ADDMA1999999101771MD1810031+9999REMSYN060AAXX  11221 01001 46/// /2107 10018 21000 30177 40189 58003;
0101010010999992010011123004+70933-008667FM-12+0009ENJA V0202301N006019999999N9999999N1+00131-00011101881ADDMA1999999101761MD1810031+9999REMSYN060AAXX  11231 01001 46/// /2306 10013 21001 30176 40188 58003;
0207010010999992010011200004+70933-008667FM-12+0009ENJA V0202201N006010021019N0200001N1+00151-00051101911ADDAA106000091AY121061AY221061GF106991061051002501001001MA1999999101791MD1510001+9999MW1021REMSYN088AAXX  12001 01001 11370 62206 10015 21005 30179 40191 55000 60001 70222 86500 333 91118;EQDQ01  00002PRCP06
0101010010999992010011201004+70933-008667FM-12+0009ENJA V0202301N006019999999N9999999N1+00111-00061101931ADDMA1999999101811MD1310041+9999REMSYN060AAXX  12011 01001 46/// /2306 10011 21006 30181 40193 53004;
0101010010999992010011202004+70933-008667FM-12+0009ENJA V0202501N008019999999N9999999N1+00211-00021101881ADDMA1999999101761MD1010011+9999REMSYN060AAXX  12021 01001 46/// /2508 10021 21002 30176 40188 50001;
0101010010999992010011203004+70933-008667FM-12+0009ENJA V0202701N013019999999N9999999N1+00231-00031101791ADDMA1999999101671MD1810131+9999REMSYN060AAXX  12031 01001 46/// /2713 10023 21003 30167 40179 58013;
0101010010999992010011204004+70933-008667FM-12+0009ENJA V0202701N014019999999N9999999N1+00281-00081101751ADDMA1999999101631MD1610181+9999REMSYN060AAXX  12041 01001 46/// /2714 10028 21008 30163 40175 56018;
0101010010999992010011205004+70933-008667FM-12+0009ENJA V0202701N015019999999N9999999N1+00381-00081101721ADDMA1999999101601MD1610151+9999REMSYN060AAXX  12051 01001 46/// /2715 10038 21008 30160 40172 56015;
0288010010999992010011206004+70933-008667FM-12+0009ENJA V0202601N008012200019N0300001N1+00331-00081101811ADDAA112000091AA224000891AJ199991999999999AY121061AY211061GF102991021051012501001001IA1259KA1999N+00101MA1999999101691MD1310021+9999MW1011REMSYN106AAXX  12061 01001 11680 22608 10033 21008 30169 40181 53002 60002 70121 82500 333 20010 41999 70007 91123;EQDQ01  00002PRCP12Q02  09962SNDP  
0101010010999992010011207004+70933-008667FM-12+0009ENJA V0202201N006019999999N9999999N1+00271-00071101871ADDMA1999999101751MD1310121+9999REMSYN060AAXX  12071 01001 46/// /2206 10027 21007 30175 40187 53012;
0101010010999992010011208004+70933-008667FM-12+0009ENJA V0202101N005019999999N9999999N1+00291-00091101881ADDMA1999999101761MD1110161+9999REMSYN060AAXX  12081 01001 46/// /2105 10029 21009 30176 40188 51016;
0101010010999992010011209004+70933-008667FM-12+0009ENJA V0202001N005019999999N9999999N1+00361-00191101871ADDMA1999999101751MD1110071+9999REMSYN060AAXX  12091 01001 46/// /2005 10036 21019 30175 40187 51007;
0101010010999992010011210004+70933-008667FM-12+0009ENJA V0202301N004019999999N9999999N1+00331-00221101901ADDMA1999999101781MD1210031+9999REMSYN060AAXX  12101 01001 46/// /2304 10033 21022 30178 40190 52003;
0101010010999992010011211004+70933-008667FM-12+0009ENJA V0201401N001019999999N9999999N1+00261-00161101891ADDMA1999999101771MD1210011+9999REMSYN060AAXX  12111 01001 46/// /1401 10026 21016 30177 40189 52001;
0227010010999992010011212004+70933-008667FM-12+0009ENJA V0202101N004012200019N0550001N1+00151-00081101891ADDAA106000091AY101061AY201061GF101991011001017501041001MA1999999101771MD1210021+9999MW1021SA1+0059REMSYN100AAXX  12121 01001 11785 12104 10015 21008 30177 40189 52002 60001 70200 81040 222// 00005 333 91114;EQDQ01  00002PRCP06
0101010010999992010011213004+70933-008667FM-12+0009ENJA V0202101N005019999999N9999999N1+00131-00131101861ADDMA1999999101741MD1710031+9999REMSYN060AAXX  12131 01001 46/// /2105 10013 21013 30174 40186 57003;
0101010010999992010011214004+70933-008667FM-12+0009ENJA V0202101N005019999999N9999999N1+00091-00101101831ADDMA1999999101711MD1810061+9999REMSYN060AAXX  12141 01001 46/// /2105 10009 21010 30171 40183 58006;
0161010010999992010011215004+70933-008667FM-12+0009ENJA V0202001N008010240019N0030001N1-00041-00131101811ADDAY111031AY201031GF105991041061001501031001MA1999999101691MD1710091+9999MW1101REMSYN072AAXX  12151 01001 41230 52008 11004 21013 30169 40181 57009 71010 84630;
0101010010999992010011216004+70933-008667FM-12+0009ENJA V0202001N007019999999N9999999N1-00071-00141101781ADDMA1999999101661MD1710081+9999REMSYN060AAXX  12161 01001 46/// /2007 11007 21014 30166 40178 57008;
0101010010999992010011217004+70933-008667FM-12+0009ENJA V0202001N006019999999N9999999N1-00071-00131101761ADDMA1999999101641MD1710071+9999REMSYN060AAXX  12171 01001 46/// /2006 11007 21013 30164 40176 57007;
0226010010999992010011218004+70933-008667FM-12+0009ENJA V0202201N004010021019N0030001N1+00021-00061101731ADDAA112000091AY121061AY221061GF108991081061002501999999KA1120M+00371MA1999999101611MD1710081+9999MW1101REMSYN094AAXX  12181 01001 11330 82204 10002 21006 30161 40173 57008 60002 71022 886// 333 10037 91109;EQDQ01  00002PRCP12
0101010010999992010011219004+70933-008667FM-12+0009ENJA V0202001N005019999999N9999999N1+00081-00041101711ADDMA1999999101591MD1710061+9999REMSYN060AAXX  12191 01001 46/// /2005 10008 21004 30159 40171 57006;
0101010010999992010011220004+70933-008667FM-12+0009ENJA V0202001N008019999999N9999999N1+00081-00151101681ADDMA1999999101561MD1710081+9999REMSYN060AAXX  12201 01001 46/// /2008 10008 21015 30156 40168 57008;
0101010010999992010011221004+70933-008667FM-12+0009ENJA V0202001N006019999999N9999999N1+00051-00231101661ADDMA1999999101541MD1710071+9999REMSYN060AAXX  12211 01001 46/// /2006 10005 21023 30154 40166 57007;
0101010010999992010011222004+70933-008667FM-12+0009ENJA V0202101N004019999999N9999999N1+00031-00181101611ADDMA1999999101491MD1710101+9999REMSYN060AAXX  12221 01001 46/// /2104 10003 21018 30149 40161 57010;
0101010010999992010011223004+70933-008667FM-12+0009ENJA V0202101N003019999999N9999999N1+00061-00221101581ADDMA1999999101461MD1710101+9999REMSYN060AAXX  12231 01001 46/// /2103 10006 21022 30146 40158 57010;
0207010010999992010011300004+70933-008667FM-12+0009ENJA V0202101N002010042019N0050001N1+00061-00141101541ADDAA106000091AY121061AY221061GF108991081061004501999999MA1999999101421MD1710111+9999MW1101REMSYN088AAXX  13001 01001 11450 82102 10006 21014 30142 40154 57011 60001 71022 886// 333 91112;EQDQ01  00002PRCP06
0101010010999992010011301004+70933-008667FM-12+0009ENJA V0201701N002019999999N9999999N1+00071-00121101481ADDMA1999999101361MD1810131+9999REMSYN060AAXX  13011 01001 46/// /1702 10007 21012 30136 40148 58013;
0101010010999992010011302004+70933-008667FM-12+0009ENJA V0201801N003019999999N9999999N1+00111-00071101431ADDMA1999999101311MD1810151+9999REMSYN060AAXX  13021 01001 46/// /1803 10011 21007 30131 40143 58015;
0101010010999992010011303004+70933-008667FM-12+0009ENJA V0200901N004019999999N9999999N1+00121-00031101341ADDMA1999999101221MD1810201+9999REMSYN060AAXX  13031 01001 46/// /0904 10012 21003 30122 40134 58020;
0101010010999992010011304004+70933-008667FM-12+0009ENJA V0201701N005019999999N9999999N1+00141+00031101261ADDMA1999999101141MD1810221+9999REMSYN060AAXX  13041 01001 46/// /1705 10014 20003 30114 40126 58022;
0101010010999992010011305004+70933-008667FM-12+0009ENJA V0201601N006019999999N9999999N1+00151+00051101181ADDMA1999999101061MD1710251+9999REMSYN060AAXX  13051 01001 46/// /1606 10015 20005 30106 40118 57025;
0288010010999992010011306004+70933-008667FM-12+0009ENJA V0201601N006010021019N0050001N1+00161+00061101141ADDAA112000091AA224000091AJ199991999999999GF108991081061002501999999IA1259KA1999N+00011MA1999999101021MD1710211+9999MW1101REMSYN106AAXX  13061 01001 11350 81606 10016 20006 30102 40114 57021 60002 710// 886// 333 20001 41999 70000 91108;EQDQ01  00002PRCP24Q02  00002PRCP12Q03  09962SNDP  
0101010010999992010011307004+70933-008667FM-12+0009ENJA V0202001N005019999999N9999999N1+00151+00051101121ADDMA1999999101001MD1610141+9999REMSYN060AAXX  13071 01001 46/// /2005 10015 20005 30100 40112 56014;
0101010010999992010011308004+70933-008667FM-12+0009ENJA V0202001N004019999999N9999999N1+00141+00051101071ADDMA1999999100951MD1810111+9999REMSYN060AAXX  13081 01001 46/// /2004 10014 20005 30095 40107 58011;
0161010010999992010011309004+70933-008667FM-12+0009ENJA V0202101N005010021019N0050001N1+00171+00071101071ADDAY121031AY221031GF108991081061002501999999MA1999999100951MD1510061+9999MW1101REMSYN072AAXX  13091 01001 41350 82105 10017 20007 30095 40107 55006 71022 886//;
0101010010999992010011310004+70933-008667FM-12+0009ENJA V0201901N004019999999N9999999N1+00171+00061101071ADDMA1999999100951MD1510051+9999REMSYN060AAXX  13101 01001 46/// /1904 10017 20006 30095 40107 55005;
0101010010999992010011311004+70933-008667FM-12+0009ENJA V0202001N003019999999N9999999N1+00161+00051101041ADDMA1999999100921MD1810031+9999REMSYN060AAXX  13111 01001 46/// /2003 10016 20005 30092 40104 58003;
0227010010999992010011312004+70933-008667FM-12+0009ENJA V0201901N003010021019N0090001N1+00161+00051101021ADDAA106000091AY121061AY221061GF108991081061002501999999MA1999999100901MD1710051+9999MW1101SA1+0059REMSYN100AAXX  13121 01001 11359 81903 10016 20005 30090 40102 57005 60001 71022 886// 222// 00005 333 91107;EQDQ01  00002PRCP06
0101010010999992010011313004+70933-008667FM-12+0009ENJA V0202001N004019999999N9999999N1+00161+00061100991ADDMA1999999100871MD1710081+9999REMSYN060AAXX  13131 01001 46/// /2004 10016 20006 30087 40099 57008;
0101010010999992010011314004+70933-008667FM-12+0009ENJA V0202001N004019999999N9999999N1+00161+00051100971ADDMA1999999100851MD1710071+9999REMSYN060AAXX  13141 01001 46/// /2004 10016 20005 30085 40097 57007;
0161010010999992010011315004+70933-008667FM-12+0009ENJA V0201901N003010021019N0080001N1+00151+00041100971ADDAY121031AY221031GF108991081061002501999999MA1999999100851MD1710051+9999MW1101REMSYN072AAXX  13151 01001 41358 81903 10015 20004 30085 40097 57005 71022 886//;
0101010010999992010011316004+70933-008667FM-12+0009ENJA V0201801N003019999999N9999999N1+00141+00021100941ADDMA1999999100821MD1710051+9999REMSYN060AAXX  13161 01001 46/// /1803 10014 20002 30082 40094 57005;
0101010010999992010011317004+70933-008667FM-12+0009ENJA V0201201N001019999999N9999999N1+00141+00021100901ADDMA1999999100781MD1810071+9999REMSYN060AAXX  13171 01001 46/// /1201 10014 20002 30078 40090 58007;
0226010010999992010011318004+70933-008667FM-12+0009ENJA V0202101N002010021019N0080001N1+00151+00041100891ADDAA112000091AY121061AY221061GF108991081061002501999999KA1120M+00191MA1999999100771MD1710081+9999MW1101REMSYN094AAXX  13181 01001 11358 82102 10015 20004 30077 40089 57008 60002 71022 886// 333 10019 91106;EQDQ01  00002PRCP12
0101010010999992010011319004+70933-008667FM-12+0009ENJA V0202101N003019999999N9999999N1+00181+00081100891ADDMA1999999100771MD1710051+9999REMSYN060AAXX  13191 01001 46/// /2103 10018 20008 30077 40089 57005;
0101010010999992010011320004+70933-008667FM-12+0009ENJA V0202101N003019999999N9999999N1+00171+00081100881ADDMA1999999100761MD1710011+9999REMSYN060AAXX  13201 01001 46/// /2103 10017 20008 30076 40088 57001;
0101010010999992010011321004+70933-008667FM-12+0009ENJA V0201901N004019999999N9999999N1+00201+00101100881ADDMA1999999100761MD1710011+9999REMSYN060AAXX  13211 01001 46/// /1904 10020 20010 30076 40088 57001;
0101010010999992010011322004+70933-008667FM-12+0009ENJA V0201701N002019999999N9999999N1+00171+00061100861ADDMA1999999100741MD1710031+9999REMSYN060AAXX  13221 01001 46/// /1702 10017 20006 30074 40086 57003;
0101010010999992010011323004+70933-008667FM-12+0009ENJA V0202001N004019999999N9999999N1+00161+00061100841ADDMA1999999100721MD1710051+9999REMSYN060AAXX  13231 01001 46/// /2004 10016 20006 30072 40084 57005;
0188010010999992010011400004+70933-008667FM-12+0009ENJA V0202001N004010012019N0040001N1+00151+00061100821ADDAA106000891AY161061AY221061GF108991081061001501999999MA1999999100701MD1710051+9999MW1621REMSYN088AAXX  14001 01001 11240 82004 10015 20006 30070 40082 57005 69981 76262 886// 333 91106;
0101010010999992010011401004+70933-008667FM-12+0009ENJA V0201801N007019999999N9999999N1+00181+00111100801ADDMA1999999100681MD1710061+9999REMSYN060AAXX  14011 01001 46/// /1807 10018 20011 30068 40080 57006;
0101010010999992010011402004+70933-008667FM-12+0009ENJA V0201701N006019999999N9999999N1+00181+00101100771ADDMA1999999100651MD1710061+9999REMSYN060AAXX  14021 01001 46/// /1706 10018 20010 30065 40077 57006;
0101010010999992010011403004+70933-008667FM-12+0009ENJA V0201601N007019999999N9999999N1+00191+00121100761ADDMA1999999100641MD1710071+9999REMSYN060AAXX  14031 01001 46/// /1607 10019 20012 30064 40076 57007;
0101010010999992010011404004+70933-008667FM-12+0009ENJA V0201501N006019999999N9999999N1+00181+00101100751ADDMA1999999100631MD1710041+9999REMSYN060AAXX  14041 01001 46/// /1506 10018 20010 30063 40075 57004;
0101010010999992010011405004+70933-008667FM-12+0009ENJA V0201701N005019999999N9999999N1+00181+00101100751ADDMA1999999100631MD1710031+9999REMSYN060AAXX  14051 01001 46/// /1705 10018 20010 30063 40075 57003;
0272010010999992010011406004+70933-008667FM-12+0009ENJA V0201501N006010042019N0080001N1+00191+00101100721ADDAA112001091AA224001091AJ199991999999999AY161061AY221061GF108991081061004501999999IA1259KA1999N+00141MA1999999100601MD1710041+9999MW1101REMSYN106AAXX  14061 01001 11458 81506 10019 20010 30060 40072 57004 60012 71062 886// 333 20014 41999 70010 91110;EQDQ01  09962SNDP  
0101010010999992010011407004+70933-008667FM-12+0009ENJA V0201501N007019999999N9999999N1+00201+00121100721ADDMA1999999100601MD1510031+9999REMSYN060AAXX  14071 01001 46/// /1507 10020 20012 30060 40072 55003;
0101010010999992010011408004+70933-008667FM-12+0009ENJA V0201401N006019999999N9999999N1+00201+00111100731ADDMA1999999100611MD1510011+9999REMSYN060AAXX  14081 01001 46/// /1406 10020 20011 30061 40073 55001;
0161010010999992010011409004+70933-008667FM-12+0009ENJA V0201501N007010042019N0035001N1+00221+00141100741ADDAY161031AY221031GF108991081061004501999999MA1999999100621MD1210031+9999MW1101REMSYN072AAXX  14091 01001 41435 81507 10022 20014 30062 40074 52003 71062 886//;
0101010010999992010011410004+70933-008667FM-12+0009ENJA V0201501N006019999999N9999999N1+00221+00141100781ADDMA1999999100661MD1210061+9999REMSYN060AAXX  14101 01001 46/// /1506 10022 20014 30066 40078 52006;
0101010010999992010011411004+70933-008667FM-12+0009ENJA V0201501N007019999999N9999999N1+00231+00151100781ADDMA1999999100661MD1210051+9999REMSYN060AAXX  14111 01001 46/// /1507 10023 20015 30066 40078 52005;
0227010010999992010011412004+70933-008667FM-12+0009ENJA V0201501N007010021019N0030001N1+00221+00141100781ADDAA106000091AY161061AY221061GF108991081061002501999999MA1999999100661MD1010031+9999MW1101SA1+0079REMSYN100AAXX  14121 01001 11330 81507 10022 20014 30066 40078 50003 69901 71062 886// 222// 00007 333 91109;EQDQ01  00002PRCP06
0101010010999992010011413004+70933-008667FM-12+0009ENJA V0201601N007019999999N9999999N1+00231+00151100781ADDMA1999999100661MD1410001+9999REMSYN060AAXX  14131 01001 46/// /1607 10023 20015 30066 40078 54000;
0101010010999992010011414004+70933-008667FM-12+0009ENJA V0201601N008019999999N9999999N1+00241+00151100771ADDMA1999999100651MD1710021+9999REMSYN060AAXX  14141 01001 46/// /1608 10024 20015 30065 40077 57002;
0161010010999992010011415004+70933-008667FM-12+0009ENJA V0201601N007010042019N0100001N1+00231+00131100771ADDAY121031AY221031GF107991071061004501999999MA1999999100651MD1410001+9999MW1021REMSYN072AAXX  14151 01001 41460 71607 10023 20013 30065 40077 54001 70222 876//;
0101010010999992010011416004+70933-008667FM-12+0009ENJA V0201701N007019999999N9999999N1+00231+00111100781ADDMA1999999100661MD1410001+9999REMSYN060AAXX  14161 01001 46/// /1707 10023 20011 30066 40078 54000;
0101010010999992010011417004+70933-008667FM-12+0009ENJA V0201601N006019999999N9999999N1+00201+00041100821ADDMA1999999100701MD1210051+9999REMSYN060AAXX  14171 01001 46/// /1606 10020 20004 30070 40082 52005;
0226010010999992010011418004+70933-008667FM-12+0009ENJA V0201401N008010075019N0140001N1+00191+00031100811ADDAA112000091AY121061AY211061GF105991051051008001001001KA1120M+00251MA1999999100691MD1210041+9999MW1021REMSYN094AAXX  14181 01001 11564 51408 10019 20003 30069 40081 52004 60002 70221 85500 333 10025 91110;EQDQ01  00002PRCP12
0101010010999992010011419004+70933-008667FM-12+0009ENJA V0201301N007019999999N9999999N1+00181+00051100821ADDMA1999999100701MD1210041+9999REMSYN060AAXX  14191 01001 46/// /1307 10018 20005 30070 40082 52004;
0101010010999992010011420004+70933-008667FM-12+0009ENJA V0201401N008019999999N9999999N1+00201+00071100791ADDMA1999999100671MD1710021+9999REMSYN060AAXX  14201 01001 46/// /1408 10020 20007 30067 40079 57002;
0101010010999992010011421004+70933-008667FM-12+0009ENJA V0201401N007019999999N9999999N1+00191+00091100801ADDMA1999999100681MD1410001+9999REMSYN060AAXX  14211 01001 46/// /1407 10019 20009 30068 40080 54000;
0101010010999992010011422004+70933-008667FM-12+0009ENJA V0201401N007019999999N9999999N1+00191+00051100781ADDMA1999999100661MD1710041+9999REMSYN060AAXX  14221 01001 46/// /1407 10019 20005 30066 40078 57004;
0101010010999992010011423004+70933-008667FM-12+0009ENJA V0201401N008019999999N9999999N1+00211+00081100751ADDMA1999999100631MD1810041+9999REMSYN060AAXX  14231 01001 46/// /1408 10021 20008 30063 40075 58004;
0207010010999992010011500004+70933-008667FM-12+0009ENJA V0201301N007010075019N0100001N1+00221+00091100731ADDAA106000091AY141061AY221061GF108991081061008001999999MA1999999100611MD1710071+9999MW1101REMSYN088AAXX  15001 01001 11560 81307 10022 20009 30061 40073 57007 60001 71042 886// 333 91110;EQDQ01  00002PRCP06
0101010010999992010011501004+70933-008667FM-12+0009ENJA V0201401N006019999999N9999999N1+00221+00101100701ADDMA1999999100581MD1710081+9999REMSYN060AAXX  15011 01001 46/// /1406 10022 20010 30058 40070 57008;
0101010010999992010011502004+70933-008667FM-12+0009ENJA V0201401N008019999999N9999999N1+00231+00121100631ADDMA1999999100511MD1810121+9999REMSYN060AAXX  15021 01001 46/// /1408 10023 20012 30051 40063 58012;
0101010010999992010011503004+70933-008667FM-12+0009ENJA V0201401N006019999999N9999999N1+00211+00101100591ADDMA1999999100471MD1710141+9999REMSYN060AAXX  15031 01001 46/// /1406 10021 20010 30047 40059 57014;
0101010010999992010011504004+70933-008667FM-12+0009ENJA V0201401N006019999999N9999999N1+00221+00121100551ADDMA1999999100431MD1710151+9999REMSYN060AAXX  15041 01001 46/// /1406 10022 20012 30043 40055 57015;
0101010010999992010011505004+70933-008667FM-12+0009ENJA V0201601N003019999999N9999999N1+00201+00101100511ADDMA1999999100391MD1710131+9999REMSYN060AAXX  15051 01001 46/// /1603 10020 20010 30039 40051 57013;
0304010010999992010011506004+70933-008667FM-12+0009ENJA V0201501N006010042019N0060001N1+00211+00111100461ADDAA112000091AA224000091AJ199991999999999AY141061AY221061GF108991081061004501999999IA1259KA1999N+00171MA1999999100341MD1710131+9999MW1101REMSYN106AAXX  15061 01001 11456 81506 10021 20011 30034 40046 57013 60002 71042 886// 333 20017 41999 70000 91110;EQDQ01  00002PRCP24Q02  00002PRCP12Q03  09962SNDP  
0101010010999992010011507004+70933-008667FM-12+0009ENJA V0201601N006019999999N9999999N1+00211+00101100431ADDMA1999999100311MD1810131+9999REMSYN060AAXX  15071 01001 46/// /1606 10021 20010 30031 40043 58013;
0101010010999992010011508004+70933-008667FM-12+0009ENJA V0201301N006019999999N9999999N1+00211+00121100381ADDMA1999999100261MD1810131+9999REMSYN060AAXX  15081 01001 46/// /1306 10021 20012 30026 40038 58013;
0161010010999992010011509004+70933-008667FM-12+0009ENJA V0201501N006010042019N0060001N1+00211+00111100341ADDAY161031AY241031GF108991081061004501999999MA1999999100221MD1810121+9999MW1601REMSYN072AAXX  15091 01001 41456 81506 10021 20011 30022 40034 58012 76064 886//;
0101010010999992010011510004+70933-008667FM-12+0009ENJA V0201501N005019999999N9999999N1+00201+00111100291ADDMA1999999100171MD1710131+9999REMSYN060AAXX  15101 01001 46/// /1505 10020 20011 30017 40029 57013;
0101010010999992010011511004+70933-008667FM-12+0009ENJA V0201501N005019999999N9999999N1+00191+00101100241ADDMA1999999100121MD1710141+9999REMSYN060AAXX  15111 01001 46/// /1505 10019 20010 30012 40024 57014;
0208010010999992010011512004+70933-008667FM-12+0009ENJA V0201401N005010042019N0080001N1+00201+00111100141ADDAA106001091AY161061AY241061GF108991081061004501999999MA1999999100021MD1810201+9999MW1601SA1+0089REMSYN100AAXX  15121 01001 11458 81405 10020 20011 30002 40014 58020 60011 76064 886// 222// 00008 333 91110;
0101010010999992010011513004+70933-008667FM-12+0009ENJA V0201401N005019999999N9999999N1+00191+00111100041ADDMA1999999099921MD1810251+9999REMSYN060AAXX  15131 01001 46/// /1405 10019 20011 39992 40004 58025;
0101010010999992010011514004+70933-008667FM-12+0009ENJA V0201501N006019999999N9999999N1+00211+00131099971ADDMA1999999099851MD1710271+9999REMSYN060AAXX  15141 01001 46/// /1506 10021 20013 39985 49997 57027;
0161010010999992010011515004+70933-008667FM-12+0009ENJA V0201501N005010021019N0070001N1+00201+00121099901ADDAY161031AY241031GF108991081061002501999999MA1999999099781MD1710241+9999MW1601REMSYN072AAXX  15151 01001 41357 81505 10020 20012 39978 49990 57024 76064 886//;
0101010010999992010011516004+70933-008667FM-12+0009ENJA V0201601N007019999999N9999999N1+00231+00151099841ADDMA1999999099721MD1710201+9999REMSYN060AAXX  15161 01001 46/// /1607 10023 20015 39972 49984 57020;
0101010010999992010011517004+70933-008667FM-12+0009ENJA V0201601N009019999999N9999999N1+00241+00151099781ADDMA1999999099661MD1810191+9999REMSYN060AAXX  15171 01001 46/// /1609 10024 20015 39966 49978 58019;
0207010010999992010011518004+70933-008667FM-12+0009ENJA V0201401N005010021019N0050001N1+00201+00121099721ADDAA112003091AY161061AY241061GF108991051061002501021999KA1120M+00251MA1999999099601MD1710171+9999MW1611REMSYN094AAXX  15181 01001 11350 81405 10020 20012 39960 49972 57017 60032 76164 8562/ 333 10025 91112;
0101010010999992010011519004+70933-008667FM-12+0009ENJA V0201801N008019999999N9999999N1+00211+00131099721ADDMA1999999099601MD1610131+9999REMSYN060AAXX  15191 01001 46/// /1808 10021 20013 39960 49972 56013;
0101010010999992010011520004+70933-008667FM-12+0009ENJA V0201901N004019999999N9999999N1+00191+00111099681ADDMA1999999099561MD1610101+9999REMSYN060AAXX  15201 01001 46/// /1904 10019 20011 39956 49968 56010;
0101010010999992010011521004+70933-008667FM-12+0009ENJA V0202001N004019999999N9999999N1+00191+00121099701ADDMA1999999099581MD1510021+9999REMSYN060AAXX  15211 01001 46/// /2004 10019 20012 39958 49970 55002;
0101010010999992010011522004+70933-008667FM-12+0009ENJA V0201901N006019999999N9999999N1+00231+00151099691ADDMA1999999099571MD1510031+9999REMSYN060AAXX  15221 01001 46/// /1906 10023 20015 39957 49969 55003;
0101010010999992010011523004+70933-008667FM-12+0009ENJA V0201901N005019999999N9999999N1+00231+00151099651ADDMA1999999099531MD1810031+9999REMSYN060AAXX  15231 01001 46/// /1905 10023 20015 39953 49965 58003;
0188010010999992010011600004+70933-008667FM-12+0009ENJA V0202001N003010021019N0040001N1+00231+00151099611ADDAA106002091AY161061AY221061GF108991081061002501999999MA1999999099491MD1710091+9999MW1101REMSYN088AAXX  16001 01001 11340 82003 10023 20015 39949 49961 57009 60021 71062 886// 333 91112;
0101010010999992010011601004+70933-008667FM-12+0009ENJA V0201701N001019999999N9999999N1+00211+00131099571ADDMA1999999099451MD1710121+9999REMSYN060AAXX  16011 01001 46/// /1701 10021 20013 39945 49957 57012;
0101010010999992010011602004+70933-008667FM-12+0009ENJA V0201901N001019999999N9999999N1+00191+00111099491ADDMA1999999099371MD1810171+9999REMSYN060AAXX  16021 01001 46/// /1901 10019 20011 39937 49949 58017;
0101010010999992010011603004+70933-008667FM-12+0009ENJA V0201001N004019999999N9999999N1+00201+00121099431ADDMA1999999099311MD1810191+9999REMSYN060AAXX  16031 01001 46/// /1004 10020 20012 39931 49943 58019;
0101010010999992010011604004+70933-008667FM-12+0009ENJA V0201001N004019999999N9999999N1+00201+00131099371ADDMA1999999099251MD1710191+9999REMSYN060AAXX  16041 01001 46/// /1004 10020 20013 39925 49937 57019;
0101010010999992010011605004+70933-008667FM-12+0009ENJA V0201001N005019999999N9999999N1+00201+00131099351ADDMA1999999099231MD1710141+9999REMSYN060AAXX  16051 01001 46/// /1005 10020 20013 39923 49935 57014;
0272010010999992010011606004+70933-008667FM-12+0009ENJA V0201801N003010012019N0030001N1+00241+00171099381ADDAA112003091AA224006691AJ199991999999999AY161061AY241061GF108991081061001501999999IA1259KA1999N+00181MA1999999099261MD1510051+9999MW1101REMSYN106AAXX  16061 01001 11230 81803 10024 20017 39926 49938 55005 60032 71064 886// 333 20018 41999 70066 91106;EQDQ01  09962SNDP  
0101010010999992010011607004+70933-008667FM-12+0009ENJA V0202001N005019999999N9999999N1+00241+00181099421ADDMA1999999099301MD1310051+9999REMSYN060AAXX  16071 01001 46/// /2005 10024 20018 39930 49942 53005;
0101010010999992010011608004+70933-008667FM-12+0009ENJA V0201801N003019999999N9999999N1+00201+00141099441ADDMA1999999099321MD1210091+9999REMSYN060AAXX  16081 01001 46/// /1803 10020 20014 39932 49944 52009;
0101010010999992010011609004+70933-008667FM-12+0009ENJA V0202301N001019999999N9999999N1+00201+00141099461ADDMA1999999099341MD1010081+9999REMSYN060AAXX  16091 01001 46/// /2301 10020 20014 39934 49946 50008;
0101010010999992010011610004+70933-008667FM-12+0009ENJA V0201201N006019999999N9999999N1+00231+00171099501ADDMA1999999099381MD1310081+9999REMSYN060AAXX  16101 01001 46/// /1206 10023 20017 39938 49950 53008;
0101010010999992010011611004+70933-008667FM-12+0009ENJA V0202001N003019999999N9999999N1+00231+00171099521ADDMA1999999099401MD1210081+9999REMSYN060AAXX  16111 01001 46/// /2003 10023 20017 39940 49952 52008;
0103010010999992010011612004+70933-008667FM-12+0009ENJA V02099999999999999999N9999999N1+00231+00171999999REMSYN094AAXX  16121 01001 11X02 91803 10023 20017 39938 49950 50004 69921 74564 222// 00008 333 91107;
0101010010999992010011613004+70933-008667FM-12+0009ENJA V0200801N001019999999N9999999N1+00231+00181099421ADDMA1999999099301MD1810081+9999REMSYN060AAXX  16131 01001 46/// /0801 10023 20018 39930 49942 58008;
0101010010999992010011614004+70933-008667FM-12+0009ENJA V0201101N003019999999N9999999N1+00201+00141099361ADDMA1999999099241MD1810161+9999REMSYN060AAXX  16141 01001 46/// /1103 10020 20014 39924 49936 58016;
0075010010999992010011615004+70933-008667FM-12+0009ENJA V02099999999999999999N9999999N1+00221+00171999999REMSYN066AAXX  16151 01001 41X04 90804 10022 20017 39916 49928 58022 74564;
0101010010999992010011616004+70933-008667FM-12+0009ENJA V0200801N006019999999N9999999N1+00281+00221099111ADDMA1999999099001MD1810301+9999REMSYN060AAXX  16161 01001 46/// /0806 10028 20022 39900 49911 58030;
0101010010999992010011617004+70933-008667FM-12+0009ENJA V0200801N008019999999N9999999N1+00291+00221098991ADDMA1999999098881MD1810371+9999REMSYN060AAXX  16171 01001 46/// /0808 10029 20022 39888 49899 58037;
0097010010999992010011618004+70933-008667FM-12+0009ENJA V02099999999999999999N9999999N1+00241+00171999999REMSYN088AAXX  16181 01001 11X02 90806 10024 20017 39874 49885 58042 60012 74564 333 10032 91112;
0101010010999992010011619004+70933-008667FM-12+0009ENJA V0200801N009019999999N9999999N1+00281+00211098681ADDMA1999999098571MD1810431+9999REMSYN060AAXX  16191 01001 46/// /0809 10028 20021 39857 49868 58043;
0101010010999992010011620004+70933-008667FM-12+0009ENJA V0201201N007019999999N9999999N1+00271+00201098581ADDMA1999999098471MD1710401+9999REMSYN060AAXX  16201 01001 46/// /1207 10027 20020 39847 49858 57040;
0101010010999992010011621004+70933-008667FM-12+0009ENJA V0201301N006019999999N9999999N1+00261+00201098501ADDMA1999999098391MD1610351+9999REMSYN060AAXX  16211 01001 46/// /1306 10026 20020 39839 49850 56035;
0101010010999992010011622004+70933-008667FM-12+0009ENJA V0201401N008019999999N9999999N1+00271+00211098481ADDMA1999999098371MD1610201+9999REMSYN060AAXX  16221 01001 46/// /1408 10027 20021 39837 49848 56020;
0101010010999992010011623004+70933-008667FM-12+0009ENJA V0201601N007019999999N9999999N1+00271+00211098481ADDMA1999999098371MD1610101+9999REMSYN060AAXX  16231 01001 46/// /1607 10027 20021 39837 49848 56010;
0091010010999992010011700004+70933-008667FM-12+0009ENJA V02099999999999999999N9999999N1+00271+00211999999REMSYN082AAXX  17001 01001 11X01 91507 10027 20021 39836 49847 57003 60041 74564 333 91114;
0101010010999992010011701004+70933-008667FM-12+0009ENJA V0201601N008019999999N9999999N1+00281+00221098471ADDMA1999999098361MD1410001+9999REMSYN060AAXX  17011 01001 46/// /1608 10028 20022 39836 49847 54000;
0101010010999992010011702004+70933-008667FM-12+0009ENJA V0201801N009019999999N9999999N1+00271+00211098541ADDMA1999999098431MD1310071+9999REMSYN060AAXX  17021 01001 46/// /1809 10027 20021 39843 49854 53007;
0101010010999992010011703004+70933-008667FM-12+0009ENJA V0201901N010019999999N9999999N1+00271+00201098611ADDMA1999999098501MD1310141+9999REMSYN060AAXX  17031 01001 46/// /1910 10027 20020 39850 49861 53014;
0101010010999992010011704004+70933-008667FM-12+0009ENJA V0201701N010019999999N9999999N1+00271+00201098671ADDMA1999999098561MD1210201+9999REMSYN060AAXX  17041 01001 46/// /1710 10027 20020 39856 49867 52020;
0101010010999992010011705004+70933-008667FM-12+0009ENJA V0201701N010019999999N9999999N1+00281+00201098711ADDMA1999999098601MD1210171+9999REMSYN060AAXX  17051 01001 46/// /1710 10028 20020 39860 49871 52017;
0109010010999992010011706004+70933-008667FM-12+0009ENJA V02099999999999999999N9999999N1+00251+00171999999REMSYN100AAXX  17061 01001 11X05 91810 10025 20017 39866 49877 53016 60052 74564 333 20021 41999 70061 91114;
0101010010999992010011707004+70933-008667FM-12+0009ENJA V0201901N007019999999N9999999N1+00241+00171098811ADDMA1999999098701MD1210141+9999REMSYN060AAXX  17071 01001 46/// /1907 10024 20017 39870 49881 52014;
0101010010999992010011708004+70933-008667FM-12+0009ENJA V0202001N006019999999N9999999N1+00221+00151098851ADDMA1999999098741MD1210141+9999REMSYN060AAXX  17081 01001 46/// /2006 10022 20015 39874 49885 52014;
0075010010999992010011709004+70933-008667FM-12+0009ENJA V02099999999999999999N9999999N1+00201+00131999999REMSYN066AAXX  17091 01001 41X02 91905 10020 20013 39883 49895 53017 74542;
0101010010999992010011710004+70933-008667FM-12+0009ENJA V0201901N004019999999N9999999N1+00211+00151098961ADDMA1999999098841MD1110141+9999REMSYN060AAXX  17101 01001 46/// /1904 10021 20015 39884 49896 51014;
0101010010999992010011711004+70933-008667FM-12+0009ENJA V0201801N003019999999N9999999N1+00211+00151098951ADDMA1999999098831MD1110091+9999REMSYN060AAXX  17111 01001 46/// /1803 10021 20015 39883 49895 51009;
0103010010999992010011712004+70933-008667FM-12+0009ENJA V02099999999999999999N9999999N1+00181+00121999999REMSYN094AAXX  17121 01001 11X02 91402 10018 20012 39880 49892 58003 69911 74554 222// 00010 333 91111;
0101010010999992010011713004+70933-008667FM-12+0009ENJA V0201201N004019999999N9999999N1+00201+00141098871ADDMA1999999098751MD1810091+9999REMSYN060AAXX  17131 01001 46/// /1204 10020 20014 39875 49887 58009;
0101010010999992010011714004+70933-008667FM-12+0009ENJA V0201201N004019999999N9999999N1+00191+00131098811ADDMA1999999098701MD1710131+9999REMSYN060AAXX  17141 01001 46/// /1204 10019 20013 39870 49881 57013;
0075010010999992010011715004+70933-008667FM-12+0009ENJA V02099999999999999999N9999999N1+00191+00141999999REMSYN066AAXX  17151 01001 41X01 91205 10019 20014 39865 49876 57014 74564;
0101010010999992010011716004+70933-008667FM-12+0009ENJA V0201101N003019999999N9999999N1+00191+00141098711ADDMA1999999098601MD1710151+9999REMSYN060AAXX  17161 01001 46/// /1103 10019 20014 39860 49871 57015;
0101010010999992010011717004+70933-008667FM-12+0009ENJA V0201101N003019999999N9999999N1+00181+00131098641ADDMA1999999098531MD1710171+9999REMSYN060AAXX  17171 01001 46/// /1103 10018 20013 39853 49864 57017;
0103010010999992010011718004+70933-008667FM-12+0009ENJA V02099999999999999999N9999999N1+00191+00131999999REMSYN094AAXX  17181 01001 11X05 60602 10019 20013 39843 49854 58022 60022 74264 86600 333 10026 91106;
0101010010999992010011719004+70933-008667FM-12+0009ENJA V0200701N005019999999N9999999N1+00251+00191098411ADDMA1999999098301MD1810301+9999REMSYN060AAXX  17191 01001 46/// /0705 10025 20019 39830 49841 58030;
0101010010999992010011720004+70933-008667FM-12+0009ENJA V0200701N007019999999N9999999N1+00301+00231098251ADDMA1999999098141MD1810401+9999REMSYN060AAXX  17201 01001 46/// /0707 10030 20023 39814 49825 58040;
0101010010999992010011721004+70933-008667FM-12+0009ENJA V0200601N005019999999N9999999N1+00281+00201098071ADDMA1999999097961MD1810471+9999REMSYN060AAXX  17211 01001 46/// /0605 10028 20020 39796 49807 58047;
0101010010999992010011722004+70933-008667FM-12+0009ENJA V0200701N005019999999N9999999N1+00291+00201097931ADDMA1999999097821MD1810481+9999REMSYN060AAXX  17221 01001 46/// /0705 10029 20020 39782 49793 58048;
0101010010999992010011723004+70933-008667FM-12+0009ENJA V0200301N004019999999N9999999N1+00251+00161097811ADDMA1999999097701MD1610441+9999REMSYN060AAXX  17231 01001 46/// /0304 10025 20016 39770 49781 56044;
0188010010999992010011800004+70933-008667FM-12+0009ENJA V0200101N002010021019N0020001N1+00281+00191097751ADDAA106001091AY161061AY241061GF108991081061002501999999MA1999999097641MD1610321+9999MW1631REMSYN088AAXX  18001 01001 11320 80102 10028 20019 39764 49775 56032 60011 76364 886// 333 91112;
0101010010999992010011801004+70933-008667FM-12+0009ENJA V0202601N007019999999N9999999N1+00371+00201097771ADDMA1999999097661MD1510151+9999REMSYN060AAXX  18011 01001 46/// /2607 10037 20020 39766 49777 55015;
0101010010999992010011802004+70933-008667FM-12+0009ENJA V0202701N009019999999N9999999N1+00171+00091097961ADDMA1999999097851MD1310151+9999REMSYN060AAXX  18021 01001 46/// /2709 10017 20009 39785 49796 53015;
0101010010999992010011803004+70933-008667FM-12+0009ENJA V0202601N010019999999N9999999N1+00171+00091098161ADDMA1999999098051MD1310421+9999REMSYN060AAXX  18031 01001 46/// /2610 10017 20009 39805 49816 53042;
0101010010999992010011804004+70933-008667FM-12+0009ENJA V0202601N009019999999N9999999N1+00161+00081098341ADDMA1999999098231MD1310561+9999REMSYN060AAXX  18041 01001 46/// /2609 10016 20008 39823 49834 53056;
0101010010999992010011805004+70933-008667FM-12+0009ENJA V0202501N006019999999N9999999N1+00201+00061098491ADDMA1999999098381MD1310531+9999REMSYN060AAXX  18051 01001 46/// /2506 10020 20006 39838 49849 53053;
0272010010999992010011806004+70933-008667FM-12+0009ENJA V0202501N007010240019N0150001N1+00241+00061098681ADDAA112002091AA224004391AJ199991999999999AY161061AY221061GF105991031051004501011001IA1259KA1999N+00151MA1999999098571MD1310511+9999MW1011REMSYN106AAXX  18061 01001 11465 52507 10024 20006 39857 49868 53051 60022 70162 83510 333 20015 41999 70043 91117;EQDQ01  09962SNDP  
0101010010999992010011807004+70933-008667FM-12+0009ENJA V0202101N008019999999N9999999N1+00121-00051098831ADDMA1999999098711MD1310491+9999REMSYN060AAXX  18071 01001 46/// /2108 10012 21005 39871 49883 53049;
0101010010999992010011808004+70933-008667FM-12+0009ENJA V0202101N009019999999N9999999N1+00071-00121098941ADDMA1999999098821MD1110431+9999REMSYN060AAXX  18081 01001 46/// /2109 10007 21012 39882 49894 51043;
0161010010999992010011809004+70933-008667FM-12+0009ENJA V0202301N008012200019N0120001N1+00071-00101099021ADDAY181031AY261031GF104991031031004501061001MA1999999098901MD1110341+9999MW1801REMSYN072AAXX  18091 01001 41462 42308 10007 21010 39890 49902 51034 78086 83360;
0101010010999992010011810004+70933-008667FM-12+0009ENJA V0202001N008019999999N9999999N1+00041-00071099121ADDMA1999999099001MD1210281+9999REMSYN060AAXX  18101 01001 46/// /2008 10004 21007 39900 49912 52028;
0101010010999992010011811004+70933-008667FM-12+0009ENJA V0202001N007019999999N9999999N1+00031-00061099161ADDMA1999999099041MD1110221+9999REMSYN060AAXX  18111 01001 46/// /2007 10003 21006 39904 49916 51022;
0208010010999992010011812004+70933-008667FM-12+0009ENJA V0202001N005010021019N0040001N1+00051-00031099231ADDAA106000021AY181061AY261061GF108991081061002501999999MA1999999099111MD1210211+9999MW1101SA1+0109REMSYN100AAXX  18121 01001 11340 82005 10005 21003 39911 49923 52021 69901 71086 886// 222// 00010 333 91116;
0101010010999992010011813004+70933-008667FM-12+0009ENJA V0202701N009019999999N9999999N1+00041-00131099321ADDMA1999999099201MD1310201+9999REMSYN060AAXX  18131 01001 46/// /2709 10004 21013 39920 49932 53020;
0101010010999992010011814004+70933-008667FM-12+0009ENJA V0202501N008019999999N9999999N1-00011-00191099421ADDMA1999999099301MD1310271+9999REMSYN060AAXX  18141 01001 46/// /2508 11001 21019 39930 49942 53027;
0161010010999992010011815004+70933-008667FM-12+0009ENJA V0202701N009012200019N0100001N1-00091-00311099531ADDAY181031AY271031GF104991041031004501001001MA1999999099411MD1310301+9999MW1851REMSYN072AAXX  18151 01001 41460 42709 11009 21031 39941 49953 53030 78587 84300;
0101010010999992010011816004+70933-008667FM-12+0009ENJA V0202601N005019999999N9999999N1-00121-00331099641ADDMA1999999099521MD1310321+9999REMSYN060AAXX  18161 01001 46/// /2605 11012 21033 39952 49964 53032;
0101010010999992010011817004+70933-008667FM-12+0009ENJA V0202201N003019999999N9999999N1-00141-00301099701ADDMA1999999099581MD1110281+9999REMSYN060AAXX  18171 01001 46/// /2203 11014 21030 39958 49970 51028;
0207010010999992010011818004+70933-008667FM-12+0009ENJA V0202101N006010042019N0080001N1-00101-00231099711ADDAA112000021AY181061AY241061GF106991051031004501021001KA1120M+00241MA1999999099591MD1110181+9999MW1851REMSYN094AAXX  18181 01001 11458 62106 11010 21023 39959 49971 51018 69912 78584 85320 333 10024 91121;
0101010010999992010011819004+70933-008667FM-12+0009ENJA V0202001N005019999999N9999999N1-00021-00121099721ADDMA1999999099601MD1110091+9999REMSYN060AAXX  18191 01001 46/// /2005 11002 21012 39960 49972 51009;
0101010010999992010011820004+70933-008667FM-12+0009ENJA V0202101N004019999999N9999999N1+00031-00051099691ADDMA1999999099571MD1010001+9999REMSYN060AAXX  18201 01001 46/// /2104 10003 21005 39957 49969 50000;
0101010010999992010011821004+70933-008667FM-12+0009ENJA V0202101N008019999999N9999999N1+00141+00071099671ADDMA1999999099551MD1810041+9999REMSYN060AAXX  18211 01001 46/// /2108 10014 20007 39955 49967 58004;
0101010010999992010011822004+70933-008667FM-12+0009ENJA V0202101N008019999999N9999999N1+00161+00041099701ADDMA1999999099581MD1510031+9999REMSYN060AAXX  18221 01001 46/// /2108 10016 20004 39958 49970 55003;
0101010010999992010011823004+70933-008667FM-12+0009ENJA V0202101N010019999999N9999999N1+00121-00011099711ADDMA1999999099591MD1310021+9999REMSYN060AAXX  18231 01001 46/// /2110 10012 21001 39959 49971 53002;
0188010010999992010011900004+70933-008667FM-12+0009ENJA V0202101N007010075019N0080001N1+00031-00221099831ADDAA106002091AY181061AY271061GF106991061031008001021001MA1999999099711MD1310171+9999MW1831REMSYN088AAXX  19001 01001 11558 62107 10003 21022 39971 49983 53017 60021 78387 86320 333 91115;
0101010010999992010011901004+70933-008667FM-12+0009ENJA V0202001N007019999999N9999999N1-00031-00281099901ADDMA1999999099781MD1310211+9999REMSYN060AAXX  19011 01001 46/// /2007 11003 21028 39978 49990 53021;
0101010010999992010011902004+70933-008667FM-12+0009ENJA V0202101N005019999999N9999999N1-00031-00291099941ADDMA1999999099821MD1110241+9999REMSYN060AAXX  19021 01001 46/// /2105 11003 21029 39982 49994 51024;
0101010010999992010011903004+70933-008667FM-12+0009ENJA V0202101N007019999999N9999999N1-00041-00261099981ADDMA1999999099861MD1110151+9999REMSYN060AAXX  19031 01001 46/// /2107 11004 21026 39986 49998 51015;
0101010010999992010011904004+70933-008667FM-12+0009ENJA V0202201N007019999999N9999999N1-00021-00261099981ADDMA1999999099861MD1110081+9999REMSYN060AAXX  19041 01001 46/// /2207 11002 21026 39986 49998 51008;
0101010010999992010011905004+70933-008667FM-12+0009ENJA V0202201N010019999999N9999999N1+00071-00241099991ADDMA1999999099871MD1310051+9999REMSYN060AAXX  19051 01001 46/// /2210 10007 21024 39987 49999 53005;
0261010010999992010011906004+70933-008667FM-12+0009ENJA V0202401N009010042019N0100001N1+00111-00201100031ADDAA106000021AJ199991999999999AY181061AY221061GF106991051031004501021001IA1259KA1999N-00111MA1999999099911MD1310051+9999MW1801REMSYN106AAXX  19061 01001 11460 62409 10011 21020 39991 40003 53005 60001 78082 85320 333 21011 41999 7//// 91116;EQDQ01  09962SNDP  
0101010010999992010011907004+70933-008667FM-12+0009ENJA V0202301N009019999999N9999999N1+00111-00131100081ADDMA1999999099961MD1310111+9999REMSYN060AAXX  19071 01001 46/// /2309 10011 21013 39996 40008 53011;
0101010010999992010011908004+70933-008667FM-12+0009ENJA V0202201N004019999999N9999999N1+00101-00041100161ADDMA1999999100041MD1310161+9999REMSYN060AAXX  19081 01001 46/// /2204 10010 21004 30004 40016 53016;
0161010010999992010011909004+70933-008667FM-12+0009ENJA V0202401N008010042019N0100001N1+00191-00111100211ADDAY181031AY221031GF106991051031004501021001MA1999999100091MD1310191+9999MW1801REMSYN072AAXX  19091 01001 41460 62408 10019 21011 30009 40021 53019 78082 85320;
0101010010999992010011910004+70933-008667FM-12+0009ENJA V0202401N007019999999N9999999N1+00181-00141100281ADDMA1999999100161MD1210201+9999REMSYN060AAXX  19101 01001 46/// /2407 10018 21014 30016 40028 52020;
0101010010999992010011911004+70933-008667FM-12+0009ENJA V0202301N003019999999N9999999N1+00101-00141100401ADDMA1999999100281MD1310251+9999REMSYN060AAXX  19111 01001 46/// /2303 10010 21014 30028 40040 53025;
0208010010999992010011912004+70933-008667FM-12+0009ENJA V0201901N004010042019N0130001N1+00011-00151100491ADDAA106000021AY181061AY241061GF106991051061004501061061MA1999999100371MD1310271+9999MW1021SA1+0099REMSYN100AAXX  19121 01001 11463 61904 10001 21015 30037 40049 53027 69921 70284 85666 222// 00009 333 91115;
0101010010999992010011913004+70933-008667FM-12+0009ENJA V0202001N003019999999N9999999N1-00011-00151100561ADDMA1999999100441MD1110281+9999REMSYN060AAXX  19131 01001 46/// /2003 11001 21015 30044 40056 51028;
0101010010999992010011914004+70933-008667FM-12+0009ENJA V0202601N005019999999N9999999N1-00081-00251100611ADDMA1999999100491MD1210211+9999REMSYN060AAXX  19141 01001 46/// /2605 11008 21025 30049 40061 52021;
0161010010999992010011915004+70933-008667FM-12+0009ENJA V0201501N002012200019N0200001N1-00081-00251100651ADDAY181031AY211031GF103991021061004501001081MA1999999100531MD1110171+9999MW1021REMSYN072AAXX  19151 01001 41470 31502 11008 21025 30053 40065 51017 70281 82608;
0101010010999992010011916004+70933-008667FM-12+0009ENJA V0203601N002019999999N9999999N1-00111-00271100711ADDMA1999999100591MD1210151+9999REMSYN060AAXX  19161 01001 46/// /3602 11011 21027 30059 40071 52015;
0101010010999992010011917004+70933-008667FM-12+0009ENJA V0202701N001019999999N9999999N1-00171-00321100741ADDMA1999999100621MD1110141+9999REMSYN060AAXX  19171 01001 46/// /2701 11017 21032 30062 40074 51014;
0207010010999992010011918004+70933-008667FM-12+0009ENJA V0201801N003012200019N0250001N1-00141-00261100781ADDAA112000021AY181061AY211061GF102991011021004501061001KA1120M+00191MA1999999100661MD1110131+9999MW1011REMSYN094AAXX  19181 01001 11475 21803 11014 21026 30066 40078 51013 69922 70181 81260 333 10019 91109;
0101010010999992010011919004+70933-008667FM-12+0009ENJA V0202201N003019999999N9999999N1-00131-00241100831ADDMA1999999100711MD1310111+9999REMSYN060AAXX  19191 01001 46/// /2203 11013 21024 30071 40083 53011;
0101010010999992010011920004+70933-008667FM-12+0009ENJA V0202001N004019999999N9999999N1-00011-00131100821ADDMA1999999100701MD1010081+9999REMSYN060AAXX  19201 01001 46/// /2004 11001 21013 30070 40082 50008;
0101010010999992010011921004+70933-008667FM-12+0009ENJA V0202201N002019999999N9999999N1+00011-00111100811ADDMA1999999100691MD1010031+9999REMSYN060AAXX  19211 01001 46/// /2202 10001 21011 30069 40081 50003;
0101010010999992010011922004+70933-008667FM-12+0009ENJA V0202101N004019999999N9999999N1+00041-00051100751ADDMA1999999100631MD1810071+9999REMSYN060AAXX  19221 01001 46/// /2104 10004 21005 30063 40075 58007;
0101010010999992010011923004+70933-008667FM-12+0009ENJA V0201801N003019999999N9999999N1+00081+00001100751ADDMA1999999100631MD1610071+9999REMSYN060AAXX  19231 01001 46/// /1803 10008 20000 30063 40075 56007;
0091010010999992010012000004+70933-008667FM-12+0009ENJA V02099999999999999999N9999999N1+00091+00031999999REMSYN082AAXX  20001 01001 11X05 91803 10009 20003 30061 40073 56008 69951 75354 333 91107;
0101010010999992010012001004+70933-008667FM-12+0009ENJA V0202001N006019999999N9999999N1+00171+00111100751ADDMA1999999100631MD1510011+9999REMSYN060AAXX  20011 01001 46/// /2006 10017 20011 30063 40075 55001;
0101010010999992010012002004+70933-008667FM-12+0009ENJA V0202001N008019999999N9999999N1+00191+00131100751ADDMA1999999100631MD1510001+9999REMSYN060AAXX  20021 01001 46/// /2008 10019 20013 30063 40075 55000;
0101010010999992010012003004+70933-008667FM-12+0009ENJA V0202001N008019999999N9999999N1+00191+00141100821ADDMA1999999100701MD1310091+9999REMSYN060AAXX  20031 01001 46/// /2008 10019 20014 30070 40082 53009;
0101010010999992010012004004+70933-008667FM-12+0009ENJA V0202001N007019999999N9999999N1+00211+00161100841ADDMA1999999100721MD1310091+9999REMSYN060AAXX  20041 01001 46/// /2007 10021 20016 30072 40084 53009;
0101010010999992010012005004+70933-008667FM-12+0009ENJA V0202001N007019999999N9999999N1+00221+00171100921ADDMA1999999100801MD1310171+9999REMSYN060AAXX  20051 01001 46/// /2007 10022 20017 30080 40092 53017;
0109010010999992010012006004+70933-008667FM-12+0009ENJA V02099999999999999999N9999999N1+00201+00151999999REMSYN100AAXX  20061 01001 11X05 92005 10020 20015 30084 40096 53015 60012 75354 333 21013 41999 70013 91111;
0101010010999992010012007004+70933-008667FM-12+0009ENJA V0202101N005019999999N9999999N1+00211+00161101011ADDMA1999999100891MD1210171+9999REMSYN060AAXX  20071 01001 46/// /2105 10021 20016 30089 40101 52017;
0101010010999992010012008004+70933-008667FM-12+0009ENJA V0202001N005019999999N9999999N1+00221+00171101071ADDMA1999999100951MD1210161+9999REMSYN060AAXX  20081 01001 46/// /2005 10022 20017 30095 40107 52016;
0101010010999992010012009004+70933-008667FM-12+0009ENJA V0201901N003019999999N9999999N1+00241+00191101151ADDMA1999999101031MD1310181+9999REMSYN060AAXX  20091 01001 46/// /1903 10024 20019 30103 40115 53018;
0101010010999992010012010004+70933-008667FM-12+0009ENJA V0201401N002019999999N9999999N1+00241+00191101211ADDMA1999999101091MD1210201+9999REMSYN060AAXX  20101 01001 46/// /1402 10024 20019 30109 40121 52020;
0101010010999992010012011004+70933-008667FM-12+0009ENJA V0201901N004019999999N9999999N1+00241+00181101271ADDMA1999999101151MD1210201+9999REMSYN060AAXX  20111 01001 46/// /1904 10024 20018 30115 40127 52020;
0227010010999992010012012004+70933-008667FM-12+0009ENJA V0202001N005010021019N0040001N1+00241+00171101271ADDAA106000091AY151061AY241061GF108991081061002501999999MA1999999101151MD1110131+9999MW1101SA1+0089REMSYN100AAXX  20121 01001 11340 82005 10024 20017 30115 40127 51013 69921 71054 886// 222// 00008 333 91109;EQDQ01  00002PRCP06
0101010010999992010012013004+70933-008667FM-12+0009ENJA V0202001N005019999999N9999999N1+00251+00161101331ADDMA1999999101211MD1310121+9999REMSYN060AAXX  20131 01001 46/// /2005 10025 20016 30121 40133 53012;
0101010010999992010012014004+70933-008667FM-12+0009ENJA V0202001N005019999999N9999999N1+00241+00131101381ADDMA1999999101261MD1310111+9999REMSYN060AAXX  20141 01001 46/// /2005 10024 20013 30126 40138 53011;
0161010010999992010012015004+70933-008667FM-12+0009ENJA V0202001N004010021019N0050001N1+00231+00121101431ADDAY121031AY221031GF108991081061002501999999MA1999999101311MD1210161+9999MW1101REMSYN072AAXX  20151 01001 41350 82004 10023 20012 30131 40143 52016 71022 886//;
0101010010999992010012016004+70933-008667FM-12+0009ENJA V0202001N003019999999N9999999N1+00221+00121101481ADDMA1999999101361MD1210151+9999REMSYN060AAXX  20161 01001 46/// /2003 10022 20012 30136 40148 52015;
0101010010999992010012017004+70933-008667FM-12+0009ENJA V0201701N008019999999N9999999N1+00241+00131101511ADDMA1999999101391MD1210131+9999REMSYN060AAXX  20171 01001 46/// /1708 10024 20013 30139 40151 52013;
0226010010999992010012018004+70933-008667FM-12+0009ENJA V0201601N010010021019N0050001N1+00261+00141101551ADDAA112000091AY121061AY221061GF108991081061002501999999KA1120M+00271MA1999999101431MD1210121+9999MW1101REMSYN094AAXX  20181 01001 11350 81610 10026 20014 30143 40155 52012 69922 71022 886// 333 10027 91112;EQDQ01  00002PRCP12
0101010010999992010012019004+70933-008667FM-12+0009ENJA V0201501N010019999999N9999999N1+00251+00121101571ADDMA1999999101451MD1210101+9999REMSYN060AAXX  20191 01001 46/// /1510 10025 20012 30145 40157 52010;
0101010010999992010012020004+70933-008667FM-12+0009ENJA V0201601N009019999999N9999999N1+00261+00101101641ADDMA1999999101521MD1310141+9999REMSYN060AAXX  20201 01001 46/// /1609 10026 20010 30152 40164 53014;
0101010010999992010012021004+70933-008667FM-12+0009ENJA V0201501N010019999999N9999999N1+00261+00111101681ADDMA1999999101561MD1310131+9999REMSYN060AAXX  20211 01001 46/// /1510 10026 20011 30156 40168 53013;
0101010010999992010012022004+70933-008667FM-12+0009ENJA V0201501N010019999999N9999999N1+00271+00121101721ADDMA1999999101601MD1210151+9999REMSYN060AAXX  20221 01001 46/// /1510 10027 20012 30160 40172 52015;
0101010010999992010012023004+70933-008667FM-12+0009ENJA V0201401N009019999999N9999999N1+00261+00101101741ADDMA1999999101621MD1210101+9999REMSYN060AAXX  20231 01001 46/// /1409 10026 20010 30162 40174 52010;
0207010010999992010012100004+70933-008667FM-12+0009ENJA V0201401N010010075019N0100001N1+00251+00081101761ADDAA106000091AY121061AY221061GF108991081021008001999999MA1999999101641MD1210081+9999MW1021REMSYN088AAXX  21001 01001 11560 81410 10025 20008 30164 40176 52008 60001 70222 882// 333 91112;EQDQ01  00002PRCP06
0101010010999992010012101004+70933-008667FM-12+0009ENJA V0201501N010019999999N9999999N1+00271+00091101771ADDMA1999999101651MD1210051+9999REMSYN060AAXX  21011 01001 46/// /1510 10027 20009 30165 40177 52005;
0101010010999992010012102004+70933-008667FM-12+0009ENJA V0201601N010019999999N9999999N1+00281+00111101811ADDMA1999999101691MD1210071+9999REMSYN060AAXX  21021 01001 46/// /1610 10028 20011 30169 40181 52007;
0101010010999992010012103004+70933-008667FM-12+0009ENJA V0201601N009019999999N9999999N1+00261+00091101831ADDMA1999999101711MD1210071+9999REMSYN060AAXX  21031 01001 46/// /1609 10026 20009 30171 40183 52007;
0101010010999992010012104004+70933-008667FM-12+0009ENJA V0201601N010019999999N9999999N1+00261+00091101821ADDMA1999999101701MD1110051+9999REMSYN060AAXX  21041 01001 46/// /1610 10026 20009 30170 40182 51005;
0101010010999992010012105004+70933-008667FM-12+0009ENJA V0201601N010019999999N9999999N1+00261+00091101841ADDMA1999999101721MD1210031+9999REMSYN060AAXX  21051 01001 46/// /1610 10026 20009 30172 40184 52003;
0288010010999992010012106004+70933-008667FM-12+0009ENJA V0201601N011010042019N0050001N1+00281+00131101881ADDAA112000091AA224000391AJ199991999999999AY121061AY221061GF108991081061004501999999IA1259KA1999N+00241MA1999999101761MD1310051+9999MW1101REMSYN106AAXX  21061 01001 11450 81611 10028 20013 30176 40188 53005 60002 71022 886// 333 20024 41999 70002 91113;EQDQ01  00002PRCP12Q02  09962SNDP  
0101010010999992010012107004+70933-008667FM-12+0009ENJA V0201601N009019999999N9999999N1+00241+00111101931ADDMA1999999101811MD1310111+9999REMSYN060AAXX  21071 01001 46/// /1609 10024 20011 30181 40193 53011;
0101010010999992010012108004+70933-008667FM-12+0009ENJA V0201501N009019999999N9999999N1+00231+00111101951ADDMA1999999101831MD1210111+9999REMSYN060AAXX  21081 01001 46/// /1509 10023 20011 30183 40195 52011;
0161010010999992010012109004+70933-008667FM-12+0009ENJA V0201601N007010042019N0050001N1+00201+00091101971ADDAY121031AY221031GF108991081061004501999999MA1999999101851MD1110091+9999MW1101REMSYN072AAXX  21091 01001 41450 81607 10020 20009 30185 40197 51009 71022 886//;
0101010010999992010012110004+70933-008667FM-12+0009ENJA V0201501N008019999999N9999999N1+00211+00091101991ADDMA1999999101871MD1210061+9999REMSYN060AAXX  21101 01001 46/// /1508 10021 20009 30187 40199 52006;
0101010010999992010012111004+70933-008667FM-12+0009ENJA V0201501N007019999999N9999999N1+00201+00081102011ADDMA1999999101891MD1210061+9999REMSYN060AAXX  21111 01001 46/// /1507 10020 20008 30189 40201 52006;
0219010010999992010012112004+70933-008667FM-12+0009ENJA V0201301N007010042019N0100001N1+00191+00081101981ADDAA106000091AY121061AY221061GF107991061011004501041999MA1999999101861MD1010011+9999MW1021REMSYN100AAXX  21121 01001 11460 71307 10019 20008 30186 40198 50001 60001 70222 8614/ 222// 00010 333 91112;EQDQ01  00002PRCP06
0101010010999992010012113004+70933-008667FM-12+0009ENJA V0201801N005019999999N9999999N1+00181+00071101941ADDMA1999999101821MD1810051+9999REMSYN060AAXX  21131 01001 46/// /1805 10018 20007 30182 40194 58005;
0101010010999992010012114004+70933-008667FM-12+0009ENJA V0201901N007019999999N9999999N1+00201+00081101891ADDMA1999999101771MD1810121+9999REMSYN060AAXX  21141 01001 46/// /1907 10020 20008 30177 40189 58012;
0161010010999992010012115004+70933-008667FM-12+0009ENJA V0201501N006010042019N0100001N1+00201+00061101861ADDAY121031AY221031GF108991081051004501999999MA1999999101741MD1710121+9999MW1021REMSYN072AAXX  21151 01001 41460 81506 10020 20006 30174 40186 57012 70222 885//;
0101010010999992010012116004+70933-008667FM-12+0009ENJA V0201501N006019999999N9999999N1+00201+00051101851ADDMA1999999101731MD1610081+9999REMSYN060AAXX  21161 01001 46/// /1506 10020 20005 30173 40185 56008;
0101010010999992010012117004+70933-008667FM-12+0009ENJA V0201401N006019999999N9999999N1+00191+00041101831ADDMA1999999101711MD1710061+9999REMSYN060AAXX  21171 01001 46/// /1406 10019 20004 30171 40183 57006;
0226010010999992010012118004+70933-008667FM-12+0009ENJA V0201301N005010120019N0120001N1+00181+00021101841ADDAA112000091AY121061AY221061GF108991081051012501999999KA1120M+00281MA1999999101721MD1710021+9999MW1021REMSYN094AAXX  21181 01001 11662 81305 10018 20002 30172 40184 57002 60002 70222 885// 333 10028 91110;EQDQ01  00002PRCP12
0101010010999992010012119004+70933-008667FM-12+0009ENJA V0201401N005019999999N9999999N1+00181+00011101831ADDMA1999999101711MD1510021+9999REMSYN060AAXX  21191 01001 46/// /1405 10018 20001 30171 40183 55002;
0101010010999992010012120004+70933-008667FM-12+0009ENJA V0201401N009019999999N9999999N1+00201-00031101831ADDMA1999999101711MD1410001+9999REMSYN060AAXX  21201 01001 46/// /1409 10020 21003 30171 40183 54000;
0101010010999992010012121004+70933-008667FM-12+0009ENJA V0201301N006019999999N9999999N1+00181-00011101821ADDMA1999999101701MD1710021+9999REMSYN060AAXX  21211 01001 46/// /1306 10018 21001 30170 40182 57002;
0101010010999992010012122004+70933-008667FM-12+0009ENJA V0201001N006019999999N9999999N1+00161+00021101811ADDMA1999999101691MD1710021+9999REMSYN060AAXX  21221 01001 46/// /1006 10016 20002 30169 40181 57002;
