0101010370999992008010101004+69383+020267FM-12+000699999V0201801N006019999999N9999999N1-00321-00861103811ADDMA1999999103751MD1210091+9999REMSYN060AAXX  01011 01037 46/// /1806 11032 21086 30375 40381 52009;
0122010370999992008010102004+69383+020267FM-12+000699999V0201701N006019999999N9999999N1-00311-00901103801ADDAA101000021MA1999999103741MD1010041+9999REMSYN070AAXX  01021 01037 26/// /1706 11031 21090 30374 40380 50004 333 60005;
0122010370999992008010103004+69383+020267FM-12+000699999V0201601N007019999999N9999999N1-00371-00961103861ADDAA101000021MA1999999103801MD1310061+9999REMSYN070AAXX  01031 01037 26/// /1607 11037 21096 30380 40386 53006 333 60005;
0122010370999992008010104004+69383+020267FM-12+000699999V0201601N006019999999N9999999N1-00331-00921103921ADDAA101000021MA1999999103861MD1310111+9999REMSYN070AAXX  01041 01037 26/// /1606 11033 21092 30386 40392 53011 333 60005;
0122010370999992008010105004+69383+020267FM-12+000699999V0201601N005019999999N9999999N1-00321-00911103981ADDAA101000021MA1999999103911MD1210181+9999REMSYN070AAXX  01051 01037 26/// /1605 11032 21091 30391 40398 52018 333 60005;
0180010370999992008010106004+69383+020267FM-12+000699999V0201701N005019999999N9999999N1-00351-00921103971ADDAA112000091AA224000091MA1999999103911MD1010111+9999REMSYN082AAXX  01061 01037 16/// /1705 11035 21092 30391 40397 50011 60002 333 70000 91115;EQDQ01  00002PRCP24Q02  00002PRCP12
0122010370999992008010107004+69383+020267FM-12+000699999V0201701N005019999999N9999999N1-00321-00911103961ADDAA101000021MA1999999103901MD1010041+9999REMSYN070AAXX  01071 01037 26/// /1705 11032 21091 30390 40396 50004 333 60005;
0122010370999992008010108004+69383+020267FM-12+000699999V0201701N006019999999N9999999N1-00271-00941104021ADDAA101000021MA1999999103961MD1310051+9999REMSYN070AAXX  01081 01037 26/// /1706 11027 21094 30396 40402 53005 333 60005;
0122010370999992008010109004+69383+020267FM-12+000699999V0201701N007019999999N9999999N1-00231-00951104041ADDAA101000021MA1999999103971MD1310071+9999REMSYN070AAXX  01091 01037 26/// /1707 11023 21095 30397 40404 53007 333 60005;
0122010370999992008010110004+69383+020267FM-12+000699999V0201501N006019999999N9999999N1-00241-00961104081ADDAA101000021MA1999999104021MD1210121+9999REMSYN070AAXX  01101 01037 26/// /1506 11024 21096 30402 40408 52012 333 60005;
0122010370999992008010111004+69383+020267FM-12+000699999V0201601N006019999999N9999999N1-00271-01001104111ADDAA101000021MA1999999104051MD1210091+9999REMSYN070AAXX  01111 01037 26/// /1606 11027 21100 30405 40411 52009 333 60005;
0147010370999992008010112004+69383+020267FM-12+000699999V0201601N006019999999N9999999N1-00291-01051104131ADDAA106000091MA1999999104071MD1110101+9999REMSYN076AAXX  01121 01037 16/// /1606 11029 21105 30407 40413 51010 60001 333 91115;EQDQ01  00002PRCP06
0122010370999992008010114004+69383+020267FM-12+000699999V0201701N005019999999N9999999N1-00341-01071104241ADDAA101000021MA1999999104181MD1310131+9999REMSYN070AAXX  01141 01037 26/// /1705 11034 21107 30418 40424 53013 333 60005;
0122010370999992008010115004+69383+020267FM-12+000699999V0201701N005019999999N9999999N1-00361-01091104261ADDAA101000021MA1999999104191MD1110121+9999REMSYN070AAXX  01151 01037 26/// /1705 11036 21109 30419 40426 51012 333 60005;
0122010370999992008010116004+69383+020267FM-12+000699999V0201601N006019999999N9999999N1-00371-01161104271ADDAA101000021MA1999999104201MD1210061+9999REMSYN070AAXX  01161 01037 26/// /1606 11037 21116 30420 40427 52006 333 60005;
0122010370999992008010117004+69383+020267FM-12+000699999V0201601N007019999999N9999999N1-00391-01161104241ADDAA101000021MA1999999104181MD1010001+9999REMSYN070AAXX  01171 01037 26/// /1607 11039 21116 30418 40424 50000 333 60005;
0166010370999992008010118004+69383+020267FM-12+000699999V0201601N007019999999N9999999N1-00411-01221104231ADDAA112000091KA1120M-00211MA1999999104171MD1810031+9999REMSYN082AAXX  01181 01037 16/// /1607 11041 21122 30417 40423 58003 60002 333 11021 91114;EQDQ01  00002PRCP12
0122010370999992008010119004+69383+020267FM-12+000699999V0201601N008019999999N9999999N1-00421-01281104201ADDAA101000021MA1999999104141MD1710061+9999REMSYN070AAXX  01191 01037 26/// /1608 11042 21128 30414 40420 57006 333 60005;
0122010370999992008010120004+69383+020267FM-12+000699999V0201701N008019999999N9999999N1-00451-01241104211ADDAA101000021MA1999999104151MD1710021+9999REMSYN070AAXX  01201 01037 26/// /1708 11045 21124 30415 40421 57002 333 60005;
0122010370999992008010121004+69383+020267FM-12+000699999V0201601N008019999999N9999999N1-00411-01221104241ADDAA101000021MA1999999104181MD1310011+9999REMSYN070AAXX  01211 01037 26/// /1608 11041 21122 30418 40424 53001 333 60005;
0122010370999992008010122004+69383+020267FM-12+000699999V0201601N008019999999N9999999N1-00361-01131104231ADDAA101000021MA1999999104171MD1010031+9999REMSYN070AAXX  01221 01037 26/// /1608 11036 21113 30417 40423 50003 333 60005;
0122010370999992008010123004+69383+020267FM-12+000699999V0201701N005019999999N9999999N1-00381-01091104211ADDAA101000021MA1999999104151MD1010001+9999REMSYN070AAXX  01231 01037 26/// /1705 11038 21109 30415 40421 50000 333 60005;
0147010370999992008010200004+69383+020267FM-12+000699999V0201701N005019999999N9999999N1-00341-01011104191ADDAA106000091MA1999999104131MD1810051+9999REMSYN076AAXX  02001 01037 16/// /1705 11034 21101 30413 40419 58005 60001 333 91116;EQDQ01  00002PRCP06
0122010370999992008010201004+69383+020267FM-12+000699999V0201601N006019999999N9999999N1-00241-00871104181ADDAA101000021MA1999999104121MD1510051+9999REMSYN070AAXX  02011 01037 26/// /1606 11024 21087 30412 40418 55005 333 60005;
0122010370999992008010202004+69383+020267FM-12+000699999V0201501N007019999999N9999999N1-00191-00871104171ADDAA101000021MA1999999104111MD1510031+9999REMSYN070AAXX  02021 01037 26/// /1507 11019 21087 30411 40417 55003 333 60005;
0122010370999992008010203004+69383+020267FM-12+000699999V0201401N007019999999N9999999N1-00181-00901104151ADDAA101000021MA1999999104091MD1610041+9999REMSYN070AAXX  02031 01037 26/// /1407 11018 21090 30409 40415 56004 333 60005;
0122010370999992008010204004+69383+020267FM-12+000699999V0201601N007019999999N9999999N1-00161-00881104141ADDAA101000021MA1999999104081MD1810041+9999REMSYN070AAXX  02041 01037 26/// /1607 11016 21088 30408 40414 58004 333 60005;
0122010370999992008010205004+69383+020267FM-12+000699999V0201601N005019999999N9999999N1-00181-00881104151ADDAA101000021MA1999999104091MD1710031+9999REMSYN070AAXX  02051 01037 26/// /1605 11018 21088 30409 40415 57003 333 60005;
0199010370999992008010206004+69383+020267FM-12+000699999V0201601N006019999999N9999999N1-00161-00881104121ADDAA112000091AA224000091KA1120N-00471MA1999999104061MD1810041+9999REMSYN088AAXX  02061 01037 16/// /1606 11016 21088 30406 40412 58004 60002 333 21047 70000 91113;EQDQ01  00002PRCP24Q02  00002PRCP12
0122010370999992008010207004+69383+020267FM-12+000699999V0201601N005019999999N9999999N1-00151-00891104091ADDAA101000021MA1999999104031MD1810051+9999REMSYN070AAXX  02071 01037 26/// /1605 11015 21089 30403 40409 58005 333 60005;
0122010370999992008010208004+69383+020267FM-12+000699999V0201601N006019999999N9999999N1-00121-00821104071ADDAA101000021MA1999999104011MD1710081+9999REMSYN070AAXX  02081 01037 26/// /1606 11012 21082 30401 40407 57008 333 60005;
0122010370999992008010209004+69383+020267FM-12+000699999V0201601N006019999999N9999999N1-00101-00781104081ADDAA101000021MA1999999104021MD1510041+9999REMSYN070AAXX  02091 01037 26/// /1606 11010 21078 30402 40408 55004 333 60005;
0122010370999992008010210004+69383+020267FM-12+000699999V0201601N005019999999N9999999N1-00111-00791104111ADDAA101000021MA1999999104051MD1310021+9999REMSYN070AAXX  02101 01037 26/// /1605 11011 21079 30405 40411 53002 333 60005;
0122010370999992008010211004+69383+020267FM-12+000699999V0201601N006019999999N9999999N1-00091-00751104081ADDAA101000021MA1999999104021MD1010011+9999REMSYN070AAXX  02111 01037 26/// /1606 11009 21075 30402 40408 50001 333 60005;
0147010370999992008010212004+69383+020267FM-12+000699999V0201501N006019999999N9999999N1-00101-00761104071ADDAA106000091MA1999999104011MD1010011+9999REMSYN076AAXX  02121 01037 16/// /1506 11010 21076 30401 40407 50001 60001 333 91113;EQDQ01  00002PRCP06
0122010370999992008010214004+69383+020267FM-12+000699999V0201801N006019999999N9999999N1-00091-00771104051ADDAA101000021MA1999999103991MD1510031+9999REMSYN070AAXX  02141 01037 26/// /1806 11009 21077 30399 40405 55003 333 60005;
0122010370999992008010215004+69383+020267FM-12+000699999V0201701N006019999999N9999999N1-00071-00751104061ADDAA101000021MA1999999104001MD1510011+9999REMSYN070AAXX  02151 01037 26/// /1706 11007 21075 30400 40406 55001 333 60005;
0122010370999992008010217004+69383+020267FM-12+000699999V0201601N006019999999N9999999N1-00101-00761104091ADDAA101000021MA1999999104031MD1210041+9999REMSYN070AAXX  02171 01037 26/// /1606 11010 21076 30403 40409 52004 333 60005;
0166010370999992008010218004+69383+020267FM-12+000699999V0201601N006019999999N9999999N1-00131-00771104071ADDAA112000091KA1120M-00051MA1999999104011MD1010011+9999REMSYN082AAXX  02181 01037 16/// /1606 11013 21077 30401 40407 50001 60002 333 11005 91113;EQDQ01  00002PRCP12
0122010370999992008010219004+69383+020267FM-12+000699999V0201501N005019999999N9999999N1-00161-00801104101ADDAA101000021MA1999999104041MD1210021+9999REMSYN070AAXX  02191 01037 26/// /1505 11016 21080 30404 40410 52002 333 60005;
0122010370999992008010220004+69383+020267FM-12+000699999V0201601N005019999999N9999999N1-00161-00821104121ADDAA101000021MA1999999104061MD1310031+9999REMSYN070AAXX  02201 01037 26/// /1605 11016 21082 30406 40412 53003 333 60005;
0122010370999992008010221004+69383+020267FM-12+000699999V0201601N004019999999N9999999N1-00231-00851104151ADDAA101000021MA1999999104091MD1310081+9999REMSYN070AAXX  02211 01037 26/// /1604 11023 21085 30409 40415 53008 333 60005;
0122010370999992008010222004+69383+020267FM-12+000699999V0201501N003019999999N9999999N1-00251-00851104181ADDAA101000021MA1999999104121MD1310091+9999REMSYN070AAXX  02221 01037 26/// /1503 11025 21085 30412 40418 53009 333 60005;
0122010370999992008010223004+69383+020267FM-12+000699999V0200901N002019999999N9999999N1-00391-00911104161ADDAA101000021MA1999999104101MD1010041+9999REMSYN070AAXX  02231 01037 26/// /0902 11039 21091 30410 40416 50004 333 60005;
0147010370999992008010300004+69383+020267FM-12+000699999V0201401N003019999999N9999999N1-00361-00911104161ADDAA106000091MA1999999104101MD1010011+9999REMSYN076AAXX  03001 01037 16/// /1403 11036 21091 30410 40416 50001 60001 333 91111;EQDQ01  00002PRCP06
0122010370999992008010301004+69383+020267FM-12+000699999V0201201N002019999999N9999999N1-00441-00941104191ADDAA101000021MA1999999104121MD1510001+9999REMSYN070AAXX  03011 01037 26/// /1202 11044 21094 30412 40419 55000 333 60005;
0122010370999992008010302004+69383+020267FM-12+000699999V0201401N002019999999N9999999N1-00401-00931104231ADDAA101000021MA1999999104161MD1310061+9999REMSYN070AAXX  03021 01037 26/// /1402 11040 21093 30416 40423 53006 333 60005;
0122010370999992008010303004+69383+020267FM-12+000699999V0201601N002019999999N9999999N1-00421-00941104231ADDAA101000021MA1999999104171MD1010071+9999REMSYN070AAXX  03031 01037 26/// /1602 11042 21094 30417 40423 50007 333 60005;
0122010370999992008010304004+69383+020267FM-12+000699999V0201501N002019999999N9999999N1-00521-01001104241ADDAA101000021MA1999999104181MD1010051+9999REMSYN070AAXX  03041 01037 26/// /1502 11052 21100 30418 40424 50005 333 60005;
0122010370999992008010305004+69383+020267FM-12+000699999V0201601N003019999999N9999999N1-00761-01061104241ADDAA101000021MA1999999104181MD1210021+9999REMSYN070AAXX  03051 01037 26/// /1603 11076 21106 30418 40424 52002 333 60005;
0199010370999992008010306004+69383+020267FM-12+000699999V0201701N002019999999N9999999N1-00791-01131104281ADDAA112000091AA224000091KA1120N-00861MA1999999104221MD1310051+9999REMSYN088AAXX  03061 01037 16/// /1702 11079 21113 30422 40428 53005 60002 333 21086 70000 91106;EQDQ01  00002PRCP24Q02  00002PRCP12
0122010370999992008010307004+69383+020267FM-12+000699999V0201501N003019999999N9999999N1-00461-00971104271ADDAA101000021MA1999999104211MD1010031+9999REMSYN070AAXX  03071 01037 26/// /1503 11046 21097 30421 40427 50003 333 60005;
0122010370999992008010308004+69383+020267FM-12+000699999V0201401N003019999999N9999999N1-00381-00951104321ADDAA101000021MA1999999104261MD1310081+9999REMSYN070AAXX  03081 01037 26/// /1403 11038 21095 30426 40432 53008 333 60005;
0122010370999992008010309004+69383+020267FM-12+000699999V0201301N002019999999N9999999N1-00511-00971104361ADDAA101000021MA1999999104301MD1310081+9999REMSYN070AAXX  03091 01037 26/// /1302 11051 21097 30430 40436 53008 333 60005;
0122010370999992008010310004+69383+020267FM-12+000699999V0201501N005019999999N9999999N1-00301-00861104341ADDAA101000021MA1999999104281MD1010071+9999REMSYN070AAXX  03101 01037 26/// /1505 11030 21086 30428 40434 50007 333 60005;
0122010370999992008010311004+69383+020267FM-12+000699999V0201601N003019999999N9999999N1-00321-00861104331ADDAA101000021MA1999999104261MD1010011+9999REMSYN070AAXX  03111 01037 26/// /1603 11032 21086 30426 40433 50001 333 60005;
0147010370999992008010312004+69383+020267FM-12+000699999V0201501N004019999999N9999999N1-00301-00861104311ADDAA106000091MA1999999104251MD1710051+9999REMSYN076AAXX  03121 01037 16/// /1504 11030 21086 30425 40431 57005 60001 333 91110;EQDQ01  00002PRCP06
0122010370999992008010313004+69383+020267FM-12+000699999V0201601N005019999999N9999999N1-00301-00841104291ADDAA101000021MA1999999104231MD1710041+9999REMSYN070AAXX  03131 01037 26/// /1605 11030 21084 30423 40429 57004 333 60005;
0122010370999992008010314004+69383+020267FM-12+000699999V0201601N004019999999N9999999N1-00311-00831104301ADDAA101000021MA1999999104241MD1510021+9999REMSYN070AAXX  03141 01037 26/// /1604 11031 21083 30424 40430 55002 333 60005;
0122010370999992008010315004+69383+020267FM-12+000699999V0201501N005019999999N9999999N1-00291-00851104301ADDAA101000021MA1999999104241MD1510011+9999REMSYN070AAXX  03151 01037 26/// /1505 11029 21085 30424 40430 55001 333 60005;
0122010370999992008010316004+69383+020267FM-12+000699999V0201501N004019999999N9999999N1-00381-00931104281ADDAA101000021MA1999999104221MD1410001+9999REMSYN070AAXX  03161 01037 26/// /1504 11038 21093 30422 40428 54001 333 60005;
0122010370999992008010317004+69383+020267FM-12+000699999V0201501N005019999999N9999999N1-00421-01011104321ADDAA101000021MA1999999104261MD1310021+9999REMSYN070AAXX  03171 01037 26/// /1505 11042 21101 30426 40432 53002 333 60005;
0166010370999992008010318004+69383+020267FM-12+000699999V0201501N005019999999N9999999N1-00501-01141104311ADDAA112000091KA1120M-00291MA1999999104251MD1410001+9999REMSYN082AAXX  03181 01037 16/// /1505 11050 21114 30425 40431 54001 60002 333 11029 91111;EQDQ01  00002PRCP12
0122010370999992008010319004+69383+020267FM-12+000699999V0201601N003019999999N9999999N1-00591-01291104301ADDAA101000021MA1999999104241MD1010021+9999REMSYN070AAXX  03191 01037 26/// /1603 11059 21129 30424 40430 50002 333 60005;
0122010370999992008010320004+69383+020267FM-12+000699999V0201601N005019999999N9999999N1-00641-01381104291ADDAA101000021MA1999999104231MD1510031+9999REMSYN070AAXX  03201 01037 26/// /1605 11064 21138 30423 40429 55003 333 60005;
0122010370999992008010321004+69383+020267FM-12+000699999V0201401N004019999999N9999999N1-00591-01421104271ADDAA101000021MA1999999104211MD1510041+9999REMSYN070AAXX  03211 01037 26/// /1404 11059 21142 30421 40427 55004 333 60005;
0122010370999992008010322004+69383+020267FM-12+000699999V0201501N005019999999N9999999N1-00571-01471104251ADDAA101000021MA1999999104191MD1610051+9999REMSYN070AAXX  03221 01037 26/// /1505 11057 21147 30419 40425 56005 333 60005;
0122010370999992008010323004+69383+020267FM-12+000699999V0201401N005019999999N9999999N1-00561-01481104271ADDAA101000021MA1999999104211MD1510021+9999REMSYN070AAXX  03231 01037 26/// /1405 11056 21148 30421 40427 55002 333 60005;
0147010370999992008010400004+69383+020267FM-12+000699999V0201401N006019999999N9999999N1-00611-01511104271ADDAA106000091MA1999999104211MD1510011+9999REMSYN076AAXX  04001 01037 16/// /1406 11061 21151 30421 40427 55001 60001 333 91114;EQDQ01  00002PRCP06
0122010370999992008010401004+69383+020267FM-12+000699999V0201401N005019999999N9999999N1-00651-01501104241ADDAA101000021MA1999999104181MD1010011+9999REMSYN070AAXX  04011 01037 26/// /1405 11065 21150 30418 40424 50001 333 60005;
0122010370999992008010402004+69383+020267FM-12+000699999V0201401N005019999999N9999999N1-00641-01461104201ADDAA101000021MA1999999104141MD1810071+9999REMSYN070AAXX  04021 01037 26/// /1405 11064 21146 30414 40420 58007 333 60005;
0122010370999992008010403004+69383+020267FM-12+000699999V0201501N008019999999N9999999N1-00641-01491104151ADDAA101000021MA1999999104091MD1810121+9999REMSYN070AAXX  04031 01037 26/// /1508 11064 21149 30409 40415 58012 333 60005;
0122010370999992008010404004+69383+020267FM-12+000699999V0201701N006019999999N9999999N1-00661-01501104111ADDAA101000021MA1999999104051MD1710131+9999REMSYN070AAXX  04041 01037 26/// /1706 11066 21150 30405 40411 57013 333 60005;
0122010370999992008010405004+69383+020267FM-12+000699999V0201601N007019999999N9999999N1-00591-01421104091ADDAA101000021MA1999999104031MD1610111+9999REMSYN070AAXX  04051 01037 26/// /1607 11059 21142 30403 40409 56011 333 60005;
0199010370999992008010406004+69383+020267FM-12+000699999V0201501N007019999999N9999999N1-00551-01331104051ADDAA112000091AA224000091KA1120N-00681MA1999999103991MD1710091+9999REMSYN088AAXX  04061 01037 16/// /1507 11055 21133 30399 40405 57009 60002 333 21068 70000 91116;EQDQ01  00002PRCP24Q02  00002PRCP12
0122010370999992008010407004+69383+020267FM-12+000699999V0201801N006019999999N9999999N1-00521-01221104011ADDAA101000021MA1999999103951MD1810101+9999REMSYN070AAXX  04071 01037 26/// /1806 11052 21122 30395 40401 58010 333 60005;
0122010370999992008010408004+69383+020267FM-12+000699999V0201801N006019999999N9999999N1-00471-01151103971ADDAA101000021MA1999999103901MD1710131+9999REMSYN070AAXX  04081 01037 26/// /1806 11047 21115 30390 40397 57013 333 60005;
0122010370999992008010409004+69383+020267FM-12+000699999V0201801N009019999999N9999999N1-00441-01141103921ADDAA101000021MA1999999103861MD1510131+9999REMSYN070AAXX  04091 01037 26/// /1809 11044 21114 30386 40392 55013 333 60005;
0122010370999992008010410004+69383+020267FM-12+000699999V0201701N007019999999N9999999N1-00391-01141103941ADDAA101000021MA1999999103881MD1510071+9999REMSYN070AAXX  04101 01037 26/// /1707 11039 21114 30388 40394 55007 333 60005;
0122010370999992008010411004+69383+020267FM-12+000699999V0201501N007019999999N9999999N1-00401-01131103961ADDAA101000021MA1999999103901MD1510011+9999REMSYN070AAXX  04111 01037 26/// /1507 11040 21113 30390 40396 55001 333 60005;
0147010370999992008010412004+69383+020267FM-12+000699999V0201601N006019999999N9999999N1-00381-01071103891ADDAA106000091MA1999999103831MD1810031+9999REMSYN076AAXX  04121 01037 16/// /1606 11038 21107 30383 40389 58003 60001 333 91115;EQDQ01  00002PRCP06
0122010370999992008010413004+69383+020267FM-12+000699999V0201401N006019999999N9999999N1-00321-01031103821ADDAA101000021MA1999999103761MD1810121+9999REMSYN070AAXX  04131 01037 26/// /1406 11032 21103 30376 40382 58012 333 60005;
0122010370999992008010414004+69383+020267FM-12+000699999V0201301N008019999999N9999999N1-00311-01041103761ADDAA101000021MA1999999103701MD1710201+9999REMSYN070AAXX  04141 01037 26/// /1308 11031 21104 30370 40376 57020 333 60005;
0122010370999992008010415004+69383+020267FM-12+000699999V0201301N007019999999N9999999N1-00341-01091103731ADDAA101000021MA1999999103671MD1610161+9999REMSYN070AAXX  04151 01037 26/// /1307 11034 21109 30367 40373 56016 333 60005;
0122010370999992008010416004+69383+020267FM-12+000699999V0201401N007019999999N9999999N1-00341-01141103681ADDAA101000021MA1999999103621MD1610141+9999REMSYN070AAXX  04161 01037 26/// /1407 11034 21114 30362 40368 56014 333 60005;
0122010370999992008010417004+69383+020267FM-12+000699999V0201401N008019999999N9999999N1-00381-01151103661ADDAA101000021MA1999999103591MD1810101+9999REMSYN070AAXX  04171 01037 26/// /1408 11038 21115 30359 40366 58010 333 60005;
0166010370999992008010418004+69383+020267FM-12+000699999V0201401N007019999999N9999999N1-00411-01201103631ADDAA112000091KA1120M-00291MA1999999103571MD1610101+9999REMSYN082AAXX  04181 01037 16/// /1407 11041 21120 30357 40363 56010 60002 333 11029 91116;EQDQ01  00002PRCP12
0122010370999992008010419004+69383+020267FM-12+000699999V0201401N008019999999N9999999N1-00461-01211103551ADDAA101000021MA1999999103491MD1810131+9999REMSYN070AAXX  04191 01037 26/// /1408 11046 21121 30349 40355 58013 333 60005;
0122010370999992008010420004+69383+020267FM-12+000699999V0201401N007019999999N9999999N1-00501-01271103501ADDAA101000021MA1999999103441MD1810161+9999REMSYN070AAXX  04201 01037 26/// /1407 11050 21127 30344 40350 58016 333 60005;
0122010370999992008010421004+69383+020267FM-12+000699999V0201701N007019999999N9999999N1-00551-01271103421ADDAA101000021MA1999999103351MD1810221+9999REMSYN070AAXX  04211 01037 26/// /1707 11055 21127 30335 40342 58022 333 60005;
0122010370999992008010422004+69383+020267FM-12+000699999V0201501N008019999999N9999999N1-00511-01301103371ADDAA101000021MA1999999103311MD1710181+9999REMSYN070AAXX  04221 01037 26/// /1508 11051 21130 30331 40337 57018 333 60005;
0122010370999992008010423004+69383+020267FM-12+000699999V0201801N007019999999N9999999N1-00561-01281103311ADDAA101000021MA1999999103251MD1810191+9999REMSYN070AAXX  04231 01037 26/// /1807 11056 21128 30325 40331 58019 333 60005;
0147010370999992008010500004+69383+020267FM-12+000699999V0201701N007019999999N9999999N1-00541-01281103291ADDAA106000091MA1999999103221MD1510131+9999REMSYN076AAXX  05001 01037 16/// /1707 11054 21128 30322 40329 55013 60001 333 91118;EQDQ01  00002PRCP06
0122010370999992008010501004+69383+020267FM-12+000699999V0201701N007019999999N9999999N1-00521-01261103261ADDAA101000021MA1999999103191MD1610111+9999REMSYN070AAXX  05011 01037 26/// /1707 11052 21126 30319 40326 56011 333 60005;
0122010370999992008010502004+69383+020267FM-12+000699999V0201601N007019999999N9999999N1-00471-01191103201ADDAA101000021MA1999999103141MD1810111+9999REMSYN070AAXX  05021 01037 26/// /1607 11047 21119 30314 40320 58011 333 60005;
0122010370999992008010503004+69383+020267FM-12+000699999V0201501N007019999999N9999999N1-00251-01251103071ADDAA101000021MA1999999103011MD1810221+9999REMSYN070AAXX  05031 01037 26/// /1507 11025 21125 30301 40307 58022 333 60005;
0122010370999992008010504004+69383+020267FM-12+000699999V0201301N008019999999N9999999N1-00201-01311103011ADDAA101000021MA1999999102951MD1810251+9999REMSYN070AAXX  05041 01037 26/// /1308 11020 21131 30295 40301 58025 333 60005;
0122010370999992008010505004+69383+020267FM-12+000699999V0201301N008019999999N9999999N1-00241-01321102941ADDAA101000021MA1999999102881MD1610261+9999REMSYN070AAXX  05051 01037 26/// /1308 11024 21132 30288 40294 56026 333 60005;
0199010370999992008010506004+69383+020267FM-12+000699999V0201301N009019999999N9999999N1-00281-01411102871ADDAA112000091AA224000091KA1120N-00571MA1999999102811MD1810201+9999REMSYN088AAXX  05061 01037 16/// /1309 11028 21141 30281 40287 58020 60002 333 21057 70000 91118;EQDQ01  00002PRCP24Q02  00002PRCP12
0122010370999992008010507004+69383+020267FM-12+000699999V0201201N010019999999N9999999N1-00381-01451102851ADDAA101000021MA1999999102791MD1510161+9999REMSYN070AAXX  05071 01037 26/// /1210 11038 21145 30279 40285 55016 333 60005;
0122010370999992008010508004+69383+020267FM-12+000699999V0201301N008019999999N9999999N1-00381-01531102741ADDAA101000021MA1999999102681MD1810201+9999REMSYN070AAXX  05081 01037 26/// /1308 11038 21153 30268 40274 58020 333 60005;
0122010370999992008010509004+69383+020267FM-12+000699999V0201201N009019999999N9999999N1-00371-01441102621ADDAA101000021MA1999999102561MD1810251+9999REMSYN070AAXX  05091 01037 26/// /1209 11037 21144 30256 40262 58025 333 60005;
0122010370999992008010510004+69383+020267FM-12+000699999V0201201N010019999999N9999999N1-00441-01371102551ADDAA101000021MA1999999102491MD1710301+9999REMSYN070AAXX  05101 01037 26/// /1210 11044 21137 30249 40255 57030 333 60005;
0122010370999992008010511004+69383+020267FM-12+000699999V0201201N007019999999N9999999N1-00481-01291102411ADDAA101000021MA1999999102351MD1810331+9999REMSYN070AAXX  05111 01037 26/// /1207 11048 21129 30235 40241 58033 333 60005;
0147010370999992008010512004+69383+020267FM-12+000699999V0201301N008019999999N9999999N1-00491-01281102281ADDAA106000091MA1999999102221MD1810341+9999REMSYN076AAXX  05121 01037 16/// /1308 11049 21128 30222 40228 58034 60001 333 91119;EQDQ01  00002PRCP06
0122010370999992008010513004+69383+020267FM-12+000699999V0201201N008019999999N9999999N1-00491-01261102261ADDAA101000021MA1999999102201MD1610291+9999REMSYN070AAXX  05131 01037 26/// /1208 11049 21126 30220 40226 56029 333 60005;
0122010370999992008010514004+69383+020267FM-12+000699999V0201101N008019999999N9999999N1-00541-01261102241ADDAA101000021MA1999999102181MD1610181+9999REMSYN070AAXX  05141 01037 26/// /1108 11054 21126 30218 40224 56018 333 60005;
0122010370999992008010515004+69383+020267FM-12+000699999V0201601N005019999999N9999999N1-00621-01261102231ADDAA101000021MA1999999102161MD1810061+9999REMSYN070AAXX  05151 01037 26/// /1605 11062 21126 30216 40223 58006 333 60005;
0122010370999992008010516004+69383+020267FM-12+000699999V0201701N005019999999N9999999N1-00601-01181102151ADDAA101000021MA1999999102091MD1810111+9999REMSYN070AAXX  05161 01037 26/// /1705 11060 21118 30209 40215 58011 333 60005;
0122010370999992008010517004+69383+020267FM-12+000699999V0201701N005019999999N9999999N1-00571-01151102081ADDAA101000021MA1999999102021MD1810161+9999REMSYN070AAXX  05171 01037 26/// /1705 11057 21115 30202 40208 58016 333 60005;
0166010370999992008010518004+69383+020267FM-12+000699999V0201701N005019999999N9999999N1-00521-01121101991ADDAA112000091KA1120M-00281MA1999999101931MD1810241+9999REMSYN082AAXX  05181 01037 16/// /1705 11052 21112 30193 40199 58024 60002 333 11028 91116;EQDQ01  00002PRCP12
0122010370999992008010519004+69383+020267FM-12+000699999V0201501N006019999999N9999999N1-00421-01111101911ADDAA101000021MA1999999101851MD1710241+9999REMSYN070AAXX  05191 01037 26/// /1506 11042 21111 30185 40191 57024 333 60005;
0122010370999992008010520004+69383+020267FM-12+000699999V0201401N006019999999N9999999N1-00381-01111101851ADDAA101000021MA1999999101791MD1610231+9999REMSYN070AAXX  05201 01037 26/// /1406 11038 21111 30179 40185 56023 333 60005;
0122010370999992008010521004+69383+020267FM-12+000699999V0201501N007019999999N9999999N1-00401-01151101781ADDAA101000021MA1999999101721MD1710211+9999REMSYN070AAXX  05211 01037 26/// /1507 11040 21115 30172 40178 57021 333 60005;
0122010370999992008010522004+69383+020267FM-12+000699999V0201301N008019999999N9999999N1-00441-01231101701ADDAA101000021MA1999999101641MD1810211+9999REMSYN070AAXX  05221 01037 26/// /1308 11044 21123 30164 40170 58021 333 60005;
0122010370999992008010523004+69383+020267FM-12+000699999V0201301N007019999999N9999999N1-00431-01201101681ADDAA101000021MA1999999101621MD1610161+9999REMSYN070AAXX  05231 01037 26/// /1307 11043 21120 30162 40168 56016 333 60005;
0147010370999992008010600004+69383+020267FM-12+000699999V0201301N007019999999N9999999N1-00421-01171101641ADDAA106000091MA1999999101581MD1610141+9999REMSYN076AAXX  06001 01037 16/// /1307 11042 21117 30158 40164 56014 60001 333 91118;EQDQ01  00002PRCP06
0122010370999992008010601004+69383+020267FM-12+000699999V0201601N005019999999N9999999N1-00471-01151101571ADDAA101000021MA1999999101511MD1810131+9999REMSYN070AAXX  06011 01037 26/// /1605 11047 21115 30151 40157 58013 333 60005;
0122010370999992008010602004+69383+020267FM-12+000699999V0201701N005019999999N9999999N1-00441-01071101451ADDAA101000021MA1999999101391MD1810231+9999REMSYN070AAXX  06021 01037 26/// /1705 11044 21107 30139 40145 58023 333 60005;
0122010370999992008010603004+69383+020267FM-12+000699999V0201701N005019999999N9999999N1-00381-01031101401ADDAA101000021MA1999999101341MD1810241+9999REMSYN070AAXX  06031 01037 26/// /1705 11038 21103 30134 40140 58024 333 60005;
0122010370999992008010604004+69383+020267FM-12+000699999V0201701N007019999999N9999999N1-00361-01031101341ADDAA101000021MA1999999101281MD1610231+9999REMSYN070AAXX  06041 01037 26/// /1707 11036 21103 30128 40134 56023 333 60005;
0122010370999992008010605004+69383+020267FM-12+000699999V0201701N006019999999N9999999N1-00341-01011101321ADDAA101000021MA1999999101261MD1710131+9999REMSYN070AAXX  06051 01037 26/// /1706 11034 21101 30126 40132 57013 333 60005;
0199010370999992008010606004+69383+020267FM-12+000699999V0201701N007019999999N9999999N1-00351-01061101321ADDAA112000091AA224000091KA1120N-00521MA1999999101261MD1610081+9999REMSYN088AAXX  06061 01037 16/// /1707 11035 21106 30126 40132 56008 60002 333 21052 70000 91115;EQDQ01  00002PRCP24Q02  00002PRCP12
0122010370999992008010607004+69383+020267FM-12+000699999V0201601N006019999999N9999999N1-00391-01101101331ADDAA101000021MA1999999101271MD1510011+9999REMSYN070AAXX  06071 01037 26/// /1606 11039 21110 30127 40133 55001 333 60005;
0122010370999992008010608004+69383+020267FM-12+000699999V0201701N006019999999N9999999N1-00421-01131101321ADDAA101000021MA1999999101261MD1410001+9999REMSYN070AAXX  06081 01037 26/// /1706 11042 21113 30126 40132 54000 333 60005;
0122010370999992008010609004+69383+020267FM-12+000699999V0201701N007019999999N9999999N1-00441-01121101331ADDAA101000021MA1999999101271MD1010011+9999REMSYN070AAXX  06091 01037 26/// /1707 11044 21112 30127 40133 50001 333 60005;
0122010370999992008010610004+69383+020267FM-12+000699999V0201801N007019999999N9999999N1-00411-01161101291ADDAA101000021MA1999999101231MD1810041+9999REMSYN070AAXX  06101 01037 26/// /1807 11041 21116 30123 40129 58004 333 60005;
0122010370999992008010611004+69383+020267FM-12+000699999V0201901N007019999999N9999999N1-00371-01161101221ADDAA101000021MA1999999101161MD1810101+9999REMSYN070AAXX  06111 01037 26/// /1907 11037 21116 30116 40122 58010 333 60005;
0147010370999992008010612004+69383+020267FM-12+000699999V0201701N009019999999N9999999N1-00401-01151101231ADDAA106000091MA1999999101171MD1710101+9999REMSYN076AAXX  06121 01037 16/// /1709 11040 21115 30117 40123 57010 60001 333 91115;EQDQ01  00002PRCP06
0122010370999992008010613004+69383+020267FM-12+000699999V0201601N006019999999N9999999N1-00411-01161101241ADDAA101000021MA1999999101181MD1610061+9999REMSYN070AAXX  06131 01037 26/// /1606 11041 21116 30118 40124 56006 333 60005;
0122010370999992008010614004+69383+020267FM-12+000699999V0201701N006019999999N9999999N1-00421-01131101201ADDAA101000021MA1999999101141MD1810021+9999REMSYN070AAXX  06141 01037 26/// /1706 11042 21113 30114 40120 58002 333 60005;
0122010370999992008010615004+69383+020267FM-12+000699999V0201801N008019999999N9999999N1-00391-01121101131ADDAA101000021MA1999999101071MD1810091+9999REMSYN070AAXX  06151 01037 26/// /1808 11039 21112 30107 40113 58009 333 60005;
0122010370999992008010616004+69383+020267FM-12+000699999V0201701N007019999999N9999999N1-00361-01161101121ADDAA101000021MA1999999101061MD1610111+9999REMSYN070AAXX  06161 01037 26/// /1707 11036 21116 30106 40112 56011 333 60005;
0122010370999992008010617004+69383+020267FM-12+000699999V0201701N007019999999N9999999N1-00381-01151101111ADDAA101000021MA1999999101051MD1610101+9999REMSYN070AAXX  06171 01037 26/// /1707 11038 21115 30105 40111 56010 333 60005;
0166010370999992008010618004+69383+020267FM-12+000699999V0201801N007019999999N9999999N1-00371-01081101071ADDAA112000091KA1120M-00331MA1999999101011MD1810061+9999REMSYN082AAXX  06181 01037 16/// /1807 11037 21108 30101 40107 58006 60002 333 11033 91116;EQDQ01  00002PRCP12
0122010370999992008010619004+69383+020267FM-12+000699999V0201701N008019999999N9999999N1-00351-01061101041ADDAA101000021MA1999999100981MD1510081+9999REMSYN070AAXX  06191 01037 26/// /1708 11035 21106 30098 40104 55008 333 60005;
0122010370999992008010620004+69383+020267FM-12+000699999V0201701N007019999999N9999999N1-00431-01121100981ADDAA101000021MA1999999100921MD1810131+9999REMSYN070AAXX  06201 01037 26/// /1707 11043 21112 30092 40098 58013 333 60005;
0122010370999992008010621004+69383+020267FM-12+000699999V0201401N004019999999N9999999N1-00451-01181101011ADDAA101000021MA1999999100951MD1510061+9999REMSYN070AAXX  06211 01037 26/// /1404 11045 21118 30095 40101 55006 333 60005;
0122010370999992008010622004+69383+020267FM-12+000699999V0201701N008019999999N9999999N1-00501-01221100981ADDAA101000021MA1999999100921MD1510071+9999REMSYN070AAXX  06221 01037 26/// /1708 11050 21122 30092 40098 55007 333 60005;
0122010370999992008010623004+69383+020267FM-12+000699999V0201601N007019999999N9999999N1-00551-01271100941ADDAA101000021MA1999999100881MD1810041+9999REMSYN070AAXX  06231 01037 26/// /1607 11055 21127 30088 40094 58004 333 60005;
0147010370999992008010700004+69383+020267FM-12+000699999V0201601N009019999999N9999999N1-00551-01291100911ADDAA106000091MA1999999100851MD1510111+9999REMSYN076AAXX  07001 01037 16/// /1609 11055 21129 30085 40091 55011 60001 333 91116;EQDQ01  00002PRCP06
0122010370999992008010701004+69383+020267FM-12+000699999V0201801N009019999999N9999999N1-00621-01301100881ADDAA101000021MA1999999100821MD1810101+9999REMSYN070AAXX  07011 01037 26/// /1809 11062 21130 30082 40088 58010 333 60005;
0122010370999992008010702004+69383+020267FM-12+000699999V0201801N008019999999N9999999N1-00541-01161100821ADDAA101000021MA1999999100761MD1810121+9999REMSYN070AAXX  07021 01037 26/// /1808 11054 21116 30076 40082 58012 333 60005;
0122010370999992008010703004+69383+020267FM-12+000699999V0201901N007019999999N9999999N1-00541-01181100821ADDAA101000021MA1999999100761MD1810091+9999REMSYN070AAXX  07031 01037 26/// /1907 11054 21118 30076 40082 58009 333 60005;
0122010370999992008010704004+69383+020267FM-12+000699999V0201701N007019999999N9999999N1-00521-01181100781ADDAA101000021MA1999999100721MD1810101+9999REMSYN070AAXX  07041 01037 26/// /1707 11052 21118 30072 40078 58010 333 60005;
0122010370999992008010705004+69383+020267FM-12+000699999V0201901N007019999999N9999999N1-00571-01191100811ADDAA101000021MA1999999100751MD1510011+9999REMSYN070AAXX  07051 01037 26/// /1907 11057 21119 30075 40081 55001 333 60005;
0199010370999992008010706004+69383+020267FM-12+000699999V0201701N005019999999N9999999N1-00611-01231100831ADDAA112000091AA224000091KA1120N-00621MA1999999100761MD1510011+9999REMSYN088AAXX  07061 01037 16/// /1705 11061 21123 30076 40083 55001 60002 333 21062 70000 91116;EQDQ01  00002PRCP24Q02  00002PRCP12
0122010370999992008010707004+69383+020267FM-12+000699999V0201701N006019999999N9999999N1-00571-01231100791ADDAA101000021MA1999999100731MD1010021+9999REMSYN070AAXX  07071 01037 26/// /1706 11057 21123 30073 40079 50002 333 60005;
0122010370999992008010708004+69383+020267FM-12+000699999V0201901N006019999999N9999999N1-00461-01101100741ADDAA101000021MA1999999100681MD1810071+9999REMSYN070AAXX  07081 01037 26/// /1906 11046 21110 30068 40074 58007 333 60005;
0122010370999992008010709004+69383+020267FM-12+000699999V0201701N006019999999N9999999N1-00361-00991100681ADDAA101000021MA1999999100621MD1810141+9999REMSYN070AAXX  07091 01037 26/// /1706 11036 21099 30062 40068 58014 333 60005;
0122010370999992008010710004+69383+020267FM-12+000699999V0201701N006019999999N9999999N1-00311-00941100651ADDAA101000021MA1999999100601MD1710141+9999REMSYN070AAXX  07101 01037 26/// /1706 11031 21094 30060 40065 57014 333 60005;
0122010370999992008010711004+69383+020267FM-12+000699999V0201601N007019999999N9999999N1-00361-01051100611ADDAA101000021MA1999999100551MD1810131+9999REMSYN070AAXX  07111 01037 26/// /1607 11036 21105 30055 40061 58013 333 60005;
0147010370999992008010712004+69383+020267FM-12+000699999V0201601N006019999999N9999999N1-00481-01101100621ADDAA106000091MA1999999100561MD1510061+9999REMSYN076AAXX  07121 01037 16/// /1606 11048 21110 30056 40062 55006 60001 333 91112;EQDQ01  00002PRCP06
0122010370999992008010713004+69383+020267FM-12+000699999V0201301N008019999999N9999999N1-00451-01221100691ADDAA101000021MA1999999100631MD1310031+9999REMSYN070AAXX  07131 01037 26/// /1308 11045 21122 30063 40069 53003 333 60005;
0122010370999992008010714004+69383+020267FM-12+000699999V0201601N005019999999N9999999N1-00541-01201100741ADDAA101000021MA1999999100681MD1310131+9999REMSYN070AAXX  07141 01037 26/// /1605 11054 21120 30068 40074 53013 333 60005;
0122010370999992008010715004+69383+020267FM-12+000699999V0201601N005019999999N9999999N1-00561-01181100731ADDAA101000021MA1999999100671MD1010111+9999REMSYN070AAXX  07151 01037 26/// /1605 11056 21118 30067 40073 50011 333 60005;
0122010370999992008010716004+69383+020267FM-12+000699999V0201701N005019999999N9999999N1-00521-01101100711ADDAA101000021MA1999999100651MD1010021+9999REMSYN070AAXX  07161 01037 26/// /1705 11052 21110 30065 40071 50002 333 60005;
0122010370999992008010717004+69383+020267FM-12+000699999V0201301N002019999999N9999999N1-00511-01091100691ADDAA101000021MA1999999100631MD1710051+9999REMSYN070AAXX  07171 01037 26/// /1302 11051 21109 30063 40069 57005 333 60005;
0166010370999992008010718004+69383+020267FM-12+000699999V0201701N005019999999N9999999N1-00371-00961100671ADDAA112000091KA1120M-00291MA1999999100611MD1710061+9999REMSYN082AAXX  07181 01037 16/// /1705 11037 21096 30061 40067 57006 60002 333 11029 91114;EQDQ01  00002PRCP12
0122010370999992008010719004+69383+020267FM-12+000699999V0201601N003019999999N9999999N1-00341-00891100661ADDAA101000021MA1999999100601MD1710051+9999REMSYN070AAXX  07191 01037 26/// /1603 11034 21089 30060 40066 57005 333 60005;
0122010370999992008010720004+69383+020267FM-12+000699999V0201701N003019999999N9999999N1-00321-00881100631ADDAA101000021MA1999999100571MD1710061+9999REMSYN070AAXX  07201 01037 26/// /1703 11032 21088 30057 40063 57006 333 60005;
0122010370999992008010721004+69383+020267FM-12+000699999V0200901N001019999999N9999999N1-00441-00901100621ADDAA101000021MA1999999100561MD1710051+9999REMSYN070AAXX  07211 01037 26/// /0901 11044 21090 30056 40062 57005 333 60005;
0122010370999992008010722004+69383+020267FM-12+000699999V0202701N001019999999N9999999N1-00411-00781100601ADDAA101000021MA1999999100541MD1710061+9999REMSYN070AAXX  07221 01037 26/// /2701 11041 21078 30054 40060 57006 333 60005;
0122010370999992008010723004+69383+020267FM-12+000699999V0200601N001019999999N9999999N1-00351-00771100581ADDAA101000021MA1999999100521MD1710051+9999REMSYN070AAXX  07231 01037 26/// /0601 11035 21077 30052 40058 57005 333 60005;
0147010370999992008010800004+69383+020267FM-12+000699999V0200701N001019999999N9999999N1-00321-00671100561ADDAA106000091MA1999999100501MD1710061+9999REMSYN076AAXX  08001 01037 16/// /0701 11032 21067 30050 40056 57006 60001 333 91108;EQDQ01  00002PRCP06
0122010370999992008010801004+69383+020267FM-12+000699999V0200701N001019999999N9999999N1-00461-00751100571ADDAA101000021MA1999999100511MD1510031+9999REMSYN070AAXX  08011 01037 26/// /0701 11046 21075 30051 40057 55003 333 60005;
0122010370999992008010802004+69383+020267FM-12+000699999V0200501N001019999999N9999999N1-00611-00821100581ADDAA101000021MA1999999100521MD1510001+9999REMSYN070AAXX  08021 01037 26/// /0501 11061 21082 30052 40058 55000 333 60005;
0122010370999992008010803004+69383+020267FM-12+000699999V0200901N001019999999N9999999N1-00661-00851100591ADDAA101000021MA1999999100531MD1210031+9999REMSYN070AAXX  08031 01037 26/// /0901 11066 21085 30053 40059 52003 333 60005;
0122010370999992008010804004+69383+020267FM-12+000699999V0201001N002019999999N9999999N1-00621-00791100561ADDAA101000021MA1999999100501MD1810021+9999REMSYN070AAXX  08041 01037 26/// /1002 11062 21079 30050 40056 58002 333 60005;
0122010370999992008010805004+69383+020267FM-12+000699999V0200701N001019999999N9999999N1-00821-00991100541ADDAA101000021MA1999999100481MD1810041+9999REMSYN070AAXX  08051 01037 26/// /0701 11082 21099 30048 40054 58004 333 60005;
0199010370999992008010806004+69383+020267FM-12+000699999V0201201N002019999999N9999999N1-00681-00851100541ADDAA112000091AA224000091KA1120N-00851MA1999999100481MD1710051+9999REMSYN088AAXX  08061 01037 16/// /1202 11068 21085 30048 40054 57005 60002 333 21085 70000 91104;EQDQ01  00002PRCP24Q02  00002PRCP12
0122010370999992008010807004+69383+020267FM-12+000699999V0201401N002019999999N9999999N1-00381-00661100541ADDAA101000021MA1999999100481MD1410001+9999REMSYN070AAXX  08071 01037 26/// /1402 11038 21066 30048 40054 54001 333 60005;
0122010370999992008010808004+69383+020267FM-12+000699999V0201401N002019999999N9999999N1-00301-00611100581ADDAA101000021MA1999999100521MD1310041+9999REMSYN070AAXX  08081 01037 26/// /1402 11030 21061 30052 40058 53004 333 60005;
0122010370999992008010809004+69383+020267FM-12+000699999V0200801N001019999999N9999999N1-00211-00571100611ADDAA101000021MA1999999100551MD1210071+9999REMSYN070AAXX  08091 01037 26/// /0801 11021 21057 30055 40061 52007 333 60005;
0122010370999992008010810004+69383+020267FM-12+000699999V0200801N001019999999N9999999N1-00241-00411100641ADDAA101000591MA1999999100581MD1210091+9999REMSYN070AAXX  08101 01037 26/// /0801 11024 21041 30058 40064 52009 333 69945;
0122010370999992008010811004+69383+020267FM-12+000699999V0200201N001019999999N9999999N1-00231-00371100631ADDAA101000021MA1999999100571MD1010051+9999REMSYN070AAXX  08111 01037 26/// /0201 11023 21037 30057 40063 50005 333 69925;
0128010370999992008010812004+69383+020267FM-12+000699999V0200201N001019999999N9999999N1-00241-00371100641ADDAA106000891MA1999999100581MD1210031+9999REMSYN076AAXX  08121 01037 16/// /0201 11024 21037 30058 40064 52003 69971 333 91104;
0122010370999992008010813004+69383+020267FM-12+000699999V0202701N001019999999N9999999N1-00231-00361100631ADDAA101000021MA1999999100571MD1410001+9999REMSYN070AAXX  08131 01037 26/// /2701 11023 21036 30057 40063 54001 333 60005;
0122010370999992008010814004+69383+020267FM-12+000699999V0200201N001019999999N9999999N1-00251-00371100621ADDAA101000021MA1999999100561MD1710011+9999REMSYN070AAXX  08141 01037 26/// /0201 11025 21037 30056 40062 57001 333 60005;
0122010370999992008010815004+69383+020267FM-12+000699999V0201601N001019999999N9999999N1-00241-00371100641ADDAA101000591MA1999999100581MD1510001+9999REMSYN070AAXX  08151 01037 26/// /1601 11024 21037 30058 40064 55000 333 69945;
0122010370999992008010816004+69383+020267FM-12+000699999V0200901N001019999999N9999999N1-00271-00411100631ADDAA101000021MA1999999100571MD1410001+9999REMSYN070AAXX  08161 01037 26/// /0901 11027 21041 30057 40063 54001 333 69925;
0122010370999992008010817004+69383+020267FM-12+000699999V0201301N002019999999N9999999N1-00321-00441100651ADDAA101000021MA1999999100591MD1210031+9999REMSYN070AAXX  08171 01037 26/// /1302 11032 21044 30059 40065 52003 333 60005;
0147010370999992008010818004+69383+020267FM-12+000699999V0201401N002019999999N9999999N1-00291-00431100651ADDAA112002091KA1120M-00201MA1999999100591MD1410001+9999REMSYN082AAXX  08181 01037 16/// /1402 11029 21043 30059 40065 54001 60022 333 11020 91103;
0122010370999992008010819004+69383+020267FM-12+000699999V0201001N002019999999N9999999N1-00351-00531100661ADDAA101000021MA1999999100601MD1210031+9999REMSYN070AAXX  08191 01037 26/// /1002 11035 21053 30060 40066 52003 333 60005;
0122010370999992008010820004+69383+020267FM-12+000699999V0201201N002019999999N9999999N1-00341-00481100671ADDAA101000021MA1999999100611MD1210031+9999REMSYN070AAXX  08201 01037 26/// /1202 11034 21048 30061 40067 52003 333 60005;
0122010370999992008010821004+69383+020267FM-12+000699999V0201401N002019999999N9999999N1-00281-00431100701ADDAA101000021MA1999999100641MD1210051+9999REMSYN070AAXX  08211 01037 26/// /1402 11028 21043 30064 40070 52005 333 60005;
0122010370999992008010822004+69383+020267FM-12+000699999V0201601N002019999999N9999999N1-00241-00431100721ADDAA101000021MA1999999100661MD1210061+9999REMSYN070AAXX  08221 01037 26/// /1602 11024 21043 30066 40072 52006 333 60005;
0122010370999992008010823004+69383+020267FM-12+000699999V0201201N002019999999N9999999N1-00291-00481100711ADDAA101000021MA1999999100651MD1010041+9999REMSYN070AAXX  08231 01037 26/// /1202 11029 21048 30065 40071 50004 333 60005;
0147010370999992008010900004+69383+020267FM-12+000699999V0201201N001019999999N9999999N1-00461-00611100721ADDAA106000091MA1999999100661MD1210021+9999REMSYN076AAXX  09001 01037 16/// /1201 11046 21061 30066 40072 52002 60001 333 91104;EQDQ01  00002PRCP06
0122010370999992008010901004+69383+020267FM-12+000699999V0201401N002019999999N9999999N1-00531-00651100711ADDAA101000021MA1999999100651MD1810011+9999REMSYN070AAXX  09011 01037 26/// /1402 11053 21065 30065 40071 58001 333 60005;
0122010370999992008010902004+69383+020267FM-12+000699999V0201101N002019999999N9999999N1-00631-00761100731ADDAA101000021MA1999999100671MD1210021+9999REMSYN070AAXX  09021 01037 26/// /1102 11063 21076 30067 40073 52002 333 60005;
0122010370999992008010903004+69383+020267FM-12+000699999V0201401N002019999999N9999999N1-00461-00571100701ADDAA101000021MA1999999100641MD1810021+9999REMSYN070AAXX  09031 01037 26/// /1402 11046 21057 30064 40070 58002 333 60005;
0122010370999992008010904004+69383+020267FM-12+000699999V0201301N002019999999N9999999N1-00501-00621100701ADDAA101000021MA1999999100641MD1410001+9999REMSYN070AAXX  09041 01037 26/// /1302 11050 21062 30064 40070 54001 333 60005;
0122010370999992008010905004+69383+020267FM-12+000699999V0201101N002019999999N9999999N1-00391-00501100671ADDAA101000021MA1999999100611MD1710061+9999REMSYN070AAXX  09051 01037 26/// /1102 11039 21050 30061 40067 57006 333 60005;
0183010370999992008010906004+69383+020267FM-12+000699999V0200901N001019999999N9999999N1-00361-00501100661ADDAA112000091AA224001591KA1120N-00631MA1999999100601MD1710041+9999REMSYN088AAXX  09061 01037 16/// /0901 11036 21050 30060 40066 57004 60002 333 21063 70016 91103;EQDQ01  00002PRCP12
0122010370999992008010907004+69383+020267FM-12+000699999V0201301N001019999999N9999999N1-00401-00521100651ADDAA101000021MA1999999100591MD1610051+9999REMSYN070AAXX  09071 01037 26/// /1301 11040 21052 30059 40065 56005 333 60005;
0122010370999992008010908004+69383+020267FM-12+000699999V0201101N001019999999N9999999N1-00361-00471100641ADDAA101000021MA1999999100591MD1710031+9999REMSYN070AAXX  09081 01037 26/// /1101 11036 21047 30059 40064 57003 333 60005;
0122010370999992008010909004+69383+020267FM-12+000699999V0201101N002019999999N9999999N1-00341-00451100651ADDAA101000021MA1999999100591MD1410001+9999REMSYN070AAXX  09091 01037 26/// /1102 11034 21045 30059 40065 54001 333 60005;
0122010370999992008010910004+69383+020267FM-12+000699999V0201001N001019999999N9999999N1-00311-00421100641ADDAA101000021MA1999999100581MD1710011+9999REMSYN070AAXX  09101 01037 26/// /1001 11031 21042 30058 40064 57001 333 60005;
0122010370999992008010911004+69383+020267FM-12+000699999V0209999C000019999999N9999999N1-00281-00391100621ADDAA101000021MA1999999100561MD1710031+9999REMSYN070AAXX  09111 01037 26/// /0000 11028 21039 30056 40062 57003 333 60005;
0147010370999992008010912004+69383+020267FM-12+000699999V0201401N003019999999N9999999N1-00111-00451100611ADDAA106000091MA1999999100551MD1710041+9999REMSYN076AAXX  09121 01037 16/// /1403 11011 21045 30055 40061 57004 60001 333 91106;EQDQ01  00002PRCP06
0122010370999992008010913004+69383+020267FM-12+000699999V0201301N004019999999N9999999N1-00071-00581100601ADDAA101000021MA1999999100541MD1710041+9999REMSYN070AAXX  09131 01037 26/// /1304 11007 21058 30054 40060 57004 333 60005;
0122010370999992008010914004+69383+020267FM-12+000699999V0201601N006019999999N9999999N1-00061-00571100581ADDAA101000021MA1999999100521MD1710031+9999REMSYN070AAXX  09141 01037 26/// /1606 11006 21057 30052 40058 57003 333 60005;
0122010370999992008010915004+69383+020267FM-12+000699999V0201601N005019999999N9999999N1-00021-00531100561ADDAA101000021MA1999999100501MD1710051+9999REMSYN070AAXX  09151 01037 26/// /1605 11002 21053 30050 40056 57005 333 60005;
0122010370999992008010916004+69383+020267FM-12+000699999V0201501N004019999999N9999999N1+00001-00571100541ADDAA101000021MA1999999100481MD1710061+9999REMSYN070AAXX  09161 01037 26/// /1504 10000 21057 30048 40054 57006 333 60005;
0122010370999992008010917004+69383+020267FM-12+000699999V0201601N004019999999N9999999N1-00031-00521100501ADDAA101000021MA1999999100441MD1810081+9999REMSYN070AAXX  09171 01037 26/// /1604 11003 21052 30044 40050 58008 333 60005;
0166010370999992008010918004+69383+020267FM-12+000699999V0200601N001019999999N9999999N1-00301-00651100481ADDAA112000091KA1120M+00011MA1999999100421MD1710081+9999REMSYN082AAXX  09181 01037 16/// /0601 11030 21065 30042 40048 57008 60002 333 10001 91110;EQDQ01  00002PRCP12
0122010370999992008010919004+69383+020267FM-12+000699999V0200401N001019999999N9999999N1-00531-00771100451ADDAA101000021MA1999999100391MD1710091+9999REMSYN070AAXX  09191 01037 26/// /0401 11053 21077 30039 40045 57009 333 60005;
0122010370999992008010920004+69383+020267FM-12+000699999V0200601N002019999999N9999999N1-00851-01021100451ADDAA101000021MA1999999100381MD1710061+9999REMSYN070AAXX  09201 01037 26/// /0602 11085 21102 30038 40045 57006 333 60005;
0122010370999992008010921004+69383+020267FM-12+000699999V0201201N002019999999N9999999N1-01091-01261100421ADDAA101000021MA1999999100361MD1710061+9999REMSYN070AAXX  09211 01037 26/// /1202 11109 21126 30036 40042 57006 333 60005;
0122010370999992008010922004+69383+020267FM-12+000699999V0200601N001019999999N9999999N1-01161-01331100391ADDAA101000021MA1999999100331MD1710061+9999REMSYN070AAXX  09221 01037 26/// /0601 11116 21133 30033 40039 57006 333 60005;
0122010370999992008010923004+69383+020267FM-12+000699999V0201301N002019999999N9999999N1-01221-01391100351ADDAA101000021MA1999999100291MD1710091+9999REMSYN070AAXX  09231 01037 26/// /1302 11122 21139 30029 40035 57009 333 60005;
0147010370999992008011000004+69383+020267FM-12+000699999V0201101N001019999999N9999999N1-01111-01261100311ADDAA106000091MA1999999100251MD1710111+9999REMSYN076AAXX  10001 01037 16/// /1101 11111 21126 30025 40031 57011 60001 333 91103;EQDQ01  00002PRCP06
0122010370999992008011001004+69383+020267FM-12+000699999V0201101N002019999999N9999999N1-01171-01351100261ADDAA101000021MA1999999100201MD1710131+9999REMSYN070AAXX  10011 01037 26/// /1102 11117 21135 30020 40026 57013 333 60005;
0122010370999992008011002004+69383+020267FM-12+000699999V0203401N001019999999N9999999N1-01231-01421100211ADDAA101000021MA1999999100151MD1710141+9999REMSYN070AAXX  10021 01037 26/// /3401 11123 21142 30015 40021 57014 333 60005;
0122010370999992008011003004+69383+020267FM-12+000699999V0200201N001019999999N9999999N1-01121-01291100171ADDAA101000021MA1999999100111MD1710141+9999REMSYN070AAXX  10031 01037 26/// /0201 11112 21129 30011 40017 57014 333 60005;
0122010370999992008011004004+69383+020267FM-12+000699999V0201701N002019999999N9999999N1-00691-00791100121ADDAA101000021MA1999999100061MD1710141+9999REMSYN070AAXX  10041 01037 26/// /1702 11069 21079 30006 40012 57014 333 60005;
0122010370999992008011005004+69383+020267FM-12+000699999V0201501N001019999999N9999999N1-00911-01071100101ADDAA101000021MA1999999100041MD1710111+9999REMSYN070AAXX  10051 01037 26/// /1501 11091 21107 30004 40010 57011 333 60005;
0199010370999992008011006004+69383+020267FM-12+000699999V0200401N001019999999N9999999N1-00911-01081100071ADDAA112000091AA224000091KA1120N-01261MA1999999100011MD1710101+9999REMSYN088AAXX  10061 01037 16/// /0401 11091 21108 30001 40007 57010 69922 333 21126 70000 91104;EQDQ01  00002PRCP24Q02  00002PRCP12
0122010370999992008011007004+69383+020267FM-12+000699999V0201401N002019999999N9999999N1-00451-00651100051ADDAA101000021MA1999999099991MD1710071+9999REMSYN070AAXX  10071 01037 26/// /1402 11045 21065 39999 40005 57007 333 60005;
0101010370999992008011008004+69383+020267FM-12+000699999V0201501N002019999999N9999999N1-00731-00861100041ADDMA1999999099981MD1710061+9999REMSYN060AAXX  10081 01037 46/// /1502 11073 21086 39998 40004 57006;
0122010370999992008011009004+69383+020267FM-12+000699999V0201701N003019999999N9999999N1-00331-00561100021ADDAA101000021MA1999999099961MD1710051+9999REMSYN070AAXX  10091 01037 26/// /1703 11033 21056 39996 40002 57005 333 60005;
0122010370999992008011010004+69383+020267FM-12+000699999V0201601N003019999999N9999999N1-00281-00511100011ADDAA101000021MA1999999099951MD1710041+9999REMSYN070AAXX  10101 01037 26/// /1603 11028 21051 39995 40001 57004 333 60005;
0122010370999992008011011004+69383+020267FM-12+000699999V0201401N003019999999N9999999N1-00221-00611099971ADDAA101000021MA1999999099911MD1810071+9999REMSYN070AAXX  10111 01037 26/// /1403 11022 21061 39991 49997 58007 333 60005;
0147010370999992008011012004+69383+020267FM-12+000699999V0201401N004019999999N9999999N1-00211-00681099931ADDAA106000091MA1999999099871MD1810091+9999REMSYN076AAXX  10121 01037 16/// /1404 11021 21068 39987 49993 58009 60001 333 91109;EQDQ01  00002PRCP06
0122010370999992008011013004+69383+020267FM-12+000699999V0201601N003019999999N9999999N1-00251-00721099901ADDAA101000021MA1999999099841MD1710111+9999REMSYN070AAXX  10131 01037 26/// /1603 11025 21072 39984 49990 57011 333 60005;
0122010370999992008011014004+69383+020267FM-12+000699999V0201601N003019999999N9999999N1-00271-00771099871ADDAA101000021MA1999999099811MD1710091+9999REMSYN070AAXX  10141 01037 26/// /1603 11027 21077 39981 49987 57009 333 60005;
0122010370999992008011015004+69383+020267FM-12+000699999V0201501N003019999999N9999999N1-00291-00721099851ADDAA101000021MA1999999099791MD1710081+9999REMSYN070AAXX  10151 01037 26/// /1503 11029 21072 39979 49985 57008 333 60005;
0122010370999992008011016004+69383+020267FM-12+000699999V0200801N001019999999N9999999N1-00311-00681099851ADDAA101000021MA1999999099791MD1710051+9999REMSYN070AAXX  10161 01037 26/// /0801 11031 21068 39979 49985 57005 333 60005;
0122010370999992008011017004+69383+020267FM-12+000699999V0201301N001019999999N9999999N1-00291-00761099821ADDAA101000021MA1999999099761MD1710061+9999REMSYN070AAXX  10171 01037 26/// /1301 11029 21076 39976 49982 57006 333 60005;
0166010370999992008011018004+69383+020267FM-12+000699999V0201201N003019999999N9999999N1-00291-00771099821ADDAA112000091KA1120M-00181MA1999999099761MD1710041+9999REMSYN082AAXX  10181 01037 16/// /1203 11029 21077 39976 49982 57004 60002 333 11018 91107;EQDQ01  00002PRCP12
0122010370999992008011019004+69383+020267FM-12+000699999V0201201N003019999999N9999999N1-00331-00801099841ADDAA101000021MA1999999099791MD1510001+9999REMSYN070AAXX  10191 01037 26/// /1203 11033 21080 39979 49984 55000 333 60005;
0122010370999992008011020004+69383+020267FM-12+000699999V0201301N004019999999N9999999N1-00331-00851099841ADDAA101000021MA1999999099791MD1210031+9999REMSYN070AAXX  10201 01037 26/// /1304 11033 21085 39979 49984 52003 333 60005;
0122010370999992008011021004+69383+020267FM-12+000699999V0201401N003019999999N9999999N1-00341-00891099831ADDAA101000021MA1999999099771MD1010021+9999REMSYN070AAXX  10211 01037 26/// /1403 11034 21089 39977 49983 50002 333 60005;
0122010370999992008011022004+69383+020267FM-12+000699999V0202001N001019999999N9999999N1-00511-00991099821ADDAA101000021MA1999999099761MD1710031+9999REMSYN070AAXX  10221 01037 26/// /2001 11051 21099 39976 49982 57003 333 60005;
0122010370999992008011023004+69383+020267FM-12+000699999V0201501N003019999999N9999999N1-00371-00961099801ADDAA101000021MA1999999099741MD1710041+9999REMSYN070AAXX  10231 01037 26/// /1503 11037 21096 39974 49980 57004 333 60005;
0147010370999992008011100004+69383+020267FM-12+000699999V0201701N004019999999N9999999N1-00361-00951099791ADDAA106000091MA1999999099731MD1710041+9999REMSYN076AAXX  11001 01037 16/// /1704 11036 21095 39973 49979 57004 60001 333 91109;EQDQ01  00002PRCP06
0122010370999992008011101004+69383+020267FM-12+000699999V0201501N002019999999N9999999N1-00391-00941099751ADDAA101000021MA1999999099691MD1810071+9999REMSYN070AAXX  11011 01037 26/// /1502 11039 21094 39969 49975 58007 333 60005;
0122010370999992008011102004+69383+020267FM-12+000699999V0201601N002019999999N9999999N1-00381-00951099741ADDAA101000021MA1999999099691MD1710061+9999REMSYN070AAXX  11021 01037 26/// /1602 11038 21095 39969 49974 57006 333 60005;
0122010370999992008011103004+69383+020267FM-12+000699999V0201701N002019999999N9999999N1-00381-00931099721ADDAA101000021MA1999999099661MD1610071+9999REMSYN070AAXX  11031 01037 26/// /1702 11038 21093 39966 49972 56007 333 60005;
0122010370999992008011104004+69383+020267FM-12+000699999V0202701N001019999999N9999999N1-00551-00941099691ADDAA101000021MA1999999099631MD1810061+9999REMSYN070AAXX  11041 01037 26/// /2701 11055 21094 39963 49969 58006 333 60005;
0122010370999992008011105004+69383+020267FM-12+000699999V0201501N001019999999N9999999N1-00551-00931099661ADDAA101000021MA1999999099601MD1710081+9999REMSYN070AAXX  11051 01037 26/// /1501 11055 21093 39960 49966 57008 333 60005;
0199010370999992008011106004+69383+020267FM-12+000699999V0203601N002019999999N9999999N1-00441-00851099641ADDAA112000091AA224000091KA1120N-00581MA1999999099581MD1710081+9999REMSYN088AAXX  11061 01037 16/// /3602 11044 21085 39958 49964 57008 60002 333 21058 70000 91107;EQDQ01  00002PRCP24Q02  00002PRCP12
0122010370999992008011107004+69383+020267FM-12+000699999V0203001N002019999999N9999999N1-00391-00741099631ADDAA101000021MA1999999099571MD1710061+9999REMSYN070AAXX  11071 01037 26/// /3002 11039 21074 39957 49963 57006 333 60005;
0122010370999992008011108004+69383+020267FM-12+000699999V0203601N001019999999N9999999N1-00331-00711099621ADDAA101000021MA1999999099561MD1710041+9999REMSYN070AAXX  11081 01037 26/// /3601 11033 21071 39956 49962 57004 333 60005;
0122010370999992008011109004+69383+020267FM-12+000699999V0203201N001019999999N9999999N1-00391-00691099631ADDAA101000021MA1999999099571MD1510011+9999REMSYN070AAXX  11091 01037 26/// /3201 11039 21069 39957 49963 55001 333 60005;
0122010370999992008011110004+69383+020267FM-12+000699999V0203401N001019999999N9999999N1-00451-00741099611ADDAA101000021MA1999999099551MD1710021+9999REMSYN070AAXX  11101 01037 26/// /3401 11045 21074 39955 49961 57002 333 60005;
0122010370999992008011111004+69383+020267FM-12+000699999V0202701N001019999999N9999999N1-00391-00681099601ADDAA101000021MA1999999099541MD1710031+9999REMSYN070AAXX  11111 01037 26/// /2701 11039 21068 39954 49960 57003 333 60005;
0147010370999992008011112004+69383+020267FM-12+000699999V0209999C000019999999N9999999N1-00421-00691099581ADDAA106000091MA1999999099521MD1710061+9999REMSYN076AAXX  11121 01037 16/// /0000 11042 21069 39952 49958 57006 60001 333 91103;EQDQ01  00002PRCP06
0122010370999992008011113004+69383+020267FM-12+000699999V0201501N001019999999N9999999N1-00491-00731099541ADDAA101000021MA1999999099481MD1710061+9999REMSYN070AAXX  11131 01037 26/// /1501 11049 21073 39948 49954 57006 333 60005;
0122010370999992008011114004+69383+020267FM-12+000699999V0201001N001019999999N9999999N1-00531-00731099541ADDAA101000021MA1999999099481MD1710061+9999REMSYN070AAXX  11141 01037 26/// /1001 11053 21073 39948 49954 57006 333 60005;
0122010370999992008011115004+69383+020267FM-12+000699999V0200701N001019999999N9999999N1-00481-00681099531ADDAA101000021MA1999999099471MD1710041+9999REMSYN070AAXX  11151 01037 26/// /0701 11048 21068 39947 49953 57004 333 60005;
0122010370999992008011116004+69383+020267FM-12+000699999V0201301N001019999999N9999999N1-00461-00661099521ADDAA101000021MA1999999099461MD1710021+9999REMSYN070AAXX  11161 01037 26/// /1301 11046 21066 39946 49952 57002 333 60005;
0122010370999992008011117004+69383+020267FM-12+000699999V0201601N001019999999N9999999N1-00441-00621099521ADDAA101000021MA1999999099461MD1710011+9999REMSYN070AAXX  11171 01037 26/// /1601 11044 21062 39946 49952 57001 333 60005;
0166010370999992008011118004+69383+020267FM-12+000699999V0200701N001019999999N9999999N1-00481-00631099521ADDAA112000091KA1120M-00311MA1999999099461MD1710011+9999REMSYN082AAXX  11181 01037 16/// /0701 11048 21063 39946 49952 57001 60002 333 11031 91102;EQDQ01  00002PRCP12
0122010370999992008011119004+69383+020267FM-12+000699999V0201201N001019999999N9999999N1-00481-00621099521ADDAA101000021MA1999999099461MD1410001+9999REMSYN070AAXX  11191 01037 26/// /1201 11048 21062 39946 49952 54000 333 60005;
0122010370999992008011120004+69383+020267FM-12+000699999V0200701N001019999999N9999999N1-00481-00631099551ADDAA101000021MA1999999099491MD1310031+9999REMSYN070AAXX  11201 01037 26/// /0701 11048 21063 39949 49955 53003 333 60005;
0122010370999992008011121004+69383+020267FM-12+000699999V0200901N001019999999N9999999N1-00511-00651099561ADDAA101000021MA1999999099501MD1210041+9999REMSYN070AAXX  11211 01037 26/// /0901 11051 21065 39950 49956 52004 333 60005;
0122010370999992008011122004+69383+020267FM-12+000699999V0200901N001019999999N9999999N1-00491-00601099581ADDAA101000021MA1999999099521MD1210061+9999REMSYN070AAXX  11221 01037 26/// /0901 11049 21060 39952 49958 52006 333 60005;
0122010370999992008011123004+69383+020267FM-12+000699999V0200801N002019999999N9999999N1-00551-00671099621ADDAA101000021MA1999999099561MD1210071+9999REMSYN070AAXX  11231 01037 26/// /0802 11055 21067 39956 49962 52007 333 60005;
0147010370999992008011200004+69383+020267FM-12+000699999V0200901N001019999999N9999999N1-00481-00601099601ADDAA106000091MA1999999099551MD1010051+9999REMSYN076AAXX  12001 01037 16/// /0901 11048 21060 39955 49960 50005 60001 333 91103;EQDQ01  00002PRCP06
0122010370999992008011201004+69383+020267FM-12+000699999V0201301N002019999999N9999999N1-00611-00741099631ADDAA101000021MA1999999099571MD1110051+9999REMSYN070AAXX  12011 01037 26/// /1302 11061 21074 39957 49963 51005 333 60005;
0122010370999992008011202004+69383+020267FM-12+000699999V0201401N002019999999N9999999N1-00581-00701099641ADDAA101000021MA1999999099581MD1310021+9999REMSYN070AAXX  12021 01037 26/// /1402 11058 21070 39958 49964 53002 333 60005;
0122010370999992008011203004+69383+020267FM-12+000699999V0201401N002019999999N9999999N1-00551-00671099651ADDAA101000021MA1999999099591MD1210041+9999REMSYN070AAXX  12031 01037 26/// /1402 11055 21067 39959 49965 52004 333 60005;
0122010370999992008011204004+69383+020267FM-12+000699999V0201001N001019999999N9999999N1-00511-00631099661ADDAA101000021MA1999999099601MD1210031+9999REMSYN070AAXX  12041 01037 26/// /1001 11051 21063 39960 49966 52003 333 60005;
0122010370999992008011205004+69383+020267FM-12+000699999V0201101N001019999999N9999999N1-00511-00631099701ADDAA101000021MA1999999099641MD1210061+9999REMSYN070AAXX  12051 01037 26/// /1101 11051 21063 39964 49970 52006 333 60005;
0199010370999992008011206004+69383+020267FM-12+000699999V0201101N002019999999N9999999N1-00491-00611099711ADDAA112000091AA224000091KA1120N-00641MA1999999099651MD1210061+9999REMSYN088AAXX  12061 01037 16/// /1102 11049 21061 39965 49971 52006 60002 333 21064 70000 91102;EQDQ01  00002PRCP24Q02  00002PRCP12
0122010370999992008011207004+69383+020267FM-12+000699999V0201101N001019999999N9999999N1-00441-00561099761ADDAA101000021MA1999999099701MD1210091+9999REMSYN070AAXX  12071 01037 26/// /1101 11044 21056 39970 49976 52009 333 60005;
0122010370999992008011208004+69383+020267FM-12+000699999V0200301N001019999999N9999999N1-00431-00551099821ADDAA101000021MA1999999099761MD1310121+9999REMSYN070AAXX  12081 01037 26/// /0301 11043 21055 39976 49982 53012 333 60005;
0122010370999992008011209004+69383+020267FM-12+000699999V0201101N001019999999N9999999N1-00391-00501099881ADDAA101000021MA1999999099821MD1210161+9999REMSYN070AAXX  12091 01037 26/// /1101 11039 21050 39982 49988 52016 333 60005;
0122010370999992008011210004+69383+020267FM-12+000699999V0203501N001019999999N9999999N1-00381-00501099931ADDAA101000021MA1999999099871MD1210171+9999REMSYN070AAXX  12101 01037 26/// /3501 11038 21050 39987 49993 52017 333 60005;
0122010370999992008011211004+69383+020267FM-12+000699999V0203301N001019999999N9999999N1-00311-00461099941ADDAA101000021MA1999999099881MD1110121+9999REMSYN070AAXX  12111 01037 26/// /3301 11031 21046 39988 49994 51012 333 60005;
0147010370999992008011212004+69383+020267FM-12+000699999V0209999C000019999999N9999999N1-00351-00501099961ADDAA106000091MA1999999099901MD1110081+9999REMSYN076AAXX  12121 01037 16/// /0000 11035 21050 39990 49996 51008 60001 333 91103;EQDQ01  00002PRCP06
0122010370999992008011213004+69383+020267FM-12+000699999V0209999C000019999999N9999999N1-00411-00531099981ADDAA101000021MA1999999099921MD1210051+9999REMSYN070AAXX  12131 01037 26/// /0000 11041 21053 39992 49998 52005 333 60005;
0122010370999992008011214004+69383+020267FM-12+000699999V0201401N002019999999N9999999N1-00431-00571099991ADDAA101000021MA1999999099931MD1210061+9999REMSYN070AAXX  12141 01037 26/// /1402 11043 21057 39993 49999 52006 333 60005;
0122010370999992008011215004+69383+020267FM-12+000699999V0201301N002019999999N9999999N1-00311-00491100001ADDAA101000021MA1999999099941MD1210041+9999REMSYN070AAXX  12151 01037 26/// /1302 11031 21049 39994 40000 52004 333 60005;
0122010370999992008011216004+69383+020267FM-12+000699999V0201501N002019999999N9999999N1-00281-00561100001ADDAA101000021MA1999999099941MD1210031+9999REMSYN070AAXX  12161 01037 26/// /1502 11028 21056 39994 40000 52003 333 60005;
0122010370999992008011217004+69383+020267FM-12+000699999V0201401N002019999999N9999999N1-00331-00621100031ADDAA101000021MA1999999099971MD1210031+9999REMSYN070AAXX  12171 01037 26/// /1402 11033 21062 39997 40003 52003 333 60005;
0166010370999992008011218004+69383+020267FM-12+000699999V0201701N004019999999N9999999N1-00261-00651100061ADDAA112000091KA1120M-00261MA1999999100001MD1210061+9999REMSYN082AAXX  12181 01037 16/// /1704 11026 21065 30000 40006 52006 60002 333 11026 91108;EQDQ01  00002PRCP12
0122010370999992008011219004+69383+020267FM-12+000699999V0201601N004019999999N9999999N1-00261-00661100081ADDAA101000021MA1999999100021MD1210081+9999REMSYN070AAXX  12191 01037 26/// /1604 11026 21066 30002 40008 52008 333 60005;
0122010370999992008011220004+69383+020267FM-12+000699999V0201601N004019999999N9999999N1-00221-00711100101ADDAA101000021MA1999999100041MD1210081+9999REMSYN070AAXX  12201 01037 26/// /1604 11022 21071 30004 40010 52008 333 60005;
0147010370999992008011300004+69383+020267FM-12+000699999V0201601N003019999999N9999999N1-00321-00791100071ADDAA106000091MA1999999100011MD1810041+9999REMSYN076AAXX  13001 01037 16/// /1603 11032 21079 30001 40007 58004 60001 333 91108;EQDQ01  00002PRCP06
0122010370999992008011301004+69383+020267FM-12+000699999V0201001N002019999999N9999999N1-00641-00981100021ADDAA101000021MA1999999099961MD1710091+9999REMSYN070AAXX  13011 01037 26/// /1002 11064 21098 39996 40002 57009 333 60005;
0122010370999992008011302004+69383+020267FM-12+000699999V0200401N001019999999N9999999N1-01001-01191100001ADDAA101000021MA1999999099931MD1710091+9999REMSYN070AAXX  13021 01037 26/// /0401 11100 21119 39993 40000 57009 333 60005;
0122010370999992008011303004+69383+020267FM-12+000699999V0200801N002019999999N9999999N1-01101-01251099981ADDAA101000021MA1999999099921MD1710091+9999REMSYN070AAXX  13031 01037 26/// /0802 11110 21125 39992 49998 57009 333 60005;
0122010370999992008011304004+69383+020267FM-12+000699999V0200601N002019999999N9999999N1-01101-01271099941ADDAA101000021MA1999999099881MD1710091+9999REMSYN070AAXX  13041 01037 26/// /0602 11110 21127 39988 49994 57009 333 60005;
0101010370999992008011305004+69383+020267FM-12+000699999V0203401N001019999999N9999999N1-00801-00931099901ADDMA1999999099841MD1810091+9999REMSYN060AAXX  13051 01037 46/// /3401 11080 21093 39984 49990 58009;
0199010370999992008011306004+69383+020267FM-12+000699999V0203501N001019999999N9999999N1-00671-00821099871ADDAA112000091AA224000091KA1120N-01111MA1999999099811MD1710111+9999REMSYN088AAXX  13061 01037 16/// /3501 11067 21082 39981 49987 57011 60002 333 21111 70000 91106;EQDQ01  00002PRCP24Q02  00002PRCP12
0122010370999992008011307004+69383+020267FM-12+000699999V0203601N001019999999N9999999N1-00571-00701099851ADDAA101000021MA1999999099791MD1710091+9999REMSYN070AAXX  13071 01037 26/// /3601 11057 21070 39979 49985 57009 333 60005;
0122010370999992008011308004+69383+020267FM-12+000699999V0209999C000019999999N9999999N1-00591-00741099811ADDAA101000021MA1999999099751MD1710091+9999REMSYN070AAXX  13081 01037 26/// /0000 11059 21074 39975 49981 57009 333 60005;
0122010370999992008011309004+69383+020267FM-12+000699999V0200201N001019999999N9999999N1-00601-00761099821ADDAA101000021MA1999999099761MD1510041+9999REMSYN070AAXX  13091 01037 26/// /0201 11060 21076 39976 49982 55004 333 60005;
0101010370999992008011310004+69383+020267FM-12+000699999V0209999C000019999999N9999999N1-00581-00781099811ADDMA1999999099751MD1610041+9999REMSYN060AAXX  13101 01037 46/// /0000 11058 21078 39975 49981 56004;
0122010370999992008011311004+69383+020267FM-12+000699999V0200201N001019999999N9999999N1-00721-00891099791ADDAA101000021MA1999999099731MD1810021+9999REMSYN070AAXX  13111 01037 26/// /0201 11072 21089 39973 49979 58002 333 60005;
0147010370999992008011312004+69383+020267FM-12+000699999V0203601N001019999999N9999999N1-00801-00931099771ADDAA106000091MA1999999099711MD1710051+9999REMSYN076AAXX  13121 01037 16/// /3601 11080 21093 39971 49977 57005 60001 333 91102;EQDQ01  00002PRCP06
0122010370999992008011313004+69383+020267FM-12+000699999V0200501N001019999999N9999999N1-00771-00901099761ADDAA101000021MA1999999099701MD1710041+9999REMSYN070AAXX  13131 01037 26/// /0501 11077 21090 39970 49976 57004 333 60005;
0122010370999992008011314004+69383+020267FM-12+000699999V0201801N001019999999N9999999N1-00931-01091099751ADDAA101000021MA1999999099691MD1710031+9999REMSYN070AAXX  13141 01037 26/// /1801 11093 21109 39969 49975 57003 333 60005;
0122010370999992008011315004+69383+020267FM-12+000699999V0200901N001019999999N9999999N1-01041-01201099771ADDAA101000021MA1999999099711MD1510001+9999REMSYN070AAXX  13151 01037 26/// /0901 11104 21120 39971 49977 55000 333 60005;
0122010370999992008011316004+69383+020267FM-12+000699999V0201501N002019999999N9999999N1-01081-01221099811ADDAA101000021MA1999999099741MD1310041+9999REMSYN070AAXX  13161 01037 26/// /1502 11108 21122 39974 49981 53004 333 60005;
0122010370999992008011317004+69383+020267FM-12+000699999V0201201N002019999999N9999999N1-00931-01061099851ADDAA101000021MA1999999099791MD1310091+9999REMSYN070AAXX  13171 01037 26/// /1202 11093 21106 39979 49985 53009 333 60005;
0166010370999992008011318004+69383+020267FM-12+000699999V0201001N001019999999N9999999N1-00821-00971099861ADDAA112000091KA1120M-00511MA1999999099801MD1210091+9999REMSYN082AAXX  13181 01037 16/// /1001 11082 21097 39980 49986 52009 60002 333 11051 91102;EQDQ01  00002PRCP12
0122010370999992008011319004+69383+020267FM-12+000699999V0201101N001019999999N9999999N1-00761-00911099871ADDAA101000021MA1999999099811MD1210061+9999REMSYN070AAXX  13191 01037 26/// /1101 11076 21091 39981 49987 52006 333 60005;
0122010370999992008011320004+69383+020267FM-12+000699999V0201201N002019999999N9999999N1-00721-00881099881ADDAA101000021MA1999999099821MD1210031+9999REMSYN070AAXX  13201 01037 26/// /1202 11072 21088 39982 49988 52003 333 60005;
0122010370999992008011321004+69383+020267FM-12+000699999V0201001N001019999999N9999999N1-00971-01141099921ADDAA101000021MA1999999099861MD1310061+9999REMSYN070AAXX  13211 01037 26/// /1001 11097 21114 39986 49992 53006 333 60005;
0122010370999992008011322004+69383+020267FM-12+000699999V0201201N002019999999N9999999N1-01101-01251099951ADDAA101000021MA1999999099891MD1210081+9999REMSYN070AAXX  13221 01037 26/// /1202 11110 21125 39989 49995 52008 333 60005;
0122010370999992008011323004+69383+020267FM-12+000699999V0201101N002019999999N9999999N1-01001-01141099961ADDAA101000021MA1999999099901MD1210081+9999REMSYN070AAXX  13231 01037 26/// /1102 11100 21114 39990 49996 52008 333 60005;
0147010370999992008011400004+69383+020267FM-12+000699999V0201201N002019999999N9999999N1-00931-01091099961ADDAA106000091MA1999999099901MD1210041+9999REMSYN076AAXX  14001 01037 16/// /1202 11093 21109 39990 49996 52004 60001 333 91103;EQDQ01  00002PRCP06
0122010370999992008011401004+69383+020267FM-12+000699999V0201701N003019999999N9999999N1-00911-01071099961ADDAA101000021MA1999999099901MD1210021+9999REMSYN070AAXX  14011 01037 26/// /1703 11091 21107 39990 49996 52002 333 60005;
0122010370999992008011402004+69383+020267FM-12+000699999V0201201N002019999999N9999999N1-01161-01341099981ADDAA101000021MA1999999099921MD1210021+9999REMSYN070AAXX  14021 01037 26/// /1202 11116 21134 39992 49998 52002 333 60005;
0122010370999992008011403004+69383+020267FM-12+000699999V0201501N002019999999N9999999N1-01311-01501100011ADDAA101000021MA1999999099941MD1210041+9999REMSYN070AAXX  14031 01037 26/// /1502 11131 21150 39994 40001 52004 333 60005;
0122010370999992008011404004+69383+020267FM-12+000699999V0201101N002019999999N9999999N1-01091-01281100011ADDAA101000021MA1999999099941MD1210041+9999REMSYN070AAXX  14041 01037 26/// /1102 11109 21128 39994 40001 52004 333 60005;
0122010370999992008011405004+69383+020267FM-12+000699999V0201701N003019999999N9999999N1-01151-01291100001ADDAA101000021MA1999999099941MD1210021+9999REMSYN070AAXX  14051 01037 26/// /1703 11115 21129 39994 40000 52002 333 60005;
0199010370999992008011406004+69383+020267FM-12+000699999V0201401N002019999999N9999999N1-00941-01101100001ADDAA112000091AA224000091KA1120N-01311MA1999999099941MD1410001+9999REMSYN088AAXX  14061 01037 16/// /1402 11094 21110 39994 40000 54000 60002 333 21131 70000 91104;EQDQ01  00002PRCP24Q02  00002PRCP12
0122010370999992008011407004+69383+020267FM-12+000699999V0201301N002019999999N9999999N1-00761-00961100031ADDAA101000021MA1999999099971MD1310031+9999REMSYN070AAXX  14071 01037 26/// /1302 11076 21096 39997 40003 53003 333 60005;
0122010370999992008011408004+69383+020267FM-12+000699999V0201501N002019999999N9999999N1-00581-00901100041ADDAA101000021MA1999999099981MD1310041+9999REMSYN070AAXX  14081 01037 26/// /1502 11058 21090 39998 40004 53004 333 60005;
0122010370999992008011409004+69383+020267FM-12+000699999V0201401N002019999999N9999999N1-00511-00941100061ADDAA101000021MA1999999100001MD1210061+9999REMSYN070AAXX  14091 01037 26/// /1402 11051 21094 30000 40006 52006 333 60005;
0122010370999992008011410004+69383+020267FM-12+000699999V0201301N002019999999N9999999N1-00451-00911100041ADDAA101000021MA1999999099981MD1210021+9999REMSYN070AAXX  14101 01037 26/// /1302 11045 21091 39998 40004 52002 333 60005;
0122010370999992008011411004+69383+020267FM-12+000699999V0201001N002019999999N9999999N1-00381-00881100041ADDAA101000021MA1999999099981MD1010011+9999REMSYN070AAXX  14111 01037 26/// /1002 11038 21088 39998 40004 50001 333 60005;
0147010370999992008011412004+69383+020267FM-12+000699999V0203101N001019999999N9999999N1-00421-00851100031ADDAA106000091MA1999999099971MD1710031+9999REMSYN076AAXX  14121 01037 16/// /3101 11042 21085 39997 40003 57003 60001 333 91105;EQDQ01  00002PRCP06
0122010370999992008011413004+69383+020267FM-12+000699999V0201101N001019999999N9999999N1-00751-01031099991ADDAA101000021MA1999999099931MD1810051+9999REMSYN070AAXX  14131 01037 26/// /1101 11075 21103 39993 49999 58005 333 60005;
0122010370999992008011414004+69383+020267FM-12+000699999V0201001N001019999999N9999999N1-01061-01231100001ADDAA101000021MA1999999099941MD1510031+9999REMSYN070AAXX  14141 01037 26/// /1001 11106 21123 39994 40000 55003 333 60005;
0122010370999992008011415004+69383+020267FM-12+000699999V0201601N003019999999N9999999N1-00601-01011099981ADDAA101000021MA1999999099921MD1610041+9999REMSYN070AAXX  14151 01037 26/// /1603 11060 21101 39992 49998 56004 333 60005;
0122010370999992008011416004+69383+020267FM-12+000699999V0201101N002019999999N9999999N1-00951-01201099981ADDAA101000021MA1999999099911MD1810021+9999REMSYN070AAXX  14161 01037 26/// /1102 11095 21120 39991 49998 58002 333 60005;
0122010370999992008011417004+69383+020267FM-12+000699999V0201001N002019999999N9999999N1-00911-01121099911ADDAA101000021MA1999999099851MD1810091+9999REMSYN070AAXX  14171 01037 26/// /1002 11091 21112 39985 49991 58009 333 60005;
0166010370999992008011418004+69383+020267FM-12+000699999V0201101N002019999999N9999999N1-00641-00951099871ADDAA112000091KA1120M-00351MA1999999099811MD1810111+9999REMSYN082AAXX  14181 01037 16/// /1102 11064 21095 39981 49987 58011 60002 333 11035 91107;EQDQ01  00002PRCP12
0122010370999992008011419004+69383+020267FM-12+000699999V0201601N004019999999N9999999N1-00361-00911099791ADDAA101000021MA1999999099731MD1810181+9999REMSYN070AAXX  14191 01037 26/// /1604 11036 21091 39973 49979 58018 333 60005;
0122010370999992008011420004+69383+020267FM-12+000699999V0201601N007019999999N9999999N1-00321-00881099701ADDAA101000021MA1999999099641MD1810211+9999REMSYN070AAXX  14201 01037 26/// /1607 11032 21088 39964 49970 58021 333 60005;
0122010370999992008011421004+69383+020267FM-12+000699999V0201701N006019999999N9999999N1-00261-00841099611ADDAA101000021MA1999999099551MD1810261+9999REMSYN070AAXX  14211 01037 26/// /1706 11026 21084 39955 49961 58026 333 60005;
0122010370999992008011422004+69383+020267FM-12+000699999V0201601N007019999999N9999999N1-00311-00741099501ADDAA101000021MA1999999099441MD1810291+9999REMSYN070AAXX  14221 01037 26/// /1607 11031 21074 39944 49950 58029 333 60005;
0122010370999992008011423004+69383+020267FM-12+000699999V0201701N008019999999N9999999N1-00271-00691099361ADDAA101000021MA1999999099301MD1810341+9999REMSYN070AAXX  14231 01037 26/// /1708 11027 21069 39930 49936 58034 333 60005;
0147010370999992008011500004+69383+020267FM-12+000699999V0201601N007019999999N9999999N1-00341-00761099251ADDAA106000091MA1999999099191MD1810361+9999REMSYN076AAXX  15001 01037 16/// /1607 11034 21076 39919 49925 58036 60001 333 91115;EQDQ01  00002PRCP06
0122010370999992008011501004+69383+020267FM-12+000699999V0201601N007019999999N9999999N1-00361-00671099131ADDAA101000021MA1999999099071MD1710371+9999REMSYN070AAXX  15011 01037 26/// /1607 11036 21067 39907 49913 57037 333 60005;
0122010370999992008011502004+69383+020267FM-12+000699999V0201601N006019999999N9999999N1-00301-00701099001ADDAA101000391MA1999999098941MD1810371+9999REMSYN070AAXX  15021 01037 26/// /1606 11030 21070 39894 49900 58037 333 69935;
0122010370999992008011503004+69383+020267FM-12+000699999V0201601N007019999999N9999999N1-00251-00751098821ADDAA101000021MA1999999098761MD1810421+9999REMSYN070AAXX  15031 01037 26/// /1607 11025 21075 39876 49882 58042 333 60005;
0122010370999992008011504004+69383+020267FM-12+000699999V0201501N007019999999N9999999N1-00241-00841098731ADDAA101000021MA1999999098681MD1810401+9999REMSYN070AAXX  15041 01037 26/// /1507 11024 21084 39868 49873 58040 333 60005;
0122010370999992008011505004+69383+020267FM-12+000699999V0201801N006019999999N9999999N1-00301-00871098661ADDAA101000021MA1999999098601MD1610331+9999REMSYN070AAXX  15051 01037 26/// /1806 11030 21087 39860 49866 56033 333 60005;
0183010370999992008011506004+69383+020267FM-12+000699999V0202001N007019999999N9999999N1-00291-00851098561ADDAA112000091AA224000391KA1120N-00801MA1999999098501MD1810261+9999REMSYN088AAXX  15061 01037 16/// /2007 11029 21085 39850 49856 58026 69922 333 21080 70002 91116;EQDQ01  00002PRCP12
0122010370999992008011507004+69383+020267FM-12+000699999V0201901N007019999999N9999999N1-00301-00871098551ADDAA101000021MA1999999098501MD1610181+9999REMSYN070AAXX  15071 01037 26/// /1907 11030 21087 39850 49855 56018 333 60005;
0122010370999992008011508004+69383+020267FM-12+000699999V0201701N006019999999N9999999N1-00311-00851098571ADDAA101000021MA1999999098511MD1510091+9999REMSYN070AAXX  15081 01037 26/// /1706 11031 21085 39851 49857 55009 333 60005;
0122010370999992008011509004+69383+020267FM-12+000699999V0201701N006019999999N9999999N1-00281-00841098571ADDAA101000021MA1999999098521MD1210021+9999REMSYN070AAXX  15091 01037 26/// /1706 11028 21084 39852 49857 52002 333 60005;
0147010370999992008011512004+69383+020267FM-12+000699999V0201201N002019999999N9999999N1-00301-00841098571ADDAA106000091MA1999999098511MD1710011+9999REMSYN076AAXX  15121 01037 16/// /1202 11030 21084 39851 49857 57001 60001 333 91113;EQDQ01  00002PRCP06
0122010370999992008011513004+69383+020267FM-12+000699999V0201501N002019999999N9999999N1-00331-00831098551ADDAA101000021MA1999999098491MD1810031+9999REMSYN070AAXX  15131 01037 26/// /1502 11033 21083 39849 49855 58003 333 60005;
0122010370999992008011515004+69383+020267FM-12+000699999V0201601N005019999999N9999999N1-00221-00781098491ADDAA101000021MA1999999098431MD1810081+9999REMSYN070AAXX  15151 01037 26/// /1605 11022 21078 39843 49849 58008 333 60005;
0122010370999992008011516004+69383+020267FM-12+000699999V0201601N006019999999N9999999N1-00131-00711098421ADDAA101000021MA1999999098371MD1810131+9999REMSYN070AAXX  15161 01037 26/// /1606 11013 21071 39837 49842 58013 333 60005;
0122010370999992008011517004+69383+020267FM-12+000699999V0202001N004019999999N9999999N1+00001-00531098371ADDAA101000021MA1999999098311MD1810141+9999REMSYN070AAXX  15171 01037 26/// /2004 10000 21053 39831 49837 58014 333 60005;
0166010370999992008011518004+69383+020267FM-12+000699999V0202101N003019999999N9999999N1+00131-00411098331ADDAA112000091KA1120M+00131MA1999999098281MD1710151+9999REMSYN082AAXX  15181 01037 16/// /2103 10013 21041 39828 49833 57015 60002 333 10013 91111;EQDQ01  00002PRCP12
0122010370999992008011519004+69383+020267FM-12+000699999V0201801N002019999999N9999999N1+00111-00471098311ADDAA101000021MA1999999098251MD1710111+9999REMSYN070AAXX  15191 01037 26/// /1802 10011 21047 39825 49831 57011 333 60005;
0122010370999992008011520004+69383+020267FM-12+000699999V0200501N002019999999N9999999N1-00051-00431098281ADDAA101000021MA1999999098221MD1710091+9999REMSYN070AAXX  15201 01037 26/// /0502 11005 21043 39822 49828 57009 333 60005;
0122010370999992008011521004+69383+020267FM-12+000699999V0201201N001019999999N9999999N1-00111-00471098251ADDAA101000021MA1999999098191MD1710081+9999REMSYN070AAXX  15211 01037 26/// /1201 11011 21047 39819 49825 57008 333 60005;
0122010370999992008011522004+69383+020267FM-12+000699999V0201101N002019999999N9999999N1-00101-00471098201ADDAA101000021MA1999999098141MD1810111+9999REMSYN070AAXX  15221 01037 26/// /1102 11010 21047 39814 49820 58011 333 60005;
0122010370999992008011523004+69383+020267FM-12+000699999V0202001N002019999999N9999999N1-00061-00391098181ADDAA101000021MA1999999098121MD1810101+9999REMSYN070AAXX  15231 01037 26/// /2002 11006 21039 39812 49818 58010 333 60005;
0147010370999992008011600004+69383+020267FM-12+000699999V0203501N002019999999N9999999N1-00041-00341098121ADDAA106000091MA1999999098061MD1810141+9999REMSYN076AAXX  16001 01037 16/// /3502 11004 21034 39806 49812 58014 60001 333 91107;EQDQ01  00002PRCP06
0122010370999992008011601004+69383+020267FM-12+000699999V0201201N003019999999N9999999N1+00421-00221098091ADDAA101000021MA1999999098031MD1710111+9999REMSYN070AAXX  16011 01037 26/// /1203 10042 21022 39803 49809 57011 333 60005;
0122010370999992008011602004+69383+020267FM-12+000699999V0201201N004019999999N9999999N1+00461-00181098061ADDAA101000021MA1999999098001MD1610111+9999REMSYN070AAXX  16021 01037 26/// /1204 10046 21018 39800 49806 56011 333 60005;
0122010370999992008011603004+69383+020267FM-12+000699999V0201201N003019999999N9999999N1+00481-00211098051ADDAA101000021MA1999999097991MD1510071+9999REMSYN070AAXX  16031 01037 26/// /1203 10048 21021 39799 49805 55007 333 60005;
0122010370999992008011604004+69383+020267FM-12+000699999V0201801N002019999999N9999999N1+00441-00221098051ADDAA101000021MA1999999097991MD1510041+9999REMSYN070AAXX  16041 01037 26/// /1802 10044 21022 39799 49805 55004 333 60005;
0122010370999992008011605004+69383+020267FM-12+000699999V0201601N003019999999N9999999N1+00501-00211098031ADDAA101000021MA1999999097981MD1610021+9999REMSYN070AAXX  16051 01037 26/// /1603 10050 21021 39798 49803 56002 333 60005;
0199010370999992008011606004+69383+020267FM-12+000699999V0201901N002019999999N9999999N1+00421-00201098071ADDAA112000091AA224000091KA1120N-00141MA1999999098021MD1310021+9999REMSYN088AAXX  16061 01037 16/// /1902 10042 21020 39802 49807 53002 60002 333 21014 70000 91110;EQDQ01  00002PRCP24Q02  00002PRCP12
0122010370999992008011607004+69383+020267FM-12+000699999V0201501N002019999999N9999999N1+00271-00241098081ADDAA101000021MA1999999098031MD1310031+9999REMSYN070AAXX  16071 01037 26/// /1502 10027 21024 39803 49808 53003 333 60005;
0122010370999992008011608004+69383+020267FM-12+000699999V0201701N004019999999N9999999N1+00391-00231098091ADDAA101000021MA1999999098031MD1010051+9999REMSYN070AAXX  16081 01037 26/// /1704 10039 21023 39803 49809 50005 333 60005;
0122010370999992008011609004+69383+020267FM-12+000699999V0201601N004019999999N9999999N1+00391-00271098151ADDAA101000021MA1999999098091MD1310081+9999REMSYN070AAXX  16091 01037 26/// /1604 10039 21027 39809 49815 53008 333 60005;
0122010370999992008011610004+69383+020267FM-12+000699999V0201801N003019999999N9999999N1+00541-00291098301ADDAA101000021MA1999999098241MD1310211+9999REMSYN070AAXX  16101 01037 26/// /1803 10054 21029 39824 49830 53021 333 60005;
0122010370999992008011611004+69383+020267FM-12+000699999V0202001N003019999999N9999999N1+00391-00101098511ADDAA101000021MA1999999098461MD1310431+9999REMSYN070AAXX  16111 01037 26/// /2003 10039 21010 39846 49851 53043 333 60005;
0147010370999992008011612004+69383+020267FM-12+000699999V0202301N005019999999N9999999N1+00351-00291098711ADDAA106000091MA1999999098661MD1310571+9999REMSYN076AAXX  16121 01037 16/// /2305 10035 21029 39866 49871 53057 60001 333 91113;EQDQ01  00002PRCP06
0122010370999992008011613004+69383+020267FM-12+000699999V0202301N005019999999N9999999N1+00301-00421098861ADDAA101000021MA1999999098811MD1110561+9999REMSYN070AAXX  16131 01037 26/// /2305 10030 21042 39881 49886 51056 333 60005;
0122010370999992008011614004+69383+020267FM-12+000699999V0202201N003019999999N9999999N1+00271-00521098981ADDAA101000021MA1999999098931MD1110471+9999REMSYN070AAXX  16141 01037 26/// /2203 10027 21052 39893 49898 51047 333 60005;
0122010370999992008011615004+69383+020267FM-12+000699999V0202601N003019999999N9999999N1+00211-00551099111ADDAA101000021MA1999999099051MD1310401+9999REMSYN070AAXX  16151 01037 26/// /2603 10021 21055 39905 49911 53040 333 60005;
0122010370999992008011616004+69383+020267FM-12+000699999V0202301N003019999999N9999999N1+00141-00641099231ADDAA101000021MA1999999099171MD1210361+9999REMSYN070AAXX  16161 01037 26/// /2303 10014 21064 39917 49923 52036 333 60005;
0122010370999992008011617004+69383+020267FM-12+000699999V0202201N002019999999N9999999N1+00111-00741099291ADDAA101000021MA1999999099231MD1110311+9999REMSYN070AAXX  16171 01037 26/// /2202 10011 21074 39923 49929 51031 333 60005;
0166010370999992008011618004+69383+020267FM-12+000699999V0202301N003019999999N9999999N1+00091-00731099361ADDAA112000091KA1120M+00601MA1999999099311MD1110251+9999REMSYN082AAXX  16181 01037 16/// /2303 10009 21073 39931 49936 51025 60002 333 10060 91114;EQDQ01  00002PRCP12
0122010370999992008011619004+69383+020267FM-12+000699999V0202501N002019999999N9999999N1+00071-00851099441ADDAA101000021MA1999999099381MD1310211+9999REMSYN070AAXX  16191 01037 26/// /2502 10007 21085 39938 49944 53021 333 60005;
0122010370999992008011620004+69383+020267FM-12+000699999V0201401N001019999999N9999999N1-00031-00871099491ADDAA101000021MA1999999099441MD1310201+9999REMSYN070AAXX  16201 01037 26/// /1401 11003 21087 39944 49949 53020 333 60005;
0122010370999992008011621004+69383+020267FM-12+000699999V0202101N002019999999N9999999N1+00001-00891099521ADDAA101000021MA1999999099461MD1110151+9999REMSYN070AAXX  16211 01037 26/// /2102 10000 21089 39946 49952 51015 333 60005;
0122010370999992008011622004+69383+020267FM-12+000699999V0201001N001019999999N9999999N1-00151-00851099531ADDAA101000021MA1999999099471MD1110091+9999REMSYN070AAXX  16221 01037 26/// /1001 11015 21085 39947 49953 51009 333 60005;
0122010370999992008011623004+69383+020267FM-12+000699999V0200701N002019999999N9999999N1-00121-00911099521ADDAA101000021MA1999999099471MD1210031+9999REMSYN070AAXX  16231 01037 26/// /0702 11012 21091 39947 49952 52003 333 60005;
0147010370999992008011700004+69383+020267FM-12+000699999V0209999C000019999999N9999999N1-00271-00831099571ADDAA106000091MA1999999099511MD1310051+9999REMSYN076AAXX  17001 01037 16/// /0000 11027 21083 39951 49957 53005 60001 333 91108;EQDQ01  00002PRCP06
0122010370999992008011701004+69383+020267FM-12+000699999V0201701N002019999999N9999999N1-00251-00811099561ADDAA101000021MA1999999099501MD1210041+9999REMSYN070AAXX  17011 01037 26/// /1702 11025 21081 39950 49956 52004 333 60005;
0122010370999992008011702004+69383+020267FM-12+000699999V0201401N002019999999N9999999N1-00281-00801099591ADDAA101000021MA1999999099531MD1110061+9999REMSYN070AAXX  17021 01037 26/// /1402 11028 21080 39953 49959 51006 333 69925;
0122010370999992008011703004+69383+020267FM-12+000699999V0201301N002019999999N9999999N1-00301-00781099631ADDAA101000021MA1999999099571MD1310061+9999REMSYN070AAXX  17031 01037 26/// /1302 11030 21078 39957 49963 53006 333 60005;
0122010370999992008011704004+69383+020267FM-12+000699999V0200701N001019999999N9999999N1-00371-00801099681ADDAA101000021MA1999999099621MD1310111+9999REMSYN070AAXX  17041 01037 26/// /0701 11037 21080 39962 49968 53011 333 60005;
0122010370999992008011705004+69383+020267FM-12+000699999V0201001N001019999999N9999999N1-00471-00851099721ADDAA101000021MA1999999099661MD1310131+9999REMSYN070AAXX  17051 01037 26/// /1001 11047 21085 39966 49972 53013 333 60005;
0183010370999992008011706004+69383+020267FM-12+000699999V0201201N001019999999N9999999N1-00491-00811099751ADDAA112000091AA224000391KA1120N-00511MA1999999099691MD1210121+9999REMSYN088AAXX  17061 01037 16/// /1201 11049 21081 39969 49975 52012 69922 333 21051 70003 91103;EQDQ01  00002PRCP12
0122010370999992008011707004+69383+020267FM-12+000699999V0201201N002019999999N9999999N1-00561-00821099811ADDAA101000021MA1999999099751MD1310141+9999REMSYN070AAXX  17071 01037 26/// /1202 11056 21082 39975 49981 53014 333 60005;
0122010370999992008011708004+69383+020267FM-12+000699999V0201801N001019999999N9999999N1-00531-00801099851ADDAA101000021MA1999999099791MD1310131+9999REMSYN070AAXX  17081 01037 26/// /1801 11053 21080 39979 49985 53013 333 60005;
0122010370999992008011709004+69383+020267FM-12+000699999V0201301N002019999999N9999999N1-00541-00831099931ADDAA101000021MA1999999099871MD1310181+9999REMSYN070AAXX  17091 01037 26/// /1302 11054 21083 39987 49993 53018 333 60005;
0122010370999992008011710004+69383+020267FM-12+000699999V0201101N001019999999N9999999N1-00521-00811099981ADDAA101000021MA1999999099921MD1210161+9999REMSYN070AAXX  17101 01037 26/// /1101 11052 21081 39992 49998 52016 333 60005;
0122010370999992008011711004+69383+020267FM-12+000699999V0201801N001019999999N9999999N1-00371-00781100031ADDAA101000021MA1999999099971MD1110181+9999REMSYN070AAXX  17111 01037 26/// /1801 11037 21078 39997 40003 51018 333 60005;
0147010370999992008011712004+69383+020267FM-12+000699999V0201001N001019999999N9999999N1-00631-00891100111ADDAA106000091MA1999999100051MD1310181+9999REMSYN076AAXX  17121 01037 16/// /1001 11063 21089 30005 40011 53018 60001 333 91104;EQDQ01  00002PRCP06
0122010370999992008011714004+69383+020267FM-12+000699999V0201401N002019999999N9999999N1-00671-00901100251ADDAA101000021MA1999999100191MD1310221+9999REMSYN070AAXX  17141 01037 26/// /1402 11067 21090 30019 40025 53022 333 60005;
0122010370999992008011715004+69383+020267FM-12+000699999V0201001N001019999999N9999999N1-00621-00881100351ADDAA101000021MA1999999100291MD1310241+9999REMSYN070AAXX  17151 01037 26/// /1001 11062 21088 30029 40035 53024 333 60005;
0122010370999992008011716004+69383+020267FM-12+000699999V0201101N002019999999N9999999N1-00861-01071100411ADDAA101000021MA1999999100351MD1210241+9999REMSYN070AAXX  17161 01037 26/// /1102 11086 21107 30035 40041 52024 333 60005;
0122010370999992008011717004+69383+020267FM-12+000699999V0201101N002019999999N9999999N1-00931-01071100471ADDAA101000021MA1999999100411MD1210221+9999REMSYN070AAXX  17171 01037 26/// /1102 11093 21107 30041 40047 52022 333 60005;
0166010370999992008011718004+69383+020267FM-12+000699999V0201201N002019999999N9999999N1-01111-01261100511ADDAA112000091KA1120M-00271MA1999999100451MD1210171+9999REMSYN082AAXX  17181 01037 16/// /1202 11111 21126 30045 40051 52017 60002 333 11027 91104;EQDQ01  00002PRCP12
0122010370999992008011719004+69383+020267FM-12+000699999V0201301N002019999999N9999999N1-01111-01261100591ADDAA101000021MA1999999100531MD1310181+9999REMSYN070AAXX  17191 01037 26/// /1302 11111 21126 30053 40059 53018 333 60005;
0122010370999992008011720004+69383+020267FM-12+000699999V0201201N002019999999N9999999N1-01171-01341100661ADDAA101000021MA1999999100601MD1310191+9999REMSYN070AAXX  17201 01037 26/// /1202 11117 21134 30060 40066 53019 333 60005;
0122010370999992008011721004+69383+020267FM-12+000699999V0201301N002019999999N9999999N1-01181-01371100741ADDAA101000021MA1999999100681MD1310231+9999REMSYN070AAXX  17211 01037 26/// /1302 11118 21137 30068 40074 53023 333 60005;
0122010370999992008011722004+69383+020267FM-12+000699999V0201201N003019999999N9999999N1-00941-01221100801ADDAA101000021MA1999999100741MD1210211+9999REMSYN070AAXX  17221 01037 26/// /1203 11094 21122 30074 40080 52021 333 60005;
0122010370999992008011723004+69383+020267FM-12+000699999V0201401N003019999999N9999999N1-00891-01241100811ADDAA101000021MA1999999100751MD1110151+9999REMSYN070AAXX  17231 01037 26/// /1403 11089 21124 30075 40081 51015 333 60005;
0147010370999992008011800004+69383+020267FM-12+000699999V0201401N003019999999N9999999N1-00871-01251100831ADDAA106000091MA1999999100771MD1210091+9999REMSYN076AAXX  18001 01037 16/// /1403 11087 21125 30077 40083 52009 60001 333 91105;EQDQ01  00002PRCP06
0122010370999992008011801004+69383+020267FM-12+000699999V0201301N003019999999N9999999N1-00851-01271100871ADDAA101000021MA1999999100811MD1310071+9999REMSYN070AAXX  18011 01037 26/// /1303 11085 21127 30081 40087 53007 333 60005;
0122010370999992008011802004+69383+020267FM-12+000699999V0201501N003019999999N9999999N1-00701-01281100911ADDAA101000021MA1999999100851MD1210101+9999REMSYN070AAXX  18021 01037 26/// /1503 11070 21128 30085 40091 52010 333 60005;
0122010370999992008011803004+69383+020267FM-12+000699999V0201501N003019999999N9999999N1-00721-01261100961ADDAA101000021MA1999999100901MD1210141+9999REMSYN070AAXX  18031 01037 26/// /1503 11072 21126 30090 40096 52014 333 60005;
0122010370999992008011804004+69383+020267FM-12+000699999V0201601N002019999999N9999999N1-00761-01331101021ADDAA101000021MA1999999100961MD1310151+9999REMSYN070AAXX  18041 01037 26/// /1602 11076 21133 30096 40102 53015 333 60005;
0122010370999992008011805004+69383+020267FM-12+000699999V0201701N003019999999N9999999N1-00781-01321101031ADDAA101000021MA1999999100971MD1110121+9999REMSYN070AAXX  18051 01037 26/// /1703 11078 21132 30097 40103 51012 333 60005;
0183010370999992008011806004+69383+020267FM-12+000699999V0201401N003019999999N9999999N1-00751-01271101051ADDAA112000091AA224000391KA1120N-01191MA1999999100991MD1110081+9999REMSYN088AAXX  18061 01037 16/// /1403 11075 21127 30099 40105 51008 60002 333 21119 70002 91107;EQDQ01  00002PRCP12
0122010370999992008011807004+69383+020267FM-12+000699999V0201401N003019999999N9999999N1-00831-01311101091ADDAA101000021MA1999999101031MD1310071+9999REMSYN070AAXX  18071 01037 26/// /1403 11083 21131 30103 40109 53007 333 60005;
0122010370999992008011808004+69383+020267FM-12+000699999V0201301N002019999999N9999999N1-01031-01351101101ADDAA101000021MA1999999101041MD1210071+9999REMSYN070AAXX  18081 01037 26/// /1302 11103 21135 30104 40110 52007 333 60005;
0122010370999992008011809004+69383+020267FM-12+000699999V0201301N002019999999N9999999N1-01031-01291101111ADDAA101000021MA1999999101051MD1210071+9999REMSYN070AAXX  18091 01037 26/// /1302 11103 21129 30105 40111 52007 333 60005;
0122010370999992008011810004+69383+020267FM-12+000699999V0201301N002019999999N9999999N1-01261-01481101131ADDAA101000021MA1999999101071MD1210031+9999REMSYN070AAXX  18101 01037 26/// /1302 11126 21148 30107 40113 52003 333 60005;
0122010370999992008011811004+69383+020267FM-12+000699999V0200901N002019999999N9999999N1-01271-01421101091ADDAA101000021MA1999999101031MD1810011+9999REMSYN070AAXX  18111 01037 26/// /0902 11127 21142 30103 40109 58001 333 60005;
0147010370999992008011812004+69383+020267FM-12+000699999V0201301N001019999999N9999999N1-01261-01441101091ADDAA106000091MA1999999101031MD1810031+9999REMSYN076AAXX  18121 01037 16/// /1301 11126 21144 30103 40109 58003 60001 333 91104;EQDQ01  00002PRCP06
0122010370999992008011813004+69383+020267FM-12+000699999V0201201N003019999999N9999999N1-01031-01141101061ADDAA101000021MA1999999101001MD1710061+9999REMSYN070AAXX  18131 01037 26/// /1203 11103 21114 30100 40106 57006 333 60005;
0122010370999992008011814004+69383+020267FM-12+000699999V0200301N001019999999N9999999N1-01251-01431101001ADDAA101000021MA1999999100941MD1810091+9999REMSYN070AAXX  18141 01037 26/// /0301 11125 21143 30094 40100 58009 333 60005;
0122010370999992008011815004+69383+020267FM-12+000699999V0200901N001019999999N9999999N1-01411-01591100981ADDAA101000021MA1999999100921MD1710111+9999REMSYN070AAXX  18151 01037 26/// /0901 11141 21159 30092 40098 57011 333 60005;
0122010370999992008011816004+69383+020267FM-12+000699999V0200901N002019999999N9999999N1-01041-01181100941ADDAA101000021MA1999999100881MD1710131+9999REMSYN070AAXX  18161 01037 26/// /0902 11104 21118 30088 40094 57013 333 60005;
0122010370999992008011817004+69383+020267FM-12+000699999V0200301N001019999999N9999999N1-01061-01251100851ADDAA101000021MA1999999100791MD1810151+9999REMSYN070AAXX  18171 01037 26/// /0301 11106 21125 30079 40085 58015 333 60005;
0166010370999992008011818004+69383+020267FM-12+000699999V0201601N003019999999N9999999N1-00541-00801100771ADDAA112000091KA1120M-00541MA1999999100711MD1810211+9999REMSYN082AAXX  18181 01037 16/// /1603 11054 21080 30071 40077 58021 60002 333 11054 91106;EQDQ01  00002PRCP12
0122010370999992008011819004+69383+020267FM-12+000699999V0201501N003019999999N9999999N1-00501-00861100711ADDAA101000021MA1999999100651MD1710231+9999REMSYN070AAXX  18191 01037 26/// /1503 11050 21086 30065 40071 57023 333 60005;
0122010370999992008011820004+69383+020267FM-12+000699999V0201601N003019999999N9999999N1-00241-01061100621ADDAA101000021MA1999999100561MD1810231+9999REMSYN070AAXX  18201 01037 26/// /1603 11024 21106 30056 40062 58023 333 60005;
0122010370999992008011821004+69383+020267FM-12+000699999V0201401N005019999999N9999999N1-00081-00721100531ADDAA101000021MA1999999100471MD1810241+9999REMSYN070AAXX  18211 01037 26/// /1405 11008 21072 30047 40053 58024 333 60005;
0122010370999992008011822004+69383+020267FM-12+000699999V0201601N005019999999N9999999N1-00091-00581100411ADDAA101000021MA1999999100351MD1810301+9999REMSYN070AAXX  18221 01037 26/// /1605 11009 21058 30035 40041 58030 333 60005;
0122010370999992008011823004+69383+020267FM-12+000699999V0201701N004019999999N9999999N1-00101-00611100301ADDAA101000021MA1999999100251MD1810311+9999REMSYN070AAXX  18231 01037 26/// /1704 11010 21061 30025 40030 58031 333 60005;
0147010370999992008011900004+69383+020267FM-12+000699999V0201701N006019999999N9999999N1-00201-00651100161ADDAA106000091MA1999999100111MD1810361+9999REMSYN076AAXX  19001 01037 16/// /1706 11020 21065 30011 40016 58036 60001 333 91111;EQDQ01  00002PRCP06
0122010370999992008011901004+69383+020267FM-12+000699999V0201601N005019999999N9999999N1-00131-00641100061ADDAA101000021MA1999999100001MD1810351+9999REMSYN070AAXX  19011 01037 26/// /1605 11013 21064 30000 40006 58035 333 60005;
0122010370999992008011902004+69383+020267FM-12+000699999V0201301N005019999999N9999999N1+00001-00551099951ADDAA101000021MA1999999099891MD1810361+9999REMSYN070AAXX  19021 01037 26/// /1305 10000 21055 39989 49995 58036 333 60005;
0122010370999992008011903004+69383+020267FM-12+000699999V0201401N006019999999N9999999N1-00031-00601099841ADDAA101000021MA1999999099781MD1810321+9999REMSYN070AAXX  19031 01037 26/// /1406 11003 21060 39978 49984 58032 333 60005;
