0073010014999992009010412504+59783+005350FM-15+0049ENSO V0209999V00051220001CN0099001N1+00001-00601999999ADDMA1101691999999REMMET046METAR ENSO 041250Z VRB01KT CAVOK 00/M06 Q1017;
0073010014999992009010413204+59783+005350FM-15+0049ENSO V0209999V00051220001CN0099001N1+00001-00601999999ADDMA1101691999999REMMET046METAR ENSO 041320Z VRB01KT CAVOK 00/M06 Q1017;
0082010014999992009010413504+59783+005350FM-15+0049ENSO V0200501N00151220001CN0099001N1-00101-00701999999ADDMA1101801999999REMMET055METAR ENSO 041350Z 05003KT 010V110 CAVOK M01/M07 Q1018;
0082010014999992009010414204+59783+005350FM-15+0049ENSO V0200701N00151220001CN0099001N1-00101-00801999999ADDMA1101801999999REMMET055METAR ENSO 041420Z 07003KT 010V120 CAVOK M01/M08 Q1018;
0074010014999992009010414504+59783+005350FM-15+0049ENSO V0209999C00001220001CN0099001N1-00201-01001999999ADDMA1101901999999REMMET047METAR ENSO 041450Z 00000KT CAVOK M02/M10 Q1019;
0074010014999992009010415204+59783+005350FM-15+0049ENSO V0209999V00101220001CN0099001N1-00201-01001999999ADDMA1101901999999REMMET047METAR ENSO 041520Z VRB02KT CAVOK M02/M10 Q1019;
0074010014999992009010415504+59783+005350FM-15+0049ENSO V0209999V00101220001CN0099001N1-00201-01001999999ADDMA1101901999999REMMET047METAR ENSO 041550Z VRB02KT CAVOK M02/M10 Q1019;
0074010014999992009010416204+59783+005350FM-15+0049ENSO V0209999V00151220001CN0099001N1-00201-01001999999ADDMA1102001999999REMMET047METAR ENSO 041620Z VRB03KT CAVOK M02/M10 Q1020;
0074010014999992009010416504+59783+005350FM-15+0049ENSO V0209999C00001220001CN0099001N1-00201-01101999999ADDMA1102001999999REMMET047METAR ENSO 041650Z 00000KT CAVOK M02/M11 Q1020;
0074010014999992009010417504+59783+005350FM-15+0049ENSO V0209999V00051220001CN0099001N1-00301-00901999999ADDMA1102101999999REMMET047METAR ENSO 041750Z VRB01KT CAVOK M03/M09 Q1021;
0082010014999992009010418204+59783+005350FM-15+0049ENSO V0200201N00151220001CN0099001N1-00401-01001999999ADDMA1102101999999REMMET055METAR ENSO 041820Z 02003KT 330V050 CAVOK M04/M10 Q1021;
0074010014999992009010504504+59783+005350FM-15+0049ENSO V0201001N00311220001CN0099001N1-00601-01101999999ADDMA1102611999999REMMET047METAR ENSO 050450Z 10006KT CAVOK M06/M11 Q1026;
0074010014999992009010505204+59783+005350FM-15+0049ENSO V0200601N00211220001CN0099001N1-00601-01101999999ADDMA1102611999999REMMET047METAR ENSO 050520Z 06004KT CAVOK M06/M11 Q1026;
0074010014999992009010505504+59783+005350FM-15+0049ENSO V0209999V00101220001CN0099001N1-00501-01101999999ADDMA1102611999999REMMET047METAR ENSO 050550Z VRB02KT CAVOK M05/M11 Q1026;
0074010014999992009010506204+59783+005350FM-15+0049ENSO V0201101N00311220001CN0099001N1-00501-01001999999ADDMA1102711999999REMMET047METAR ENSO 050620Z 11006KT CAVOK M05/M10 Q1027;
0074010014999992009010506504+59783+005350FM-15+0049ENSO V0201001N00361220001CN0099001N1-00501-01001999999ADDMA1102711999999REMMET047METAR ENSO 050650Z 10007KT CAVOK M05/M10 Q1027;
0074010014999992009010507204+59783+005350FM-15+0049ENSO V0201101N00311220001CN0099001N1-00501-01001999999ADDMA1102711999999REMMET047METAR ENSO 050720Z 11006KT CAVOK M05/M10 Q1027;
0074010014999992009010507504+59783+005350FM-15+0049ENSO V0201101N00411220001CN0099001N1-00401-00901999999ADDMA1102711999999REMMET047METAR ENSO 050750Z 11008KT CAVOK M04/M09 Q1027;
0074010014999992009010508204+59783+005350FM-15+0049ENSO V0201101N00411220001CN0099001N1-00401-00901999999ADDMA1102811999999REMMET047METAR ENSO 050820Z 11008KT CAVOK M04/M09 Q1028;
0074010014999992009010508504+59783+005350FM-15+0049ENSO V0201101N00311220001CN0099001N1-00401-00901999999ADDMA1102811999999REMMET047METAR ENSO 050850Z 11006KT CAVOK M04/M09 Q1028;
0074010014999992009010509204+59783+005350FM-15+0049ENSO V0201301N00261220001CN0099001N1-00401-00801999999ADDMA1102811999999REMMET047METAR ENSO 050920Z 13005KT CAVOK M04/M08 Q1028;
0074010014999992009010509504+59783+005350FM-15+0049ENSO V0201101N00261220001CN0099001N1-00401-00801999999ADDMA1102811999999REMMET047METAR ENSO 050950Z 11005KT CAVOK M04/M08 Q1028;
0074010014999992009010510204+59783+005350FM-15+0049ENSO V0201201N00211220001CN0099001N1-00301-00801999999ADDMA1102811999999REMMET047METAR ENSO 051020Z 12004KT CAVOK M03/M08 Q1028;
0074010014999992009010510504+59783+005350FM-15+0049ENSO V0201401N00151220001CN0099001N1-00301-00701999999ADDMA1102811999999REMMET047METAR ENSO 051050Z 14003KT CAVOK M03/M07 Q1028;
0074010014999992009010511204+59783+005350FM-15+0049ENSO V0201401N00211220001CN0099001N1-00201-00701999999ADDMA1102811999999REMMET047METAR ENSO 051120Z 14004KT CAVOK M02/M07 Q1028;
0074010014999992009010511504+59783+005350FM-15+0049ENSO V0201401N00261220001CN0099001N1-00201-00701999999ADDMA1102811999999REMMET047METAR ENSO 051150Z 14005KT CAVOK M02/M07 Q1028;
0074010014999992009010512204+59783+005350FM-15+0049ENSO V0201501N00151220001CN0099001N1-00201-00701999999ADDMA1102811999999REMMET047METAR ENSO 051220Z 15003KT CAVOK M02/M07 Q1028;
0074010014999992009010512504+59783+005350FM-15+0049ENSO V0201401N00361220001CN0099001N1-00201-00601999999ADDMA1102811999999REMMET047METAR ENSO 051250Z 14007KT CAVOK M02/M06 Q1028;
0074010014999992009010513204+59783+005350FM-15+0049ENSO V0201501N00311220001CN0099001N1-00201-00601999999ADDMA1102811999999REMMET047METAR ENSO 051320Z 15006KT CAVOK M02/M06 Q1028;
0074010014999992009010513504+59783+005350FM-15+0049ENSO V0201401N00311220001CN0099001N1-00201-00601999999ADDMA1102811999999REMMET047METAR ENSO 051350Z 14006KT CAVOK M02/M06 Q1028;
0074010014999992009010514204+59783+005350FM-15+0049ENSO V0201301N00361220001CN0099001N1-00301-00601999999ADDMA1102811999999REMMET047METAR ENSO 051420Z 13007KT CAVOK M03/M06 Q1028;
0145010014999992009010514504+59783+005350FM-15+0049ENSO V0201301N004112200019N0112651N1-00301-00601999999ADDGA1021+015001999GA2041+021001999GF104991999999999999999999MA1102811999999REMMET060METAR ENSO 051450Z 13008KT 9999 FEW055 SCT070 M03/M06 Q1028;
0145010014999992009010515204+59783+005350FM-15+0049ENSO V0201401N004112200019N0112651N1-00301-00601999999ADDGA1021+009001999GA2041+018001999GF104991999999999999999999MA1102711999999REMMET060METAR ENSO 051520Z 14008KT 9999 FEW030 SCT060 M03/M06 Q1027;
0145010014999992009010515504+59783+005350FM-15+0049ENSO V0201301N004112200019N0112651N1-00301-00601999999ADDGA1021+009001999GA2041+018001999GF104991999999999999999999MA1102711999999REMMET060METAR ENSO 051550Z 13008KT 9999 FEW030 SCT060 M03/M06 Q1027;
0153010014999992009010516204+59783+005350FM-15+0049ENSO V0201401N002610150019N0112651N1-00201-00601999999ADDGA1021+006001999GA2071+015001999GF107991999999999999999999MA1102711999999REMMET068METAR ENSO 051620Z 14005KT 080V190 9999 FEW020 BKN050 M02/M06 Q1027;
0186010014999992009010516504+59783+005350FM-15+0049ENSO V0200801N00261005401CN0070001N1-00201-00601999999ADDGA1021+003601999GA2041+005401999GA3071+007501999GF107991999999999999999999MA1102711999999MW1711REMMET079METAR ENSO 051650Z 08005KT 030V100 7000 -SN FEW012 SCT018 BKN025 M02/M06 Q1027;
0186010014999992009010517204+59783+005350FM-15+0049ENSO V0201501N00211004501CN0080001N1-00301-00501999999ADDGA1021+002401999GA2041+004501999GA3071+007501999GF107991999999999999999999MA1102711999999MW1711REMMET079METAR ENSO 051720Z 15004KT 120V190 8000 -SN FEW008 SCT015 BKN025 M03/M05 Q1027;
0168010014999992009010517504+59783+005350FM-15+0049ENSO V0201401N00461007501CN0112651N1-00301-00401999999ADDGA1021+002401999GA2041+007501999GA3071+010501999GF107991999999999999999999MA1102711999999REMMET067METAR ENSO 051750Z 14009KT 9999 FEW008 SCT025 BKN035 M03/M04 Q1027;
0145010014999992009010518204+59783+005350FM-15+0049ENSO V0201301N003610135019N0112651N1-00301-00401999999ADDGA1021+006001999GA2071+013501999GF107991999999999999999999MA1102711999999REMMET060METAR ENSO 051820Z 13007KT 9999 FEW020 BKN045 M03/M04 Q1027;
0153010014999992009010604504+59783+005350FM-15+0049ENSO V0202401N005710060019N0112651N1+00301+00101999999ADDGA1021+003001999GA2071+006001999GF107991999999999999999999MA1101801999999MW1611REMMET062METAR ENSO 060450Z 24011KT 9999 -RA FEW010 BKN020 03/01 Q1018;
0176010014999992009010605204+59783+005350FM-15+0049ENSO V0202401N00671003601CN0112651N1+00301+00101999999ADDGA1021+002401999GA2041+003601999GA3071+006601999GF107991999999999999999999MA1101691999999MW1611REMMET069METAR ENSO 060520Z 24013KT 9999 -RA FEW008 SCT012 BKN022 03/01 Q1017;
0183010014999992009010605504+59783+005350FM-15+0049ENSO V0202201N00511003001CN0112651N1+00201+00101999999ADDGA1021+001801999GA2041+003001999GA3071+004201999GF107991999999999999999999MA1101691999999MW1631REMMET076METAR ENSO 060550Z 22010KT 170V290 9999 RA FEW006 SCT010 BKN014 02/01 Q1017;
0161010014999992009010606204+59783+005350FM-15+0049ENSO V0202201N004610054019N0112651N1+00301+00201999999ADDGA1021+002701999GA2071+005401999GF107991999999999999999999MA1101591999999MW1611REMMET070METAR ENSO 060620Z 22009KT 190V260 9999 -RA FEW009 BKN018 03/02 Q1016;
0161010014999992009010606504+59783+005350FM-15+0049ENSO V0202401N007210060019N0112651N1+00301+00201999999ADDGA1021+003601999GA2071+006001999GF107991999999999999999999MA1101491999999MW1611REMMET070METAR ENSO 060650Z 24014KT 210V280 9999 -RA FEW012 BKN020 03/02 Q1015;
0172010014999992009010607204+59783+005350FM-15+0049ENSO V0202401N008710048019N0112651N1+00301+00201999999ADDGA1021+003001999GA2071+004801999GF107991999999999999999999MA1101491999999MW1611OC101491REMMET073METAR ENSO 060720Z 24017G29KT 210V270 9999 -RA FEW010 BKN016 03/02 Q1015;
0161010014999992009010607504+59783+005350FM-15+0049ENSO V0202301N006710045019N0112651N1+00301+00201999999ADDGA1041+002701999GA2071+004501999GF107991999999999999999999MA1101391999999MW1611REMMET070METAR ENSO 060750Z 23013KT 200V260 9999 -RA SCT009 BKN015 03/02 Q1014;
0172010014999992009010608204+59783+005350FM-15+0049ENSO V0202401N008710036019N0112651N1+00301+00201999999ADDGA1041+002401999GA2071+003601999GF107991999999999999999999MA1101291999999MW1611OC101441REMMET073METAR ENSO 060820Z 24017G28KT 210V270 9999 -RA SCT008 BKN012 03/02 Q1013;
0172010014999992009010608504+59783+005350FM-15+0049ENSO V0202401N010810045019N0112651N1+00301+00201999999ADDGA1041+003001999GA2071+004501999GF107991999999999999999999MA1101291999999MW1611OC101701REMMET073METAR ENSO 060850Z 24021G33KT 210V270 9999 -RA SCT010 BKN015 03/02 Q1013;
0172010014999992009010609204+59783+005350FM-15+0049ENSO V0202401N008210030019N0112651N1+00301+00201999999ADDGA1071+003001999GA2071+004501999GF107991999999999999999999MA1101191999999MW1611OC101391REMMET073METAR ENSO 060920Z 24016G27KT 210V270 9999 -RA BKN010 BKN015 03/02 Q1012;
0149010014999992009010609504+59783+005350FM-15+0049ENSO V0202401N007710030019N0112651N1+00301+00201999999ADDGA1071+003001999GF107991999999999999999999MA1101191999999MW1611OC101291REMMET066METAR ENSO 060950Z 24015G25KT 210V270 9999 -RA BKN010 03/02 Q1012;
0153010014999992009010610204+59783+005350FM-15+0049ENSO V0202401N008210036019N0112651N1+00401+00301999999ADDGA1041+002401999GA2071+003601999GF107991999999999999999999MA1101021999999MW1611REMMET062METAR ENSO 061020Z 24016KT 9999 -RA SCT008 BKN012 04/03 Q1010;
0153010014999992009010610504+59783+005350FM-15+0049ENSO V0202501N007210030019N0112651N1+00401+00401999999ADDGA1021+002101999GA2071+003001999GF107991999999999999999999MA1100911999999MW1611REMMET062METAR ENSO 061050Z 25014KT 9999 -RA FEW007 BKN010 04/04 Q1009;
0154010014999992009010611204+59783+005350FM-15+0049ENSO V0202501N009310024019N0112651N1+00501+00401999999ADDGA1021+001501999GA2071+002401999GF107991999999999999999999MA1100811999999OC101441REMMET061METAR ENSO 061120Z 25018G28KT 9999 FEW005 BKN008 05/04 Q1008;
0161010014999992009010611504+59783+005350FM-15+0049ENSO V0202701N008210018019N0060001N1+00501+00501999999ADDGA1021+000901999GA2071+001801999GF107991999999999999999999MA1100811999999MW1511MW2611REMMET064METAR ENSO 061150Z 27016KT 6000 -RADZ FEW003 BKN006 05/05 Q1008;
0176010014999992009010612204+59783+005350FM-15+0049ENSO V0203501N00821003601CN0112651N1+00401+00301999999ADDGA1021+002101999GA2041+003601999GA3071+005401999GF107991999999999999999999MA1100811999999MW1611REMMET069METAR ENSO 061220Z 35016KT 9999 -RA FEW007 SCT012 BKN018 04/03 Q1008;
0176010014999992009010612504+59783+005350FM-15+0049ENSO V0203401N00671003001CN0112651N1+00401+00301999999ADDGA1021+002401999GA2041+003001999GA3071+004501999GF107991999999999999999999MA1100811999999MW1611REMMET069METAR ENSO 061250Z 34013KT 9999 -RA FEW008 SCT010 BKN015 04/03 Q1008;
0176010014999992009010613204+59783+005350FM-15+0049ENSO V0203401N00771003001CN0112651N1+00401+00301999999ADDGA1021+002401999GA2041+003001999GA3071+004501999GF107991999999999999999999MA1100811999999MW1511REMMET069METAR ENSO 061320Z 34015KT 9999 -DZ FEW008 SCT010 BKN015 04/03 Q1008;
0166010014999992009010613504+59783+005350FM-15+0049ENSO V0203401N00671004501CN0112651N1+00301+00201999999ADDGA1021+002401999GA2041+004501999GA3071+006001999GF107991999999999999999999MA1100811999999REMMET065METAR ENSO 061350Z 34013KT 9999 FEW008 SCT015 BKN020 03/02 Q1008;
0154010014999992009010614204+59783+005350FM-15+0049ENSO V0203401N007212200019N0112651N1+00301+00101999999ADDGA1021+004501999GA2041+010501999GF104991999999999999999999MA1100811999999OC101231REMMET061METAR ENSO 061420Z 34014G24KT 9999 FEW015 SCT035 03/01 Q1008;
0177010014999992009010614504+59783+005350FM-15+0049ENSO V0203501N00721009001CN0112651N1+00301+00101999999ADDGA1021+004501999GA2041+009001999GA3071+012001999GF107991999999999999999999MA1100911999999MW1811REMMET070METAR ENSO 061450Z 35014KT 9999 SHRA FEW015 SCT030 BKN040 03/01 Q1009;
0185010014999992009010615204+59783+005350FM-15+0049ENSO V0203501N00771006001CN0112651N1+00201+00001999999ADDGA1021+003001999GA2041+006001999GA3071+009001999GF107991999999999999999999MA1100911999999MW1161REMMET078METAR ENSO 061520Z 35015KT 310V010 9999 VCSH FEW010 SCT020 BKN030 02/00 Q1009;
0177010014999992009010615504+59783+005350FM-15+0049ENSO V0203501N01031006001CN0112651N1+00201+00001999999ADDGA1021+003001999GA2041+006001999GA3071+009001999GF107991999999999999999999MA1100911999999MW1811REMMET070METAR ENSO 061550Z 35020KT 9999 SHRA FEW010 SCT020 BKN030 02/00 Q1009;
0189010014999992009010616204+59783+005350FM-15+0049ENSO V0203401N00931006001CN0112651N1+00201+00001999999ADDGA1021+003001999GA2041+006001999GA3071+009001999GF107991999999999999999999MA1100911999999MW1811OC101441REMMET074METAR ENSO 061620Z 34018G28KT 9999 SHRA FEW010 SCT020 BKN030 02/M00 Q1009;
0178010014999992009010617504+59783+005350FM-15+0049ENSO V0203201N01131006001CN0112651N1+00201-00401999999ADDGA1021+003001999GA2041+006001999GA3071+009001999GF107991999999999999999999MA1101021999999OC101701REMMET069METAR ENSO 061750Z 32022G33KT 9999 FEW010 SCT020 BKN030 02/M04 Q1010;
0192010014999992009010704504+59783+005350FM-15+0049ENSO V0203501N00771004501CN0112651N1-00101-00401999999ADDGA1021+002101999GA2041+004501999GA3071+006001999GF107991999999999999999999MA1101391999999OC101541REMMET083METAR ENSO 070450Z 35015G30KT 300V030 9999 SHSN FEW007 SCT015 BKN020 M01/M04 Q1014;
0145010014999992009010705204+59783+005350FM-15+0049ENSO V0203501N006712200019N0112651N1-00101-00401999999ADDGA1021+003601999GA2041+012001999GF104991999999999999999999MA1101491999999REMMET060METAR ENSO 070520Z 35013KT 9999 FEW012 SCT040 M01/M04 Q1015;
0175010014999992009010705504+59783+005350FM-15+0049ENSO V0200101N00461004501CN0112651N1-00201-00301999999ADDGA1021+002101999GA2041+004501091GA3071+009001999GF107991999999999999999999MA1101491999999REMMET074METAR ENSO 070550Z 01009KT 9999 SHSN FEW007 SCT015CB BKN030 M02/M03 Q1015;
0147010014999992009010706204+59783+005350FM-15+0049ENSO V0200101N002112200019N0112651N1-00301-00401999999ADDGA1021+004501091GA2041+009001999GF104991999999999999999999MA1101491999999REMMET062METAR ENSO 070620Z 01004KT 9999 FEW015CB SCT030 M03/M04 Q1015;
0155010014999992009010706504+59783+005350FM-15+0049ENSO V0200101N003112200019N0112651N1-00301-00501999999ADDGA1021+004501091GA2041+012001999GF104991999999999999999999MA1101491999999REMMET070METAR ENSO 070650Z 01006KT 330V040 9999 FEW015CB SCT040 M03/M05 Q1015;
0147010014999992009010707294+59783+005350FM-15+0049ENSO V0200201N003112200019N0112651N1-00201-00601999999ADDGA1021+004501091GA2041+012001999GF104991999999999999999999MA1101591999999REMMET062METAR ENSO 070729Z 02006KT 9999 FEW015CB SCT040 M02/M06 Q1016;
0124010014999992009010707504+59783+005350FM-15+0049ENSO V0203601N004612200019N0112651N1-00201-00601999999ADDGA1021+004501091GF102991999999999999999999MA1101591999999REMMET055METAR ENSO 070750Z 36009KT 9999 FEW015CB M02/M06 Q1016;
0124010014999992009010708204+59783+005350FM-15+0049ENSO V0203601N001512200019N0112651N1-00201-00601999999ADDGA1021+004501091GF102991999999999999999999MA1101691999999REMMET055METAR ENSO 070820Z 36003KT 9999 FEW015CB M02/M06 Q1017;
0124010014999992009010708504+59783+005350FM-15+0049ENSO V0203601N001012200019N0112651N1-00201-00601999999ADDGA1041+004501091GF104991999999999999999999MA1101691999999REMMET055METAR ENSO 070850Z 36002KT 9999 SCT015CB M02/M06 Q1017;
0135010014999992009010709204+59783+005350FM-15+0049ENSO V0203401N002612200019N0112651N1-00101-00501999999ADDGA1041+004501091GF104991999999999999999999MA1101691999999MW1161REMMET060METAR ENSO 070920Z 34005KT 9999 VCSH SCT015CB M01/M05 Q1017;
0135010014999992009010709504+59783+005350FM-15+0049ENSO V0203601N002112200019N0112651N1-00101-00601999999ADDGA1041+004501091GF104991999999999999999999MA1101801999999MW1161REMMET060METAR ENSO 070950Z 36004KT 9999 VCSH SCT015CB M01/M06 Q1018;
0125010014999992009010710204+59783+005350FM-15+0049ENSO V0203201N002612200019N0112651N1-00101-00501999999ADDGA1041+006001999GF104991999999999999999999MA1101801999999REMMET056METAR ENSO 071020Z 32005KT 9999 SCT0205CB M01/M05 Q1018;
0124010014999992009010710504+59783+005350FM-15+0049ENSO V0203501N001512200019N0112651N1-00101-00601999999ADDGA1021+006001091GF102991999999999999999999MA1101801999999REMMET055METAR ENSO 071050Z 35003KT 9999 FEW020CB M01/M06 Q1018;
0147010014999992009010711204+59783+005350FM-15+0049ENSO V0203401N001512200019N0112651N1+00001-00601999999ADDGA1021+006001091GA2021+012001999GF102991999999999999999999MA1101801999999REMMET062METAR ENSO 071120Z 34003KT 9999 FEW020CB FEW040 M00/M06 Q1018;
0146010014999992009010711504+59783+005350FM-15+0049ENSO V0203601N001512200019N0112651N1+00001-00601999999ADDGA1021+006001091GA2041+012001999GF104991999999999999999999MA1101901999999REMMET061METAR ENSO 071150Z 36003KT 9999 FEW020CB SCT040 00/M06 Q1019;
0147010014999992009010712204+59783+005350FM-15+0049ENSO V0203201N001012200019N0112651N1+00001-00501999999ADDGA1021+006001091GA2041+015001999GF104991999999999999999999MA1101901999999REMMET062METAR ENSO 071220Z 32002KT 9999 FEW020CB SCT050 M00/M05 Q1019;
0130010014999992009010713504+59783+005350FM-15+0049ENSO V0200901N001512200019N0112651N1-00101-00701999999ADDGA1021+010501999GF102991999999999999999999MA1102001999999REMMET061METAR ENSO 071350Z 09003KT 050V110 9999 FEW035 M01/M07 Q1020;
0122010014999992009010714204+59783+005350FM-15+0049ENSO V0201001N001512200019N0112651N1-00101-00701999999ADDGA1041+010501999GF104991999999999999999999MA1102001999999REMMET053METAR ENSO 071420Z 10003KT 9999 SCT035 M01/M07 Q1020;
0145010014999992009010715204+59783+005350FM-15+0049ENSO V0201401N001512200019N0112651N1-00101-00801999999ADDGA1021+001201999GA2041+018001999GF104991999999999999999999MA1102001999999REMMET060METAR ENSO 071520Z 14003KT 9999 FEW004 SCT060 M01/M08 Q1020;
0145010014999992009010716204+59783+005350FM-15+0049ENSO V0201301N002610150019N0112651N1-00101-00701999999ADDGA1021+009001999GA2071+015001999GF107991999999999999999999MA1102001999999REMMET060METAR ENSO 071620Z 13005KT 9999 FEW030 BKN050 M01/M07 Q1020;
0145010014999992009010716504+59783+005350FM-15+0049ENSO V0201301N002610150019N0112651N1-00101-00701999999ADDGA1021+009001999GA2071+015001999GF107991999999999999999999MA1102001999999REMMET060METAR ENSO 071650Z 13005KT 9999 FEW030 BKN050 M01/M07 Q1020;
0145010014999992009010717204+59783+005350FM-15+0049ENSO V0201201N003610135019N0112651N1-00101-00601999999ADDGA1041+009001999GA2071+013501999GF107991999999999999999999MA1102001999999REMMET060METAR ENSO 071720Z 12007KT 9999 SCT030 BKN045 M01/M06 Q1020;
0120010014999992009010804504+59783+005350FM-15+0049ENSO V0202501N006710018019N0112651N1+00501+00501999999ADDGA1071+001801999GF107991999999999999999999MA1101391999999REMMET051METAR ENSO 080450Z 25013KT 9999 BKN006 05/05 Q1014;
0120010014999992009010805204+59783+005350FM-15+0049ENSO V0202501N006210018019N0112651N1+00501+00501999999ADDGA1071+001801999GF107991999999999999999999MA1101391999999REMMET051METAR ENSO 080520Z 25012KT 9999 BKN006 05/05 Q1014;
0143010014999992009010805504+59783+005350FM-15+0049ENSO V0202501N006710027019N0112651N1+00601+00501999999ADDGA1041+001801999GA2071+002701999GF107991999999999999999999MA1101391999999REMMET058METAR ENSO 080550Z 25013KT 9999 SCT006 BKN009 06/05 Q1014;
0138010014999992009010806204+59783+005350FM-15+0049ENSO V0202601N006210015019N0070001N1+00601+00501999999ADDGA1071+001501999GF107991999999999999999999MA1101391999999MW1511MW2611REMMET057METAR ENSO 080620Z 26012KT 7000 -RADZ BKN005 06/05 Q1014;
0138010014999992009010806504+59783+005350FM-15+0049ENSO V0202701N006710012019N0060001N1+00601+00601999999ADDGA1071+001201999GF107991999999999999999999MA1101391999999MW1511MW2611REMMET057METAR ENSO 080650Z 27013KT 6000 -RADZ BKN004 06/06 Q1014;
0138010014999992009010807204+59783+005350FM-15+0049ENSO V0202701N007710012019N0060001N1+00601+00601999999ADDGA1071+001201999GF107991999999999999999999MA1101391999999MW1511MW2611REMMET057METAR ENSO 080720Z 27015KT 6000 -RADZ BKN004 06/06 Q1014;
0130010014999992009010807504+59783+005350FM-15+0049ENSO V0202701N007710015019N0090001N1+00601+00601999999ADDGA1071+001501999GF107991999999999999999999MA1101391999999MW1611REMMET055METAR ENSO 080750Z 27015KT 9000 -RA BKN005 06/06 Q1014;
0161010014999992009010808204+59783+005350FM-15+0049ENSO V0202701N007710018019N0070001N1+00601+00601999999ADDGA1041+001201999GA2071+001801999GF107991999999999999999999MA1101391999999MW1511MW2611REMMET064METAR ENSO 080820Z 27015KT 7000 -RADZ SCT004 BKN006 06/06 Q1014;
0153010014999992009010808504+59783+005350FM-15+0049ENSO V0202701N006710015019N0090001N1+00601+00601999999ADDGA1041+000901999GA2071+001501999GF107991999999999999999999MA1101391999999MW1611REMMET062METAR ENSO 080850Z 27013KT 9000 -RA SCT003 BKN005 06/06 Q1014;
0143010014999992009010809204+59783+005350FM-15+0049ENSO V0202701N007210018019N0112651N1+00601+00601999999ADDGA1041+001201999GA2071+001801999GF107991999999999999999999MA1101391999999REMMET058METAR ENSO 080920Z 27014KT 9999 SCT004 BKN006 06/06 Q1014;
0143010014999992009010810204+59783+005350FM-15+0049ENSO V0202701N006210060019N0112651N1+00601+00601999999ADDGA1041+003001999GA2071+006001999GF107991999999999999999999MA1101491999999REMMET058METAR ENSO 081020Z 27012KT 9999 SCT010 BKN020 06/06 Q1015;
0153010014999992009010811204+59783+005350FM-15+0049ENSO V0202601N007212200019N0112651N1+00601+00601999999ADDGA1021+003601999GA2041+009001999GF104991999999999999999999MA1101501999999REMMET068METAR ENSO 081120Z 26014KT 9999 FEW012 SCT030020 BKN055 06/06 Q1015;
0176010014999992009010811504+59783+005350FM-15+0049ENSO V0202601N00821007501CN0112651N1+00601+00501999999ADDGA1021+003601999GA2041+007501999GA3071+015001999GF107991999999999999999999MA1101491999999MW1611REMMET069METAR ENSO 081150Z 26016KT 9999 -RA FEW012 SCT025 BKN050 06/05 Q1015;
0151010014999992009010812504+59783+005350FM-15+0049ENSO V0202601N006710060019N0112651N1+00601+00501999999ADDGA1021+003601999GA2071+006001999GF107991999999999999999999MA1101491999999REMMET066METAR ENSO 081250Z 26013KT 230V290 9999 FEW012 BKN020 06/05 Q1015;
0151010014999992009010813204+59783+005350FM-15+0049ENSO V0202501N006210054019N0112651N1+00701+00501999999ADDGA1041+003601999GA2071+005401999GF107991999999999999999999MA1101491999999REMMET066METAR ENSO 081320Z 25012KT 210V280 9999 SCT012 BKN018 07/05 Q1015;
0151010014999992009010813504+59783+005350FM-15+0049ENSO V0202501N006210048019N0112651N1+00601+00501999999ADDGA1041+003001999GA2071+004801999GF107991999999999999999999MA1101391999999REMMET066METAR ENSO 081350Z 25012KT 220V280 9999 SCT010 BKN016 06/05 Q1014;
0151010014999992009010814204+59783+005350FM-15+0049ENSO V0202601N007210042019N0112651N1+00601+00501999999ADDGA1041+003001999GA2071+004201999GF107991999999999999999999MA1101391999999REMMET066METAR ENSO 081420Z 26014KT 240V300 9999 SCT010 BKN014 06/05 Q1014;
0162010014999992009010814504+59783+005350FM-15+0049ENSO V0202701N007210027019N0040001N1+00601+00501999999ADDGA1041+001801999GA2071+002701999GF107991999999999999999999MA1101491999999MW1811REMMET071METAR ENSO 081450Z 27014KT 240V300 4000 SHRA SCT006 BKN009 06/05 Q1015;
0152010014999992009010815204+59783+005350FM-15+0049ENSO V0202601N008710018019N0040001N1+00601+00601999999ADDGA1021+001201999GA2071+001801999GF107991999999999999999999MA1101391999999MW1631REMMET061METAR ENSO 081520Z 26017KT 4000 RA FEW004 BKN006 06/06 Q1014;
0152010014999992009010815504+59783+005350FM-15+0049ENSO V0202601N009810018019N0112651N1+00601+00601999999ADDGA1021+001201999GA2071+001801999GF107991999999999999999999MA1101391999999MW1631REMMET061METAR ENSO 081550Z 26019KT 9999 RA FEW004 BKN006 06/06 Q1014;
0171010014999992009010816204+59783+005350FM-15+0049ENSO V0202601N008710021019N0112651N1+00601+00601999999ADDGA1021+001501999GA2071+002101999GF107991999999999999999999MA1101391999999MW1531OC101391REMMET072METAR ENSO 081620Z 26017G27KT 240V300 9999 DZ FEW005 BKN007 06/06 Q1014;
0174010014999992009010816504+59783+005350FM-15+0049ENSO V0202601N00871002101CN0112651N1+00601+00601999999ADDGA1021+001501999GA2041+002101999GA3071+003001999GF107991999999999999999999MA1101391999999REMMET073METAR ENSO 081650Z 26017KT 230V300 9999 FEW005 SCT007 BKN010 06/06 Q1014;
0166010014999992009010817204+59783+005350FM-15+0049ENSO V0202601N00871002101CN0112651N1+00601+00601999999ADDGA1021+001501999GA2041+002101999GA3071+003001999GF107991999999999999999999MA1101391999999REMMET065METAR ENSO 081720Z 26017KT 9999 FEW005 SCT007 BKN010 06/06 Q1014;
0174010014999992009010817504+59783+005350FM-15+0049ENSO V0202701N00871002101CN0112651N1+00601+00601999999ADDGA1021+001501999GA2041+002101999GA3071+003001999GF107991999999999999999999MA1101391999999REMMET073METAR ENSO 081750Z 27017KT 240V300 9999 FEW005 SCT007 BKN010 06/06 Q1014;
0194010014999992009010818204+59783+005350FM-15+0049ENSO V0202601N00821002101CN0112651N1+00601+00601999999ADDGA1021+001501999GA2041+002101999GA3071+003001999GF107991999999999999999999MA1101391999999MW1631OC101391REMMET079METAR ENSO 081820Z 26016G27KT 240V300 9999 RA FEW005 SCT007 BKN010 06/06 Q1014;
0183010014999992009010818504+59783+005350FM-15+0049ENSO V0202701N00871002101CN0070001N1+00601+00601999999ADDGA1021+001501999GA2041+002101999GA3071+003001999GF107991999999999999999999MA1101391999999MW1631REMMET076METAR ENSO 081850Z 27017KT 230V300 7000 RA FEW005 SCT007 BKN010 06/06 Q1014;
0183010014999992009010819204+59783+005350FM-15+0049ENSO V0202701N00771002101CN0112651N1+00601+00601999999ADDGA1021+001501999GA2041+002101999GA3071+003001999GF107991999999999999999999MA1101391999999MW1631REMMET076METAR ENSO 081920Z 27015KT 240V300 9999 RA FEW005 SCT007 BKN010 06/06 Q1014;
0183010014999992009010819504+59783+005350FM-15+0049ENSO V0202701N00871002101CN0112651N1+00601+00601999999ADDGA1021+001501999GA2041+002101999GA3071+003001999GF107991999999999999999999MA1101391999999MW1631REMMET076METAR ENSO 081950Z 27017KT 240V300 9999 RA FEW005 SCT007 BKN010 06/06 Q1014;
0152010014999992009010909204+59783+005350FM-15+0049ENSO V0202701N004110021019N0112651N1+00701+00601999999ADDGA1021+001501999GA2071+002101999GF107991999999999999999999MA1102001999999MW1631REMMET061METAR ENSO 090920Z 27008KT 9999 RA FEW005 BKN007 07/06 Q1020;
0143010014999992009010909504+59783+005350FM-15+0049ENSO V0202601N004610021019N0112651N1+00701+00601999999ADDGA1021+001501999GA2071+002101999GF107991999999999999999999MA1102101999999REMMET058METAR ENSO 090950Z 26009KT 9999 FEW005 BKN007 07/06 Q1021;
0166010014999992009010910204+59783+005350FM-15+0049ENSO V0202501N00361002101CN0112651N1+00701+00601999999ADDGA1021+001801999GA2041+002101999GA3071+004501999GF107991999999999999999999MA1102101999999REMMET065METAR ENSO 091020Z 25007KT 9999 FEW006 SCT007 BKN015 07/06 Q1021;
0166010014999992009010910504+59783+005350FM-15+0049ENSO V0202601N00261005401CN0112651N1+00701+00601999999ADDGA1021+002101999GA2041+005401999GA3071+015001999GF107991999999999999999999MA1102101999999REMMET065METAR ENSO 091050Z 26005KT 9999 FEW007 SCT018 BKN055 07/06 Q1021;
0166010014999992009010911204+59783+005350FM-15+0049ENSO V0202901N00101003001CN0112651N1+00701+00601999999ADDGA1021+002101999GA2041+003001999GA3071+004501999GF107991999999999999999999MA1102101999999REMMET065METAR ENSO 091120Z 29002KT 9999 FEW007 SCT010 BKN015 07/06 Q1021;
0166010014999992009010911504+59783+005350FM-15+0049ENSO V0203401N00051003601CN0112651N1+00601+00601999999ADDGA1021+002101999GA2041+003601999GA3071+015001999GF107991999999999999999999MA1102101999999REMMET065METAR ENSO 091150Z 34001KT 9999 FEW007 SCT012 BKN050 06/06 Q1021;
0166010014999992009010912204+59783+005350FM-15+0049ENSO V0203401N00051002701CN0112651N1+00601+00601999999ADDGA1021+001801999GA2041+002701999GA3071+003601999GF107991999999999999999999MA1102101999999REMMET065METAR ENSO 091220Z 34001KT 9999 FEW006 SCT009 BKN012 06/06 Q1021;
0166010014999992009010912504+59783+005350FM-15+0049ENSO V0203501N00151002701CN0112651N1+00601+00601999999ADDGA1021+001501999GA2041+002701999GA3071+003601999GF107991999999999999999999MA1102101999999REMMET065METAR ENSO 091250Z 35003KT 9999 FEW005 SCT009 BKN012 06/06 Q1021;
0166010014999992009010913204+59783+005350FM-15+0049ENSO V0201101N00051002701CN0112651N1+00701+00601999999ADDGA1021+001501999GA2041+002701999GA3071+003601999GF107991999999999999999999MA1102101999999REMMET065METAR ENSO 091320Z 11001KT 9999 FEW005 SCT009 BKN012 07/06 Q1021;
0166010014999992009010913504+59783+005350FM-15+0049ENSO V0209999C00001002701CN0112651N1+00701+00601999999ADDGA1021+001501999GA2041+002701999GA3071+003601999GF107991999999999999999999MA1102101999999REMMET065METAR ENSO 091350Z 00000KT 9999 FEW005 SCT009 BKN012 07/06 Q1021;
0143010014999992009010914204+59783+005350FM-15+0049ENSO V0201501N002112200019N0112651N1+00601+00601999999ADDGA1021+002101999GA2041+004501999GF104991999999999999999999MA1102101999999REMMET058METAR ENSO 091420Z 15004KT 9999 FEW007 SCT015 06/06 Q1021;
0166010014999992009010915204+59783+005350FM-15+0049ENSO V0201401N00311003001CN0112651N1+00601+00501999999ADDGA1021+002101999GA2041+003001999GA3071+004501999GF107991999999999999999999MA1102201999999REMMET065METAR ENSO 091520Z 14006KT 9999 FEW007 SCT010 BKN015 06/05 Q1022;
0174010014999992009010915504+59783+005350FM-15+0049ENSO V0201601N00311003001CN0112651N1+00601+00501999999ADDGA1021+002401999GA2041+003001999GA3071+004501999GF107991999999999999999999MA1102201999999REMMET073METAR ENSO 091550Z 16006KT 120V210 9999 FEW008 SCT010 BKN015 06/05 Q1022;
0171010014999992009011113504+59783+005350FM-15+0049ENSO V0201801N008710021019N0070001N1+00701+00601999999ADDGA1041+001501999GA2071+002101999GF107991999999999999999999MA1099701999999MW1631OC101491REMMET072METAR ENSO 111350Z 18017G29KT 140V230 7000 RA SCT005 BKN007 07/06 Q0997;
0171010014999992009011114204+59783+005350FM-15+0049ENSO V0201801N008710021019N0060001N1+00701+00601999999ADDGA1041+001501999GA2071+002101999GF107991999999999999999999MA1099701999999MW1631OC101591REMMET072METAR ENSO 111420Z 18017G31KT 140V220 6000 RA SCT005 BKN007 07/06 Q0997;
0171010014999992009011114504+59783+005350FM-15+0049ENSO V0201801N008710021019N0070001N1+00701+00601999999ADDGA1041+001501999GA2071+002101999GF107991999999999999999999MA1099701999999MW1631OC101391REMMET072METAR ENSO 111450Z 18017G27KT 140V220 7000 RA SCT005 BKN007 07/06 Q0997;
0160010014999992009011115204+59783+005350FM-15+0049ENSO V0201801N008710021019N0070001N1+00701+00701999999ADDGA1041+001501999GA2071+002101999GF107991999999999999999999MA1099701999999MW1631REMMET069METAR ENSO 111520Z 18017KT 150V240 7000 RA SCT005 BKN007 07/07 Q0997;
0171010014999992009011115504+59783+005350FM-15+0049ENSO V0201901N008210021019N0070001N1+00701+00701999999ADDGA1041+001501999GA2071+002101999GF107991999999999999999999MA1099701999999MW1631OC101341REMMET072METAR ENSO 111550Z 19016G26KT 150V210 7000 RA SCT005 BKN007 07/07 Q0997;
0171010014999992009011116204+59783+005350FM-15+0049ENSO V0201901N007710021019N0070001N1+00701+00701999999ADDGA1041+001501999GA2071+002101999GF107991999999999999999999MA1099701999999MW1631OC101341REMMET072METAR ENSO 111620Z 19015G26KT 150V220 7000 RA SCT005 BKN007 07/07 Q0997;
0161010014999992009011116504+59783+005350FM-15+0049ENSO V0201801N009810021019N0070001N1+00701+00701999999ADDGA1041+001501999GA2071+002101999GF107991999999999999999999MA1099701999999MW1611REMMET070METAR ENSO 111650Z 18019KT 140V200 7000 -RA SCT005 BKN007 07/07 Q0997;
0161010014999992009011117204+59783+005350FM-15+0049ENSO V0201801N008210021019N0080001N1+00801+00701999999ADDGA1041+001501999GA2071+002101999GF107991999999999999999999MA1099591999999MW1611REMMET070METAR ENSO 111720Z 18016KT 150V210 8000 -RA SCT005 BKN007 08/07 Q0996;
0161010014999992009011117504+59783+005350FM-15+0049ENSO V0201701N009810021019N0080001N1+00801+00701999999ADDGA1041+001501999GA2071+002101999GF107991999999999999999999MA1099591999999MW1611REMMET070METAR ENSO 111750Z 17019KT 150V210 8000 -RA SCT005 BKN007 08/07 Q0996;
0171010014999992009011118204+59783+005350FM-15+0049ENSO V0201801N010310021019N0070001N1+00801+00701999999ADDGA1041+001501999GA2071+002101999GF107991999999999999999999MA1099591999999MW1631OC101541REMMET072METAR ENSO 111820Z 18020G30KT 150V210 7000 RA SCT005 BKN007 08/07 Q0996;
0171010014999992009011204504+59783+005350FM-15+0049ENSO V0202001N010810021019N0060001N1+00801+00701999999ADDGA1041+001501999GA2071+002101999GF107991999999999999999999MA1099091999999MW1631OC101901REMMET072METAR ENSO 120450Z 20021G37KT 160V250 6000 RA SCT005 BKN007 08/07 Q0991;
0172010014999992009011205204+59783+005350FM-15+0049ENSO V0202001N009810027019N0080001N1+00801+00701999999ADDGA1021+001201999GA2071+002701999GF107991999999999999999999MA1099091999999MW1611OC101801REMMET073METAR ENSO 120520Z 20019G35KT 150V250 8000 -RA FEW004 BKN009 08/07 Q0991;
0172010014999992009011205504+59783+005350FM-15+0049ENSO V0202001N010810021019N0080001N1+00801+00701999999ADDGA1021+001201999GA2071+002101999GF107991999999999999999999MA1098981999999MW1611OC102011REMMET073METAR ENSO 120550Z 20021G39KT 160V250 8000 -RA FEW004 BKN007 08/07 Q0990;
0173010014999992009011206204+59783+005350FM-15+0049ENSO V0209999N009810018019N0045001N1+00801+00701999999ADDGA1021+001201999GA2071+001801999GF107991999999999999999999MA1098981999999MW1611OC101751REMMET074METAR ENSO 120620Z 201019G34KT 170V280 4500 -RA FEW004 BKN006 08/07 Q0990;
0162010014999992009011206504+59783+005350FM-15+0049ENSO V0202001N009310021019N0050001N1+00801+00701999999ADDGA1021+001501999GA2071+002101999GF107991999999999999999999MA1098981999999OC101591REMMET069METAR ENSO 120650Z 20018G31KT 170V240 5000 FEW005 BKN007 08/07 Q0990;
0162010014999992009011207204+59783+005350FM-15+0049ENSO V0202101N009810024019N0040001N1+00801+00701999999ADDGA1021+001801999GA2071+002401999GF107991999999999999999999MA1098981999999OC101901REMMET069METAR ENSO 120720Z 21019G37KT 160V240 4000 FEW006 BKN008 08/07 Q0990;
0162010014999992009011207504+59783+005350FM-15+0049ENSO V0202101N010310024019N0040001N1+00801+00701999999ADDGA1021+001801999GA2071+002401999GF107991999999999999999999MA1098981999999OC101701REMMET069METAR ENSO 120750Z 21020G33KT 170V240 4000 FEW006 BKN008 08/07 Q0990;
0162010014999992009011208204+59783+005350FM-15+0049ENSO V0202001N010810024019N0070001N1+00801+00701999999ADDGA1041+001801999GA2071+002401999GF107991999999999999999999MA1099091999999OC101801REMMET069METAR ENSO 120820Z 20021G35KT 170V230 7000 SCT006 BKN008 08/07 Q0991;
0185010014999992009011208504+59783+005350FM-15+0049ENSO V0202101N00981001801CN0080001N1+00801+00701999999ADDGA1021+001201999GA2041+001801999GA3071+002401999GF107991999999999999999999MA1099091999999OC101651REMMET076METAR ENSO 120850Z 21019G32KT 170V240 8000 FEW004 SCT006 BKN008 08/07 Q0991;
0162010014999992009011209204+59783+005350FM-15+0049ENSO V0202101N008210024019N0112651N1+00801+00701999999ADDGA1021+001501999GA2071+002401999GF107991999999999999999999MA1099191999999OC101541REMMET069METAR ENSO 120920Z 21016G30KT 160V240 9999 FEW005 BKN008 08/07 Q0992;
0162010014999992009011209504+59783+005350FM-15+0049ENSO V0202101N008710027019N0112651N1+00801+00701999999ADDGA1021+001801999GA2071+002701999GF107991999999999999999999MA1099191999999OC101541REMMET069METAR ENSO 120950Z 21017G30KT 150V250 9999 FEW006 BKN009 08/07 Q0992;
0177010014999992009011210204+59783+005350FM-15+0049ENSO V0202101N00871003001CN0112651N1+00801+00701999999ADDGA1021+002101999GA2041+003001999GA3071+003601999GF107991999999999999999999MA1099191999999OC101541REMMET068METAR ENSO 121020Z 21017G30KT 9999 FEW007 SCT010 BKN012 08/07 Q0992;
0185010014999992009011210504+59783+005350FM-15+0049ENSO V0202101N00721003001CN0112651N1+00801+00701999999ADDGA1021+002401999GA2041+003001999GA3071+003601999GF107991999999999999999999MA1099191999999OC101231REMMET076METAR ENSO 121050Z 21014G24KT 170V250 9999 FEW008 SCT010 BKN012 08/07 Q0992;
0151010014999992009011211204+59783+005350FM-15+0049ENSO V0202101N007710036019N0112651N1+00801+00701999999ADDGA1041+002401999GA2071+003601999GF107991999999999999999999MA1099191999999REMMET066METAR ENSO 121120Z 21015KT 180V250 9999 SCT008 BKN012 08/07 Q0992;
0151010014999992009011211504+59783+005350FM-15+0049ENSO V0202101N007710036019N0112651N1+00801+00701999999ADDGA1041+002401999GA2071+003601999GF107991999999999999999999MA1099191999999REMMET066METAR ENSO 121150Z 21015KT 160V250 9999 SCT008 BKN012 08/07 Q0992;
0143010014999992009011212204+59783+005350FM-15+0049ENSO V0202201N007210039019N0112651N1+00801+00701999999ADDGA1041+003001999GA2071+003901999GF107991999999999999999999MA1099191999999REMMET058METAR ENSO 121220Z 22014KT 9999 SCT010 BKN013 08/07 Q0992;
0143010014999992009011212504+59783+005350FM-15+0049ENSO V0202201N008210039019N0112651N1+00801+00701999999ADDGA1041+003001999GA2071+003901999GF107991999999999999999999MA1099191999999REMMET058METAR ENSO 121250Z 22016KT 9999 SCT010 BKN013 08/07 Q0992;
0162010014999992009011213204+59783+005350FM-15+0049ENSO V0202201N007710039019N0112651N1+00801+00701999999ADDGA1041+003001999GA2071+003901999GF107991999999999999999999MA1099191999999OC101291REMMET069METAR ENSO 121320Z 22015G25KT 180V240 9999 SCT010 BKN013 08/07 Q0992;
0151010014999992009011213504+59783+005350FM-15+0049ENSO V0202201N006710039019N0112651N1+00801+00701999999ADDGA1041+003001999GA2071+003901999GF107991999999999999999999MA1099191999999REMMET066METAR ENSO 121350Z 22013KT 170V250 9999 SCT010 BKN013 08/07 Q0992;
0151010014999992009011214204+59783+005350FM-15+0049ENSO V0202101N006210039019N0112651N1+00801+00601999999ADDGA1041+003001999GA2071+003901999GF107991999999999999999999MA1099191999999REMMET066METAR ENSO 121420Z 21012KT 180V240 9999 SCT010 BKN013 08/06 Q0992;
0151010014999992009011214504+59783+005350FM-15+0049ENSO V0202101N006210039019N0112651N1+00801+00601999999ADDGA1041+003001999GA2071+003901999GF107991999999999999999999MA1099291999999REMMET066METAR ENSO 121450Z 21012KT 170V240 9999 SCT010 BKN013 08/06 Q0993;
0162010014999992009011215204+59783+005350FM-15+0049ENSO V0202101N007210039019N0112651N1+00801+00601999999ADDGA1041+002701999GA2071+003901999GF107991999999999999999999MA1099291999999OC101291REMMET069METAR ENSO 121520Z 21014G25KT 170V240 9999 SCT009 BKN013 08/06 Q0993;
0151010014999992009011215504+59783+005350FM-15+0049ENSO V0202001N006210036019N0112651N1+00801+00601999999ADDGA1041+002701999GA2071+003601999GF107991999999999999999999MA1099291999999REMMET066METAR ENSO 121550Z 20012KT 170V240 9999 SCT009 BKN012 08/06 Q0993;
0151010014999992009011216204+59783+005350FM-15+0049ENSO V0202101N006710045019N0112651N1+00801+00601999999ADDGA1041+002701999GA2071+004501999GF107991999999999999999999MA1099291999999REMMET066METAR ENSO 121620Z 21013KT 170V250 9999 SCT009 BKN015 08/06 Q0993;
0151010014999992009011216504+59783+005350FM-15+0049ENSO V0202101N007210045019N0112651N1+00801+00601999999ADDGA1041+002701999GA2071+004501999GF107991999999999999999999MA1099291999999REMMET066METAR ENSO 121650Z 21014KT 180V250 9999 SCT009 BKN015 08/06 Q0993;
0162010014999992009011217204+59783+005350FM-15+0049ENSO V0202101N006210045019N0112651N1+00801+00601999999ADDGA1041+002701999GA2071+004501999GF107991999999999999999999MA1099291999999OC101131REMMET069METAR ENSO 121720Z 21012G22KT 180V240 9999 SCT009 BKN015 08/06 Q0993;
0162010014999992009011217504+59783+005350FM-15+0049ENSO V0202101N006210045019N0112651N1+00801+00601999999ADDGA1041+002701999GA2071+004501999GF107991999999999999999999MA1099291999999OC101131REMMET069METAR ENSO 121750Z 21012G22KT 170V240 9999 SCT009 BKN015 08/06 Q0993;
0177010014999992009011304504+59783+005350FM-15+0049ENSO V0202001N00671007501CN0112651N1+00601+00401999999ADDGA1021+004501999GA2041+007501999GA3071+010501999GF107991999999999999999999MA1099291999999OC101181REMMET068METAR ENSO 130450Z 20013G23KT 9999 FEW015 SCT025 BKN035 06/04 Q0993;
0174010014999992009011305204+59783+005350FM-15+0049ENSO V0201901N00671007501CN0112651N1+00701+00401999999ADDGA1021+004501999GA2041+007501999GA3071+010501999GF107991999999999999999999MA1099291999999REMMET073METAR ENSO 130520Z 19013KT 150V230 9999 FEW015 SCT025 BKN035 07/04 Q0993;
0185010014999992009011305504+59783+005350FM-15+0049ENSO V0202001N00671007501CN0112651N1+00701+00401999999ADDGA1021+004501999GA2041+007501999GA3071+010501999GF107991999999999999999999MA1099291999999MW1811REMMET078METAR ENSO 130550Z 20013KT 150V240 9999 SHRA FEW015 SCT025 BKN035 07/04 Q0993;
0174010014999992009011306204+59783+005350FM-15+0049ENSO V0202101N00571007501CN0112651N1+00601+00401999999ADDGA1021+004501999GA2041+007501999GA3071+010501999GF107991999999999999999999MA1099391999999REMMET073METAR ENSO 130620Z 21011KT 180V250 9999 FEW015 SCT025 BKN035 06/04 Q0994;
0185010014999992009011306504+59783+005350FM-15+0049ENSO V0202101N00671007501CN0112651N1+00601+00401999999ADDGA1021+004501999GA2041+007501999GA3071+010501999GF107991999999999999999999MA1099391999999MW1811REMMET078METAR ENSO 130650Z 21013KT 180V240 9999 SHRA FEW015 SCT025 BKN035 06/04 Q0994;
0174010014999992009011307204+59783+005350FM-15+0049ENSO V0202301N00511007501CN0112651N1+00601+00401999999ADDGA1021+003001999GA2041+007501999GA3071+010501999GF107991999999999999999999MA1099391999999REMMET073METAR ENSO 130720Z 23010KT 180V270 9999 FEW010 SCT025 BKN035 06/04 Q0994;
0174010014999992009011307504+59783+005350FM-15+0049ENSO V0202301N00621006001CN0112651N1+00601+00301999999ADDGA1021+002701999GA2041+006001999GA3071+009001999GF107991999999999999999999MA1099491999999REMMET073METAR ENSO 130750Z 23012KT 190V260 9999 FEW009 SCT020 BKN030 06/03 Q0995;
0175010014999992009011308204+59783+005350FM-15+0049ENSO V0202301N00671003601CN0112651N1+00501+00201999999ADDGA1021+002701999GA2041+003601091GA3071+009001999GF107991999999999999999999MA1099491999999REMMET074METAR ENSO 130820Z 23013KT 9999 FEW009 SCT012CB BKN030 05/02 Q0995 RESHRA;
0199010014999992009011308504+59783+005350FM-15+0049ENSO V0202301N00511009001CN0112651N1+00601+00201999999ADDGA1021+003001999GA2021+004201091GA3041+009001999GA4071+013501999GF107991999999999999999999MA1099491999999REMMET082METAR ENSO 130850Z 23010KT 190V270 9999 FEW010 FEW014CB SCT030 BKN045 06/02 Q0995;
0210010014999992009011309204+59783+005350FM-15+0049ENSO V0202401N00931010501CN0112651N1+00601+00201999999ADDGA1021+003001999GA2021+004201091GA3041+010501999GA4071+015001999GF107991999999999999999999MA1099591999999OC101441REMMET085METAR ENSO 130920Z 24018G28KT 200V270 9999 FEW010 FEW014CB SCT035 BKN050 06/02 Q0996;
0185010014999992009011309504+59783+005350FM-15+0049ENSO V0202501N00871009001CN0112651N1+00601+00101999999ADDGA1021+003001999GA2041+009001999GA3071+015001999GF107991999999999999999999MA1099591999999OC101391REMMET076METAR ENSO 130950Z 25017G27KT 200V270 9999 FEW010 SCT030 BKN050 06/01 Q0996;
0166010014999992009011310204+59783+005350FM-15+0049ENSO V0202301N00771009001CN0112651N1+00601+00201999999ADDGA1021+003001999GA2041+009001999GA3071+015001999GF107991999999999999999999MA1099701999999REMMET065METAR ENSO 131020Z 23015KT 9999 FEW010 SCT030 BKN050 06/02 Q0997;
0166010014999992009011310504+59783+005350FM-15+0049ENSO V0202501N00771009001CN0112651N1+00601+00101999999ADDGA1021+003001999GA2041+009001999GA3071+015001999GF107991999999999999999999MA1099701999999REMMET065METAR ENSO 131050Z 25015KT 9999 FEW010 SCT030 BKN050 06/01 Q0997;
0174010014999992009011311204+59783+005350FM-15+0049ENSO V0202501N00821009001CN0112651N1+00601+00201999999ADDGA1021+003001999GA2041+009001999GA3071+015001999GF107991999999999999999999MA1099701999999REMMET073METAR ENSO 131120Z 25016KT 210V270 9999 FEW010 SCT030 BKN050 06/02 Q0997;
0153010014999992009011311504+59783+005350FM-15+0049ENSO V0202501N008712200019N0112651N1+00601+00101999999ADDGA1021+006001091GA2041+012001999GF104991999999999999999999MA1099801999999REMMET068METAR ENSO 131150Z 25017KT 220V280 9999 FEW020CB SCT040 06/01 Q0998;
0111010014999992009011312504+59783+005350FM-15+0049ENSO V0202501N008712200019N0112651N1+00601+00101999999ADDMA1099801999999OC101491REMMET076METAR ENSO 131250Z 25017G29KT 210V300 SHRA 9999 SCT018CB SCT040 06/01 Q0998;
0153010014999992009011313204+59783+005350FM-15+0049ENSO V0202601N008712200019N0112651N1+00501+00201999999ADDGA1041+005401091GA2041+012001999GF104991999999999999999999MA1099801999999REMMET068METAR ENSO 131320Z 26017KT 210V300 9999 SCT018CB SCT040 05/02 Q0998;
0168010014999992009011313504+59783+005350FM-15+0049ENSO V0202601N008712200019N0112651N1+00601+00101999999ADDGA1021+006001091GA2041+009001999GA3041+013501999GF104991999999999999999999MA1099901999999REMMET067METAR ENSO 131350Z 26017KT 9999 FEW020CB SCT030 SCT045 06/01 Q0999;
0168010014999992009011314204+59783+005350FM-15+0049ENSO V0202501N006712200019N0112651N1+00501+00201999999ADDGA1021+006001091GA2041+009001999GA3041+013501999GF104991999999999999999999MA1099901999999REMMET067METAR ENSO 131420Z 25013KT 9999 FEW020CB SCT030 SCT045 05/02 Q0999;
0176010014999992009011314504+59783+005350FM-15+0049ENSO V0202601N006212200019N0112651N1+00501+00101999999ADDGA1021+006001091GA2041+009001999GA3041+013501999GF104991999999999999999999MA1100001999999REMMET075METAR ENSO 131450Z 26012KT 230V290 9999 FEW020CB SCT030 SCT045 05/01 Q1000;
0176010014999992009011315204+59783+005350FM-15+0049ENSO V0202501N00621006001CN0112651N1+00501+00001999999ADDGA1041+000901999GA2021+006001021GA3071+012001999GF107991999999999999999999MA1100101999999REMMET075METAR ENSO 131520Z 25012KT 210V270 9999 FEW020TCU SCT03 BKN040 05/00 Q1001;
0168010014999992009011315504+59783+005350FM-15+0049ENSO V0202601N008712200019N0112651N1+00501+00101999999ADDGA1021+006001091GA2021+009001999GA3041+013501999GF104991999999999999999999MA1100001999999REMMET067METAR ENSO 131550Z 26017KT 9999 FEW020CB FEW030 SCT045 05/01 Q1000;
0168010014999992009011316204+59783+005350FM-15+0049ENSO V0202501N007212200019N0112651N1+00501+00101999999ADDGA1021+006001091GA2021+009001999GA3041+013501999GF104991999999999999999999MA1100001999999REMMET067METAR ENSO 131620Z 25014KT 9999 FEW020CB FEW030 SCT045 05/01 Q1000;
0177010014999992009011317204+59783+005350FM-15+0049ENSO V0202601N005712200019N0112651N1+00501+00001999999ADDGA1021+006001021GA2021+010501999GA3041+015001999GF104991999999999999999999MA1100101999999REMMET076METAR ENSO 131720Z 26011KT 230V290 9999 FEW020TCU FEW035 SCT050 05/00 Q1001;
0151010014999992009011404504+59783+005350FM-15+0049ENSO V0202501N002610060019N0112651N1+00301+00101999999ADDGA1021+003601999GA2071+006001999GF107991999999999999999999MA1100711999999REMMET066METAR ENSO 140450Z 25005KT 220V300 9999 FEW012 BKN020 03/01 Q1007;
0166010014999992009011405204+59783+005350FM-15+0049ENSO V0202401N00261005401CN0112651N1+00301+00101999999ADDGA1021+003601999GA2041+005401999GA3071+007501999GF107991999999999999999999MA1100711999999REMMET065METAR ENSO 140520Z 24005KT 9999 FEW012 SCT018 BKN025 03/01 Q1007;
0143010014999992009011405504+59783+005350FM-15+0049ENSO V0202601N002612200019N0112651N1+00201+00101999999ADDGA1021+003601999GA2041+007501999GF104991999999999999999999MA1100711999999REMMET058METAR ENSO 140550Z 26005KT 9999 FEW012 SCT025 02/01 Q1007;
0143010014999992009011406204+59783+005350FM-15+0049ENSO V0209999C000012200019N0112651N1+00201+00001999999ADDGA1021+004501999GA2041+010501999GF104991999999999999999999MA1100711999999REMMET058METAR ENSO 140620Z 00000KT 9999 FEW015 SCT035 02/00 Q1007;
0120010014999992009011406504+59783+005350FM-15+0049ENSO V0209999V001012200019N0112651N1+00201+00001999999ADDGA1021+005401999GF102991999999999999999999MA1100711999999REMMET051METAR ENSO 140650Z VRB02KT 9999 FEW018 02/00 Q1007;
0120010014999992009011407204+59783+005350FM-15+0049ENSO V0209999V000512200019N0112651N1+00201+00001999999ADDGA1021+005401999GF102991999999999999999999MA1100811999999REMMET051METAR ENSO 140720Z VRB01KT 9999 FEW018 02/00 Q1008;
0143010014999992009011407504+59783+005350FM-15+0049ENSO V0209999V000512200019N0112651N1+00201+00101999999ADDGA1021+003601999GA2041+005401999GF104991999999999999999999MA1100811999999REMMET058METAR ENSO 140750Z VRB01KT 9999 FEW012 SCT018 02/01 Q1008;
0192010014999992009011408204+59783+005350FM-15+0049ENSO V0200801N00261006001CN0112651N1+00101+00001999999ADDGA1021+003601999GA2021+004501091GA3041+006001999GA4071+015001999GF107991999999999999999999MA1100811999999REMMET075METAR ENSO 140820Z 08005KT 9999 FEW012 FEW015CB SCT020 BKN050 01/M00 Q1008;
0169010014999992009011408504+59783+005350FM-15+0049ENSO V0200601N002112200019N0112651N1+00201+00001999999ADDGA1021+004501091GA2041+006001999GA3041+015001999GF104991999999999999999999MA1100811999999REMMET068METAR ENSO 140850Z 06004KT 9999 FEW015CB SCT020 SCT050 02/M00 Q1008;
0169010014999992009011409204+59783+005350FM-15+0049ENSO V0209999V000512200019N0112651N1+00201+00001999999ADDGA1021+007501091GA2021+009001999GA3041+015001999GF104991999999999999999999MA1100911999999REMMET068METAR ENSO 140920Z VRB01KT 9999 FEW025CB FEW030 SCT055 02/M00 Q1009;
0179010014999992009011410204+59783+005350FM-15+0049ENSO V0201401N00311003601CN0112651N1+00201+00001999999ADDGA1021+002401999GA2041+003601091GA3071+010501999GF107991999999999999999999MA1100911999999MW1161REMMET072METAR ENSO 141020Z 14006KT 9999 VCSH FEW008 SCT012CB BKN035 02/00 Q1009;
0182010014999992009011411504+59783+005350FM-15+0049ENSO V0201101N00311002401CN0112651N1+00101+00001999999ADDGA1021+001501999GA2041+002401091GA3071+005401999GF107991999999999999999999MA1101021999999MW1801REMMET075METAR ENSO 141150Z 11006KT 9999 -SHSNRA FEW005 SCT008CB BKN018 01/00 Q1010;
0191010014999992009011412204+59783+005350FM-15+0049ENSO V0209999V00101006001CN0112651N1+00101+00001999999ADDGA1021+000901999GA2021+003001091GA3041+006001999GA4071+010501999GF107991999999999999999999MA1101021999999REMMET074METAR ENSO 141220Z VRB02KT 9999 FEW003 FEW010CB SCT020 BKN035 01/00 Q1010;
0168010014999992009011412504+59783+005350FM-15+0049ENSO V0209999V00101006001CN0112651N1+00201+00101999999ADDGA1021+003001091GA2041+006001999GA3071+010501999GF107991999999999999999999MA1101021999999REMMET067METAR ENSO 141250Z VRB02KT 9999 FEW010CB SCT020 BKN035 02/01 Q1010;
0181010014999992009011413204+59783+005350FM-15+0049ENSO V0201101N00101004501CN0112651N1+00101+00001999999ADDGA1021+003001091GA2041+004501999GA3071+006001999GF107991999999999999999999MA1101021999999MW1841REMMET074METAR ENSO 141320Z 11002KT 9999 SHRASN FEW010CB SCT015 BKN020 01/00 Q1010;
0181010014999992009011413504+59783+005350FM-15+0049ENSO V0200801N00261004501CN0112651N1+00201+00101999999ADDGA1021+003001091GA2041+004501999GA3071+006001999GF107991999999999999999999MA1101021999999MW1841REMMET074METAR ENSO 141350Z 08005KT 9999 SHRASN FEW010CB SCT015 BKN020 02/01 Q1010;
0145010014999992009011414204+59783+005350FM-15+0049ENSO V0201001N004112200019N0112651N1+00101+00001999999ADDGA1021+003001091GA2041+006001999GF104991999999999999999999MA1101021999999REMMET060METAR ENSO 141420Z 10008KT 9999 FEW010CB SCT020 01/00 Q1010;
0156010014999992009011414504+59783+005350FM-15+0049ENSO V0200901N004112200019N0112651N1+00101+00001999999ADDGA1021+003001091GA2041+006001999GF104991999999999999999999MA1101021999999MW1161REMMET065METAR ENSO 141450Z 09008KT 9999 VCSH FEW010CB SCT020 01/00 Q1010;
0156010014999992009011415204+59783+005350FM-15+0049ENSO V0200901N003612200019N0112651N1+00201+00001999999ADDGA1021+003001091GA2041+006001999GF104991999999999999999999MA1101021999999MW1161REMMET065METAR ENSO 141520Z 09007KT 9999 VCSH FEW010CB SCT020 02/00 Q1010;
0156010014999992009011415504+59783+005350FM-15+0049ENSO V0200901N004112200019N0112651N1+00201+00001999999ADDGA1021+003001091GA2041+006001999GF104991999999999999999999MA1101081999999MW1161REMMET065METAR ENSO 141550Z 09008KT 9999 VCSH FEW010CB SCT020 02/00 Q1011;
0168010014999992009011416204+59783+005350FM-15+0049ENSO V0200901N00361006001CN0112651N1+00201+00001999999ADDGA1021+003001091GA2041+006001999GA3071+012001999GF107991999999999999999999MA1101081999999REMMET067METAR ENSO 141620Z 09007KT 9999 FEW010CB SCT020 BKN040 02/00 Q1011;
0145010014999992009011416504+59783+005350FM-15+0049ENSO V0200901N003112200019N0112651N1+00201+00001999999ADDGA1021+003001091GA2041+006001999GF104991999999999999999999MA1101081999999REMMET060METAR ENSO 141650Z 09006KT 9999 FEW010CB SCT020 02/00 Q1011;
0146010014999992009011417204+59783+005350FM-15+0049ENSO V0200901N003112200019N0112651N1+00201+00001999999ADDGA1021+003001091GA2041+006001999GF104991999999999999999999MA1101081999999REMMET061METAR ENSO 141720Z 09006KT 9999 FEW010CB SCT020 02/M00 Q1011;
0146010014999992009011417504+59783+005350FM-15+0049ENSO V0201001N004112200019N0112651N1+00201+00001999999ADDGA1021+003001091GA2041+006001999GF104991999999999999999999MA1101191999999REMMET061METAR ENSO 141750Z 10008KT 9999 FEW010CB SCT020 02/M00 Q1012;
0144010014999992009011504504+59783+005350FM-15+0049ENSO V0201001N004112200019N0112651N1+00101-00101999999ADDGA1021+009001999GA2041+013501999GF104991999999999999999999MA1101591999999REMMET059METAR ENSO 150450Z 10008KT 9999 FEW030 SCT045 01/M01 Q1016;
0144010014999992009011505204+59783+005350FM-15+0049ENSO V0201101N004112200019N0112651N1+00201-00101999999ADDGA1021+009001999GA2041+013501999GF104991999999999999999999MA1101591999999REMMET059METAR ENSO 150520Z 11008KT 9999 FEW030 SCT045 02/M01 Q1016;
0144010014999992009011505504+59783+005350FM-15+0049ENSO V0201101N004112200019N0112651N1+00101-00101999999ADDGA1021+009001999GA2041+013501999GF104991999999999999999999MA1101591999999REMMET059METAR ENSO 150550Z 11008KT 9999 FEW030 SCT045 01/M01 Q1016;
0144010014999992009011506204+59783+005350FM-15+0049ENSO V0201101N003612200019N0112651N1+00101-00101999999ADDGA1021+009001999GA2041+013501999GF104991999999999999999999MA1101691999999REMMET059METAR ENSO 150620Z 11007KT 9999 FEW030 SCT045 01/M01 Q1017;
0144010014999992009011506504+59783+005350FM-15+0049ENSO V0201101N003612200019N0112651N1+00101-00101999999ADDGA1021+009001999GA2041+013501999GF104991999999999999999999MA1101691999999REMMET059METAR ENSO 150650Z 11007KT 9999 FEW030 SCT045 01/M01 Q1017;
0144010014999992009011507204+59783+005350FM-15+0049ENSO V0201001N004112200019N0112651N1+00201-00101999999ADDGA1021+009001999GA2041+010501999GF104991999999999999999999MA1101691999999REMMET059METAR ENSO 150720Z 10008KT 9999 FEW030 SCT035 02/M01 Q1017;
0144010014999992009011507504+59783+005350FM-15+0049ENSO V0201001N004112200019N0112651N1+00201-00101999999ADDGA1021+007501999GA2041+010501999GF104991999999999999999999MA1101691999999REMMET059METAR ENSO 150750Z 10008KT 9999 FEW025 SCT035 02/M01 Q1017;
0121010014999992009011508504+59783+005350FM-15+0049ENSO V0201001N004612200019N0112651N1+00201-00201999999ADDGA1021+010501999GF102991999999999999999999MA1101691999999REMMET052METAR ENSO 150850Z 10009KT 9999 FEW035 02/M02 Q1017;
0121010014999992009011509204+59783+005350FM-15+0049ENSO V0201001N005112200019N0112651N1+00201-00201999999ADDGA1021+010501999GF102991999999999999999999MA1101691999999REMMET052METAR ENSO 150920Z 10010KT 9999 FEW035 02/M02 Q1017;
0121010014999992009011509504+59783+005350FM-15+0049ENSO V0201001N005112200019N0112651N1+00201-00201999999ADDGA1021+009001999GF102991999999999999999999MA1101801999999REMMET052METAR ENSO 150950Z 10010KT 9999 FEW030 02/M02 Q1018;
0121010014999992009011510204+59783+005350FM-15+0049ENSO V0201001N005112200019N0112651N1+00201-00201999999ADDGA1021+015001999GF102991999999999999999999MA1101801999999REMMET052METAR ENSO 151020Z 10010KT 9999 FEW050 02/M02 Q1018;
0081010014999992009011510504+59783+005350FM-15+0049ENSO V0201101N00621220001CN0099001N1+00301-00401999999ADDMA1101801999999REMMET054METAR ENSO 151050Z 11012KT 080V140 CAVOK 03/M04 Q1018;
0073010014999992009011511204+59783+005350FM-15+0049ENSO V0201201N00571220001CN0099001N1+00301-00401999999ADDMA1101801999999REMMET046METAR ENSO 151120Z 12011KT CAVOK 03/M04 Q1018;
0073010014999992009011511504+59783+005350FM-15+0049ENSO V0201201N00621220001CN0099001N1+00301-00501999999ADDMA1101801999999REMMET046METAR ENSO 151150Z 12012KT CAVOK 03/M05 Q1018;
0073010014999992009011512204+59783+005350FM-15+0049ENSO V0201201N00721220001CN0099001N1+00301-00501999999ADDMA1101801999999REMMET046METAR ENSO 151220Z 12014KT CAVOK 03/M05 Q1018;
0084010014999992009011512504+59783+005350FM-15+0049ENSO V0201201N00821220001CN0099001N1+00301-00501999999ADDMA1101801999999OC101341REMMET049METAR ENSO 151250Z 12016G26KT CAVOK 03/M05 Q1018;
0073010014999992009011513204+59783+005350FM-15+0049ENSO V0201101N00931220001CN0099001N1+00301-00601999999ADDMA1101691999999REMMET046METAR ENSO 151320Z 11018KT CAVOK 03/M06 Q1017;
0084010014999992009011513504+59783+005350FM-15+0049ENSO V0201101N00981220001CN0099001N1+00301-00601999999ADDMA1101691999999OC101491REMMET049METAR ENSO 151350Z 11019G29KT CAVOK 03/M06 Q1017;
0073010014999992009011514204+59783+005350FM-15+0049ENSO V0201101N00931220001CN0099001N1+00301-00601999999ADDMA1101691999999REMMET046METAR ENSO 151420Z 11018KT CAVOK 03/M06 Q1017;
0073010014999992009011515204+59783+005350FM-15+0049ENSO V0201101N00871220001CN0099001N1+00301-00701999999ADDMA1101691999999REMMET046METAR ENSO 151520Z 11017KT CAVOK 03/M07 Q1017;
0073010014999992009011515504+59783+005350FM-15+0049ENSO V0201101N00931220001CN0099001N1+00301-00701999999ADDMA1101691999999REMMET046METAR ENSO 151550Z 11018KT CAVOK 03/M07 Q1017;
0073010014999992009011516204+59783+005350FM-15+0049ENSO V0201101N00671220001CN0099001N1+00301-00701999999ADDMA1101691999999REMMET046METAR ENSO 151620Z 11013KT CAVOK 03/M07 Q1017;
0073010014999992009011516504+59783+005350FM-15+0049ENSO V0201201N00821220001CN0099001N1+00301-00701999999ADDMA1101691999999REMMET046METAR ENSO 151650Z 12016KT CAVOK 03/M07 Q1017;
0073010014999992009011517504+59783+005350FM-15+0049ENSO V0201201N00821220001CN0099001N1+00301-00701999999ADDMA1101691999999REMMET046METAR ENSO 151750Z 12016KT CAVOK 03/M07 Q1017;
0144010014999992009011518504+59783+005350FM-15+0049ENSO V0201201N009310180019N0112651N1+00301-00701999999ADDGA1021+015001999GA2071+018001999GF107991999999999999999999MA1101691999999REMMET059METAR ENSO 151850Z 12018KT 9999 FEW050 BKN065 03/M07 Q1017;
0144010014999992009011519204+59783+005350FM-15+0049ENSO V0201201N009810135019N0112651N1+00301-00701999999ADDGA1021+009001999GA2071+013501999GF107991999999999999999999MA1101691999999REMMET059METAR ENSO 151920Z 12019KT 9999 FEW030 BKN045 03/M07 Q1017;
0144010014999992009011519504+59783+005350FM-15+0049ENSO V0201201N009810135019N0112651N1+00301-00701999999ADDGA1021+009001999GA2071+013501999GF107991999999999999999999MA1101691999999REMMET059METAR ENSO 151950Z 12019KT 9999 FEW030 BKN045 03/M07 Q1017;
0178010014999992009011610204+59783+005350FM-15+0049ENSO V0201401N01131015001CN0112651N1+00501-00401999999ADDGA1021+010501999GA2041+015001999GA3071+030001999GF107991999999999999999999MA1101491999999OC101801REMMET069METAR ENSO 161020Z 14022G35KT 9999 FEW035 SCT055 BKN100 05/M04 Q1015;
0155010014999992009011610504+59783+005350FM-15+0049ENSO V0201301N009310300019N0112651N1+00401-00401999999ADDGA1021+013501999GA2071+030001999GF107991999999999999999999MA1101491999999OC101441REMMET062METAR ENSO 161050Z 13018G28KT 9999 FEW045 BKN100 04/M04 Q1015;
0155010014999992009011611204+59783+005350FM-15+0049ENSO V0201401N009810300019N0112651N1+00501-00301999999ADDGA1021+015001999GA2071+030001999GF107991999999999999999999MA1101491999999OC101541REMMET062METAR ENSO 161120Z 14019G30KT 9999 FEW050 BKN100 05/M03 Q1015;
0163010014999992009011611504+59783+005350FM-15+0049ENSO V0201501N008210300019N0112651N1+00501-00301999999ADDGA1021+015001999GA2071+030001999GF107991999999999999999999MA1101491999999OC101341REMMET070METAR ENSO 161150Z 15016G26KT 120V190 9999 FEW055 BKN100 05/M03 Q1015;
0144010014999992009011612204+59783+005350FM-15+0049ENSO V0201501N009310300019N0112651N1+00501-00301999999ADDGA1021+009001999GA2071+030001999GF107991999999999999999999MA1101491999999REMMET059METAR ENSO 161220Z 15018KT 9999 FEW030 BKN100 05/M03 Q1015;
0163010014999992009011612504+59783+005350FM-15+0049ENSO V0201501N007210360019N0112651N1+00501-00301999999ADDGA1021+009001999GA2071+036001999GF107991999999999999999999MA1101391999999OC101341REMMET070METAR ENSO 161250Z 15014G26KT 120V200 9999 FEW030 BKN120 05/M03 Q1014;
0163010014999992009011613204+59783+005350FM-15+0049ENSO V0201501N008210360019N0112651N1+00501-00401999999ADDGA1021+009001999GA2071+036001999GF107991999999999999999999MA1101391999999OC101341REMMET070METAR ENSO 161320Z 15016G26KT 120V190 9999 FEW030 BKN120 05/M04 Q1014;
0081010014999992009011613504+59783+005350FM-15+0049ENSO V0201501N00871220001CN0099001N1+00501-00301999999ADDMA1101391999999REMMET054METAR ENSO 161350Z 15017KT 120V190 CAVOK 05/M03 Q1014;
0092010014999992009011614204+59783+005350FM-15+0049ENSO V0201501N01031220001CN0099001N1+00501-00401999999ADDMA1101391999999OC101801REMMET057METAR ENSO 161420Z 15020G35KT 120V200 CAVOK 05/M04 Q1014;
0092010014999992009011614504+59783+005350FM-15+0049ENSO V0201501N00871220001CN0099001N1+00501-00401999999ADDMA1101391999999OC101441REMMET057METAR ENSO 161450Z 15017G28KT 110V180 CAVOK 05/M04 Q1014;
0152010014999992009011615504+59783+005350FM-15+0049ENSO V0201501N008712200019N0112651N1+00401-00301999999ADDGA1021+010501999GA2041+036001999GF104991999999999999999999MA1101391999999REMMET067METAR ENSO 161550Z 15017KT 130V210 9999 FEW035 SCT120 04/M03 Q1014;
0163010014999992009011616204+59783+005350FM-15+0049ENSO V0201501N009312200019N0112651N1+00401-00301999999ADDGA1021+010501999GA2041+036001999GF104991999999999999999999MA1101291999999OC101441REMMET070METAR ENSO 161620Z 15018G28KT 120V190 9999 FEW035 SCT120 04/M03 Q1013;
0166010014999992009011813504+59783+005350FM-15+0049ENSO V0201301N00571003601CN0112651N1+00301+00201999999ADDGA1041+002401999GA2041+003601999GA3071+015001999GF107991999999999999999999MA1098511999999REMMET065METAR ENSO 181350Z 13011KT 9999 SCT008 SCT012 BKN050 03/02 Q0985;
0143010014999992009011814204+59783+005350FM-15+0049ENSO V0201201N005110039019N0112651N1+00301+00201999999ADDGA1071+003901999GA2071+015001999GF107991999999999999999999MA1098511999999REMMET058METAR ENSO 181420Z 12010KT 9999 BKN013 BKN050 03/02 Q0985;
0143010014999992009011814504+59783+005350FM-15+0049ENSO V0201201N006210180019N0112651N1+00301+00201999999ADDGA1041+003601999GA2071+018001999GF107991999999999999999999MA1098511999999REMMET058METAR ENSO 181450Z 12012KT 9999 SCT012 BKN060 03/02 Q0985;
0166010014999992009011815204+59783+005350FM-15+0049ENSO V0201101N00671010501CN0112651N1+00301+00201999999ADDGA1041+003901999GA2041+010501999GA3071+018001999GF107991999999999999999999MA1098511999999REMMET065METAR ENSO 181520Z 11013KT 9999 SCT013 SCT035 BKN065 03/02 Q0985;
0166010014999992009011815504+59783+005350FM-15+0049ENSO V0201101N00461009001CN0112651N1+00301+00201999999ADDGA1021+003901999GA2041+009001999GA3071+018001999GF107991999999999999999999MA1098511999999REMMET065METAR ENSO 181550Z 11009KT 9999 FEW013 SCT030 BKN065 03/02 Q0985;
0166010014999992009011816204+59783+005350FM-15+0049ENSO V0201101N00621010501CN0112651N1+00401+00201999999ADDGA1021+004201999GA2041+010501999GA3071+018001999GF107991999999999999999999MA1098511999999REMMET065METAR ENSO 181620Z 11012KT 9999 FEW014 SCT035 BKN065 04/02 Q0985;
0176010014999992009011816504+59783+005350FM-15+0049ENSO V0201101N00511004501CN0090001N1+00301+00201999999ADDGA1021+001801999GA2041+004501999GA3071+007501999GF107991999999999999999999MA1098511999999MW1611REMMET069METAR ENSO 181650Z 11010KT 9000 -RA FEW006 SCT015 BKN025 03/02 Q0985;
0166010014999992009011817204+59783+005350FM-15+0049ENSO V0201201N00511004501CN0112651N1+00301+00201999999ADDGA1021+001801999GA2041+004501999GA3071+010501999GF107991999999999999999999MA1098511999999REMMET065METAR ENSO 181720Z 12010KT 9999 FEW006 SCT015 BKN035 03/02 Q0985;
0166010014999992009011817504+59783+005350FM-15+0049ENSO V0201101N00511005401CN0112651N1+00301+00201999999ADDGA1021+002401999GA2041+005401999GA3071+007501999GF107991999999999999999999MA1098511999999REMMET065METAR ENSO 181750Z 11010KT 9999 FEW008 SCT018 BKN025 03/02 Q0985;
0166010014999992009011818204+59783+005350FM-15+0049ENSO V0201101N00511008401CN0112651N1+00301+00201999999ADDGA1021+004501999GA2041+008401999GA3071+013501999GF107991999999999999999999MA1098511999999REMMET065METAR ENSO 181820Z 11010KT 9999 FEW015 SCT028 BKN045 03/02 Q0985;
0143010014999992009011904504+59783+005350FM-15+0049ENSO V0201101N008710105019N0112651N1+00301+00101999999ADDGA1021+006001999GA2071+010501999GF107991999999999999999999MA1098511999999REMMET058METAR ENSO 190450Z 11017KT 9999 FEW020 BKN035 03/01 Q0985;
0177010014999992009011905204+59783+005350FM-15+0049ENSO V0201201N00671006001CN0112651N1+00301+00101999999ADDGA1021+003901999GA2041+006001999GA3071+009001999GF107991999999999999999999MA1098511999999MW1811REMMET070METAR ENSO 190520Z 12013KT 9999 SHRA FEW013 SCT020 BKN030 03/01 Q0985;
0166010014999992009011905504+59783+005350FM-15+0049ENSO V0201201N00621007501CN0112651N1+00301+00101999999ADDGA1021+004501999GA2041+007501999GA3071+010501999GF107991999999999999999999MA1098511999999REMMET065METAR ENSO 190550Z 12012KT 9999 FEW015 SCT025 BKN035 03/01 Q0985;
0174010014999992009011906204+59783+005350FM-15+0049ENSO V0201201N00621007501CN0112651N1+00301+00101999999ADDGA1021+004501999GA2041+007501999GA3071+010501999GF107991999999999999999999MA1098511999999REMMET073METAR ENSO 190620Z 12012KT 090V150 9999 FEW015 SCT025 BKN035 03/01 Q0985;
0185010014999992009011906504+59783+005350FM-15+0049ENSO V0201401N00771007501CN0112651N1+00401+00101999999ADDGA1021+004501999GA2041+007501999GA3071+009001999GF107991999999999999999999MA1098511999999OC101291REMMET076METAR ENSO 190650Z 14015G25KT 110V180 9999 FEW015 SCT025 BKN030 04/01 Q0985;
0166010014999992009011907204+59783+005350FM-15+0049ENSO V0201201N00721007501CN0112651N1+00401+00101999999ADDGA1021+004501999GA2041+007501999GA3071+009001999GF107991999999999999999999MA1098511999999REMMET065METAR ENSO 190720Z 12014KT 9999 FEW015 SCT025 BKN030 04/01 Q0985;
0166010014999992009011907504+59783+005350FM-15+0049ENSO V0201201N00821007501CN0112651N1+00401+00101999999ADDGA1021+004501999GA2041+007501999GA3071+009001999GF107991999999999999999999MA1098511999999REMMET065METAR ENSO 190750Z 12016KT 9999 FEW015 SCT025 BKN030 04/01 Q0985;
0177010014999992009011908204+59783+005350FM-15+0049ENSO V0201201N00821007501CN0112651N1+00401+00101999999ADDGA1021+004501999GA2041+007501999GA3071+009001999GF107991999999999999999999MA1098511999999OC101341REMMET068METAR ENSO 190820Z 12016G26KT 9999 FEW015 SCT025 BKN030 04/01 Q0985;
0188010014999992009011908504+59783+005350FM-15+0049ENSO V0201501N00571004501CN0080001N1+00401+00201999999ADDGA1021+003001999GA2041+004501999GA3071+006001999GF107991999999999999999999MA1098611999999MW1811OC101081REMMET073METAR ENSO 190850Z 15011G21KT 8000 SHRA FEW010 SCT015 BKN020 04/02 Q0986;
0175010014999992009011909204+59783+005350FM-15+0049ENSO V0201401N007212200019N0112651N1+00401+00201999999ADDGA1021+003001999GA2041+004501091GA3041+015001999GF104991999999999999999999MA1098611999999REMMET074METAR ENSO 190920Z 14014KT 9999 FEW010 SCT015CB SCT050 04/02 Q0986 RESHRA;
0168010014999992009011909504+59783+005350FM-15+0049ENSO V0201301N007212200019N0112651N1+00401+00201999999ADDGA1021+003001999GA2021+006001091GA3041+015001999GF104991999999999999999999MA1098511999999REMMET067METAR ENSO 190950Z 13014KT 9999 FEW010 FEW020CB SCT050 04/02 Q0985;
0179010014999992009011910204+59783+005350FM-15+0049ENSO V0201301N006712200019N0112651N1+00401+00201999999ADDGA1021+003901999GA2021+006001091GA3041+015001999GF104991999999999999999999MA1098511999999OC101231REMMET070METAR ENSO 191020Z 13013G24KT 9999 FEW013 FEW020CB SCT050 04/02 Q0985;
0176010014999992009011910504+59783+005350FM-15+0049ENSO V0201501N008712200019N0112651N1+00401+00201999999ADDGA1021+003901999GA2021+006001091GA3041+012001999GF104991999999999999999999MA1098511999999REMMET075METAR ENSO 191050Z 15017KT 120V180 9999 FEW013 FEW020CB SCT040 04/02 Q0985;
0176010014999992009011911204+59783+005350FM-15+0049ENSO V0201301N006212200019N0112651N1+00501+00201999999ADDGA1021+004501999GA2021+006001091GA3041+012001999GF104991999999999999999999MA1098511999999REMMET075METAR ENSO 191120Z 13012KT 120V180 9999 FEW015 FEW020CB SCT040 05/02 Q0985;
0143010014999992009011911504+59783+005350FM-15+0049ENSO V0201401N007212200019N0112651N1+00501+00101999999ADDGA1021+005401999GA2041+009001999GF104991999999999999999999MA1098511999999REMMET058METAR ENSO 191150Z 14014KT 9999 FEW018 SCT030 05/01 Q0985;
0151010014999992009011912204+59783+005350FM-15+0049ENSO V0201401N007212200019N0112651N1+00601+00101999999ADDGA1021+007501999GA2041+036001999GF104991999999999999999999MA1098411999999REMMET066METAR ENSO 191220Z 14014KT 110V180 9999 FEW025 SCT120 06/01 Q0984;
0120010014999992009011912504+59783+005350FM-15+0049ENSO V0201301N007212200019N0112651N1+00601+00001999999ADDGA1021+009001999GF102991999999999999999999MA1098411999999REMMET051METAR ENSO 191250Z 13014KT 9999 FEW030 06/00 Q0984;
0121010014999992009011913204+59783+005350FM-15+0049ENSO V0201201N006712200019N0112651N1+00501+00001999999ADDGA1041+009001999GF104991999999999999999999MA1098411999999REMMET052METAR ENSO 191320Z 12013KT 9999 SCT030 05/M00 Q0984;
0121010014999992009011913504+59783+005350FM-15+0049ENSO V0201201N006712200019N0112651N1+00501+00001999999ADDGA1041+009001999GF104991999999999999999999MA1098411999999REMMET052METAR ENSO 191350Z 12013KT 9999 SCT030 05/M00 Q0984;
0121010014999992009011914204+59783+005350FM-15+0049ENSO V0201101N007712200019N0112651N1+00501-00101999999ADDGA1021+010501999GF102991999999999999999999MA1098311999999REMMET052METAR ENSO 191420Z 11015KT 9999 FEW035 05/M01 Q0983;
0121010014999992009011914504+59783+005350FM-15+0049ENSO V0201201N007712200019N0112651N1+00501-00201999999ADDGA1021+010501999GF102991999999999999999999MA1098311999999REMMET052METAR ENSO 191450Z 12015KT 9999 FEW035 05/M02 Q0983;
0121010014999992009011915204+59783+005350FM-15+0049ENSO V0201201N007712200019N0112651N1+00501-00201999999ADDGA1021+009001999GF102991999999999999999999MA1098311999999REMMET052METAR ENSO 191520Z 12015KT 9999 FEW030 05/M02 Q0983;
0132010014999992009011915504+59783+005350FM-15+0049ENSO V0201201N008212200019N0112651N1+00501-00201999999ADDGA1021+009001999GF102991999999999999999999MA1098211999999OC101441REMMET055METAR ENSO 191550Z 12016G28KT 9999 FEW030 05/M02 Q0982;
0132010014999992009011916204+59783+005350FM-15+0049ENSO V0201201N009312200019N0112651N1+00501-00201999999ADDGA1021+009001999GF102991999999999999999999MA1098211999999OC101441REMMET055METAR ENSO 191620Z 12018G28KT 9999 FEW030 05/M02 Q0982;
0121010014999992009011916504+59783+005350FM-15+0049ENSO V0201201N007212200019N0112651N1+00501-00201999999ADDGA1021+009001999GF102991999999999999999999MA1098211999999REMMET052METAR ENSO 191650Z 12014KT 9999 FEW030 05/M02 Q0982;
0132010014999992009011917204+59783+005350FM-15+0049ENSO V0201201N007212200019N0112651N1+00501-00301999999ADDGA1021+009001999GF102991999999999999999999MA1098211999999OC101231REMMET055METAR ENSO 191720Z 12014G24KT 9999 FEW030 05/M03 Q0982;
0121010014999992009011917504+59783+005350FM-15+0049ENSO V0201201N008212200019N0112651N1+00501-00301999999ADDGA1021+009001999GF102991999999999999999999MA1098211999999REMMET052METAR ENSO 191750Z 12016KT 9999 FEW030 05/M03 Q0982;
0167010014999992009012004504+59783+005350FM-15+0049ENSO V0201201N00931010501CN0112651N1+00501-00501999999ADDGA1021+004501999GA2041+010501999GA3071+015001999GF107991999999999999999999MA1097701999999REMMET066METAR ENSO 200450Z 12018KT 9999 FEW015 SCT035 BKN055 05/M05 Q0977;
0178010014999992009012005204+59783+005350FM-15+0049ENSO V0201201N01031009001CN0112651N1+00501-00501999999ADDGA1021+004501999GA2041+009001999GA3071+018001999GF107991999999999999999999MA1097701999999OC101541REMMET069METAR ENSO 200520Z 12020G30KT 9999 FEW015 SCT030 BKN060 05/M05 Q0977;
0155010014999992009012005504+59783+005350FM-15+0049ENSO V0201201N011812200019N0112651N1+00401-00401999999ADDGA1021+004501999GA2041+013501999GF104991999999999999999999MA1097701999999OC101851REMMET062METAR ENSO 200550Z 12023G36KT 9999 FEW015 SCT045 04/M04 Q0977;
0155010014999992009012006204+59783+005350FM-15+0049ENSO V0201101N011312200019N0112651N1+00301-00201999999ADDGA1021+010501999GA2041+015001999GF104991999999999999999999MA1097801999999OC101651REMMET062METAR ENSO 200620Z 11022G32KT 9999 FEW035 SCT055 03/M02 Q0978;
0152010014999992009012006504+59783+005350FM-15+0049ENSO V0201101N010310150019N0112651N1+00301-00201999999ADDGA1021+009001999GA2071+015001999GF107991999999999999999999MA1097801999999REMMET067METAR ENSO 200650Z 11020KT 080V140 9999 FEW030 BKN050 03/M02 Q0978;
0144010014999992009012007204+59783+005350FM-15+0049ENSO V0201001N010310120019N0112651N1+00301-00201999999ADDGA1021+007501999GA2071+012001999GF107991999999999999999999MA1097801999999REMMET059METAR ENSO 200720Z 10020KT 9999 FEW025 BKN040 03/M02 Q0978;
0155010014999992009012007504+59783+005350FM-15+0049ENSO V0201001N010310150019N0112651N1+00301-00101999999ADDGA1041+010501999GA2071+015001999GF107991999999999999999999MA1097801999999OC101591REMMET062METAR ENSO 200750Z 10020G31KT 9999 SCT035 BKN050 03/M01 Q0978;
0167010014999992009012008204+59783+005350FM-15+0049ENSO V0201101N008710150019N0112651N1+00301-00201999999ADDGA1041+009001999GA2071+015001999GF107991999999999999999999MA1097801999999REMMET063METAR ENSO 200820Z 11017G271KT 9999 SCT030 BKN050 03/M02 Q0978;EQDQ01+013941WGOSPD
0144010014999992009012009204+59783+005350FM-15+0049ENSO V0201101N008710150019N0112651N1+00301-00201999999ADDGA1041+007801999GA2071+015001999GF107991999999999999999999MA1097801999999REMMET059METAR ENSO 200920Z 11017KT 9999 SCT026 BKN050 03/M02 Q0978;
0171010014999992009012009504+59783+005350FM-15+0049ENSO V0201101N007710042019N0112651N1+00201-00101999999ADDGA1041+003001999GA2071+004201999GF107991999999999999999999MA1097901999999MW1161MW2631MW3731REMMET068METAR ENSO 200950Z 11015KT 9999 VCSHRASN SCT010 BKN014 02/M01 Q0979;
0158010014999992009012010204+59783+005350FM-15+0049ENSO V0201201N006710036019N0112651N1+00201+00001999999ADDGA1041+002401999GA2071+003601999GF107991999999999999999999MA1098001999999MW1831REMMET067METAR ENSO 201020Z 12013KT 9999 -SHRASN SCT008 BKN012 02/M00 Q0980;
0155010014999992009012010504+59783+005350FM-15+0049ENSO V0201201N005110036019N0112651N1+00101+00001999999ADDGA1041+002401999GA2081+003601999GF108991999999999999999999MA1098001999999MW1801REMMET064METAR ENSO 201050Z 12010KT 9999 -SHRA SCT008 OVC012 01/00 Q0980;
0155010014999992009012011204+59783+005350FM-15+0049ENSO V0201101N006210030019N0112651N1+00101+00001999999ADDGA1041+001801999GA2081+003001999GF108991999999999999999999MA1098001999999MW1801REMMET064METAR ENSO 201120Z 11012KT 9999 -SHRA SCT006 OVC010 01/00 Q0980;
0179010014999992009012011504+59783+005350FM-15+0049ENSO V0201001N00621001501CN0070001N1+00101+00001999999ADDGA1021+000901999GA2041+001501999GA3081+002401999GF108991999999999999999999MA1098001999999MW1801REMMET072METAR ENSO 201150Z 10012KT 7000 -SHRA FEW003 SCT005 OVC008 01/M00 Q0980;
0178010014999992009012012204+59783+005350FM-15+0049ENSO V0201001N00571001801CN0112651N1+00101+00001999999ADDGA1021+001201999GA2041+001801999GA3071+004501999GF107991999999999999999999MA1098001999999MW1801REMMET071METAR ENSO 201220Z 10011KT 9999 -SHRA FEW004 SCT006 BKN015 01/00 Q0980;
0166010014999992009012012504+59783+005350FM-15+0049ENSO V0201001N00571002401CN0112651N1+00101+00001999999ADDGA1021+001501999GA2041+002401999GA3071+004501999GF107991999999999999999999MA1098101999999REMMET065METAR ENSO 201250Z 10011KT 9999 FEW005 SCT008 BKN015 01/00 Q0981;
0166010014999992009012013204+59783+005350FM-15+0049ENSO V0201001N00621005101CN0112651N1+00201+00101999999ADDGA1021+002401999GA2041+005101999GA3071+009001999GF107991999999999999999999MA1098101999999REMMET065METAR ENSO 201320Z 10012KT 9999 FEW008 SCT017 BKN030 02/01 Q0981;
0143010014999992009012013504+59783+005350FM-15+0049ENSO V0201001N006212200019N0112651N1+00201+00101999999ADDGA1021+004501999GA2041+006001999GF104991999999999999999999MA1098101999999REMMET058METAR ENSO 201350Z 10012KT 9999 FEW015 SCT020 02/01 Q0981;
0143010014999992009012014204+59783+005350FM-15+0049ENSO V0201001N006712200019N0112651N1+00201+00101999999ADDGA1021+004501999GA2041+006001999GF104991999999999999999999MA1098101999999REMMET058METAR ENSO 201420Z 10013KT 9999 FEW015 SCT020 02/01 Q0981;
0143010014999992009012014504+59783+005350FM-15+0049ENSO V0201101N006212200019N0112651N1+00201+00001999999ADDGA1021+004501999GA2041+009001999GF104991999999999999999999MA1098101999999REMMET058METAR ENSO 201450Z 11012KT 9999 FEW015 SCT030 02/00 Q0981;
0154010014999992009012015504+59783+005350FM-15+0049ENSO V0201101N006710075019N0112651N1+00301+00101999999ADDGA1041+004501999GA2071+007501999GF107991999999999999999999MA1098101999999MW1811REMMET063METAR ENSO 201550Z 11013KT 9999 SHRA SCT015 BKN025 03/01 Q0981;
0174010014999992009012016204+59783+005350FM-15+0049ENSO V0201501N00511003601CN0112651N1+00301+00101999999ADDGA1021+002401999GA2041+003601999GA3071+006001999GF107991999999999999999999MA1098211999999REMMET073METAR ENSO 201620Z 15010KT 110V180 9999 FEW008 SCT012 BKN020 03/01 Q0982;
0151010014999992009012016504+59783+005350FM-15+0049ENSO V0201301N005110060019N0112651N1+00301+00101999999ADDGA1041+003901999GA2071+006001999GF107991999999999999999999MA1098211999999REMMET066METAR ENSO 201650Z 13010KT 110V160 9999 SCT013 BKN020 03/01 Q0982;
0151010014999992009012017204+59783+005350FM-15+0049ENSO V0201501N004110060019N0112651N1+00301+00101999999ADDGA1041+003901999GA2071+006001999GF107991999999999999999999MA1098311999999REMMET066METAR ENSO 201720Z 15008KT 120V210 9999 SCT013 BKN020 03/01 Q0983;
0151010014999992009012017504+59783+005350FM-15+0049ENSO V0201501N004110075019N0112651N1+00301+00201999999ADDGA1041+003901999GA2071+007501999GF107991999999999999999999MA1098311999999REMMET066METAR ENSO 201750Z 15008KT 120V210 9999 SCT013 BKN025 03/02 Q0983;
0162010014999992009012018204+59783+005350FM-15+0049ENSO V0201601N004610060019N0112651N1+00401+00201999999ADDGA1041+003901999GA2071+006001999GF107991999999999999999999MA1098311999999MW1811REMMET071METAR ENSO 201820Z 16009KT 120V210 9999 SHRA SCT013 BKN020 04/02 Q0983;
0192010014999992009012104504+59783+005350FM-15+0049ENSO V0201301N00771002401CN0070001N1+00101+00001999999ADDGA1021+001501999GA2041+002401999GA3071+003601091GF107991999999999999999999MA1098921999999MW1841OC101291REMMET077METAR ENSO 210450Z 13015G25KT 7000 SHRASN FEW005 SCT008 BKN012CB 01/00 Q0989;
0192010014999992009012105204+59783+005350FM-15+0049ENSO V0201301N00821002401CN0070001N1+00101+00001999999ADDGA1021+001501999GA2041+002401999GA3071+003601091GF107991999999999999999999MA1098921999999MW1841OC101391REMMET077METAR ENSO 210520Z 13016G27KT 7000 SHRASN FEW005 SCT008 BKN012CB 01/00 Q0989;
0179010014999992009012105504+59783+005350FM-15+0049ENSO V0201301N00721002401CN0112651N1+00201+00101999999ADDGA1021+001801999GA2041+002401999GA3071+003601091GF107991999999999999999999MA1098921999999MW1811REMMET072METAR ENSO 210550Z 13014KT 9999 SHRA FEW006 SCT008 BKN012CB 02/01 Q0989;
0158010014999992009012106204+59783+005350FM-15+0049ENSO V0201301N009310036019N0112651N1+00201+00101999999ADDGA1021+002101999GA2071+003601091GF107991999999999999999999MA1098921999999MW1841REMMET067METAR ENSO 210620Z 13018KT 9999 SHRASN FEW007 BKN012CB 02/01 Q0989;
0181010014999992009012106504+59783+005350FM-15+0049ENSO V0201401N00871002401CN0112651N1+00301+00201999999ADDGA1021+001501999GA2041+002401999GA3071+003601091GF107991999999999999999999MA1098921999999MW1841REMMET074METAR ENSO 210650Z 14017KT 9999 SHRASN FEW005 SCT008 BKN012CB 03/02 Q0989;
0190010014999992009012107204+59783+005350FM-15+0049ENSO V0201401N00931002401CN0080001N1+00401+00301999999ADDGA1021+001501999GA2041+002401999GA3071+003601091GF107991999999999999999999MA1098921999999MW1811OC101651REMMET075METAR ENSO 210720Z 14018G32KT 8000 SHRA FEW005 SCT008 BKN012CB 04/03 Q0989;
0190010014999992009012107504+59783+005350FM-15+0049ENSO V0201601N00721004501CN0112651N1+00401+00301999999ADDGA1021+002701999GA2041+004501091GA3071+006001999GF107991999999999999999999MA1098981999999MW1161OC101231REMMET075METAR ENSO 210750Z 16014G24KT 9999 VCSH FEW009 SCT015CB BKN020 04/03 Q0990;
0190010014999992009012108204+59783+005350FM-15+0049ENSO V0201701N00721004501CN0112651N1+00401+00301999999ADDGA1021+002701999GA2041+004501091GA3071+006001999GF107991999999999999999999MA1098981999999MW1161OC101231REMMET075METAR ENSO 210820Z 17014G24KT 9999 VCSH FEW009 SCT015CB BKN020 04/03 Q0990;
0175010014999992009012109204+59783+005350FM-15+0049ENSO V0201601N007210045019N0112651N1+00401+00301999999ADDGA1021+003001091GA2071+004501999GF107991999999999999999999MA1098981999999MW1811OC101231REMMET076METAR ENSO 210920Z 16014G24KT 120V210 9999 SHRA FEW010CB BKN015 04/03 Q0990;
0175010014999992009012109504+59783+005350FM-15+0049ENSO V0201801N008210045019N0112651N1+00401+00301999999ADDGA1021+003001091GA2071+004501999GF107991999999999999999999MA1099091999999MW1811OC101341REMMET076METAR ENSO 210950Z 18016G26KT 130V210 9999 SHRA FEW010CB BKN015 04/03 Q0991;
0176010014999992009012110204+59783+005350FM-15+0049ENSO V0201801N00771004501CN0112651N1+00501+00301999999ADDGA1021+003001999GA2041+004501091GA3071+006001999GF107991999999999999999999MA1099191999999REMMET075METAR ENSO 211020Z 18015KT 130V210 9999 FEW010 SCT015CB BKN020 05/03 Q0992;
0187010014999992009012110504+59783+005350FM-15+0049ENSO V0201801N00821004501CN0112651N1+00501+00301999999ADDGA1021+003001091GA2041+004501999GA3071+006001999GF107991999999999999999999MA1099191999999OC101341REMMET078METAR ENSO 211050Z 18016G26KT 150V230 9999 FEW010CB SCT015 BKN020 05/03 Q0992;
0187010014999992009012111204+59783+005350FM-15+0049ENSO V0201901N00931004501CN0112651N1+00501+00301999999ADDGA1021+003001091GA2041+004501999GA3071+007501999GF107991999999999999999999MA1099291999999OC101541REMMET078METAR ENSO 211120Z 19018G30KT 150V240 9999 FEW010CB SCT015 BKN025 05/03 Q0993;
0187010014999992009012111504+59783+005350FM-15+0049ENSO V0201901N00871004501CN0112651N1+00601+00301999999ADDGA1021+003001091GA2041+004501999GA3071+007501999GF107991999999999999999999MA1099291999999OC101391REMMET078METAR ENSO 211150Z 19017G27KT 150V240 9999 FEW010CB SCT015 BKN025 06/03 Q0993;
0187010014999992009012112204+59783+005350FM-15+0049ENSO V0201901N00871004501CN0112651N1+00601+00301999999ADDGA1021+003001091GA2041+004501999GA3071+007501999GF107991999999999999999999MA1099391999999OC101441REMMET078METAR ENSO 211220Z 19017G28KT 150V230 9999 FEW010CB SCT015 BKN025 06/03 Q0994;
0121010014999992009012112504+59783+005350FM-15+0049ENSO V0202101N010312200019N0112651N1+00501+00301999999ADDMA1099401999999OC101541REMMET086METAR ENSO 211250Z 21020G30KT 180V240 -SHRASN 9999 FEW010CB SCT015 BKN025 05/03 Q0994;
0210010014999992009012113204+59783+005350FM-15+0049ENSO V0202001N00671012001CN0112651N1+00501+00301999999ADDGA1021+003601091GA2021+006001999GA3041+012001999GA4071+018001999GF107991999999999999999999MA1099391999999OC101391REMMET085METAR ENSO 211320Z 20013G27KT 140V250 9999 FEW012CB FEW020 SCT040 BKN060 05/03 Q0994;
0176010014999992009012113504+59783+005350FM-15+0049ENSO V0201901N00621006001CN0112651N1+00601+00401999999ADDGA1021+003601091GA2041+006001999GA3071+013501999GF107991999999999999999999MA1099491999999REMMET075METAR ENSO 211350Z 19012KT 150V220 9999 FEW012CB SCT020 BKN045 06/04 Q0995;
0176010014999992009012114504+59783+005350FM-15+0049ENSO V0201701N00411006001CN0112651N1+00601+00401999999ADDGA1021+003601091GA2041+006001999GA3071+010501999GF107991999999999999999999MA1099491999999REMMET075METAR ENSO 211450Z 17008KT 130V210 9999 FEW012CB SCT020 BKN035 06/04 Q0995;
0176010014999992009012115204+59783+005350FM-15+0049ENSO V0201601N00511007501CN0112651N1+00501+00401999999ADDGA1021+004501091GA2041+007501999GA3071+013501999GF107991999999999999999999MA1099591999999REMMET075METAR ENSO 211520Z 16010KT 120V190 9999 FEW015CB SCT025 BKN045 05/04 Q0996;
0168010014999992009012115504+59783+005350FM-15+0049ENSO V0201401N005112200019N0112651N1+00501+00401999999ADDGA1021+005401091GA2021+007501999GA3041+012001999GF104991999999999999999999MA1099591999999REMMET067METAR ENSO 211550Z 14010KT 9999 FEW018CB FEW025 SCT040 05/04 Q0996;
0168010014999992009012116504+59783+005350FM-15+0049ENSO V0201501N004612200019N0112651N1+00501+00301999999ADDGA1021+005401091GA2021+007501999GA3041+012001999GF104991999999999999999999MA1099701999999REMMET067METAR ENSO 211650Z 15009KT 9999 FEW018CB FEW025 SCT040 05/03 Q0997;
0176010014999992009012117204+59783+005350FM-15+0049ENSO V0201601N005112200019N0112651N1+00501+00301999999ADDGA1021+005401091GA2021+007501999GA3041+012001999GF104991999999999999999999MA1099701999999REMMET075METAR ENSO 211720Z 16010KT 120V200 9999 FEW018CB FEW025 SCT040 05/03 Q0997;
0168010014999992009012117504+59783+005350FM-15+0049ENSO V0201501N005710090019N0112651N1+00401+00301999999ADDGA1021+003601999GA2021+005401091GA3071+009001999GF107991999999999999999999MA1099701999999REMMET067METAR ENSO 211750Z 15011KT 9999 FEW012 FEW018CB BKN030 04/03 Q0997;
0151010014999992009012204504+59783+005350FM-15+0049ENSO V0201501N006710075019N0112651N1+00401+00101999999ADDGA1021+003601999GA2071+007501999GF107991999999999999999999MA1099491999999REMMET066METAR ENSO 220450Z 15013KT 120V180 9999 FEW012 BKN025 04/01 Q0995;
0151010014999992009012205204+59783+005350FM-15+0049ENSO V0201501N007210075019N0112651N1+00401+00001999999ADDGA1021+003601999GA2071+007501999GF107991999999999999999999MA1099491999999REMMET066METAR ENSO 220520Z 15014KT 120V180 9999 FEW012 BKN025 04/00 Q0995;
0178010014999992009012205504+59783+005350FM-15+0049ENSO V0201401N01081007501CN0112651N1+00401+00101999999ADDGA1021+003601999GA2041+007501999GA3071+015001999GF107991999999999999999999MA1099491999999MW1801REMMET071METAR ENSO 220550Z 14021KT 9999 -SHRA FEW012 SCT025 BKN050 04/01 Q0995;
0144010014999992009012206504+59783+005350FM-15+0049ENSO V0201301N007710120019N0112651N1+00401+00001999999ADDGA1021+004501999GA2071+012001999GF107991999999999999999999MA1099391999999REMMET059METAR ENSO 220650Z 13015KT 9999 FEW015 BKN040 04/M00 Q0994;
0152010014999992009012207504+59783+005350FM-15+0049ENSO V0201401N008710105019N0112651N1+00401-00101999999ADDGA1041+005401999GA2071+010501999GF107991999999999999999999MA1099291999999REMMET067METAR ENSO 220750Z 14017KT 110V180 9999 SCT018 BKN035 04/M01 Q0993;
0144010014999992009012208204+59783+005350FM-15+0049ENSO V0201301N009812200019N0112651N1+00501-00201999999ADDGA1041+007501999GA2041+015001999GF104991999999999999999999MA1099291999999REMMET059METAR ENSO 220820Z 13019KT 9999 SCT025 SCT055 05/M02 Q0993;
0120010014999992009012208504+59783+005350FM-15+0049ENSO V0201301N008712200019N0112651N1+00401-00201999999ADDGA1041+000901999GF104991999999999999999999MA1099191999999REMMET051METAR ENSO 220850Z 13017KT 9999 SCT03 04/M02 Q0992;
0121010014999992009012209204+59783+005350FM-15+0049ENSO V0201301N009812200019N0112651N1+00501-00301999999ADDGA1041+013501999GF104991999999999999999999MA1099191999999REMMET052METAR ENSO 220920Z 13019KT 9999 SCT045 05/M03 Q0992;
0132010014999992009012209504+59783+005350FM-15+0049ENSO V0201301N008712200019N0112651N1+00501-00301999999ADDGA1041+013501999GF104991999999999999999999MA1099091999999OC101491REMMET055METAR ENSO 220950Z 13017G29KT 9999 SCT045 05/M03 Q0991;
0163010014999992009012210204+59783+005350FM-15+0049ENSO V0201301N009312200019N0112651N1+00501-00301999999ADDGA1021+009001999GA2041+036001999GF104991999999999999999999MA1098981999999OC101541REMMET070METAR ENSO 221020Z 13018G30KT 100V160 9999 FEW030 SCT120 05/M03 Q0990;
0155010014999992009012210504+59783+005350FM-15+0049ENSO V0201201N012312200019N0112651N1+00501-00401999999ADDGA1021+006001999GA2041+045001999GF104991999999999999999999MA1098921999999OC101851REMMET062METAR ENSO 221050Z 12024G36KT 9999 FEW020 SCT150 05/M04 Q0989;
0178010014999992009012211204+59783+005350FM-15+0049ENSO V0201201N01231045001CN0112651N1+00501-00401999999ADDGA1021+006001999GA2041+045001999GA3071+060001999GF107991999999999999999999MA1098921999999OC101701REMMET069METAR ENSO 221120Z 12024G33KT 9999 FEW020 SCT150 BKN200 05/M04 Q0989;
0178010014999992009012211504+59783+005350FM-15+0049ENSO V0201301N01131054001CN0112651N1+00501-00401999999ADDGA1021+007501999GA2041+054001999GA3071+075001999GF107991999999999999999999MA1098821999999OC101751REMMET069METAR ENSO 221150Z 13022G34KT 9999 FEW025 SCT180 BKN250 05/M04 Q0988;
0186010014999992009012212204+59783+005350FM-15+0049ENSO V0201301N01231054001CN0112651N1+00501-00501999999ADDGA1021+007501999GA2041+054001999GA3071+075001999GF107991999999999999999999MA1098821999999OC101901REMMET077METAR ENSO 221220Z 13024G37KT 100V160 9999 FEW025 SCT180 BKN250 05/M05 Q0988;
0178010014999992009012212504+59783+005350FM-15+0049ENSO V0201301N01231045001CN0112651N1+00501-00501999999ADDGA1021+007501999GA2041+045001999GA3071+060001999GF107991999999999999999999MA1098711999999OC101801REMMET069METAR ENSO 221250Z 13024G35KT 9999 FEW025 SCT150 BKN200 05/M05 Q0987;
0178010014999992009012213204+59783+005350FM-15+0049ENSO V0201301N01341045001CN0112651N1+00501-00401999999ADDGA1021+009001999GA2041+045001999GA3071+060001999GF107991999999999999999999MA1098711999999OC101951REMMET069METAR ENSO 221320Z 13026G38KT 9999 FEW030 SCT150 BKN200 05/M04 Q0987;
0178010014999992009012213504+59783+005350FM-15+0049ENSO V0201301N01541045001CN0112651N1+00501-00501999999ADDGA1021+009001999GA2041+045001999GA3071+060001999GF107991999999999999999999MA1098611999999OC102161REMMET069METAR ENSO 221350Z 13030G42KT 9999 FEW030 SCT150 BKN200 05/M05 Q0986;
0155010014999992009012214204+59783+005350FM-15+0049ENSO V0201201N012310300019N0112651N1+00401-00401999999ADDGA1021+009001999GA2071+030001999GF107991999999999999999999MA1098511999999OC101801REMMET062METAR ENSO 221420Z 12024G35KT 9999 FEW030 BKN100 04/M04 Q0985;
0178010014999992009012214504+59783+005350FM-15+0049ENSO V0201201N01341021001CN0112651N1+00401-00401999999ADDGA1021+009001999GA2041+021001999GA3071+030001999GF107991999999999999999999MA1098511999999OC101951REMMET069METAR ENSO 221450Z 12026G38KT 9999 FEW030 SCT070 BKN100 04/M04 Q0985;
0178010014999992009012215204+59783+005350FM-15+0049ENSO V0201101N01291021001CN0112651N1+00401-00401999999ADDGA1021+009001999GA2041+021001999GA3071+030001999GF107991999999999999999999MA1098411999999OC102161REMMET069METAR ENSO 221520Z 11025G42KT 9999 FEW030 SCT070 BKN100 04/M04 Q0984;
0178010014999992009012215504+59783+005350FM-15+0049ENSO V0201201N01391021001CN0112651N1+00401-00401999999ADDGA1021+009001999GA2041+021001999GA3071+030001999GF107991999999999999999999MA1098311999999OC102111REMMET069METAR ENSO 221550Z 12027G41KT 9999 FEW030 SCT070 BKN100 04/M04 Q0983;
0155010014999992009012216204+59783+005350FM-15+0049ENSO V0201201N011812200019N0112651N1+00401-00401999999ADDGA1041+015001999GA2041+024001999GF104991999999999999999999MA1098311999999OC101851REMMET062METAR ENSO 221620Z 12023G36KT 9999 SCT050 SCT080 04/M04 Q0983;
0163010014999992009012216504+59783+005350FM-15+0049ENSO V0201201N012312200019N0112651N1+00401-00401999999ADDGA1041+015001999GA2041+024001999GF104991999999999999999999MA1098311999999OC101701REMMET070METAR ENSO 221650Z 12024G33KT 090V150 9999 SCT050 SCT080 04/M04 Q0983;
0178010014999992009012217204+59783+005350FM-15+0049ENSO V0201201N012312200019N0112651N1+00501-00401999999ADDGA1021+007501999GA2041+013501999GA3041+024001999GF104991999999999999999999MA1098311999999OC101801REMMET069METAR ENSO 221720Z 12024G35KT 9999 FEW025 SCT045 SCT080 05/M04 Q0983;
0178010014999992009012217504+59783+005350FM-15+0049ENSO V0201201N011812200019N0112651N1+00501-00501999999ADDGA1021+007501999GA2041+013501999GA3041+024001999GF104991999999999999999999MA1098211999999OC101801REMMET069METAR ENSO 221750Z 12023G35KT 9999 FEW025 SCT045 SCT080 05/M05 Q0982;
0178010014999992009012218504+59783+005350FM-15+0049ENSO V0201301N013412200019N0112651N1+00401-00401999999ADDGA1041+013501999GA2021+015001999GA3041+018001999GF104991999999999999999999MA1098211999999OC101901REMMET069METAR ENSO 221850Z 13026G37KT 9999 FEW055 SCT045 SCT060 04/M04 Q0982;
0155010014999992009012219204+59783+005350FM-15+0049ENSO V0201301N013410150019N0112651N1+00501-00401999999ADDGA1021+010501999GA2071+015001999GF107991999999999999999999MA1098211999999OC101951REMMET062METAR ENSO 221920Z 13026G38KT 9999 FEW035 BKN050 05/M04 Q0982;
0155010014999992009012219504+59783+005350FM-15+0049ENSO V0201301N014410150019N0112651N1+00501-00401999999ADDGA1021+010501999GA2071+015001999GF107991999999999999999999MA1098211999999OC102261REMMET062METAR ENSO 221950Z 13028G44KT 9999 FEW035 BKN050 05/M04 Q0982;
0144010014999992009012309504+59783+005350FM-15+0049ENSO V0201201N005710180019N0112651N1+00501-00301999999ADDGA1041+012001999GA2071+018001999GF107991999999999999999999MA1097901999999REMMET059METAR ENSO 230950Z 12011KT 9999 SCT040 BKN060 05/M03 Q0979;
0144010014999992009012310204+59783+005350FM-15+0049ENSO V0201101N005710450019N0112651N1+00501-00301999999ADDGA1041+012001999GA2071+045001999GF107991999999999999999999MA1097901999999REMMET059METAR ENSO 231020Z 11011KT 9999 SCT040 BKN150 05/M03 Q0979;
0144010014999992009012310504+59783+005350FM-15+0049ENSO V0201201N006210150019N0112651N1+00501-00301999999ADDGA1021+005401999GA2071+015001999GF107991999999999999999999MA1097901999999REMMET059METAR ENSO 231050Z 12012KT 9999 FEW018 BKN050 05/M03 Q0979;
0144010014999992009012311204+59783+005350FM-15+0049ENSO V0201101N004110150019N0112651N1+00501-00301999999ADDGA1021+005401999GA2071+015001999GF107991999999999999999999MA1097901999999REMMET059METAR ENSO 231120Z 11008KT 9999 FEW018 BKN050 05/M03 Q0979;
0163010014999992009012311504+59783+005350FM-15+0049ENSO V0201101N007210150019N0112651N1+00501-00301999999ADDGA1021+005401999GA2071+015001999GF107991999999999999999999MA1097801999999OC101231REMMET070METAR ENSO 231150Z 11014G24KT 060V130 9999 FEW018 BKN050 05/M03 Q0978;
0163010014999992009012312204+59783+005350FM-15+0049ENSO V0201001N007710150019N0112651N1+00501-00301999999ADDGA1021+009001999GA2071+015001999GF107991999999999999999999MA1097801999999OC101341REMMET070METAR ENSO 231220Z 10015G26KT 060V120 9999 FEW030 BKN050 05/M03 Q0978;
0163010014999992009012312504+59783+005350FM-15+0049ENSO V0201001N007710150019N0112651N1+00501-00401999999ADDGA1021+009001999GA2071+015001999GF107991999999999999999999MA1097701999999OC101341REMMET070METAR ENSO 231250Z 10015G26KT 060V130 9999 FEW030 BKN050 05/M04 Q0977;
0163010014999992009012313204+59783+005350FM-15+0049ENSO V0201201N007710150019N0112651N1+00501-00301999999ADDGA1021+010501999GA2071+015001999GF107991999999999999999999MA1097801999999OC101291REMMET070METAR ENSO 231320Z 12015G25KT 090V150 9999 FEW035 BKN050 05/M03 Q0978;
0152010014999992009012314504+59783+005350FM-15+0049ENSO V0201101N006710150019N0112651N1+00501-00301999999ADDGA1021+010501999GA2071+015001999GF107991999999999999999999MA1097701999999REMMET067METAR ENSO 231450Z 11013KT 090V150 9999 FEW035 BKN050 05/M03 Q0977;
0155010014999992009012315204+59783+005350FM-15+0049ENSO V0201101N008210150019N0112651N1+00501-00401999999ADDGA1021+010501999GA2071+015001999GF107991999999999999999999MA1097701999999OC101341REMMET062METAR ENSO 231520Z 11016G26KT 9999 FEW035 BKN050 05/M04 Q0977;
0144010014999992009012315504+59783+005350FM-15+0049ENSO V0201001N009810150019N0112651N1+00401-00301999999ADDGA1021+010501999GA2071+015001999GF107991999999999999999999MA1097801999999REMMET059METAR ENSO 231550Z 10019KT 9999 FEW035 BKN050 04/M03 Q0978;
0073010014999992009012513504+59783+005350FM-15+0049ENSO V0201101N00621220001CN0099001N1+00401-00201999999ADDMA1099391999999REMMET046METAR ENSO 251350Z 11012KT CAVOK 04/M02 Q0994;
0073010014999992009012514204+59783+005350FM-15+0049ENSO V0201201N00571220001CN0099001N1+00401-00201999999ADDMA1099391999999REMMET046METAR ENSO 251420Z 12011KT CAVOK 04/M02 Q0994;
0073010014999992009012514504+59783+005350FM-15+0049ENSO V0201101N00571220001CN0099001N1+00401-00201999999ADDMA1099391999999REMMET046METAR ENSO 251450Z 11011KT CAVOK 04/M02 Q0994;
0073010014999992009012515204+59783+005350FM-15+0049ENSO V0201101N00571220001CN0099001N1+00401-00201999999ADDMA1099491999999REMMET046METAR ENSO 251520Z 11011KT CAVOK 04/M02 Q0995;
0073010014999992009012515504+59783+005350FM-15+0049ENSO V0201001N00621220001CN0099001N1+00401-00301999999ADDMA1099491999999REMMET046METAR ENSO 251550Z 10012KT CAVOK 04/M03 Q0995;
0081010014999992009012516204+59783+005350FM-15+0049ENSO V0201101N00671220001CN0099001N1+00401-00401999999ADDMA1099491999999REMMET054METAR ENSO 251620Z 11013KT 090V150 CAVOK 04/M04 Q0995;
0073010014999992009012516504+59783+005350FM-15+0049ENSO V0201001N00621220001CN0099001N1+00401-00401999999ADDMA1099491999999REMMET046METAR ENSO 251650Z 10012KT CAVOK 04/M04 Q0995;
0073010014999992009012517204+59783+005350FM-15+0049ENSO V0201101N00671220001CN0099001N1+00401-00301999999ADDMA1099491999999REMMET046METAR ENSO 251720Z 11013KT CAVOK 04/M03 Q0995;
0073010014999992009012517504+59783+005350FM-15+0049ENSO V0201201N00621220001CN0099001N1+00501-00401999999ADDMA1099491999999REMMET046METAR ENSO 251750Z 12012KT CAVOK 05/M04 Q0995;
0073010014999992009012518204+59783+005350FM-15+0049ENSO V0201101N00671220001CN0099001N1+00501-00401999999ADDMA1099491999999REMMET046METAR ENSO 251820Z 11013KT CAVOK 05/M04 Q0995;
0081010014999992009012604504+59783+005350FM-15+0049ENSO V0201201N005712200019N9999999N1+00601-00401999999ADDMA1100201999999REMMET054METAR ENSO 260450Z 12011KT FEW040 BKN060 06/M04 Q1002;
0113010014999992009012605204+59783+005350FM-15+0049ENSO V0201101N006219999999N9999999N1+00501-00501999999ADDKA1999M+99999MA1100201999999REMMET054METAR ENSO 260520Z 11012KT FEW040 BKN060 05/M05 Q1002;EQDQ01 -00122ATMX  
0081010014999992009012605504+59783+005350FM-15+0049ENSO V0201201N005712200019N9999999N1+00501-00401999999ADDMA1100201999999REMMET054METAR ENSO 260550Z 12011KT FEW040 BKN060 05/M04 Q1002;
0081010014999992009012606204+59783+005350FM-15+0049ENSO V0201201N005712200019N9999999N1+00501-00401999999ADDMA1100201999999REMMET054METAR ENSO 260620Z 12011KT FEW040 BKN080 05/M04 Q1002;
0081010014999992009012606504+59783+005350FM-15+0049ENSO V0201301N004612200019N9999999N1+00501-00401999999ADDMA1100301999999REMMET054METAR ENSO 260650Z 13009KT FEW040 BKN080 05/M04 Q1003;
0081010014999992009012607204+59783+005350FM-15+0049ENSO V0201301N004112200019N9999999N1+00501-00401999999ADDMA1100301999999REMMET054METAR ENSO 260720Z 13008KT FEW040 BKN090 05/M04 Q1003;
0152010014999992009012607504+59783+005350FM-15+0049ENSO V0201501N003610270019N0112651N1+00501-00401999999ADDGA1021+012001999GA2071+027001999GF107991999999999999999999MA1100311999999REMMET067METAR ENSO 260750Z 15007KT 120V180 9999 FEW040 BKN090 05/M04 Q1003;
0152010014999992009012608204+59783+005350FM-15+0049ENSO V0201501N003610270019N0112651N1+00501-00301999999ADDGA1021+012001999GA2071+027001999GF107991999999999999999999MA1100411999999REMMET067METAR ENSO 260820Z 15007KT 120V180 9999 FEW040 BKN090 05/M03 Q1004;
0073010014999992009012608504+59783+005350FM-15+0049ENSO V0201501N00411220001CN0099001N1+00501-00301999999ADDMA1100411999999REMMET046METAR ENSO 260850Z 15008KT CAVOK 05/M03 Q1004;
